{
	"contracts/smart_contract.sol": {
		"Scheme": {
			"abi": [
				{
					"constant": false,
					"inputs": [],
					"name": "end_transaction",
					"outputs": [],
					"payable": false,
					"stateMutability": "nonpayable",
					"type": "function"
				},
				{
					"constant": false,
					"inputs": [
						{
							"name": "PubKey",
							"type": "string"
						}
					],
					"name": "upload_pubkey_buyer",
					"outputs": [],
					"payable": false,
					"stateMutability": "nonpayable",
					"type": "function"
				},
				{
					"constant": true,
					"inputs": [
						{
							"name": "AccountOrContract",
							"type": "address"
						}
					],
					"name": "get_balance",
					"outputs": [
						{
							"name": "",
							"type": "uint256"
						}
					],
					"payable": false,
					"stateMutability": "view",
					"type": "function"
				},
				{
					"constant": true,
					"inputs": [],
					"name": "CalHash",
					"outputs": [
						{
							"name": "",
							"type": "string"
						}
					],
					"payable": false,
					"stateMutability": "view",
					"type": "function"
				},
				{
					"constant": true,
					"inputs": [],
					"name": "CurrTimeInSeconds",
					"outputs": [
						{
							"name": "",
							"type": "uint256"
						}
					],
					"payable": false,
					"stateMutability": "view",
					"type": "function"
				},
				{
					"constant": true,
					"inputs": [],
					"name": "view_second",
					"outputs": [
						{
							"name": "",
							"type": "uint256"
						}
					],
					"payable": false,
					"stateMutability": "view",
					"type": "function"
				},
				{
					"constant": false,
					"inputs": [
						{
							"name": "HashData",
							"type": "string"
						}
					],
					"name": "upload_hash_data",
					"outputs": [],
					"payable": false,
					"stateMutability": "nonpayable",
					"type": "function"
				},
				{
					"constant": false,
					"inputs": [
						{
							"name": "Verify",
							"type": "bool"
						}
					],
					"name": "report_verify",
					"outputs": [],
					"payable": false,
					"stateMutability": "nonpayable",
					"type": "function"
				},
				{
					"constant": false,
					"inputs": [],
					"name": "send_deposit",
					"outputs": [
						{
							"name": "",
							"type": "bool"
						}
					],
					"payable": true,
					"stateMutability": "payable",
					"type": "function"
				},
				{
					"constant": true,
					"inputs": [],
					"name": "show_reason",
					"outputs": [
						{
							"name": "",
							"type": "string"
						}
					],
					"payable": false,
					"stateMutability": "view",
					"type": "function"
				},
				{
					"constant": true,
					"inputs": [],
					"name": "get_hash_data",
					"outputs": [
						{
							"name": "",
							"type": "string"
						}
					],
					"payable": false,
					"stateMutability": "view",
					"type": "function"
				},
				{
					"constant": true,
					"inputs": [],
					"name": "AddressVerify",
					"outputs": [
						{
							"name": "",
							"type": "address"
						}
					],
					"payable": false,
					"stateMutability": "view",
					"type": "function"
				},
				{
					"constant": false,
					"inputs": [
						{
							"name": "EnKey",
							"type": "string"
						}
					],
					"name": "upload_encryptedkey",
					"outputs": [],
					"payable": false,
					"stateMutability": "nonpayable",
					"type": "function"
				},
				{
					"constant": true,
					"inputs": [],
					"name": "show_evidence_reason",
					"outputs": [
						{
							"name": "",
							"type": "string"
						},
						{
							"name": "",
							"type": "string"
						}
					],
					"payable": false,
					"stateMutability": "view",
					"type": "function"
				},
				{
					"constant": false,
					"inputs": [
						{
							"name": "Amount",
							"type": "uint256"
						}
					],
					"name": "set_amount",
					"outputs": [],
					"payable": false,
					"stateMutability": "nonpayable",
					"type": "function"
				},
				{
					"constant": true,
					"inputs": [],
					"name": "get_amount",
					"outputs": [
						{
							"name": "",
							"type": "uint256"
						}
					],
					"payable": false,
					"stateMutability": "view",
					"type": "function"
				},
				{
					"constant": true,
					"inputs": [],
					"name": "AddressBuyer",
					"outputs": [
						{
							"name": "",
							"type": "address"
						}
					],
					"payable": false,
					"stateMutability": "view",
					"type": "function"
				},
				{
					"constant": false,
					"inputs": [
						{
							"name": "Evidence",
							"type": "string"
						},
						{
							"name": "Reason",
							"type": "string"
						}
					],
					"name": "report_send",
					"outputs": [],
					"payable": false,
					"stateMutability": "nonpayable",
					"type": "function"
				},
				{
					"constant": true,
					"inputs": [],
					"name": "AddressPay",
					"outputs": [
						{
							"name": "",
							"type": "address"
						}
					],
					"payable": false,
					"stateMutability": "view",
					"type": "function"
				},
				{
					"constant": true,
					"inputs": [],
					"name": "get_pubkeyB",
					"outputs": [
						{
							"name": "",
							"type": "string"
						}
					],
					"payable": false,
					"stateMutability": "view",
					"type": "function"
				},
				{
					"constant": true,
					"inputs": [],
					"name": "view_first",
					"outputs": [
						{
							"name": "",
							"type": "uint256"
						}
					],
					"payable": false,
					"stateMutability": "view",
					"type": "function"
				},
				{
					"constant": false,
					"inputs": [
						{
							"name": "HashKey",
							"type": "string"
						}
					],
					"name": "upload_hash_key",
					"outputs": [],
					"payable": false,
					"stateMutability": "nonpayable",
					"type": "function"
				},
				{
					"constant": true,
					"inputs": [],
					"name": "view_third",
					"outputs": [
						{
							"name": "",
							"type": "uint256"
						}
					],
					"payable": false,
					"stateMutability": "view",
					"type": "function"
				},
				{
					"constant": true,
					"inputs": [],
					"name": "DataAddress",
					"outputs": [
						{
							"name": "",
							"type": "string"
						}
					],
					"payable": false,
					"stateMutability": "view",
					"type": "function"
				},
				{
					"constant": false,
					"inputs": [],
					"name": "send_money",
					"outputs": [
						{
							"name": "",
							"type": "bool"
						}
					],
					"payable": true,
					"stateMutability": "payable",
					"type": "function"
				},
				{
					"constant": true,
					"inputs": [],
					"name": "get_enkey",
					"outputs": [
						{
							"name": "",
							"type": "string"
						}
					],
					"payable": false,
					"stateMutability": "view",
					"type": "function"
				},
				{
					"constant": true,
					"inputs": [],
					"name": "get_deposit",
					"outputs": [
						{
							"name": "",
							"type": "uint256"
						}
					],
					"payable": false,
					"stateMutability": "view",
					"type": "function"
				},
				{
					"constant": true,
					"inputs": [],
					"name": "get_hash_key",
					"outputs": [
						{
							"name": "",
							"type": "string"
						}
					],
					"payable": false,
					"stateMutability": "view",
					"type": "function"
				},
				{
					"inputs": [],
					"payable": true,
					"stateMutability": "payable",
					"type": "constructor"
				},
				{
					"anonymous": false,
					"inputs": [
						{
							"indexed": false,
							"name": "",
							"type": "uint256"
						}
					],
					"name": "SetAmountAndDeposit",
					"type": "event"
				},
				{
					"anonymous": false,
					"inputs": [
						{
							"indexed": false,
							"name": "",
							"type": "string"
						}
					],
					"name": "UploadHashData",
					"type": "event"
				},
				{
					"anonymous": false,
					"inputs": [
						{
							"indexed": false,
							"name": "",
							"type": "string"
						}
					],
					"name": "UploadHashKey",
					"type": "event"
				},
				{
					"anonymous": false,
					"inputs": [
						{
							"indexed": false,
							"name": "",
							"type": "uint256"
						},
						{
							"indexed": false,
							"name": "",
							"type": "address"
						}
					],
					"name": "GotMoney",
					"type": "event"
				},
				{
					"anonymous": false,
					"inputs": [
						{
							"indexed": false,
							"name": "",
							"type": "uint256"
						},
						{
							"indexed": false,
							"name": "",
							"type": "address"
						}
					],
					"name": "GotDeposit",
					"type": "event"
				},
				{
					"anonymous": false,
					"inputs": [
						{
							"indexed": false,
							"name": "",
							"type": "string"
						}
					],
					"name": "UploadPubKeyB",
					"type": "event"
				},
				{
					"anonymous": false,
					"inputs": [
						{
							"indexed": false,
							"name": "",
							"type": "string"
						}
					],
					"name": "UploadEncrypedKey",
					"type": "event"
				},
				{
					"anonymous": false,
					"inputs": [
						{
							"indexed": false,
							"name": "",
							"type": "string"
						},
						{
							"indexed": false,
							"name": "",
							"type": "string"
						}
					],
					"name": "GotReport",
					"type": "event"
				},
				{
					"anonymous": false,
					"inputs": [
						{
							"indexed": false,
							"name": "",
							"type": "bool"
						}
					],
					"name": "VerifyResult",
					"type": "event"
				},
				{
					"anonymous": false,
					"inputs": [
						{
							"indexed": false,
							"name": "",
							"type": "bool"
						}
					],
					"name": "TransResult",
					"type": "event"
				}
			],
			"devdoc": {
				"methods": {}
			},
			"evm": {
				"assembly": "    /* \"contracts/smart_contract.sol\":115:15952  contract Scheme {\r... */\n  mstore(0x40, 0x80)\n    /* \"contracts/smart_contract.sol\":600:611  300 seconds */\n  0x12c\n    /* \"contracts/smart_contract.sol\":581:611  uint256 Time_Rep = 300 seconds */\n  0x5\n  sstore\n    /* \"contracts/smart_contract.sol\":700:711  300 seconds */\n  0x12c\n    /* \"contracts/smart_contract.sol\":679:711  uint256 Time_Trans = 300 seconds */\n  0x6\n  sstore\n    /* \"contracts/smart_contract.sol\":1360:1410  string public DataAddress = \"www.cugdatatrade.com\" */\n  0x40\n  dup1\n  mload\n  swap1\n  dup2\n  add\n  0x40\n  mstore\n  dup1\n  0x14\n  dup2\n  mstore\n  0x20\n  add\n  0x7777772e6375676461746174726164652e636f6d000000000000000000000000\n  dup2\n  mstore\n  pop\n  0x10\n  swap1\n  dup1\n  mload\n  swap1\n  0x20\n  add\n  swap1\n  tag_1\n  swap3\n  swap2\n  swap1\n  jump\t// in(tag_2)\ntag_1:\n  pop\n    /* \"contracts/smart_contract.sol\":1445:1529  string public CalHash = \"https://emn178.github.io/online-tools/sha256_checksum.html\" */\n  0x60\n  mload(0x40)\n  swap1\n  dup2\n  add\n  0x40\n  mstore\n  dup1\n  0x3a\n  dup2\n  mstore\n  0x20\n  add\n  0x68747470733a2f2f656d6e3137382e6769746875622e696f2f6f6e6c696e652d\n  dup2\n  mstore\n  0x20\n  add\n  0x746f6f6c732f7368613235365f636865636b73756d2e68746d6c000000000000\n  dup2\n  mstore\n  pop\n  0x11\n  swap1\n  dup1\n  mload\n  swap1\n  0x20\n  add\n  swap1\n  tag_3\n  swap3\n  swap2\n  swap1\n  jump\t// in(tag_2)\ntag_3:\n  pop\n    /* \"contracts/smart_contract.sol\":1590:1595  false */\n  0x0\n    /* \"contracts/smart_contract.sol\":1571:1595  bool Goal_Amount = false */\n  0x12\n  exp(0x100, 0x0)\n  dup2\n  sload\n  dup2\n  0xff\n  mul\n  not\n  and\n  swap1\n  dup4\n  iszero\n  iszero\n  mul\n  or\n  swap1\n  sstore\n  pop\n    /* \"contracts/smart_contract.sol\":1655:1660  false */\n  0x0\n    /* \"contracts/smart_contract.sol\":1634:1660  bool Goal_HashData = false */\n  0x12\n  exp(0x100, 0x1)\n  dup2\n  sload\n  dup2\n  0xff\n  mul\n  not\n  and\n  swap1\n  dup4\n  iszero\n  iszero\n  mul\n  or\n  swap1\n  sstore\n  pop\n    /* \"contracts/smart_contract.sol\":1734:1739  false */\n  0x0\n    /* \"contracts/smart_contract.sol\":1714:1739  bool Goal_HashKey = false */\n  0x12\n  exp(0x100, 0x2)\n  dup2\n  sload\n  dup2\n  0xff\n  mul\n  not\n  and\n  swap1\n  dup4\n  iszero\n  iszero\n  mul\n  or\n  swap1\n  sstore\n  pop\n    /* \"contracts/smart_contract.sol\":1812:1817  false */\n  0x0\n    /* \"contracts/smart_contract.sol\":1792:1817  bool Goal_Deposit = false */\n  0x12\n  exp(0x100, 0x3)\n  dup2\n  sload\n  dup2\n  0xff\n  mul\n  not\n  and\n  swap1\n  dup4\n  iszero\n  iszero\n  mul\n  or\n  swap1\n  sstore\n  pop\n    /* \"contracts/smart_contract.sol\":1876:1881  false */\n  0x0\n    /* \"contracts/smart_contract.sol\":1858:1881  bool Goal_Money = false */\n  0x12\n  exp(0x100, 0x4)\n  dup2\n  sload\n  dup2\n  0xff\n  mul\n  not\n  and\n  swap1\n  dup4\n  iszero\n  iszero\n  mul\n  or\n  swap1\n  sstore\n  pop\n    /* \"contracts/smart_contract.sol\":1939:1944  false */\n  0x0\n    /* \"contracts/smart_contract.sol\":1919:1944  bool Goal_PubKeyB = false */\n  0x12\n  exp(0x100, 0x5)\n  dup2\n  sload\n  dup2\n  0xff\n  mul\n  not\n  and\n  swap1\n  dup4\n  iszero\n  iszero\n  mul\n  or\n  swap1\n  sstore\n  pop\n    /* \"contracts/smart_contract.sol\":2003:2008  false */\n  0x0\n    /* \"contracts/smart_contract.sol\":1987:2008  bool Goal_EnK = false */\n  0x12\n  exp(0x100, 0x6)\n  dup2\n  sload\n  dup2\n  0xff\n  mul\n  not\n  and\n  swap1\n  dup4\n  iszero\n  iszero\n  mul\n  or\n  swap1\n  sstore\n  pop\n    /* \"contracts/smart_contract.sol\":2074:2079  false */\n  0x0\n    /* \"contracts/smart_contract.sol\":2055:2079  bool Goal_GotRep = false */\n  0x12\n  exp(0x100, 0x7)\n  dup2\n  sload\n  dup2\n  0xff\n  mul\n  not\n  and\n  swap1\n  dup4\n  iszero\n  iszero\n  mul\n  or\n  swap1\n  sstore\n  pop\n    /* \"contracts/smart_contract.sol\":2136:2141  false */\n  0x0\n    /* \"contracts/smart_contract.sol\":2117:2141  bool Goal_Verify = false */\n  0x12\n  exp(0x100, 0x8)\n  dup2\n  sload\n  dup2\n  0xff\n  mul\n  not\n  and\n  swap1\n  dup4\n  iszero\n  iszero\n  mul\n  or\n  swap1\n  sstore\n  pop\n    /* \"contracts/smart_contract.sol\":2209:2214  false */\n  0x0\n    /* \"contracts/smart_contract.sol\":2189:2214  bool Goal_Success = false */\n  0x12\n  exp(0x100, 0x9)\n  dup2\n  sload\n  dup2\n  0xff\n  mul\n  not\n  and\n  swap1\n  dup4\n  iszero\n  iszero\n  mul\n  or\n  swap1\n  sstore\n  pop\n    /* \"contracts/smart_contract.sol\":2279:2284  false */\n  0x0\n    /* \"contracts/smart_contract.sol\":2261:2284  bool Goal_First = false */\n  0x12\n  exp(0x100, 0xa)\n  dup2\n  sload\n  dup2\n  0xff\n  mul\n  not\n  and\n  swap1\n  dup4\n  iszero\n  iszero\n  mul\n  or\n  swap1\n  sstore\n  pop\n    /* \"contracts/smart_contract.sol\":2354:2359  false */\n  0x0\n    /* \"contracts/smart_contract.sol\":2335:2359  bool Goal_Second = false */\n  0x12\n  exp(0x100, 0xb)\n  dup2\n  sload\n  dup2\n  0xff\n  mul\n  not\n  and\n  swap1\n  dup4\n  iszero\n  iszero\n  mul\n  or\n  swap1\n  sstore\n  pop\n    /* \"contracts/smart_contract.sol\":2429:2434  false */\n  0x0\n    /* \"contracts/smart_contract.sol\":2411:2434  bool Goal_Third = false */\n  0x12\n  exp(0x100, 0xc)\n  dup2\n  sload\n  dup2\n  0xff\n  mul\n  not\n  and\n  swap1\n  dup4\n  iszero\n  iszero\n  mul\n  or\n  swap1\n  sstore\n  pop\n    /* \"contracts/smart_contract.sol\":2993:3003  msg.sender */\n  caller\n    /* \"contracts/smart_contract.sol\":2980:2990  AddressPay */\n  0xd\n  0x0\n    /* \"contracts/smart_contract.sol\":2980:3003  AddressPay = msg.sender */\n  0x100\n  exp\n  dup2\n  sload\n  dup2\n  0xffffffffffffffffffffffffffffffffffffffff\n  mul\n  not\n  and\n  swap1\n  dup4\n  0xffffffffffffffffffffffffffffffffffffffff\n  and\n  mul\n  or\n  swap1\n  sstore\n  pop\n    /* \"contracts/smart_contract.sol\":115:15952  contract Scheme {\r... */\n  jump(tag_6)\ntag_2:\n  dup3\n  dup1\n  sload\n  0x1\n  dup2\n  0x1\n  and\n  iszero\n  0x100\n  mul\n  sub\n  and\n  0x2\n  swap1\n  div\n  swap1\n  0x0\n  mstore\n  keccak256(0x0, 0x20)\n  swap1\n  0x1f\n  add\n  0x20\n  swap1\n  div\n  dup2\n  add\n  swap3\n  dup3\n  0x1f\n  lt\n  tag_8\n  jumpi\n  dup1\n  mload\n  not(0xff)\n  and\n  dup4\n  dup1\n  add\n  or\n  dup6\n  sstore\n  jump(tag_7)\ntag_8:\n  dup3\n  dup1\n  add\n  0x1\n  add\n  dup6\n  sstore\n  dup3\n  iszero\n  tag_7\n  jumpi\n  swap2\n  dup3\n  add\ntag_9:\n  dup3\n  dup2\n  gt\n  iszero\n  tag_10\n  jumpi\n  dup3\n  mload\n  dup3\n  sstore\n  swap2\n  0x20\n  add\n  swap2\n  swap1\n  0x1\n  add\n  swap1\n  jump(tag_9)\ntag_10:\ntag_7:\n  pop\n  swap1\n  pop\n  tag_11\n  swap2\n  swap1\n  jump\t// in(tag_12)\ntag_11:\n  pop\n  swap1\n  jump\t// out\ntag_12:\n  tag_13\n  swap2\n  swap1\ntag_14:\n  dup1\n  dup3\n  gt\n  iszero\n  tag_15\n  jumpi\n  0x0\n  dup2\n  0x0\n  swap1\n  sstore\n  pop\n  0x1\n  add\n  jump(tag_14)\ntag_15:\n  pop\n  swap1\n  jump\ntag_13:\n  swap1\n  jump\t// out\ntag_6:\n  dataSize(sub_0)\n  dup1\n  dataOffset(sub_0)\n  0x0\n  codecopy\n  0x0\n  return\nstop\n\nsub_0: assembly {\n        /* \"contracts/smart_contract.sol\":115:15952  contract Scheme {\r... */\n      mstore(0x40, 0x80)\n      jumpi(tag_1, lt(calldatasize, 0x4))\n      calldataload(0x0)\n      0x100000000000000000000000000000000000000000000000000000000\n      swap1\n      div\n      0xffffffff\n      and\n      dup1\n      0xa7efc5f\n      eq\n      tag_2\n      jumpi\n      dup1\n      0x1ae85959\n      eq\n      tag_3\n      jumpi\n      dup1\n      0x1e279a37\n      eq\n      tag_4\n      jumpi\n      dup1\n      0x2cd88774\n      eq\n      tag_5\n      jumpi\n      dup1\n      0x6cbacea3\n      eq\n      tag_6\n      jumpi\n      dup1\n      0x706f6c5e\n      eq\n      tag_7\n      jumpi\n      dup1\n      0x7958f7d5\n      eq\n      tag_8\n      jumpi\n      dup1\n      0x882851bf\n      eq\n      tag_9\n      jumpi\n      dup1\n      0x8c7c79b5\n      eq\n      tag_10\n      jumpi\n      dup1\n      0x8d2d7288\n      eq\n      tag_11\n      jumpi\n      dup1\n      0x96eec3cd\n      eq\n      tag_12\n      jumpi\n      dup1\n      0xa0635b66\n      eq\n      tag_13\n      jumpi\n      dup1\n      0xa1d91791\n      eq\n      tag_14\n      jumpi\n      dup1\n      0xa85ceb3c\n      eq\n      tag_15\n      jumpi\n      dup1\n      0xab8425d8\n      eq\n      tag_16\n      jumpi\n      dup1\n      0xb9e6f1d9\n      eq\n      tag_17\n      jumpi\n      dup1\n      0xcc0babc8\n      eq\n      tag_18\n      jumpi\n      dup1\n      0xcd9e32bc\n      eq\n      tag_19\n      jumpi\n      dup1\n      0xda9e8919\n      eq\n      tag_20\n      jumpi\n      dup1\n      0xdc2457f9\n      eq\n      tag_21\n      jumpi\n      dup1\n      0xdec030e4\n      eq\n      tag_22\n      jumpi\n      dup1\n      0xe0bfebe7\n      eq\n      tag_23\n      jumpi\n      dup1\n      0xea5d2f0f\n      eq\n      tag_24\n      jumpi\n      dup1\n      0xf0a7c5f9\n      eq\n      tag_25\n      jumpi\n      dup1\n      0xf1e0bdf4\n      eq\n      tag_26\n      jumpi\n      dup1\n      0xf36fc111\n      eq\n      tag_27\n      jumpi\n      dup1\n      0xf59d8864\n      eq\n      tag_28\n      jumpi\n      dup1\n      0xf73df8fd\n      eq\n      tag_29\n      jumpi\n    tag_1:\n      0x0\n      dup1\n      revert\n        /* \"contracts/smart_contract.sol\":13589:15947  function end_transaction () public {\r... */\n    tag_2:\n      callvalue\n        /* \"--CODEGEN--\":8:17   */\n      dup1\n        /* \"--CODEGEN--\":5:7   */\n      iszero\n      tag_30\n      jumpi\n        /* \"--CODEGEN--\":30:31   */\n      0x0\n        /* \"--CODEGEN--\":27:28   */\n      dup1\n        /* \"--CODEGEN--\":20:32   */\n      revert\n        /* \"--CODEGEN--\":5:7   */\n    tag_30:\n        /* \"contracts/smart_contract.sol\":13589:15947  function end_transaction () public {\r... */\n      pop\n      tag_31\n      jump(tag_32)\n    tag_31:\n      stop\n        /* \"contracts/smart_contract.sol\":10206:10760  function upload_pubkey_buyer (string PubKey) public {\r... */\n    tag_3:\n      callvalue\n        /* \"--CODEGEN--\":8:17   */\n      dup1\n        /* \"--CODEGEN--\":5:7   */\n      iszero\n      tag_33\n      jumpi\n        /* \"--CODEGEN--\":30:31   */\n      0x0\n        /* \"--CODEGEN--\":27:28   */\n      dup1\n        /* \"--CODEGEN--\":20:32   */\n      revert\n        /* \"--CODEGEN--\":5:7   */\n    tag_33:\n        /* \"contracts/smart_contract.sol\":10206:10760  function upload_pubkey_buyer (string PubKey) public {\r... */\n      pop\n      tag_34\n      0x4\n      dup1\n      calldatasize\n      sub\n      dup2\n      add\n      swap1\n      dup1\n      dup1\n      calldataload\n      swap1\n      0x20\n      add\n      swap1\n      dup3\n      add\n      dup1\n      calldataload\n      swap1\n      0x20\n      add\n      swap1\n      dup1\n      dup1\n      0x1f\n      add\n      0x20\n      dup1\n      swap2\n      div\n      mul\n      0x20\n      add\n      mload(0x40)\n      swap1\n      dup2\n      add\n      0x40\n      mstore\n      dup1\n      swap4\n      swap3\n      swap2\n      swap1\n      dup2\n      dup2\n      mstore\n      0x20\n      add\n      dup4\n      dup4\n      dup1\n      dup3\n      dup5\n      calldatacopy\n      dup3\n      add\n      swap2\n      pop\n      pop\n      pop\n      pop\n      pop\n      pop\n      swap2\n      swap3\n      swap2\n      swap3\n      swap1\n      pop\n      pop\n      pop\n      jump(tag_35)\n    tag_34:\n      stop\n        /* \"contracts/smart_contract.sol\":6491:6617  function get_balance (address AccountOrContract) view public returns(uint) {\r... */\n    tag_4:\n      callvalue\n        /* \"--CODEGEN--\":8:17   */\n      dup1\n        /* \"--CODEGEN--\":5:7   */\n      iszero\n      tag_36\n      jumpi\n        /* \"--CODEGEN--\":30:31   */\n      0x0\n        /* \"--CODEGEN--\":27:28   */\n      dup1\n        /* \"--CODEGEN--\":20:32   */\n      revert\n        /* \"--CODEGEN--\":5:7   */\n    tag_36:\n        /* \"contracts/smart_contract.sol\":6491:6617  function get_balance (address AccountOrContract) view public returns(uint) {\r... */\n      pop\n      tag_37\n      0x4\n      dup1\n      calldatasize\n      sub\n      dup2\n      add\n      swap1\n      dup1\n      dup1\n      calldataload\n      0xffffffffffffffffffffffffffffffffffffffff\n      and\n      swap1\n      0x20\n      add\n      swap1\n      swap3\n      swap2\n      swap1\n      pop\n      pop\n      pop\n      jump(tag_38)\n    tag_37:\n      mload(0x40)\n      dup1\n      dup3\n      dup2\n      mstore\n      0x20\n      add\n      swap2\n      pop\n      pop\n      mload(0x40)\n      dup1\n      swap2\n      sub\n      swap1\n      return\n        /* \"contracts/smart_contract.sol\":1445:1529  string public CalHash = \"https://emn178.github.io/online-tools/sha256_checksum.html\" */\n    tag_5:\n      callvalue\n        /* \"--CODEGEN--\":8:17   */\n      dup1\n        /* \"--CODEGEN--\":5:7   */\n      iszero\n      tag_39\n      jumpi\n        /* \"--CODEGEN--\":30:31   */\n      0x0\n        /* \"--CODEGEN--\":27:28   */\n      dup1\n        /* \"--CODEGEN--\":20:32   */\n      revert\n        /* \"--CODEGEN--\":5:7   */\n    tag_39:\n        /* \"contracts/smart_contract.sol\":1445:1529  string public CalHash = \"https://emn178.github.io/online-tools/sha256_checksum.html\" */\n      pop\n      tag_40\n      jump(tag_41)\n    tag_40:\n      mload(0x40)\n      dup1\n      dup1\n      0x20\n      add\n      dup3\n      dup2\n      sub\n      dup3\n      mstore\n      dup4\n      dup2\n      dup2\n      mload\n      dup2\n      mstore\n      0x20\n      add\n      swap2\n      pop\n      dup1\n      mload\n      swap1\n      0x20\n      add\n      swap1\n      dup1\n      dup4\n      dup4\n        /* \"--CODEGEN--\":23:24   */\n      0x0\n        /* \"--CODEGEN--\":8:108   */\n    tag_42:\n        /* \"--CODEGEN--\":33:36   */\n      dup4\n        /* \"--CODEGEN--\":30:31   */\n      dup2\n        /* \"--CODEGEN--\":27:37   */\n      lt\n        /* \"--CODEGEN--\":8:108   */\n      iszero\n      tag_43\n      jumpi\n        /* \"--CODEGEN--\":99:100   */\n      dup1\n        /* \"--CODEGEN--\":94:97   */\n      dup3\n        /* \"--CODEGEN--\":90:101   */\n      add\n        /* \"--CODEGEN--\":84:102   */\n      mload\n        /* \"--CODEGEN--\":80:81   */\n      dup2\n        /* \"--CODEGEN--\":75:78   */\n      dup5\n        /* \"--CODEGEN--\":71:82   */\n      add\n        /* \"--CODEGEN--\":64:103   */\n      mstore\n        /* \"--CODEGEN--\":52:54   */\n      0x20\n        /* \"--CODEGEN--\":49:50   */\n      dup2\n        /* \"--CODEGEN--\":45:55   */\n      add\n        /* \"--CODEGEN--\":40:55   */\n      swap1\n      pop\n        /* \"--CODEGEN--\":8:108   */\n      jump(tag_42)\n    tag_43:\n        /* \"--CODEGEN--\":12:26   */\n      pop\n        /* \"contracts/smart_contract.sol\":1445:1529  string public CalHash = \"https://emn178.github.io/online-tools/sha256_checksum.html\" */\n      pop\n      pop\n      pop\n      swap1\n      pop\n      swap1\n      dup2\n      add\n      swap1\n      0x1f\n      and\n      dup1\n      iszero\n      tag_45\n      jumpi\n      dup1\n      dup3\n      sub\n      dup1\n      mload\n      0x1\n      dup4\n      0x20\n      sub\n      0x100\n      exp\n      sub\n      not\n      and\n      dup2\n      mstore\n      0x20\n      add\n      swap2\n      pop\n    tag_45:\n      pop\n      swap3\n      pop\n      pop\n      pop\n      mload(0x40)\n      dup1\n      swap2\n      sub\n      swap1\n      return\n        /* \"contracts/smart_contract.sol\":3048:3136  function CurrTimeInSeconds() public view returns (uint256) {\r... */\n    tag_6:\n      callvalue\n        /* \"--CODEGEN--\":8:17   */\n      dup1\n        /* \"--CODEGEN--\":5:7   */\n      iszero\n      tag_46\n      jumpi\n        /* \"--CODEGEN--\":30:31   */\n      0x0\n        /* \"--CODEGEN--\":27:28   */\n      dup1\n        /* \"--CODEGEN--\":20:32   */\n      revert\n        /* \"--CODEGEN--\":5:7   */\n    tag_46:\n        /* \"contracts/smart_contract.sol\":3048:3136  function CurrTimeInSeconds() public view returns (uint256) {\r... */\n      pop\n      tag_47\n      jump(tag_48)\n    tag_47:\n      mload(0x40)\n      dup1\n      dup3\n      dup2\n      mstore\n      0x20\n      add\n      swap2\n      pop\n      pop\n      mload(0x40)\n      dup1\n      swap2\n      sub\n      swap1\n      return\n        /* \"contracts/smart_contract.sol\":5820:5910  function view_second () public view returns (uint256){\r... */\n    tag_7:\n      callvalue\n        /* \"--CODEGEN--\":8:17   */\n      dup1\n        /* \"--CODEGEN--\":5:7   */\n      iszero\n      tag_49\n      jumpi\n        /* \"--CODEGEN--\":30:31   */\n      0x0\n        /* \"--CODEGEN--\":27:28   */\n      dup1\n        /* \"--CODEGEN--\":20:32   */\n      revert\n        /* \"--CODEGEN--\":5:7   */\n    tag_49:\n        /* \"contracts/smart_contract.sol\":5820:5910  function view_second () public view returns (uint256){\r... */\n      pop\n      tag_50\n      jump(tag_51)\n    tag_50:\n      mload(0x40)\n      dup1\n      dup3\n      dup2\n      mstore\n      0x20\n      add\n      swap2\n      pop\n      pop\n      mload(0x40)\n      dup1\n      swap2\n      sub\n      swap1\n      return\n        /* \"contracts/smart_contract.sol\":7109:7672  function upload_hash_data (string HashData) public {\r... */\n    tag_8:\n      callvalue\n        /* \"--CODEGEN--\":8:17   */\n      dup1\n        /* \"--CODEGEN--\":5:7   */\n      iszero\n      tag_52\n      jumpi\n        /* \"--CODEGEN--\":30:31   */\n      0x0\n        /* \"--CODEGEN--\":27:28   */\n      dup1\n        /* \"--CODEGEN--\":20:32   */\n      revert\n        /* \"--CODEGEN--\":5:7   */\n    tag_52:\n        /* \"contracts/smart_contract.sol\":7109:7672  function upload_hash_data (string HashData) public {\r... */\n      pop\n      tag_53\n      0x4\n      dup1\n      calldatasize\n      sub\n      dup2\n      add\n      swap1\n      dup1\n      dup1\n      calldataload\n      swap1\n      0x20\n      add\n      swap1\n      dup3\n      add\n      dup1\n      calldataload\n      swap1\n      0x20\n      add\n      swap1\n      dup1\n      dup1\n      0x1f\n      add\n      0x20\n      dup1\n      swap2\n      div\n      mul\n      0x20\n      add\n      mload(0x40)\n      swap1\n      dup2\n      add\n      0x40\n      mstore\n      dup1\n      swap4\n      swap3\n      swap2\n      swap1\n      dup2\n      dup2\n      mstore\n      0x20\n      add\n      dup4\n      dup4\n      dup1\n      dup3\n      dup5\n      calldatacopy\n      dup3\n      add\n      swap2\n      pop\n      pop\n      pop\n      pop\n      pop\n      pop\n      swap2\n      swap3\n      swap2\n      swap3\n      swap1\n      pop\n      pop\n      pop\n      jump(tag_54)\n    tag_53:\n      stop\n        /* \"contracts/smart_contract.sol\":12910:13469  function report_verify (bool Verify) public {\r... */\n    tag_9:\n      callvalue\n        /* \"--CODEGEN--\":8:17   */\n      dup1\n        /* \"--CODEGEN--\":5:7   */\n      iszero\n      tag_55\n      jumpi\n        /* \"--CODEGEN--\":30:31   */\n      0x0\n        /* \"--CODEGEN--\":27:28   */\n      dup1\n        /* \"--CODEGEN--\":20:32   */\n      revert\n        /* \"--CODEGEN--\":5:7   */\n    tag_55:\n        /* \"contracts/smart_contract.sol\":12910:13469  function report_verify (bool Verify) public {\r... */\n      pop\n      tag_56\n      0x4\n      dup1\n      calldatasize\n      sub\n      dup2\n      add\n      swap1\n      dup1\n      dup1\n      calldataload\n      iszero\n      iszero\n      swap1\n      0x20\n      add\n      swap1\n      swap3\n      swap2\n      swap1\n      pop\n      pop\n      pop\n      jump(tag_57)\n    tag_56:\n      stop\n        /* \"contracts/smart_contract.sol\":8367:9234  function send_deposit () public payable returns(bool) {\r... */\n    tag_10:\n      tag_58\n      jump(tag_59)\n    tag_58:\n      mload(0x40)\n      dup1\n      dup3\n      iszero\n      iszero\n      iszero\n      iszero\n      dup2\n      mstore\n      0x20\n      add\n      swap2\n      pop\n      pop\n      mload(0x40)\n      dup1\n      swap2\n      sub\n      swap1\n      return\n        /* \"contracts/smart_contract.sol\":6276:6434  function show_reason () pure public returns(string) {\r... */\n    tag_11:\n      callvalue\n        /* \"--CODEGEN--\":8:17   */\n      dup1\n        /* \"--CODEGEN--\":5:7   */\n      iszero\n      tag_60\n      jumpi\n        /* \"--CODEGEN--\":30:31   */\n      0x0\n        /* \"--CODEGEN--\":27:28   */\n      dup1\n        /* \"--CODEGEN--\":20:32   */\n      revert\n        /* \"--CODEGEN--\":5:7   */\n    tag_60:\n        /* \"contracts/smart_contract.sol\":6276:6434  function show_reason () pure public returns(string) {\r... */\n      pop\n      tag_61\n      jump(tag_62)\n    tag_61:\n      mload(0x40)\n      dup1\n      dup1\n      0x20\n      add\n      dup3\n      dup2\n      sub\n      dup3\n      mstore\n      dup4\n      dup2\n      dup2\n      mload\n      dup2\n      mstore\n      0x20\n      add\n      swap2\n      pop\n      dup1\n      mload\n      swap1\n      0x20\n      add\n      swap1\n      dup1\n      dup4\n      dup4\n        /* \"--CODEGEN--\":23:24   */\n      0x0\n        /* \"--CODEGEN--\":8:108   */\n    tag_63:\n        /* \"--CODEGEN--\":33:36   */\n      dup4\n        /* \"--CODEGEN--\":30:31   */\n      dup2\n        /* \"--CODEGEN--\":27:37   */\n      lt\n        /* \"--CODEGEN--\":8:108   */\n      iszero\n      tag_64\n      jumpi\n        /* \"--CODEGEN--\":99:100   */\n      dup1\n        /* \"--CODEGEN--\":94:97   */\n      dup3\n        /* \"--CODEGEN--\":90:101   */\n      add\n        /* \"--CODEGEN--\":84:102   */\n      mload\n        /* \"--CODEGEN--\":80:81   */\n      dup2\n        /* \"--CODEGEN--\":75:78   */\n      dup5\n        /* \"--CODEGEN--\":71:82   */\n      add\n        /* \"--CODEGEN--\":64:103   */\n      mstore\n        /* \"--CODEGEN--\":52:54   */\n      0x20\n        /* \"--CODEGEN--\":49:50   */\n      dup2\n        /* \"--CODEGEN--\":45:55   */\n      add\n        /* \"--CODEGEN--\":40:55   */\n      swap1\n      pop\n        /* \"--CODEGEN--\":8:108   */\n      jump(tag_63)\n    tag_64:\n        /* \"--CODEGEN--\":12:26   */\n      pop\n        /* \"contracts/smart_contract.sol\":6276:6434  function show_reason () pure public returns(string) {\r... */\n      pop\n      pop\n      pop\n      swap1\n      pop\n      swap1\n      dup2\n      add\n      swap1\n      0x1f\n      and\n      dup1\n      iszero\n      tag_66\n      jumpi\n      dup1\n      dup3\n      sub\n      dup1\n      mload\n      0x1\n      dup4\n      0x20\n      sub\n      0x100\n      exp\n      sub\n      not\n      and\n      dup2\n      mstore\n      0x20\n      add\n      swap2\n      pop\n    tag_66:\n      pop\n      swap3\n      pop\n      pop\n      pop\n      mload(0x40)\n      dup1\n      swap2\n      sub\n      swap1\n      return\n        /* \"contracts/smart_contract.sol\":3954:4043  function get_hash_data () view public returns(string) {\r... */\n    tag_12:\n      callvalue\n        /* \"--CODEGEN--\":8:17   */\n      dup1\n        /* \"--CODEGEN--\":5:7   */\n      iszero\n      tag_67\n      jumpi\n        /* \"--CODEGEN--\":30:31   */\n      0x0\n        /* \"--CODEGEN--\":27:28   */\n      dup1\n        /* \"--CODEGEN--\":20:32   */\n      revert\n        /* \"--CODEGEN--\":5:7   */\n    tag_67:\n        /* \"contracts/smart_contract.sol\":3954:4043  function get_hash_data () view public returns(string) {\r... */\n      pop\n      tag_68\n      jump(tag_69)\n    tag_68:\n      mload(0x40)\n      dup1\n      dup1\n      0x20\n      add\n      dup3\n      dup2\n      sub\n      dup3\n      mstore\n      dup4\n      dup2\n      dup2\n      mload\n      dup2\n      mstore\n      0x20\n      add\n      swap2\n      pop\n      dup1\n      mload\n      swap1\n      0x20\n      add\n      swap1\n      dup1\n      dup4\n      dup4\n        /* \"--CODEGEN--\":23:24   */\n      0x0\n        /* \"--CODEGEN--\":8:108   */\n    tag_70:\n        /* \"--CODEGEN--\":33:36   */\n      dup4\n        /* \"--CODEGEN--\":30:31   */\n      dup2\n        /* \"--CODEGEN--\":27:37   */\n      lt\n        /* \"--CODEGEN--\":8:108   */\n      iszero\n      tag_71\n      jumpi\n        /* \"--CODEGEN--\":99:100   */\n      dup1\n        /* \"--CODEGEN--\":94:97   */\n      dup3\n        /* \"--CODEGEN--\":90:101   */\n      add\n        /* \"--CODEGEN--\":84:102   */\n      mload\n        /* \"--CODEGEN--\":80:81   */\n      dup2\n        /* \"--CODEGEN--\":75:78   */\n      dup5\n        /* \"--CODEGEN--\":71:82   */\n      add\n        /* \"--CODEGEN--\":64:103   */\n      mstore\n        /* \"--CODEGEN--\":52:54   */\n      0x20\n        /* \"--CODEGEN--\":49:50   */\n      dup2\n        /* \"--CODEGEN--\":45:55   */\n      add\n        /* \"--CODEGEN--\":40:55   */\n      swap1\n      pop\n        /* \"--CODEGEN--\":8:108   */\n      jump(tag_70)\n    tag_71:\n        /* \"--CODEGEN--\":12:26   */\n      pop\n        /* \"contracts/smart_contract.sol\":3954:4043  function get_hash_data () view public returns(string) {\r... */\n      pop\n      pop\n      pop\n      swap1\n      pop\n      swap1\n      dup2\n      add\n      swap1\n      0x1f\n      and\n      dup1\n      iszero\n      tag_73\n      jumpi\n      dup1\n      dup3\n      sub\n      dup1\n      mload\n      0x1\n      dup4\n      0x20\n      sub\n      0x100\n      exp\n      sub\n      not\n      and\n      dup2\n      mstore\n      0x20\n      add\n      swap2\n      pop\n    tag_73:\n      pop\n      swap3\n      pop\n      pop\n      pop\n      mload(0x40)\n      dup1\n      swap2\n      sub\n      swap1\n      return\n        /* \"contracts/smart_contract.sol\":1277:1305  address public AddressVerify */\n    tag_13:\n      callvalue\n        /* \"--CODEGEN--\":8:17   */\n      dup1\n        /* \"--CODEGEN--\":5:7   */\n      iszero\n      tag_74\n      jumpi\n        /* \"--CODEGEN--\":30:31   */\n      0x0\n        /* \"--CODEGEN--\":27:28   */\n      dup1\n        /* \"--CODEGEN--\":20:32   */\n      revert\n        /* \"--CODEGEN--\":5:7   */\n    tag_74:\n        /* \"contracts/smart_contract.sol\":1277:1305  address public AddressVerify */\n      pop\n      tag_75\n      jump(tag_76)\n    tag_75:\n      mload(0x40)\n      dup1\n      dup3\n      0xffffffffffffffffffffffffffffffffffffffff\n      and\n      0xffffffffffffffffffffffffffffffffffffffff\n      and\n      dup2\n      mstore\n      0x20\n      add\n      swap2\n      pop\n      pop\n      mload(0x40)\n      dup1\n      swap2\n      sub\n      swap1\n      return\n        /* \"contracts/smart_contract.sol\":10811:11875  function upload_encryptedkey (string EnKey) public {\r... */\n    tag_14:\n      callvalue\n        /* \"--CODEGEN--\":8:17   */\n      dup1\n        /* \"--CODEGEN--\":5:7   */\n      iszero\n      tag_77\n      jumpi\n        /* \"--CODEGEN--\":30:31   */\n      0x0\n        /* \"--CODEGEN--\":27:28   */\n      dup1\n        /* \"--CODEGEN--\":20:32   */\n      revert\n        /* \"--CODEGEN--\":5:7   */\n    tag_77:\n        /* \"contracts/smart_contract.sol\":10811:11875  function upload_encryptedkey (string EnKey) public {\r... */\n      pop\n      tag_78\n      0x4\n      dup1\n      calldatasize\n      sub\n      dup2\n      add\n      swap1\n      dup1\n      dup1\n      calldataload\n      swap1\n      0x20\n      add\n      swap1\n      dup3\n      add\n      dup1\n      calldataload\n      swap1\n      0x20\n      add\n      swap1\n      dup1\n      dup1\n      0x1f\n      add\n      0x20\n      dup1\n      swap2\n      div\n      mul\n      0x20\n      add\n      mload(0x40)\n      swap1\n      dup2\n      add\n      0x40\n      mstore\n      dup1\n      swap4\n      swap3\n      swap2\n      swap1\n      dup2\n      dup2\n      mstore\n      0x20\n      add\n      dup4\n      dup4\n      dup1\n      dup3\n      dup5\n      calldatacopy\n      dup3\n      add\n      swap2\n      pop\n      pop\n      pop\n      pop\n      pop\n      pop\n      swap2\n      swap3\n      swap2\n      swap3\n      swap1\n      pop\n      pop\n      pop\n      jump(tag_79)\n    tag_78:\n      stop\n        /* \"contracts/smart_contract.sol\":6109:6229  function show_evidence_reason () view public returns(string, string) {\r... */\n    tag_15:\n      callvalue\n        /* \"--CODEGEN--\":8:17   */\n      dup1\n        /* \"--CODEGEN--\":5:7   */\n      iszero\n      tag_80\n      jumpi\n        /* \"--CODEGEN--\":30:31   */\n      0x0\n        /* \"--CODEGEN--\":27:28   */\n      dup1\n        /* \"--CODEGEN--\":20:32   */\n      revert\n        /* \"--CODEGEN--\":5:7   */\n    tag_80:\n        /* \"contracts/smart_contract.sol\":6109:6229  function show_evidence_reason () view public returns(string, string) {\r... */\n      pop\n      tag_81\n      jump(tag_82)\n    tag_81:\n      mload(0x40)\n      dup1\n      dup1\n      0x20\n      add\n      dup1\n      0x20\n      add\n      dup4\n      dup2\n      sub\n      dup4\n      mstore\n      dup6\n      dup2\n      dup2\n      mload\n      dup2\n      mstore\n      0x20\n      add\n      swap2\n      pop\n      dup1\n      mload\n      swap1\n      0x20\n      add\n      swap1\n      dup1\n      dup4\n      dup4\n        /* \"--CODEGEN--\":23:24   */\n      0x0\n        /* \"--CODEGEN--\":8:108   */\n    tag_83:\n        /* \"--CODEGEN--\":33:36   */\n      dup4\n        /* \"--CODEGEN--\":30:31   */\n      dup2\n        /* \"--CODEGEN--\":27:37   */\n      lt\n        /* \"--CODEGEN--\":8:108   */\n      iszero\n      tag_84\n      jumpi\n        /* \"--CODEGEN--\":99:100   */\n      dup1\n        /* \"--CODEGEN--\":94:97   */\n      dup3\n        /* \"--CODEGEN--\":90:101   */\n      add\n        /* \"--CODEGEN--\":84:102   */\n      mload\n        /* \"--CODEGEN--\":80:81   */\n      dup2\n        /* \"--CODEGEN--\":75:78   */\n      dup5\n        /* \"--CODEGEN--\":71:82   */\n      add\n        /* \"--CODEGEN--\":64:103   */\n      mstore\n        /* \"--CODEGEN--\":52:54   */\n      0x20\n        /* \"--CODEGEN--\":49:50   */\n      dup2\n        /* \"--CODEGEN--\":45:55   */\n      add\n        /* \"--CODEGEN--\":40:55   */\n      swap1\n      pop\n        /* \"--CODEGEN--\":8:108   */\n      jump(tag_83)\n    tag_84:\n        /* \"--CODEGEN--\":12:26   */\n      pop\n        /* \"contracts/smart_contract.sol\":6109:6229  function show_evidence_reason () view public returns(string, string) {\r... */\n      pop\n      pop\n      pop\n      swap1\n      pop\n      swap1\n      dup2\n      add\n      swap1\n      0x1f\n      and\n      dup1\n      iszero\n      tag_86\n      jumpi\n      dup1\n      dup3\n      sub\n      dup1\n      mload\n      0x1\n      dup4\n      0x20\n      sub\n      0x100\n      exp\n      sub\n      not\n      and\n      dup2\n      mstore\n      0x20\n      add\n      swap2\n      pop\n    tag_86:\n      pop\n      dup4\n      dup2\n      sub\n      dup3\n      mstore\n      dup5\n      dup2\n      dup2\n      mload\n      dup2\n      mstore\n      0x20\n      add\n      swap2\n      pop\n      dup1\n      mload\n      swap1\n      0x20\n      add\n      swap1\n      dup1\n      dup4\n      dup4\n        /* \"--CODEGEN--\":23:24   */\n      0x0\n        /* \"--CODEGEN--\":8:108   */\n    tag_87:\n        /* \"--CODEGEN--\":33:36   */\n      dup4\n        /* \"--CODEGEN--\":30:31   */\n      dup2\n        /* \"--CODEGEN--\":27:37   */\n      lt\n        /* \"--CODEGEN--\":8:108   */\n      iszero\n      tag_88\n      jumpi\n        /* \"--CODEGEN--\":99:100   */\n      dup1\n        /* \"--CODEGEN--\":94:97   */\n      dup3\n        /* \"--CODEGEN--\":90:101   */\n      add\n        /* \"--CODEGEN--\":84:102   */\n      mload\n        /* \"--CODEGEN--\":80:81   */\n      dup2\n        /* \"--CODEGEN--\":75:78   */\n      dup5\n        /* \"--CODEGEN--\":71:82   */\n      add\n        /* \"--CODEGEN--\":64:103   */\n      mstore\n        /* \"--CODEGEN--\":52:54   */\n      0x20\n        /* \"--CODEGEN--\":49:50   */\n      dup2\n        /* \"--CODEGEN--\":45:55   */\n      add\n        /* \"--CODEGEN--\":40:55   */\n      swap1\n      pop\n        /* \"--CODEGEN--\":8:108   */\n      jump(tag_87)\n    tag_88:\n        /* \"--CODEGEN--\":12:26   */\n      pop\n        /* \"contracts/smart_contract.sol\":6109:6229  function show_evidence_reason () view public returns(string, string) {\r... */\n      pop\n      pop\n      pop\n      swap1\n      pop\n      swap1\n      dup2\n      add\n      swap1\n      0x1f\n      and\n      dup1\n      iszero\n      tag_90\n      jumpi\n      dup1\n      dup3\n      sub\n      dup1\n      mload\n      0x1\n      dup4\n      0x20\n      sub\n      0x100\n      exp\n      sub\n      not\n      and\n      dup2\n      mstore\n      0x20\n      add\n      swap2\n      pop\n    tag_90:\n      pop\n      swap5\n      pop\n      pop\n      pop\n      pop\n      pop\n      mload(0x40)\n      dup1\n      swap2\n      sub\n      swap1\n      return\n        /* \"contracts/smart_contract.sol\":6744:7055  function set_amount (uint256 Amount) public {\r... */\n    tag_16:\n      callvalue\n        /* \"--CODEGEN--\":8:17   */\n      dup1\n        /* \"--CODEGEN--\":5:7   */\n      iszero\n      tag_91\n      jumpi\n        /* \"--CODEGEN--\":30:31   */\n      0x0\n        /* \"--CODEGEN--\":27:28   */\n      dup1\n        /* \"--CODEGEN--\":20:32   */\n      revert\n        /* \"--CODEGEN--\":5:7   */\n    tag_91:\n        /* \"contracts/smart_contract.sol\":6744:7055  function set_amount (uint256 Amount) public {\r... */\n      pop\n      tag_92\n      0x4\n      dup1\n      calldatasize\n      sub\n      dup2\n      add\n      swap1\n      dup1\n      dup1\n      calldataload\n      swap1\n      0x20\n      add\n      swap1\n      swap3\n      swap2\n      swap1\n      pop\n      pop\n      pop\n      jump(tag_93)\n    tag_92:\n      stop\n        /* \"contracts/smart_contract.sol\":3238:3320  function get_amount () public view returns (uint256) {\r... */\n    tag_17:\n      callvalue\n        /* \"--CODEGEN--\":8:17   */\n      dup1\n        /* \"--CODEGEN--\":5:7   */\n      iszero\n      tag_94\n      jumpi\n        /* \"--CODEGEN--\":30:31   */\n      0x0\n        /* \"--CODEGEN--\":27:28   */\n      dup1\n        /* \"--CODEGEN--\":20:32   */\n      revert\n        /* \"--CODEGEN--\":5:7   */\n    tag_94:\n        /* \"contracts/smart_contract.sol\":3238:3320  function get_amount () public view returns (uint256) {\r... */\n      pop\n      tag_95\n      jump(tag_96)\n    tag_95:\n      mload(0x40)\n      dup1\n      dup3\n      dup2\n      mstore\n      0x20\n      add\n      swap2\n      pop\n      pop\n      mload(0x40)\n      dup1\n      swap2\n      sub\n      swap1\n      return\n        /* \"contracts/smart_contract.sol\":1223:1250  address public AddressBuyer */\n    tag_18:\n      callvalue\n        /* \"--CODEGEN--\":8:17   */\n      dup1\n        /* \"--CODEGEN--\":5:7   */\n      iszero\n      tag_97\n      jumpi\n        /* \"--CODEGEN--\":30:31   */\n      0x0\n        /* \"--CODEGEN--\":27:28   */\n      dup1\n        /* \"--CODEGEN--\":20:32   */\n      revert\n        /* \"--CODEGEN--\":5:7   */\n    tag_97:\n        /* \"contracts/smart_contract.sol\":1223:1250  address public AddressBuyer */\n      pop\n      tag_98\n      jump(tag_99)\n    tag_98:\n      mload(0x40)\n      dup1\n      dup3\n      0xffffffffffffffffffffffffffffffffffffffff\n      and\n      0xffffffffffffffffffffffffffffffffffffffff\n      and\n      dup2\n      mstore\n      0x20\n      add\n      swap2\n      pop\n      pop\n      mload(0x40)\n      dup1\n      swap2\n      sub\n      swap1\n      return\n        /* \"contracts/smart_contract.sol\":11961:12853  function report_send (string Evidence, string Reason) public {\r... */\n    tag_19:\n      callvalue\n        /* \"--CODEGEN--\":8:17   */\n      dup1\n        /* \"--CODEGEN--\":5:7   */\n      iszero\n      tag_100\n      jumpi\n        /* \"--CODEGEN--\":30:31   */\n      0x0\n        /* \"--CODEGEN--\":27:28   */\n      dup1\n        /* \"--CODEGEN--\":20:32   */\n      revert\n        /* \"--CODEGEN--\":5:7   */\n    tag_100:\n        /* \"contracts/smart_contract.sol\":11961:12853  function report_send (string Evidence, string Reason) public {\r... */\n      pop\n      tag_101\n      0x4\n      dup1\n      calldatasize\n      sub\n      dup2\n      add\n      swap1\n      dup1\n      dup1\n      calldataload\n      swap1\n      0x20\n      add\n      swap1\n      dup3\n      add\n      dup1\n      calldataload\n      swap1\n      0x20\n      add\n      swap1\n      dup1\n      dup1\n      0x1f\n      add\n      0x20\n      dup1\n      swap2\n      div\n      mul\n      0x20\n      add\n      mload(0x40)\n      swap1\n      dup2\n      add\n      0x40\n      mstore\n      dup1\n      swap4\n      swap3\n      swap2\n      swap1\n      dup2\n      dup2\n      mstore\n      0x20\n      add\n      dup4\n      dup4\n      dup1\n      dup3\n      dup5\n      calldatacopy\n      dup3\n      add\n      swap2\n      pop\n      pop\n      pop\n      pop\n      pop\n      pop\n      swap2\n      swap3\n      swap2\n      swap3\n      swap1\n      dup1\n      calldataload\n      swap1\n      0x20\n      add\n      swap1\n      dup3\n      add\n      dup1\n      calldataload\n      swap1\n      0x20\n      add\n      swap1\n      dup1\n      dup1\n      0x1f\n      add\n      0x20\n      dup1\n      swap2\n      div\n      mul\n      0x20\n      add\n      mload(0x40)\n      swap1\n      dup2\n      add\n      0x40\n      mstore\n      dup1\n      swap4\n      swap3\n      swap2\n      swap1\n      dup2\n      dup2\n      mstore\n      0x20\n      add\n      dup4\n      dup4\n      dup1\n      dup3\n      dup5\n      calldatacopy\n      dup3\n      add\n      swap2\n      pop\n      pop\n      pop\n      pop\n      pop\n      pop\n      swap2\n      swap3\n      swap2\n      swap3\n      swap1\n      pop\n      pop\n      pop\n      jump(tag_102)\n    tag_101:\n      stop\n        /* \"contracts/smart_contract.sol\":1147:1172  address public AddressPay */\n    tag_20:\n      callvalue\n        /* \"--CODEGEN--\":8:17   */\n      dup1\n        /* \"--CODEGEN--\":5:7   */\n      iszero\n      tag_103\n      jumpi\n        /* \"--CODEGEN--\":30:31   */\n      0x0\n        /* \"--CODEGEN--\":27:28   */\n      dup1\n        /* \"--CODEGEN--\":20:32   */\n      revert\n        /* \"--CODEGEN--\":5:7   */\n    tag_103:\n        /* \"contracts/smart_contract.sol\":1147:1172  address public AddressPay */\n      pop\n      tag_104\n      jump(tag_105)\n    tag_104:\n      mload(0x40)\n      dup1\n      dup3\n      0xffffffffffffffffffffffffffffffffffffffff\n      and\n      0xffffffffffffffffffffffffffffffffffffffff\n      and\n      dup2\n      mstore\n      0x20\n      add\n      swap2\n      pop\n      pop\n      mload(0x40)\n      dup1\n      swap2\n      sub\n      swap1\n      return\n        /* \"contracts/smart_contract.sol\":3511:3604  function get_pubkeyB() constant public returns(string) {\r... */\n    tag_21:\n      callvalue\n        /* \"--CODEGEN--\":8:17   */\n      dup1\n        /* \"--CODEGEN--\":5:7   */\n      iszero\n      tag_106\n      jumpi\n        /* \"--CODEGEN--\":30:31   */\n      0x0\n        /* \"--CODEGEN--\":27:28   */\n      dup1\n        /* \"--CODEGEN--\":20:32   */\n      revert\n        /* \"--CODEGEN--\":5:7   */\n    tag_106:\n        /* \"contracts/smart_contract.sol\":3511:3604  function get_pubkeyB() constant public returns(string) {\r... */\n      pop\n      tag_107\n      jump(tag_108)\n    tag_107:\n      mload(0x40)\n      dup1\n      dup1\n      0x20\n      add\n      dup3\n      dup2\n      sub\n      dup3\n      mstore\n      dup4\n      dup2\n      dup2\n      mload\n      dup2\n      mstore\n      0x20\n      add\n      swap2\n      pop\n      dup1\n      mload\n      swap1\n      0x20\n      add\n      swap1\n      dup1\n      dup4\n      dup4\n        /* \"--CODEGEN--\":23:24   */\n      0x0\n        /* \"--CODEGEN--\":8:108   */\n    tag_109:\n        /* \"--CODEGEN--\":33:36   */\n      dup4\n        /* \"--CODEGEN--\":30:31   */\n      dup2\n        /* \"--CODEGEN--\":27:37   */\n      lt\n        /* \"--CODEGEN--\":8:108   */\n      iszero\n      tag_110\n      jumpi\n        /* \"--CODEGEN--\":99:100   */\n      dup1\n        /* \"--CODEGEN--\":94:97   */\n      dup3\n        /* \"--CODEGEN--\":90:101   */\n      add\n        /* \"--CODEGEN--\":84:102   */\n      mload\n        /* \"--CODEGEN--\":80:81   */\n      dup2\n        /* \"--CODEGEN--\":75:78   */\n      dup5\n        /* \"--CODEGEN--\":71:82   */\n      add\n        /* \"--CODEGEN--\":64:103   */\n      mstore\n        /* \"--CODEGEN--\":52:54   */\n      0x20\n        /* \"--CODEGEN--\":49:50   */\n      dup2\n        /* \"--CODEGEN--\":45:55   */\n      add\n        /* \"--CODEGEN--\":40:55   */\n      swap1\n      pop\n        /* \"--CODEGEN--\":8:108   */\n      jump(tag_109)\n    tag_110:\n        /* \"--CODEGEN--\":12:26   */\n      pop\n        /* \"contracts/smart_contract.sol\":3511:3604  function get_pubkeyB() constant public returns(string) {\r... */\n      pop\n      pop\n      pop\n      swap1\n      pop\n      swap1\n      dup2\n      add\n      swap1\n      0x1f\n      and\n      dup1\n      iszero\n      tag_112\n      jumpi\n      dup1\n      dup3\n      sub\n      dup1\n      mload\n      0x1\n      dup4\n      0x20\n      sub\n      0x100\n      exp\n      sub\n      not\n      and\n      dup2\n      mstore\n      0x20\n      add\n      swap2\n      pop\n    tag_112:\n      pop\n      swap3\n      pop\n      pop\n      pop\n      mload(0x40)\n      dup1\n      swap2\n      sub\n      swap1\n      return\n        /* \"contracts/smart_contract.sol\":5668:5756  function view_first () public view returns (uint256){\r... */\n    tag_22:\n      callvalue\n        /* \"--CODEGEN--\":8:17   */\n      dup1\n        /* \"--CODEGEN--\":5:7   */\n      iszero\n      tag_113\n      jumpi\n        /* \"--CODEGEN--\":30:31   */\n      0x0\n        /* \"--CODEGEN--\":27:28   */\n      dup1\n        /* \"--CODEGEN--\":20:32   */\n      revert\n        /* \"--CODEGEN--\":5:7   */\n    tag_113:\n        /* \"contracts/smart_contract.sol\":5668:5756  function view_first () public view returns (uint256){\r... */\n      pop\n      tag_114\n      jump(tag_115)\n    tag_114:\n      mload(0x40)\n      dup1\n      dup3\n      dup2\n      mstore\n      0x20\n      add\n      swap2\n      pop\n      pop\n      mload(0x40)\n      dup1\n      swap2\n      sub\n      swap1\n      return\n        /* \"contracts/smart_contract.sol\":7732:8302  function upload_hash_key (string HashKey) public {\r... */\n    tag_23:\n      callvalue\n        /* \"--CODEGEN--\":8:17   */\n      dup1\n        /* \"--CODEGEN--\":5:7   */\n      iszero\n      tag_116\n      jumpi\n        /* \"--CODEGEN--\":30:31   */\n      0x0\n        /* \"--CODEGEN--\":27:28   */\n      dup1\n        /* \"--CODEGEN--\":20:32   */\n      revert\n        /* \"--CODEGEN--\":5:7   */\n    tag_116:\n        /* \"contracts/smart_contract.sol\":7732:8302  function upload_hash_key (string HashKey) public {\r... */\n      pop\n      tag_117\n      0x4\n      dup1\n      calldatasize\n      sub\n      dup2\n      add\n      swap1\n      dup1\n      dup1\n      calldataload\n      swap1\n      0x20\n      add\n      swap1\n      dup3\n      add\n      dup1\n      calldataload\n      swap1\n      0x20\n      add\n      swap1\n      dup1\n      dup1\n      0x1f\n      add\n      0x20\n      dup1\n      swap2\n      div\n      mul\n      0x20\n      add\n      mload(0x40)\n      swap1\n      dup2\n      add\n      0x40\n      mstore\n      dup1\n      swap4\n      swap3\n      swap2\n      swap1\n      dup2\n      dup2\n      mstore\n      0x20\n      add\n      dup4\n      dup4\n      dup1\n      dup3\n      dup5\n      calldatacopy\n      dup3\n      add\n      swap2\n      pop\n      pop\n      pop\n      pop\n      pop\n      pop\n      swap2\n      swap3\n      swap2\n      swap3\n      swap1\n      pop\n      pop\n      pop\n      jump(tag_118)\n    tag_117:\n      stop\n        /* \"contracts/smart_contract.sol\":5973:6061  function view_third () public view returns (uint256){\r... */\n    tag_24:\n      callvalue\n        /* \"--CODEGEN--\":8:17   */\n      dup1\n        /* \"--CODEGEN--\":5:7   */\n      iszero\n      tag_119\n      jumpi\n        /* \"--CODEGEN--\":30:31   */\n      0x0\n        /* \"--CODEGEN--\":27:28   */\n      dup1\n        /* \"--CODEGEN--\":20:32   */\n      revert\n        /* \"--CODEGEN--\":5:7   */\n    tag_119:\n        /* \"contracts/smart_contract.sol\":5973:6061  function view_third () public view returns (uint256){\r... */\n      pop\n      tag_120\n      jump(tag_121)\n    tag_120:\n      mload(0x40)\n      dup1\n      dup3\n      dup2\n      mstore\n      0x20\n      add\n      swap2\n      pop\n      pop\n      mload(0x40)\n      dup1\n      swap2\n      sub\n      swap1\n      return\n        /* \"contracts/smart_contract.sol\":1360:1410  string public DataAddress = \"www.cugdatatrade.com\" */\n    tag_25:\n      callvalue\n        /* \"--CODEGEN--\":8:17   */\n      dup1\n        /* \"--CODEGEN--\":5:7   */\n      iszero\n      tag_122\n      jumpi\n        /* \"--CODEGEN--\":30:31   */\n      0x0\n        /* \"--CODEGEN--\":27:28   */\n      dup1\n        /* \"--CODEGEN--\":20:32   */\n      revert\n        /* \"--CODEGEN--\":5:7   */\n    tag_122:\n        /* \"contracts/smart_contract.sol\":1360:1410  string public DataAddress = \"www.cugdatatrade.com\" */\n      pop\n      tag_123\n      jump(tag_124)\n    tag_123:\n      mload(0x40)\n      dup1\n      dup1\n      0x20\n      add\n      dup3\n      dup2\n      sub\n      dup3\n      mstore\n      dup4\n      dup2\n      dup2\n      mload\n      dup2\n      mstore\n      0x20\n      add\n      swap2\n      pop\n      dup1\n      mload\n      swap1\n      0x20\n      add\n      swap1\n      dup1\n      dup4\n      dup4\n        /* \"--CODEGEN--\":23:24   */\n      0x0\n        /* \"--CODEGEN--\":8:108   */\n    tag_125:\n        /* \"--CODEGEN--\":33:36   */\n      dup4\n        /* \"--CODEGEN--\":30:31   */\n      dup2\n        /* \"--CODEGEN--\":27:37   */\n      lt\n        /* \"--CODEGEN--\":8:108   */\n      iszero\n      tag_126\n      jumpi\n        /* \"--CODEGEN--\":99:100   */\n      dup1\n        /* \"--CODEGEN--\":94:97   */\n      dup3\n        /* \"--CODEGEN--\":90:101   */\n      add\n        /* \"--CODEGEN--\":84:102   */\n      mload\n        /* \"--CODEGEN--\":80:81   */\n      dup2\n        /* \"--CODEGEN--\":75:78   */\n      dup5\n        /* \"--CODEGEN--\":71:82   */\n      add\n        /* \"--CODEGEN--\":64:103   */\n      mstore\n        /* \"--CODEGEN--\":52:54   */\n      0x20\n        /* \"--CODEGEN--\":49:50   */\n      dup2\n        /* \"--CODEGEN--\":45:55   */\n      add\n        /* \"--CODEGEN--\":40:55   */\n      swap1\n      pop\n        /* \"--CODEGEN--\":8:108   */\n      jump(tag_125)\n    tag_126:\n        /* \"--CODEGEN--\":12:26   */\n      pop\n        /* \"contracts/smart_contract.sol\":1360:1410  string public DataAddress = \"www.cugdatatrade.com\" */\n      pop\n      pop\n      pop\n      swap1\n      pop\n      swap1\n      dup2\n      add\n      swap1\n      0x1f\n      and\n      dup1\n      iszero\n      tag_128\n      jumpi\n      dup1\n      dup3\n      sub\n      dup1\n      mload\n      0x1\n      dup4\n      0x20\n      sub\n      0x100\n      exp\n      sub\n      not\n      and\n      dup2\n      mstore\n      0x20\n      add\n      swap2\n      pop\n    tag_128:\n      pop\n      swap3\n      pop\n      pop\n      pop\n      mload(0x40)\n      dup1\n      swap2\n      sub\n      swap1\n      return\n        /* \"contracts/smart_contract.sol\":9299:10169  function send_money () public payable returns(bool) {\r... */\n    tag_26:\n      tag_129\n      jump(tag_130)\n    tag_129:\n      mload(0x40)\n      dup1\n      dup3\n      iszero\n      iszero\n      iszero\n      iszero\n      dup2\n      mstore\n      0x20\n      add\n      swap2\n      pop\n      pop\n      mload(0x40)\n      dup1\n      swap2\n      sub\n      swap1\n      return\n        /* \"contracts/smart_contract.sol\":3652:3747  function get_enkey () view public returns(string) {\r... */\n    tag_27:\n      callvalue\n        /* \"--CODEGEN--\":8:17   */\n      dup1\n        /* \"--CODEGEN--\":5:7   */\n      iszero\n      tag_131\n      jumpi\n        /* \"--CODEGEN--\":30:31   */\n      0x0\n        /* \"--CODEGEN--\":27:28   */\n      dup1\n        /* \"--CODEGEN--\":20:32   */\n      revert\n        /* \"--CODEGEN--\":5:7   */\n    tag_131:\n        /* \"contracts/smart_contract.sol\":3652:3747  function get_enkey () view public returns(string) {\r... */\n      pop\n      tag_132\n      jump(tag_133)\n    tag_132:\n      mload(0x40)\n      dup1\n      dup1\n      0x20\n      add\n      dup3\n      dup2\n      sub\n      dup3\n      mstore\n      dup4\n      dup2\n      dup2\n      mload\n      dup2\n      mstore\n      0x20\n      add\n      swap2\n      pop\n      dup1\n      mload\n      swap1\n      0x20\n      add\n      swap1\n      dup1\n      dup4\n      dup4\n        /* \"--CODEGEN--\":23:24   */\n      0x0\n        /* \"--CODEGEN--\":8:108   */\n    tag_134:\n        /* \"--CODEGEN--\":33:36   */\n      dup4\n        /* \"--CODEGEN--\":30:31   */\n      dup2\n        /* \"--CODEGEN--\":27:37   */\n      lt\n        /* \"--CODEGEN--\":8:108   */\n      iszero\n      tag_135\n      jumpi\n        /* \"--CODEGEN--\":99:100   */\n      dup1\n        /* \"--CODEGEN--\":94:97   */\n      dup3\n        /* \"--CODEGEN--\":90:101   */\n      add\n        /* \"--CODEGEN--\":84:102   */\n      mload\n        /* \"--CODEGEN--\":80:81   */\n      dup2\n        /* \"--CODEGEN--\":75:78   */\n      dup5\n        /* \"--CODEGEN--\":71:82   */\n      add\n        /* \"--CODEGEN--\":64:103   */\n      mstore\n        /* \"--CODEGEN--\":52:54   */\n      0x20\n        /* \"--CODEGEN--\":49:50   */\n      dup2\n        /* \"--CODEGEN--\":45:55   */\n      add\n        /* \"--CODEGEN--\":40:55   */\n      swap1\n      pop\n        /* \"--CODEGEN--\":8:108   */\n      jump(tag_134)\n    tag_135:\n        /* \"--CODEGEN--\":12:26   */\n      pop\n        /* \"contracts/smart_contract.sol\":3652:3747  function get_enkey () view public returns(string) {\r... */\n      pop\n      pop\n      pop\n      swap1\n      pop\n      swap1\n      dup2\n      add\n      swap1\n      0x1f\n      and\n      dup1\n      iszero\n      tag_137\n      jumpi\n      dup1\n      dup3\n      sub\n      dup1\n      mload\n      0x1\n      dup4\n      0x20\n      sub\n      0x100\n      exp\n      sub\n      not\n      and\n      dup2\n      mstore\n      0x20\n      add\n      swap2\n      pop\n    tag_137:\n      pop\n      swap3\n      pop\n      pop\n      pop\n      mload(0x40)\n      dup1\n      swap2\n      sub\n      swap1\n      return\n        /* \"contracts/smart_contract.sol\":3366:3450  function get_deposit () public view returns (uint256) {\r... */\n    tag_28:\n      callvalue\n        /* \"--CODEGEN--\":8:17   */\n      dup1\n        /* \"--CODEGEN--\":5:7   */\n      iszero\n      tag_138\n      jumpi\n        /* \"--CODEGEN--\":30:31   */\n      0x0\n        /* \"--CODEGEN--\":27:28   */\n      dup1\n        /* \"--CODEGEN--\":20:32   */\n      revert\n        /* \"--CODEGEN--\":5:7   */\n    tag_138:\n        /* \"contracts/smart_contract.sol\":3366:3450  function get_deposit () public view returns (uint256) {\r... */\n      pop\n      tag_139\n      jump(tag_140)\n    tag_139:\n      mload(0x40)\n      dup1\n      dup3\n      dup2\n      mstore\n      0x20\n      add\n      swap2\n      pop\n      pop\n      mload(0x40)\n      dup1\n      swap2\n      sub\n      swap1\n      return\n        /* \"contracts/smart_contract.sol\":3806:3893  function get_hash_key () view public returns(string) {\r... */\n    tag_29:\n      callvalue\n        /* \"--CODEGEN--\":8:17   */\n      dup1\n        /* \"--CODEGEN--\":5:7   */\n      iszero\n      tag_141\n      jumpi\n        /* \"--CODEGEN--\":30:31   */\n      0x0\n        /* \"--CODEGEN--\":27:28   */\n      dup1\n        /* \"--CODEGEN--\":20:32   */\n      revert\n        /* \"--CODEGEN--\":5:7   */\n    tag_141:\n        /* \"contracts/smart_contract.sol\":3806:3893  function get_hash_key () view public returns(string) {\r... */\n      pop\n      tag_142\n      jump(tag_143)\n    tag_142:\n      mload(0x40)\n      dup1\n      dup1\n      0x20\n      add\n      dup3\n      dup2\n      sub\n      dup3\n      mstore\n      dup4\n      dup2\n      dup2\n      mload\n      dup2\n      mstore\n      0x20\n      add\n      swap2\n      pop\n      dup1\n      mload\n      swap1\n      0x20\n      add\n      swap1\n      dup1\n      dup4\n      dup4\n        /* \"--CODEGEN--\":23:24   */\n      0x0\n        /* \"--CODEGEN--\":8:108   */\n    tag_144:\n        /* \"--CODEGEN--\":33:36   */\n      dup4\n        /* \"--CODEGEN--\":30:31   */\n      dup2\n        /* \"--CODEGEN--\":27:37   */\n      lt\n        /* \"--CODEGEN--\":8:108   */\n      iszero\n      tag_145\n      jumpi\n        /* \"--CODEGEN--\":99:100   */\n      dup1\n        /* \"--CODEGEN--\":94:97   */\n      dup3\n        /* \"--CODEGEN--\":90:101   */\n      add\n        /* \"--CODEGEN--\":84:102   */\n      mload\n        /* \"--CODEGEN--\":80:81   */\n      dup2\n        /* \"--CODEGEN--\":75:78   */\n      dup5\n        /* \"--CODEGEN--\":71:82   */\n      add\n        /* \"--CODEGEN--\":64:103   */\n      mstore\n        /* \"--CODEGEN--\":52:54   */\n      0x20\n        /* \"--CODEGEN--\":49:50   */\n      dup2\n        /* \"--CODEGEN--\":45:55   */\n      add\n        /* \"--CODEGEN--\":40:55   */\n      swap1\n      pop\n        /* \"--CODEGEN--\":8:108   */\n      jump(tag_144)\n    tag_145:\n        /* \"--CODEGEN--\":12:26   */\n      pop\n        /* \"contracts/smart_contract.sol\":3806:3893  function get_hash_key () view public returns(string) {\r... */\n      pop\n      pop\n      pop\n      swap1\n      pop\n      swap1\n      dup2\n      add\n      swap1\n      0x1f\n      and\n      dup1\n      iszero\n      tag_147\n      jumpi\n      dup1\n      dup3\n      sub\n      dup1\n      mload\n      0x1\n      dup4\n      0x20\n      sub\n      0x100\n      exp\n      sub\n      not\n      and\n      dup2\n      mstore\n      0x20\n      add\n      swap2\n      pop\n    tag_147:\n      pop\n      swap3\n      pop\n      pop\n      pop\n      mload(0x40)\n      dup1\n      swap2\n      sub\n      swap1\n      return\n        /* \"contracts/smart_contract.sol\":13589:15947  function end_transaction () public {\r... */\n    tag_32:\n        /* \"contracts/smart_contract.sol\":13694:13706  AddressBuyer */\n      0xe\n      0x0\n      swap1\n      sload\n      swap1\n      0x100\n      exp\n      swap1\n      div\n      0xffffffffffffffffffffffffffffffffffffffff\n      and\n        /* \"contracts/smart_contract.sol\":13680:13706  msg.sender == AddressBuyer */\n      0xffffffffffffffffffffffffffffffffffffffff\n      and\n        /* \"contracts/smart_contract.sol\":13680:13690  msg.sender */\n      caller\n        /* \"contracts/smart_contract.sol\":13680:13706  msg.sender == AddressBuyer */\n      0xffffffffffffffffffffffffffffffffffffffff\n      and\n      eq\n        /* \"contracts/smart_contract.sol\":13680:13743  msg.sender == AddressBuyer && \r... */\n      dup1\n      iszero\n      tag_149\n      jumpi\n      pop\n        /* \"contracts/smart_contract.sol\":13739:13743  true */\n      0x1\n        /* \"contracts/smart_contract.sol\":13724:13743  Goal_Amount == true */\n      iszero\n      iszero\n        /* \"contracts/smart_contract.sol\":13724:13735  Goal_Amount */\n      0x12\n      0x0\n      swap1\n      sload\n      swap1\n      0x100\n      exp\n      swap1\n      div\n      0xff\n      and\n        /* \"contracts/smart_contract.sol\":13724:13743  Goal_Amount == true */\n      iszero\n      iszero\n      eq\n        /* \"contracts/smart_contract.sol\":13680:13743  msg.sender == AddressBuyer && \r... */\n    tag_149:\n        /* \"contracts/smart_contract.sol\":13680:13781  msg.sender == AddressBuyer && \r... */\n      dup1\n      iszero\n      tag_150\n      jumpi\n      pop\n        /* \"contracts/smart_contract.sol\":13777:13781  true */\n      0x1\n        /* \"contracts/smart_contract.sol\":13760:13781  Goal_HashData == true */\n      iszero\n      iszero\n        /* \"contracts/smart_contract.sol\":13760:13773  Goal_HashData */\n      0x12\n      0x1\n      swap1\n      sload\n      swap1\n      0x100\n      exp\n      swap1\n      div\n      0xff\n      and\n        /* \"contracts/smart_contract.sol\":13760:13781  Goal_HashData == true */\n      iszero\n      iszero\n      eq\n        /* \"contracts/smart_contract.sol\":13680:13781  msg.sender == AddressBuyer && \r... */\n    tag_150:\n        /* \"contracts/smart_contract.sol\":13680:13818  msg.sender == AddressBuyer && \r... */\n      dup1\n      iszero\n      tag_151\n      jumpi\n      pop\n        /* \"contracts/smart_contract.sol\":13814:13818  true */\n      0x1\n        /* \"contracts/smart_contract.sol\":13798:13818  Goal_HashKey == true */\n      iszero\n      iszero\n        /* \"contracts/smart_contract.sol\":13798:13810  Goal_HashKey */\n      0x12\n      0x2\n      swap1\n      sload\n      swap1\n      0x100\n      exp\n      swap1\n      div\n      0xff\n      and\n        /* \"contracts/smart_contract.sol\":13798:13818  Goal_HashKey == true */\n      iszero\n      iszero\n      eq\n        /* \"contracts/smart_contract.sol\":13680:13818  msg.sender == AddressBuyer && \r... */\n    tag_151:\n        /* \"contracts/smart_contract.sol\":13680:13853  msg.sender == AddressBuyer && \r... */\n      dup1\n      iszero\n      tag_152\n      jumpi\n      pop\n        /* \"contracts/smart_contract.sol\":13849:13853  true */\n      0x1\n        /* \"contracts/smart_contract.sol\":13835:13853  Goal_Money == true */\n      iszero\n      iszero\n        /* \"contracts/smart_contract.sol\":13835:13845  Goal_Money */\n      0x12\n      0x4\n      swap1\n      sload\n      swap1\n      0x100\n      exp\n      swap1\n      div\n      0xff\n      and\n        /* \"contracts/smart_contract.sol\":13835:13853  Goal_Money == true */\n      iszero\n      iszero\n      eq\n        /* \"contracts/smart_contract.sol\":13680:13853  msg.sender == AddressBuyer && \r... */\n    tag_152:\n        /* \"contracts/smart_contract.sol\":13680:13890  msg.sender == AddressBuyer && \r... */\n      dup1\n      iszero\n      tag_153\n      jumpi\n      pop\n        /* \"contracts/smart_contract.sol\":13886:13890  true */\n      0x1\n        /* \"contracts/smart_contract.sol\":13870:13890  Goal_PubKeyB == true */\n      iszero\n      iszero\n        /* \"contracts/smart_contract.sol\":13870:13882  Goal_PubKeyB */\n      0x12\n      0x5\n      swap1\n      sload\n      swap1\n      0x100\n      exp\n      swap1\n      div\n      0xff\n      and\n        /* \"contracts/smart_contract.sol\":13870:13890  Goal_PubKeyB == true */\n      iszero\n      iszero\n      eq\n        /* \"contracts/smart_contract.sol\":13680:13890  msg.sender == AddressBuyer && \r... */\n    tag_153:\n        /* \"contracts/smart_contract.sol\":13680:13923  msg.sender == AddressBuyer && \r... */\n      dup1\n      iszero\n      tag_154\n      jumpi\n      pop\n        /* \"contracts/smart_contract.sol\":13919:13923  true */\n      0x1\n        /* \"contracts/smart_contract.sol\":13907:13923  Goal_EnK == true */\n      iszero\n      iszero\n        /* \"contracts/smart_contract.sol\":13907:13915  Goal_EnK */\n      0x12\n      0x6\n      swap1\n      sload\n      swap1\n      0x100\n      exp\n      swap1\n      div\n      0xff\n      and\n        /* \"contracts/smart_contract.sol\":13907:13923  Goal_EnK == true */\n      iszero\n      iszero\n      eq\n        /* \"contracts/smart_contract.sol\":13680:13923  msg.sender == AddressBuyer && \r... */\n    tag_154:\n        /* \"contracts/smart_contract.sol\":13680:13960  msg.sender == AddressBuyer && \r... */\n      dup1\n      iszero\n      tag_155\n      jumpi\n      pop\n        /* \"contracts/smart_contract.sol\":13955:13960  false */\n      0x0\n        /* \"contracts/smart_contract.sol\":13940:13960  Goal_Verify == false */\n      iszero\n      iszero\n        /* \"contracts/smart_contract.sol\":13940:13951  Goal_Verify */\n      0x12\n      0x8\n      swap1\n      sload\n      swap1\n      0x100\n      exp\n      swap1\n      div\n      0xff\n      and\n        /* \"contracts/smart_contract.sol\":13940:13960  Goal_Verify == false */\n      iszero\n      iszero\n      eq\n        /* \"contracts/smart_contract.sol\":13680:13960  msg.sender == AddressBuyer && \r... */\n    tag_155:\n        /* \"contracts/smart_contract.sol\":13676:15939  if (msg.sender == AddressBuyer && \r... */\n      iszero\n      tag_156\n      jumpi\n        /* \"contracts/smart_contract.sol\":13992:13996  true */\n      0x1\n        /* \"contracts/smart_contract.sol\":13977:13989  Goal_Success */\n      0x12\n      0x9\n        /* \"contracts/smart_contract.sol\":13977:13996  Goal_Success = true */\n      0x100\n      exp\n      dup2\n      sload\n      dup2\n      0xff\n      mul\n      not\n      and\n      swap1\n      dup4\n      iszero\n      iszero\n      mul\n      or\n      swap1\n      sstore\n      pop\n        /* \"contracts/smart_contract.sol\":14016:14041  TransResult(Goal_Success) */\n      0x8145fa64e423c0c035a5a7c9148b97d0650abf5530debe121d7cb929ce57645d\n        /* \"contracts/smart_contract.sol\":14028:14040  Goal_Success */\n      0x12\n      0x9\n      swap1\n      sload\n      swap1\n      0x100\n      exp\n      swap1\n      div\n      0xff\n      and\n        /* \"contracts/smart_contract.sol\":14016:14041  TransResult(Goal_Success) */\n      mload(0x40)\n      dup1\n      dup3\n      iszero\n      iszero\n      iszero\n      iszero\n      dup2\n      mstore\n      0x20\n      add\n      swap2\n      pop\n      pop\n      mload(0x40)\n      dup1\n      swap2\n      sub\n      swap1\n      log1\n        /* \"contracts/smart_contract.sol\":14056:14066  AddressPay */\n      0xd\n      0x0\n      swap1\n      sload\n      swap1\n      0x100\n      exp\n      swap1\n      div\n      0xffffffffffffffffffffffffffffffffffffffff\n      and\n        /* \"contracts/smart_contract.sol\":14056:14075  AddressPay.transfer */\n      0xffffffffffffffffffffffffffffffffffffffff\n      and\n        /* \"contracts/smart_contract.sol\":14056:14089  AddressPay.transfer(Value_Amount) */\n      0x8fc\n        /* \"contracts/smart_contract.sol\":14076:14088  Value_Amount */\n      sload(0x0)\n        /* \"contracts/smart_contract.sol\":14056:14089  AddressPay.transfer(Value_Amount) */\n      swap1\n      dup2\n      iszero\n      mul\n      swap1\n      mload(0x40)\n      0x0\n      mload(0x40)\n      dup1\n      dup4\n      sub\n      dup2\n      dup6\n      dup9\n      dup9\n      call\n      swap4\n      pop\n      pop\n      pop\n      pop\n      iszero\n        /* \"--CODEGEN--\":8:17   */\n      dup1\n        /* \"--CODEGEN--\":5:7   */\n      iszero\n      tag_157\n      jumpi\n        /* \"--CODEGEN--\":45:61   */\n      returndatasize\n        /* \"--CODEGEN--\":42:43   */\n      0x0\n        /* \"--CODEGEN--\":39:40   */\n      dup1\n        /* \"--CODEGEN--\":24:62   */\n      returndatacopy\n        /* \"--CODEGEN--\":77:93   */\n      returndatasize\n        /* \"--CODEGEN--\":74:75   */\n      0x0\n        /* \"--CODEGEN--\":67:94   */\n      revert\n        /* \"--CODEGEN--\":5:7   */\n    tag_157:\n        /* \"contracts/smart_contract.sol\":14056:14089  AddressPay.transfer(Value_Amount) */\n      pop\n        /* \"contracts/smart_contract.sol\":14104:14114  AddressPay */\n      0xd\n      0x0\n      swap1\n      sload\n      swap1\n      0x100\n      exp\n      swap1\n      div\n      0xffffffffffffffffffffffffffffffffffffffff\n      and\n        /* \"contracts/smart_contract.sol\":14104:14123  AddressPay.transfer */\n      0xffffffffffffffffffffffffffffffffffffffff\n      and\n        /* \"contracts/smart_contract.sol\":14104:14138  AddressPay.transfer(Value_Deposit) */\n      0x8fc\n        /* \"contracts/smart_contract.sol\":14124:14137  Value_Deposit */\n      sload(0x1)\n        /* \"contracts/smart_contract.sol\":14104:14138  AddressPay.transfer(Value_Deposit) */\n      swap1\n      dup2\n      iszero\n      mul\n      swap1\n      mload(0x40)\n      0x0\n      mload(0x40)\n      dup1\n      dup4\n      sub\n      dup2\n      dup6\n      dup9\n      dup9\n      call\n      swap4\n      pop\n      pop\n      pop\n      pop\n      iszero\n        /* \"--CODEGEN--\":8:17   */\n      dup1\n        /* \"--CODEGEN--\":5:7   */\n      iszero\n      tag_158\n      jumpi\n        /* \"--CODEGEN--\":45:61   */\n      returndatasize\n        /* \"--CODEGEN--\":42:43   */\n      0x0\n        /* \"--CODEGEN--\":39:40   */\n      dup1\n        /* \"--CODEGEN--\":24:62   */\n      returndatacopy\n        /* \"--CODEGEN--\":77:93   */\n      returndatasize\n        /* \"--CODEGEN--\":74:75   */\n      0x0\n        /* \"--CODEGEN--\":67:94   */\n      revert\n        /* \"--CODEGEN--\":5:7   */\n    tag_158:\n        /* \"contracts/smart_contract.sol\":14104:14138  AddressPay.transfer(Value_Deposit) */\n      pop\n        /* \"contracts/smart_contract.sol\":13676:15939  if (msg.sender == AddressBuyer && \r... */\n      jump(tag_159)\n    tag_156:\n        /* \"contracts/smart_contract.sol\":14239:14249  AddressPay */\n      0xd\n      0x0\n      swap1\n      sload\n      swap1\n      0x100\n      exp\n      swap1\n      div\n      0xffffffffffffffffffffffffffffffffffffffff\n      and\n        /* \"contracts/smart_contract.sol\":14225:14249  msg.sender == AddressPay */\n      0xffffffffffffffffffffffffffffffffffffffff\n      and\n        /* \"contracts/smart_contract.sol\":14225:14235  msg.sender */\n      caller\n        /* \"contracts/smart_contract.sol\":14225:14249  msg.sender == AddressPay */\n      0xffffffffffffffffffffffffffffffffffffffff\n      and\n      eq\n        /* \"contracts/smart_contract.sol\":14225:14291  msg.sender == AddressPay &&\r... */\n      dup1\n      iszero\n      tag_160\n      jumpi\n      pop\n        /* \"contracts/smart_contract.sol\":14287:14291  true */\n      0x1\n        /* \"contracts/smart_contract.sol\":14271:14291  Goal_Deposit == true */\n      iszero\n      iszero\n        /* \"contracts/smart_contract.sol\":14271:14283  Goal_Deposit */\n      0x12\n      0x3\n      swap1\n      sload\n      swap1\n      0x100\n      exp\n      swap1\n      div\n      0xff\n      and\n        /* \"contracts/smart_contract.sol\":14271:14291  Goal_Deposit == true */\n      iszero\n      iszero\n      eq\n        /* \"contracts/smart_contract.sol\":14225:14291  msg.sender == AddressPay &&\r... */\n    tag_160:\n        /* \"contracts/smart_contract.sol\":14225:14332  msg.sender == AddressPay &&\r... */\n      dup1\n      iszero\n      tag_161\n      jumpi\n      pop\n        /* \"contracts/smart_contract.sol\":14327:14332  false */\n      0x0\n        /* \"contracts/smart_contract.sol\":14313:14332  Goal_First == false */\n      iszero\n      iszero\n        /* \"contracts/smart_contract.sol\":14313:14323  Goal_First */\n      0x12\n      0xa\n      swap1\n      sload\n      swap1\n      0x100\n      exp\n      swap1\n      div\n      0xff\n      and\n        /* \"contracts/smart_contract.sol\":14313:14332  Goal_First == false */\n      iszero\n      iszero\n      eq\n        /* \"contracts/smart_contract.sol\":14225:14332  msg.sender == AddressPay &&\r... */\n    tag_161:\n        /* \"contracts/smart_contract.sol\":14221:15939  if (msg.sender == AddressPay &&\r... */\n      iszero\n      tag_162\n      jumpi\n        /* \"contracts/smart_contract.sol\":14364:14369  false */\n      0x0\n        /* \"contracts/smart_contract.sol\":14349:14361  Goal_Success */\n      0x12\n      0x9\n        /* \"contracts/smart_contract.sol\":14349:14369  Goal_Success = false */\n      0x100\n      exp\n      dup2\n      sload\n      dup2\n      0xff\n      mul\n      not\n      and\n      swap1\n      dup4\n      iszero\n      iszero\n      mul\n      or\n      swap1\n      sstore\n      pop\n        /* \"contracts/smart_contract.sol\":14389:14414  TransResult(Goal_Success) */\n      0x8145fa64e423c0c035a5a7c9148b97d0650abf5530debe121d7cb929ce57645d\n        /* \"contracts/smart_contract.sol\":14401:14413  Goal_Success */\n      0x12\n      0x9\n      swap1\n      sload\n      swap1\n      0x100\n      exp\n      swap1\n      div\n      0xff\n      and\n        /* \"contracts/smart_contract.sol\":14389:14414  TransResult(Goal_Success) */\n      mload(0x40)\n      dup1\n      dup3\n      iszero\n      iszero\n      iszero\n      iszero\n      dup2\n      mstore\n      0x20\n      add\n      swap2\n      pop\n      pop\n      mload(0x40)\n      dup1\n      swap2\n      sub\n      swap1\n      log1\n        /* \"contracts/smart_contract.sol\":14429:14439  AddressPay */\n      0xd\n      0x0\n      swap1\n      sload\n      swap1\n      0x100\n      exp\n      swap1\n      div\n      0xffffffffffffffffffffffffffffffffffffffff\n      and\n        /* \"contracts/smart_contract.sol\":14429:14448  AddressPay.transfer */\n      0xffffffffffffffffffffffffffffffffffffffff\n      and\n        /* \"contracts/smart_contract.sol\":14429:14463  AddressPay.transfer(Value_Deposit) */\n      0x8fc\n        /* \"contracts/smart_contract.sol\":14449:14462  Value_Deposit */\n      sload(0x1)\n        /* \"contracts/smart_contract.sol\":14429:14463  AddressPay.transfer(Value_Deposit) */\n      swap1\n      dup2\n      iszero\n      mul\n      swap1\n      mload(0x40)\n      0x0\n      mload(0x40)\n      dup1\n      dup4\n      sub\n      dup2\n      dup6\n      dup9\n      dup9\n      call\n      swap4\n      pop\n      pop\n      pop\n      pop\n      iszero\n        /* \"--CODEGEN--\":8:17   */\n      dup1\n        /* \"--CODEGEN--\":5:7   */\n      iszero\n      tag_163\n      jumpi\n        /* \"--CODEGEN--\":45:61   */\n      returndatasize\n        /* \"--CODEGEN--\":42:43   */\n      0x0\n        /* \"--CODEGEN--\":39:40   */\n      dup1\n        /* \"--CODEGEN--\":24:62   */\n      returndatacopy\n        /* \"--CODEGEN--\":77:93   */\n      returndatasize\n        /* \"--CODEGEN--\":74:75   */\n      0x0\n        /* \"--CODEGEN--\":67:94   */\n      revert\n        /* \"--CODEGEN--\":5:7   */\n    tag_163:\n        /* \"contracts/smart_contract.sol\":14429:14463  AddressPay.transfer(Value_Deposit) */\n      pop\n        /* \"contracts/smart_contract.sol\":14221:15939  if (msg.sender == AddressPay &&\r... */\n      jump(tag_164)\n    tag_162:\n        /* \"contracts/smart_contract.sol\":14547:14551  true */\n      0x1\n        /* \"contracts/smart_contract.sol\":14547:14593  true &&\r... */\n      dup1\n      iszero\n      tag_165\n      jumpi\n      pop\n        /* \"contracts/smart_contract.sol\":14588:14593  false */\n      0x0\n        /* \"contracts/smart_contract.sol\":14573:14593  Goal_Second == false */\n      iszero\n      iszero\n        /* \"contracts/smart_contract.sol\":14573:14584  Goal_Second */\n      0x12\n      0xb\n      swap1\n      sload\n      swap1\n      0x100\n      exp\n      swap1\n      div\n      0xff\n      and\n        /* \"contracts/smart_contract.sol\":14573:14593  Goal_Second == false */\n      iszero\n      iszero\n      eq\n        /* \"contracts/smart_contract.sol\":14547:14593  true &&\r... */\n    tag_165:\n        /* \"contracts/smart_contract.sol\":14534:14544  Goal_Money */\n      0x12\n      0x4\n        /* \"contracts/smart_contract.sol\":14534:14593  Goal_Money = true &&\r... */\n      0x100\n      exp\n      dup2\n      sload\n      dup2\n      0xff\n      mul\n      not\n      and\n      swap1\n      dup4\n      iszero\n      iszero\n      mul\n      or\n      swap1\n      sstore\n        /* \"contracts/smart_contract.sol\":14530:15939  if (Goal_Money = true &&\r... */\n      iszero\n      tag_166\n      jumpi\n        /* \"contracts/smart_contract.sol\":14625:14630  false */\n      0x0\n        /* \"contracts/smart_contract.sol\":14610:14622  Goal_Success */\n      0x12\n      0x9\n        /* \"contracts/smart_contract.sol\":14610:14630  Goal_Success = false */\n      0x100\n      exp\n      dup2\n      sload\n      dup2\n      0xff\n      mul\n      not\n      and\n      swap1\n      dup4\n      iszero\n      iszero\n      mul\n      or\n      swap1\n      sstore\n      pop\n        /* \"contracts/smart_contract.sol\":14650:14675  TransResult(Goal_Success) */\n      0x8145fa64e423c0c035a5a7c9148b97d0650abf5530debe121d7cb929ce57645d\n        /* \"contracts/smart_contract.sol\":14662:14674  Goal_Success */\n      0x12\n      0x9\n      swap1\n      sload\n      swap1\n      0x100\n      exp\n      swap1\n      div\n      0xff\n      and\n        /* \"contracts/smart_contract.sol\":14650:14675  TransResult(Goal_Success) */\n      mload(0x40)\n      dup1\n      dup3\n      iszero\n      iszero\n      iszero\n      iszero\n      dup2\n      mstore\n      0x20\n      add\n      swap2\n      pop\n      pop\n      mload(0x40)\n      dup1\n      swap2\n      sub\n      swap1\n      log1\n        /* \"contracts/smart_contract.sol\":14690:14700  AddressPay */\n      0xd\n      0x0\n      swap1\n      sload\n      swap1\n      0x100\n      exp\n      swap1\n      div\n      0xffffffffffffffffffffffffffffffffffffffff\n      and\n        /* \"contracts/smart_contract.sol\":14690:14709  AddressPay.transfer */\n      0xffffffffffffffffffffffffffffffffffffffff\n      and\n        /* \"contracts/smart_contract.sol\":14690:14724  AddressPay.transfer(Value_Deposit) */\n      0x8fc\n        /* \"contracts/smart_contract.sol\":14710:14723  Value_Deposit */\n      sload(0x1)\n        /* \"contracts/smart_contract.sol\":14690:14724  AddressPay.transfer(Value_Deposit) */\n      swap1\n      dup2\n      iszero\n      mul\n      swap1\n      mload(0x40)\n      0x0\n      mload(0x40)\n      dup1\n      dup4\n      sub\n      dup2\n      dup6\n      dup9\n      dup9\n      call\n      swap4\n      pop\n      pop\n      pop\n      pop\n      iszero\n        /* \"--CODEGEN--\":8:17   */\n      dup1\n        /* \"--CODEGEN--\":5:7   */\n      iszero\n      tag_167\n      jumpi\n        /* \"--CODEGEN--\":45:61   */\n      returndatasize\n        /* \"--CODEGEN--\":42:43   */\n      0x0\n        /* \"--CODEGEN--\":39:40   */\n      dup1\n        /* \"--CODEGEN--\":24:62   */\n      returndatacopy\n        /* \"--CODEGEN--\":77:93   */\n      returndatasize\n        /* \"--CODEGEN--\":74:75   */\n      0x0\n        /* \"--CODEGEN--\":67:94   */\n      revert\n        /* \"--CODEGEN--\":5:7   */\n    tag_167:\n        /* \"contracts/smart_contract.sol\":14690:14724  AddressPay.transfer(Value_Deposit) */\n      pop\n        /* \"contracts/smart_contract.sol\":14739:14751  AddressBuyer */\n      0xe\n      0x0\n      swap1\n      sload\n      swap1\n      0x100\n      exp\n      swap1\n      div\n      0xffffffffffffffffffffffffffffffffffffffff\n      and\n        /* \"contracts/smart_contract.sol\":14739:14760  AddressBuyer.transfer */\n      0xffffffffffffffffffffffffffffffffffffffff\n      and\n        /* \"contracts/smart_contract.sol\":14739:14774  AddressBuyer.transfer(Value_Amount) */\n      0x8fc\n        /* \"contracts/smart_contract.sol\":14761:14773  Value_Amount */\n      sload(0x0)\n        /* \"contracts/smart_contract.sol\":14739:14774  AddressBuyer.transfer(Value_Amount) */\n      swap1\n      dup2\n      iszero\n      mul\n      swap1\n      mload(0x40)\n      0x0\n      mload(0x40)\n      dup1\n      dup4\n      sub\n      dup2\n      dup6\n      dup9\n      dup9\n      call\n      swap4\n      pop\n      pop\n      pop\n      pop\n      iszero\n        /* \"--CODEGEN--\":8:17   */\n      dup1\n        /* \"--CODEGEN--\":5:7   */\n      iszero\n      tag_168\n      jumpi\n        /* \"--CODEGEN--\":45:61   */\n      returndatasize\n        /* \"--CODEGEN--\":42:43   */\n      0x0\n        /* \"--CODEGEN--\":39:40   */\n      dup1\n        /* \"--CODEGEN--\":24:62   */\n      returndatacopy\n        /* \"--CODEGEN--\":77:93   */\n      returndatasize\n        /* \"--CODEGEN--\":74:75   */\n      0x0\n        /* \"--CODEGEN--\":67:94   */\n      revert\n        /* \"--CODEGEN--\":5:7   */\n    tag_168:\n        /* \"contracts/smart_contract.sol\":14739:14774  AddressBuyer.transfer(Value_Amount) */\n      pop\n        /* \"contracts/smart_contract.sol\":14530:15939  if (Goal_Money = true &&\r... */\n      jump(tag_169)\n    tag_166:\n        /* \"contracts/smart_contract.sol\":14898:14902  true */\n      0x1\n        /* \"contracts/smart_contract.sol\":14886:14902  Goal_EnK == true */\n      iszero\n      iszero\n        /* \"contracts/smart_contract.sol\":14886:14894  Goal_EnK */\n      0x12\n      0x6\n      swap1\n      sload\n      swap1\n      0x100\n      exp\n      swap1\n      div\n      0xff\n      and\n        /* \"contracts/smart_contract.sol\":14886:14902  Goal_EnK == true */\n      iszero\n      iszero\n      eq\n        /* \"contracts/smart_contract.sol\":14886:14944  Goal_EnK == true &&\r... */\n      dup1\n      iszero\n      tag_170\n      jumpi\n      pop\n        /* \"contracts/smart_contract.sol\":14939:14944  false */\n      0x0\n        /* \"contracts/smart_contract.sol\":14924:14944  Goal_GotRep == false */\n      iszero\n      iszero\n        /* \"contracts/smart_contract.sol\":14924:14935  Goal_GotRep */\n      0x12\n      0x7\n      swap1\n      sload\n      swap1\n      0x100\n      exp\n      swap1\n      div\n      0xff\n      and\n        /* \"contracts/smart_contract.sol\":14924:14944  Goal_GotRep == false */\n      iszero\n      iszero\n      eq\n        /* \"contracts/smart_contract.sol\":14886:14944  Goal_EnK == true &&\r... */\n    tag_170:\n        /* \"contracts/smart_contract.sol\":14886:14995  Goal_EnK == true &&\r... */\n      dup1\n      iszero\n      tag_171\n      jumpi\n      pop\n        /* \"contracts/smart_contract.sol\":14986:14994  Time_Rep */\n      sload(0x5)\n        /* \"contracts/smart_contract.sol\":14973:14983  Time_Third */\n      sload(0x4)\n        /* \"contracts/smart_contract.sol\":14973:14994  Time_Third + Time_Rep */\n      add\n        /* \"contracts/smart_contract.sol\":14967:14970  now */\n      timestamp\n        /* \"contracts/smart_contract.sol\":14967:14994  now > Time_Third + Time_Rep */\n      gt\n        /* \"contracts/smart_contract.sol\":14886:14995  Goal_EnK == true &&\r... */\n    tag_171:\n        /* \"contracts/smart_contract.sol\":14882:15939  if (Goal_EnK == true &&\r... */\n      iszero\n      tag_172\n      jumpi\n        /* \"contracts/smart_contract.sol\":15027:15031  true */\n      0x1\n        /* \"contracts/smart_contract.sol\":15012:15024  Goal_Success */\n      0x12\n      0x9\n        /* \"contracts/smart_contract.sol\":15012:15031  Goal_Success = true */\n      0x100\n      exp\n      dup2\n      sload\n      dup2\n      0xff\n      mul\n      not\n      and\n      swap1\n      dup4\n      iszero\n      iszero\n      mul\n      or\n      swap1\n      sstore\n      pop\n        /* \"contracts/smart_contract.sol\":15051:15076  TransResult(Goal_Success) */\n      0x8145fa64e423c0c035a5a7c9148b97d0650abf5530debe121d7cb929ce57645d\n        /* \"contracts/smart_contract.sol\":15063:15075  Goal_Success */\n      0x12\n      0x9\n      swap1\n      sload\n      swap1\n      0x100\n      exp\n      swap1\n      div\n      0xff\n      and\n        /* \"contracts/smart_contract.sol\":15051:15076  TransResult(Goal_Success) */\n      mload(0x40)\n      dup1\n      dup3\n      iszero\n      iszero\n      iszero\n      iszero\n      dup2\n      mstore\n      0x20\n      add\n      swap2\n      pop\n      pop\n      mload(0x40)\n      dup1\n      swap2\n      sub\n      swap1\n      log1\n        /* \"contracts/smart_contract.sol\":15091:15101  AddressPay */\n      0xd\n      0x0\n      swap1\n      sload\n      swap1\n      0x100\n      exp\n      swap1\n      div\n      0xffffffffffffffffffffffffffffffffffffffff\n      and\n        /* \"contracts/smart_contract.sol\":15091:15110  AddressPay.transfer */\n      0xffffffffffffffffffffffffffffffffffffffff\n      and\n        /* \"contracts/smart_contract.sol\":15091:15124  AddressPay.transfer(Value_Amount) */\n      0x8fc\n        /* \"contracts/smart_contract.sol\":15111:15123  Value_Amount */\n      sload(0x0)\n        /* \"contracts/smart_contract.sol\":15091:15124  AddressPay.transfer(Value_Amount) */\n      swap1\n      dup2\n      iszero\n      mul\n      swap1\n      mload(0x40)\n      0x0\n      mload(0x40)\n      dup1\n      dup4\n      sub\n      dup2\n      dup6\n      dup9\n      dup9\n      call\n      swap4\n      pop\n      pop\n      pop\n      pop\n      iszero\n        /* \"--CODEGEN--\":8:17   */\n      dup1\n        /* \"--CODEGEN--\":5:7   */\n      iszero\n      tag_173\n      jumpi\n        /* \"--CODEGEN--\":45:61   */\n      returndatasize\n        /* \"--CODEGEN--\":42:43   */\n      0x0\n        /* \"--CODEGEN--\":39:40   */\n      dup1\n        /* \"--CODEGEN--\":24:62   */\n      returndatacopy\n        /* \"--CODEGEN--\":77:93   */\n      returndatasize\n        /* \"--CODEGEN--\":74:75   */\n      0x0\n        /* \"--CODEGEN--\":67:94   */\n      revert\n        /* \"--CODEGEN--\":5:7   */\n    tag_173:\n        /* \"contracts/smart_contract.sol\":15091:15124  AddressPay.transfer(Value_Amount) */\n      pop\n        /* \"contracts/smart_contract.sol\":15139:15149  AddressPay */\n      0xd\n      0x0\n      swap1\n      sload\n      swap1\n      0x100\n      exp\n      swap1\n      div\n      0xffffffffffffffffffffffffffffffffffffffff\n      and\n        /* \"contracts/smart_contract.sol\":15139:15158  AddressPay.transfer */\n      0xffffffffffffffffffffffffffffffffffffffff\n      and\n        /* \"contracts/smart_contract.sol\":15139:15173  AddressPay.transfer(Value_Deposit) */\n      0x8fc\n        /* \"contracts/smart_contract.sol\":15159:15172  Value_Deposit */\n      sload(0x1)\n        /* \"contracts/smart_contract.sol\":15139:15173  AddressPay.transfer(Value_Deposit) */\n      swap1\n      dup2\n      iszero\n      mul\n      swap1\n      mload(0x40)\n      0x0\n      mload(0x40)\n      dup1\n      dup4\n      sub\n      dup2\n      dup6\n      dup9\n      dup9\n      call\n      swap4\n      pop\n      pop\n      pop\n      pop\n      iszero\n        /* \"--CODEGEN--\":8:17   */\n      dup1\n        /* \"--CODEGEN--\":5:7   */\n      iszero\n      tag_174\n      jumpi\n        /* \"--CODEGEN--\":45:61   */\n      returndatasize\n        /* \"--CODEGEN--\":42:43   */\n      0x0\n        /* \"--CODEGEN--\":39:40   */\n      dup1\n        /* \"--CODEGEN--\":24:62   */\n      returndatacopy\n        /* \"--CODEGEN--\":77:93   */\n      returndatasize\n        /* \"--CODEGEN--\":74:75   */\n      0x0\n        /* \"--CODEGEN--\":67:94   */\n      revert\n        /* \"--CODEGEN--\":5:7   */\n    tag_174:\n        /* \"contracts/smart_contract.sol\":15139:15173  AddressPay.transfer(Value_Deposit) */\n      pop\n        /* \"contracts/smart_contract.sol\":14882:15939  if (Goal_EnK == true &&\r... */\n      jump(tag_175)\n    tag_172:\n        /* \"contracts/smart_contract.sol\":15251:15264  AddressVerify */\n      0xf\n      0x0\n      swap1\n      sload\n      swap1\n      0x100\n      exp\n      swap1\n      div\n      0xffffffffffffffffffffffffffffffffffffffff\n      and\n        /* \"contracts/smart_contract.sol\":15237:15264  msg.sender == AddressVerify */\n      0xffffffffffffffffffffffffffffffffffffffff\n      and\n        /* \"contracts/smart_contract.sol\":15237:15247  msg.sender */\n      caller\n        /* \"contracts/smart_contract.sol\":15237:15264  msg.sender == AddressVerify */\n      0xffffffffffffffffffffffffffffffffffffffff\n      and\n      eq\n        /* \"contracts/smart_contract.sol\":15237:15305  msg.sender == AddressVerify &&\r... */\n      dup1\n      iszero\n      tag_176\n      jumpi\n      pop\n        /* \"contracts/smart_contract.sol\":15301:15305  true */\n      0x1\n        /* \"contracts/smart_contract.sol\":15286:15305  Goal_GotRep == true */\n      iszero\n      iszero\n        /* \"contracts/smart_contract.sol\":15286:15297  Goal_GotRep */\n      0x12\n      0x7\n      swap1\n      sload\n      swap1\n      0x100\n      exp\n      swap1\n      div\n      0xff\n      and\n        /* \"contracts/smart_contract.sol\":15286:15305  Goal_GotRep == true */\n      iszero\n      iszero\n      eq\n        /* \"contracts/smart_contract.sol\":15237:15305  msg.sender == AddressVerify &&\r... */\n    tag_176:\n        /* \"contracts/smart_contract.sol\":15237:15346  msg.sender == AddressVerify &&\r... */\n      dup1\n      iszero\n      tag_177\n      jumpi\n      pop\n        /* \"contracts/smart_contract.sol\":15342:15346  true */\n      0x1\n        /* \"contracts/smart_contract.sol\":15327:15346  Goal_Verify == true */\n      iszero\n      iszero\n        /* \"contracts/smart_contract.sol\":15327:15338  Goal_Verify */\n      0x12\n      0x8\n      swap1\n      sload\n      swap1\n      0x100\n      exp\n      swap1\n      div\n      0xff\n      and\n        /* \"contracts/smart_contract.sol\":15327:15346  Goal_Verify == true */\n      iszero\n      iszero\n      eq\n        /* \"contracts/smart_contract.sol\":15237:15346  msg.sender == AddressVerify &&\r... */\n    tag_177:\n        /* \"contracts/smart_contract.sol\":15233:15939  if (msg.sender == AddressVerify &&\r... */\n      iszero\n      tag_178\n      jumpi\n        /* \"contracts/smart_contract.sol\":15378:15383  false */\n      0x0\n        /* \"contracts/smart_contract.sol\":15363:15375  Goal_Success */\n      0x12\n      0x9\n        /* \"contracts/smart_contract.sol\":15363:15383  Goal_Success = false */\n      0x100\n      exp\n      dup2\n      sload\n      dup2\n      0xff\n      mul\n      not\n      and\n      swap1\n      dup4\n      iszero\n      iszero\n      mul\n      or\n      swap1\n      sstore\n      pop\n        /* \"contracts/smart_contract.sol\":15403:15428  TransResult(Goal_Success) */\n      0x8145fa64e423c0c035a5a7c9148b97d0650abf5530debe121d7cb929ce57645d\n        /* \"contracts/smart_contract.sol\":15415:15427  Goal_Success */\n      0x12\n      0x9\n      swap1\n      sload\n      swap1\n      0x100\n      exp\n      swap1\n      div\n      0xff\n      and\n        /* \"contracts/smart_contract.sol\":15403:15428  TransResult(Goal_Success) */\n      mload(0x40)\n      dup1\n      dup3\n      iszero\n      iszero\n      iszero\n      iszero\n      dup2\n      mstore\n      0x20\n      add\n      swap2\n      pop\n      pop\n      mload(0x40)\n      dup1\n      swap2\n      sub\n      swap1\n      log1\n        /* \"contracts/smart_contract.sol\":15443:15455  AddressBuyer */\n      0xe\n      0x0\n      swap1\n      sload\n      swap1\n      0x100\n      exp\n      swap1\n      div\n      0xffffffffffffffffffffffffffffffffffffffff\n      and\n        /* \"contracts/smart_contract.sol\":15443:15464  AddressBuyer.transfer */\n      0xffffffffffffffffffffffffffffffffffffffff\n      and\n        /* \"contracts/smart_contract.sol\":15443:15479  AddressBuyer.transfer(Value_Deposit) */\n      0x8fc\n        /* \"contracts/smart_contract.sol\":15465:15478  Value_Deposit */\n      sload(0x1)\n        /* \"contracts/smart_contract.sol\":15443:15479  AddressBuyer.transfer(Value_Deposit) */\n      swap1\n      dup2\n      iszero\n      mul\n      swap1\n      mload(0x40)\n      0x0\n      mload(0x40)\n      dup1\n      dup4\n      sub\n      dup2\n      dup6\n      dup9\n      dup9\n      call\n      swap4\n      pop\n      pop\n      pop\n      pop\n      iszero\n        /* \"--CODEGEN--\":8:17   */\n      dup1\n        /* \"--CODEGEN--\":5:7   */\n      iszero\n      tag_179\n      jumpi\n        /* \"--CODEGEN--\":45:61   */\n      returndatasize\n        /* \"--CODEGEN--\":42:43   */\n      0x0\n        /* \"--CODEGEN--\":39:40   */\n      dup1\n        /* \"--CODEGEN--\":24:62   */\n      returndatacopy\n        /* \"--CODEGEN--\":77:93   */\n      returndatasize\n        /* \"--CODEGEN--\":74:75   */\n      0x0\n        /* \"--CODEGEN--\":67:94   */\n      revert\n        /* \"--CODEGEN--\":5:7   */\n    tag_179:\n        /* \"contracts/smart_contract.sol\":15443:15479  AddressBuyer.transfer(Value_Deposit) */\n      pop\n        /* \"contracts/smart_contract.sol\":15494:15506  AddressBuyer */\n      0xe\n      0x0\n      swap1\n      sload\n      swap1\n      0x100\n      exp\n      swap1\n      div\n      0xffffffffffffffffffffffffffffffffffffffff\n      and\n        /* \"contracts/smart_contract.sol\":15494:15515  AddressBuyer.transfer */\n      0xffffffffffffffffffffffffffffffffffffffff\n      and\n        /* \"contracts/smart_contract.sol\":15494:15529  AddressBuyer.transfer(Value_Amount) */\n      0x8fc\n        /* \"contracts/smart_contract.sol\":15516:15528  Value_Amount */\n      sload(0x0)\n        /* \"contracts/smart_contract.sol\":15494:15529  AddressBuyer.transfer(Value_Amount) */\n      swap1\n      dup2\n      iszero\n      mul\n      swap1\n      mload(0x40)\n      0x0\n      mload(0x40)\n      dup1\n      dup4\n      sub\n      dup2\n      dup6\n      dup9\n      dup9\n      call\n      swap4\n      pop\n      pop\n      pop\n      pop\n      iszero\n        /* \"--CODEGEN--\":8:17   */\n      dup1\n        /* \"--CODEGEN--\":5:7   */\n      iszero\n      tag_180\n      jumpi\n        /* \"--CODEGEN--\":45:61   */\n      returndatasize\n        /* \"--CODEGEN--\":42:43   */\n      0x0\n        /* \"--CODEGEN--\":39:40   */\n      dup1\n        /* \"--CODEGEN--\":24:62   */\n      returndatacopy\n        /* \"--CODEGEN--\":77:93   */\n      returndatasize\n        /* \"--CODEGEN--\":74:75   */\n      0x0\n        /* \"--CODEGEN--\":67:94   */\n      revert\n        /* \"--CODEGEN--\":5:7   */\n    tag_180:\n        /* \"contracts/smart_contract.sol\":15494:15529  AddressBuyer.transfer(Value_Amount) */\n      pop\n        /* \"contracts/smart_contract.sol\":15233:15939  if (msg.sender == AddressVerify &&\r... */\n      jump(tag_181)\n    tag_178:\n        /* \"contracts/smart_contract.sol\":15607:15620  AddressVerify */\n      0xf\n      0x0\n      swap1\n      sload\n      swap1\n      0x100\n      exp\n      swap1\n      div\n      0xffffffffffffffffffffffffffffffffffffffff\n      and\n        /* \"contracts/smart_contract.sol\":15593:15620  msg.sender == AddressVerify */\n      0xffffffffffffffffffffffffffffffffffffffff\n      and\n        /* \"contracts/smart_contract.sol\":15593:15603  msg.sender */\n      caller\n        /* \"contracts/smart_contract.sol\":15593:15620  msg.sender == AddressVerify */\n      0xffffffffffffffffffffffffffffffffffffffff\n      and\n      eq\n        /* \"contracts/smart_contract.sol\":15593:15661  msg.sender == AddressVerify &&\r... */\n      dup1\n      iszero\n      tag_182\n      jumpi\n      pop\n        /* \"contracts/smart_contract.sol\":15657:15661  true */\n      0x1\n        /* \"contracts/smart_contract.sol\":15642:15661  Goal_GotRep == true */\n      iszero\n      iszero\n        /* \"contracts/smart_contract.sol\":15642:15653  Goal_GotRep */\n      0x12\n      0x7\n      swap1\n      sload\n      swap1\n      0x100\n      exp\n      swap1\n      div\n      0xff\n      and\n        /* \"contracts/smart_contract.sol\":15642:15661  Goal_GotRep == true */\n      iszero\n      iszero\n      eq\n        /* \"contracts/smart_contract.sol\":15593:15661  msg.sender == AddressVerify &&\r... */\n    tag_182:\n        /* \"contracts/smart_contract.sol\":15593:15703  msg.sender == AddressVerify &&\r... */\n      dup1\n      iszero\n      tag_183\n      jumpi\n      pop\n        /* \"contracts/smart_contract.sol\":15698:15703  false */\n      0x0\n        /* \"contracts/smart_contract.sol\":15683:15703  Goal_Verify == false */\n      iszero\n      iszero\n        /* \"contracts/smart_contract.sol\":15683:15694  Goal_Verify */\n      0x12\n      0x8\n      swap1\n      sload\n      swap1\n      0x100\n      exp\n      swap1\n      div\n      0xff\n      and\n        /* \"contracts/smart_contract.sol\":15683:15703  Goal_Verify == false */\n      iszero\n      iszero\n      eq\n        /* \"contracts/smart_contract.sol\":15593:15703  msg.sender == AddressVerify &&\r... */\n    tag_183:\n        /* \"contracts/smart_contract.sol\":15589:15939  if (msg.sender == AddressVerify &&\r... */\n      iszero\n      tag_184\n      jumpi\n        /* \"contracts/smart_contract.sol\":15735:15740  false */\n      0x0\n        /* \"contracts/smart_contract.sol\":15720:15732  Goal_Success */\n      0x12\n      0x9\n        /* \"contracts/smart_contract.sol\":15720:15740  Goal_Success = false */\n      0x100\n      exp\n      dup2\n      sload\n      dup2\n      0xff\n      mul\n      not\n      and\n      swap1\n      dup4\n      iszero\n      iszero\n      mul\n      or\n      swap1\n      sstore\n      pop\n        /* \"contracts/smart_contract.sol\":15760:15785  TransResult(Goal_Success) */\n      0x8145fa64e423c0c035a5a7c9148b97d0650abf5530debe121d7cb929ce57645d\n        /* \"contracts/smart_contract.sol\":15772:15784  Goal_Success */\n      0x12\n      0x9\n      swap1\n      sload\n      swap1\n      0x100\n      exp\n      swap1\n      div\n      0xff\n      and\n        /* \"contracts/smart_contract.sol\":15760:15785  TransResult(Goal_Success) */\n      mload(0x40)\n      dup1\n      dup3\n      iszero\n      iszero\n      iszero\n      iszero\n      dup2\n      mstore\n      0x20\n      add\n      swap2\n      pop\n      pop\n      mload(0x40)\n      dup1\n      swap2\n      sub\n      swap1\n      log1\n        /* \"contracts/smart_contract.sol\":15800:15810  AddressPay */\n      0xd\n      0x0\n      swap1\n      sload\n      swap1\n      0x100\n      exp\n      swap1\n      div\n      0xffffffffffffffffffffffffffffffffffffffff\n      and\n        /* \"contracts/smart_contract.sol\":15800:15819  AddressPay.transfer */\n      0xffffffffffffffffffffffffffffffffffffffff\n      and\n        /* \"contracts/smart_contract.sol\":15800:15834  AddressPay.transfer(Value_Deposit) */\n      0x8fc\n        /* \"contracts/smart_contract.sol\":15820:15833  Value_Deposit */\n      sload(0x1)\n        /* \"contracts/smart_contract.sol\":15800:15834  AddressPay.transfer(Value_Deposit) */\n      swap1\n      dup2\n      iszero\n      mul\n      swap1\n      mload(0x40)\n      0x0\n      mload(0x40)\n      dup1\n      dup4\n      sub\n      dup2\n      dup6\n      dup9\n      dup9\n      call\n      swap4\n      pop\n      pop\n      pop\n      pop\n      iszero\n        /* \"--CODEGEN--\":8:17   */\n      dup1\n        /* \"--CODEGEN--\":5:7   */\n      iszero\n      tag_185\n      jumpi\n        /* \"--CODEGEN--\":45:61   */\n      returndatasize\n        /* \"--CODEGEN--\":42:43   */\n      0x0\n        /* \"--CODEGEN--\":39:40   */\n      dup1\n        /* \"--CODEGEN--\":24:62   */\n      returndatacopy\n        /* \"--CODEGEN--\":77:93   */\n      returndatasize\n        /* \"--CODEGEN--\":74:75   */\n      0x0\n        /* \"--CODEGEN--\":67:94   */\n      revert\n        /* \"--CODEGEN--\":5:7   */\n    tag_185:\n        /* \"contracts/smart_contract.sol\":15800:15834  AddressPay.transfer(Value_Deposit) */\n      pop\n        /* \"contracts/smart_contract.sol\":15849:15859  AddressPay */\n      0xd\n      0x0\n      swap1\n      sload\n      swap1\n      0x100\n      exp\n      swap1\n      div\n      0xffffffffffffffffffffffffffffffffffffffff\n      and\n        /* \"contracts/smart_contract.sol\":15849:15868  AddressPay.transfer */\n      0xffffffffffffffffffffffffffffffffffffffff\n      and\n        /* \"contracts/smart_contract.sol\":15849:15882  AddressPay.transfer(Value_Amount) */\n      0x8fc\n        /* \"contracts/smart_contract.sol\":15869:15881  Value_Amount */\n      sload(0x0)\n        /* \"contracts/smart_contract.sol\":15849:15882  AddressPay.transfer(Value_Amount) */\n      swap1\n      dup2\n      iszero\n      mul\n      swap1\n      mload(0x40)\n      0x0\n      mload(0x40)\n      dup1\n      dup4\n      sub\n      dup2\n      dup6\n      dup9\n      dup9\n      call\n      swap4\n      pop\n      pop\n      pop\n      pop\n      iszero\n        /* \"--CODEGEN--\":8:17   */\n      dup1\n        /* \"--CODEGEN--\":5:7   */\n      iszero\n      tag_186\n      jumpi\n        /* \"--CODEGEN--\":45:61   */\n      returndatasize\n        /* \"--CODEGEN--\":42:43   */\n      0x0\n        /* \"--CODEGEN--\":39:40   */\n      dup1\n        /* \"--CODEGEN--\":24:62   */\n      returndatacopy\n        /* \"--CODEGEN--\":77:93   */\n      returndatasize\n        /* \"--CODEGEN--\":74:75   */\n      0x0\n        /* \"--CODEGEN--\":67:94   */\n      revert\n        /* \"--CODEGEN--\":5:7   */\n    tag_186:\n        /* \"contracts/smart_contract.sol\":15849:15882  AddressPay.transfer(Value_Amount) */\n      pop\n        /* \"contracts/smart_contract.sol\":15589:15939  if (msg.sender == AddressVerify &&\r... */\n      jump(tag_187)\n    tag_184:\n        /* \"contracts/smart_contract.sol\":15922:15939  revert(\"Wait...\") */\n      mload(0x40)\n      0x8c379a000000000000000000000000000000000000000000000000000000000\n      dup2\n      mstore\n      0x4\n      add\n      dup1\n      dup1\n      0x20\n      add\n      dup3\n      dup2\n      sub\n      dup3\n      mstore\n      0x7\n      dup2\n      mstore\n      0x20\n      add\n      dup1\n      0x576169742e2e2e00000000000000000000000000000000000000000000000000\n      dup2\n      mstore\n      pop\n      0x20\n      add\n      swap2\n      pop\n      pop\n      mload(0x40)\n      dup1\n      swap2\n      sub\n      swap1\n      revert\n        /* \"contracts/smart_contract.sol\":15589:15939  if (msg.sender == AddressVerify &&\r... */\n    tag_187:\n        /* \"contracts/smart_contract.sol\":15233:15939  if (msg.sender == AddressVerify &&\r... */\n    tag_181:\n        /* \"contracts/smart_contract.sol\":14882:15939  if (Goal_EnK == true &&\r... */\n    tag_175:\n        /* \"contracts/smart_contract.sol\":14530:15939  if (Goal_Money = true &&\r... */\n    tag_169:\n        /* \"contracts/smart_contract.sol\":14221:15939  if (msg.sender == AddressPay &&\r... */\n    tag_164:\n        /* \"contracts/smart_contract.sol\":13676:15939  if (msg.sender == AddressBuyer && \r... */\n    tag_159:\n        /* \"contracts/smart_contract.sol\":13589:15947  function end_transaction () public {\r... */\n      jump\t// out\n        /* \"contracts/smart_contract.sol\":10206:10760  function upload_pubkey_buyer (string PubKey) public {\r... */\n    tag_35:\n        /* \"contracts/smart_contract.sol\":10287:10291  true */\n      0x1\n        /* \"contracts/smart_contract.sol\":10273:10291  Goal_Money == true */\n      iszero\n      iszero\n        /* \"contracts/smart_contract.sol\":10273:10283  Goal_Money */\n      0x12\n      0x4\n      swap1\n      sload\n      swap1\n      0x100\n      exp\n      swap1\n      div\n      0xff\n      and\n        /* \"contracts/smart_contract.sol\":10273:10291  Goal_Money == true */\n      iszero\n      iszero\n      eq\n        /* \"contracts/smart_contract.sol\":10269:10753  if (Goal_Money == true) {\r... */\n      iszero\n      tag_189\n      jumpi\n        /* \"contracts/smart_contract.sol\":10325:10335  AddressPay */\n      0xd\n      0x0\n      swap1\n      sload\n      swap1\n      0x100\n      exp\n      swap1\n      div\n      0xffffffffffffffffffffffffffffffffffffffff\n      and\n        /* \"contracts/smart_contract.sol\":10309:10335  AddressBuyer != AddressPay */\n      0xffffffffffffffffffffffffffffffffffffffff\n      and\n        /* \"contracts/smart_contract.sol\":10309:10321  AddressBuyer */\n      0xe\n      0x0\n      swap1\n      sload\n      swap1\n      0x100\n      exp\n      swap1\n      div\n      0xffffffffffffffffffffffffffffffffffffffff\n      and\n        /* \"contracts/smart_contract.sol\":10309:10335  AddressBuyer != AddressPay */\n      0xffffffffffffffffffffffffffffffffffffffff\n      and\n      eq\n      iszero\n        /* \"contracts/smart_contract.sol\":10305:10625  if (AddressBuyer != AddressPay) {\t\r... */\n      iszero\n      tag_190\n      jumpi\n        /* \"contracts/smart_contract.sol\":10369:10375  PubKey */\n      dup1\n        /* \"contracts/smart_contract.sol\":10354:10366  PubKey_Buyer */\n      0x7\n        /* \"contracts/smart_contract.sol\":10354:10375  PubKey_Buyer = PubKey */\n      swap1\n      dup1\n      mload\n      swap1\n      0x20\n      add\n      swap1\n      tag_191\n      swap3\n      swap2\n      swap1\n      jump\t// in(tag_192)\n    tag_191:\n      pop\n        /* \"contracts/smart_contract.sol\":10406:10410  true */\n      0x1\n        /* \"contracts/smart_contract.sol\":10391:10403  Goal_PubKeyB */\n      0x12\n      0x5\n        /* \"contracts/smart_contract.sol\":10391:10410  Goal_PubKeyB = true */\n      0x100\n      exp\n      dup2\n      sload\n      dup2\n      0xff\n      mul\n      not\n      and\n      swap1\n      dup4\n      iszero\n      iszero\n      mul\n      or\n      swap1\n      sstore\n      pop\n        /* \"contracts/smart_contract.sol\":10440:10443  now */\n      timestamp\n        /* \"contracts/smart_contract.sol\":10426:10437  Time_Second */\n      0x3\n        /* \"contracts/smart_contract.sol\":10426:10443  Time_Second = now */\n      dup2\n      swap1\n      sstore\n      pop\n        /* \"contracts/smart_contract.sol\":10464:10491  UploadPubKeyB(PubKey_Buyer) */\n      0x79146a2fa5bae3db6e49a4ecf2a936ebb7f07d7bd9a6ef39ea18a8980956cfd\n        /* \"contracts/smart_contract.sol\":10478:10490  PubKey_Buyer */\n      0x7\n        /* \"contracts/smart_contract.sol\":10464:10491  UploadPubKeyB(PubKey_Buyer) */\n      mload(0x40)\n      dup1\n      dup1\n      0x20\n      add\n      dup3\n      dup2\n      sub\n      dup3\n      mstore\n      dup4\n      dup2\n      dup2\n      sload\n      0x1\n      dup2\n      0x1\n      and\n      iszero\n      0x100\n      mul\n      sub\n      and\n      0x2\n      swap1\n      div\n      dup2\n      mstore\n      0x20\n      add\n      swap2\n      pop\n      dup1\n      sload\n      0x1\n      dup2\n      0x1\n      and\n      iszero\n      0x100\n      mul\n      sub\n      and\n      0x2\n      swap1\n      div\n      dup1\n      iszero\n      tag_193\n      jumpi\n      dup1\n      0x1f\n      lt\n      tag_194\n      jumpi\n      0x100\n      dup1\n      dup4\n      sload\n      div\n      mul\n      dup4\n      mstore\n      swap2\n      0x20\n      add\n      swap2\n      jump(tag_193)\n    tag_194:\n      dup3\n      add\n      swap2\n      swap1\n      0x0\n      mstore\n      keccak256(0x0, 0x20)\n      swap1\n    tag_195:\n      dup2\n      sload\n      dup2\n      mstore\n      swap1\n      0x1\n      add\n      swap1\n      0x20\n      add\n      dup1\n      dup4\n      gt\n      tag_195\n      jumpi\n      dup3\n      swap1\n      sub\n      0x1f\n      and\n      dup3\n      add\n      swap2\n    tag_193:\n      pop\n      pop\n      swap3\n      pop\n      pop\n      pop\n      mload(0x40)\n      dup1\n      swap2\n      sub\n      swap1\n      log1\n        /* \"contracts/smart_contract.sol\":10305:10625  if (AddressBuyer != AddressPay) {\t\r... */\n      jump(tag_196)\n    tag_190:\n        /* \"contracts/smart_contract.sol\":10551:10556  false */\n      0x0\n        /* \"contracts/smart_contract.sol\":10536:10548  Goal_PubKeyB */\n      0x12\n      0x5\n        /* \"contracts/smart_contract.sol\":10536:10556  Goal_PubKeyB = false */\n      0x100\n      exp\n      dup2\n      sload\n      dup2\n      0xff\n      mul\n      not\n      and\n      swap1\n      dup4\n      iszero\n      iszero\n      mul\n      or\n      swap1\n      sstore\n      pop\n        /* \"contracts/smart_contract.sol\":10572:10612  revert(\"Seller can not send the money.\") */\n      mload(0x40)\n      0x8c379a000000000000000000000000000000000000000000000000000000000\n      dup2\n      mstore\n      0x4\n      add\n      dup1\n      dup1\n      0x20\n      add\n      dup3\n      dup2\n      sub\n      dup3\n      mstore\n      0x1e\n      dup2\n      mstore\n      0x20\n      add\n      dup1\n      0x53656c6c65722063616e206e6f742073656e6420746865206d6f6e65792e0000\n      dup2\n      mstore\n      pop\n      0x20\n      add\n      swap2\n      pop\n      pop\n      mload(0x40)\n      dup1\n      swap2\n      sub\n      swap1\n      revert\n        /* \"contracts/smart_contract.sol\":10305:10625  if (AddressBuyer != AddressPay) {\t\r... */\n    tag_196:\n        /* \"contracts/smart_contract.sol\":10269:10753  if (Goal_Money == true) {\r... */\n      jump(tag_197)\n    tag_189:\n        /* \"contracts/smart_contract.sol\":10681:10686  false */\n      0x0\n        /* \"contracts/smart_contract.sol\":10666:10678  Goal_PubKeyB */\n      0x12\n      0x5\n        /* \"contracts/smart_contract.sol\":10666:10686  Goal_PubKeyB = false */\n      0x100\n      exp\n      dup2\n      sload\n      dup2\n      0xff\n      mul\n      not\n      and\n      swap1\n      dup4\n      iszero\n      iszero\n      mul\n      or\n      swap1\n      sstore\n      pop\n        /* \"contracts/smart_contract.sol\":10701:10741  revert(\"Buyer should send money first.\") */\n      mload(0x40)\n      0x8c379a000000000000000000000000000000000000000000000000000000000\n      dup2\n      mstore\n      0x4\n      add\n      dup1\n      dup1\n      0x20\n      add\n      dup3\n      dup2\n      sub\n      dup3\n      mstore\n      0x1e\n      dup2\n      mstore\n      0x20\n      add\n      dup1\n      0x42757965722073686f756c642073656e64206d6f6e65792066697273742e0000\n      dup2\n      mstore\n      pop\n      0x20\n      add\n      swap2\n      pop\n      pop\n      mload(0x40)\n      dup1\n      swap2\n      sub\n      swap1\n      revert\n        /* \"contracts/smart_contract.sol\":10269:10753  if (Goal_Money == true) {\r... */\n    tag_197:\n        /* \"contracts/smart_contract.sol\":10206:10760  function upload_pubkey_buyer (string PubKey) public {\r... */\n      pop\n      jump\t// out\n        /* \"contracts/smart_contract.sol\":6491:6617  function get_balance (address AccountOrContract) view public returns(uint) {\r... */\n    tag_38:\n        /* \"contracts/smart_contract.sol\":6560:6564  uint */\n      0x0\n        /* \"contracts/smart_contract.sol\":6584:6601  AccountOrContract */\n      dup2\n        /* \"contracts/smart_contract.sol\":6584:6609  AccountOrContract.balance */\n      0xffffffffffffffffffffffffffffffffffffffff\n      and\n      balance\n        /* \"contracts/smart_contract.sol\":6577:6609  return AccountOrContract.balance */\n      swap1\n      pop\n        /* \"contracts/smart_contract.sol\":6491:6617  function get_balance (address AccountOrContract) view public returns(uint) {\r... */\n      swap2\n      swap1\n      pop\n      jump\t// out\n        /* \"contracts/smart_contract.sol\":1445:1529  string public CalHash = \"https://emn178.github.io/online-tools/sha256_checksum.html\" */\n    tag_41:\n      0x11\n      dup1\n      sload\n      0x1\n      dup2\n      0x1\n      and\n      iszero\n      0x100\n      mul\n      sub\n      and\n      0x2\n      swap1\n      div\n      dup1\n      0x1f\n      add\n      0x20\n      dup1\n      swap2\n      div\n      mul\n      0x20\n      add\n      mload(0x40)\n      swap1\n      dup2\n      add\n      0x40\n      mstore\n      dup1\n      swap3\n      swap2\n      swap1\n      dup2\n      dup2\n      mstore\n      0x20\n      add\n      dup3\n      dup1\n      sload\n      0x1\n      dup2\n      0x1\n      and\n      iszero\n      0x100\n      mul\n      sub\n      and\n      0x2\n      swap1\n      div\n      dup1\n      iszero\n      tag_199\n      jumpi\n      dup1\n      0x1f\n      lt\n      tag_200\n      jumpi\n      0x100\n      dup1\n      dup4\n      sload\n      div\n      mul\n      dup4\n      mstore\n      swap2\n      0x20\n      add\n      swap2\n      jump(tag_199)\n    tag_200:\n      dup3\n      add\n      swap2\n      swap1\n      0x0\n      mstore\n      keccak256(0x0, 0x20)\n      swap1\n    tag_201:\n      dup2\n      sload\n      dup2\n      mstore\n      swap1\n      0x1\n      add\n      swap1\n      0x20\n      add\n      dup1\n      dup4\n      gt\n      tag_201\n      jumpi\n      dup3\n      swap1\n      sub\n      0x1f\n      and\n      dup3\n      add\n      swap2\n    tag_199:\n      pop\n      pop\n      pop\n      pop\n      pop\n      dup2\n      jump\t// out\n        /* \"contracts/smart_contract.sol\":3048:3136  function CurrTimeInSeconds() public view returns (uint256) {\r... */\n    tag_48:\n        /* \"contracts/smart_contract.sol\":3098:3105  uint256 */\n      0x0\n        /* \"contracts/smart_contract.sol\":3125:3128  now */\n      timestamp\n        /* \"contracts/smart_contract.sol\":3118:3128  return now */\n      swap1\n      pop\n        /* \"contracts/smart_contract.sol\":3048:3136  function CurrTimeInSeconds() public view returns (uint256) {\r... */\n      swap1\n      jump\t// out\n        /* \"contracts/smart_contract.sol\":5820:5910  function view_second () public view returns (uint256){\r... */\n    tag_51:\n        /* \"contracts/smart_contract.sol\":5865:5872  uint256 */\n      0x0\n        /* \"contracts/smart_contract.sol\":5891:5902  Time_Second */\n      sload(0x3)\n        /* \"contracts/smart_contract.sol\":5884:5902  return Time_Second */\n      swap1\n      pop\n        /* \"contracts/smart_contract.sol\":5820:5910  function view_second () public view returns (uint256){\r... */\n      swap1\n      jump\t// out\n        /* \"contracts/smart_contract.sol\":7109:7672  function upload_hash_data (string HashData) public {\r... */\n    tag_54:\n        /* \"contracts/smart_contract.sol\":7190:7194  true */\n      0x1\n        /* \"contracts/smart_contract.sol\":7175:7194  Goal_Amount == true */\n      iszero\n      iszero\n        /* \"contracts/smart_contract.sol\":7175:7186  Goal_Amount */\n      0x12\n      0x0\n      swap1\n      sload\n      swap1\n      0x100\n      exp\n      swap1\n      div\n      0xff\n      and\n        /* \"contracts/smart_contract.sol\":7175:7194  Goal_Amount == true */\n      iszero\n      iszero\n      eq\n        /* \"contracts/smart_contract.sol\":7171:7665  if (Goal_Amount == true) {\r... */\n      iszero\n      tag_205\n      jumpi\n        /* \"contracts/smart_contract.sol\":7229:7239  AddressPay */\n      0xd\n      0x0\n      swap1\n      sload\n      swap1\n      0x100\n      exp\n      swap1\n      div\n      0xffffffffffffffffffffffffffffffffffffffff\n      and\n        /* \"contracts/smart_contract.sol\":7215:7239  msg.sender == AddressPay */\n      0xffffffffffffffffffffffffffffffffffffffff\n      and\n        /* \"contracts/smart_contract.sol\":7215:7225  msg.sender */\n      caller\n        /* \"contracts/smart_contract.sol\":7215:7239  msg.sender == AddressPay */\n      0xffffffffffffffffffffffffffffffffffffffff\n      and\n      eq\n        /* \"contracts/smart_contract.sol\":7211:7538  if (msg.sender == AddressPay) {\r... */\n      iszero\n      tag_206\n      jumpi\n        /* \"contracts/smart_contract.sol\":7272:7280  HashData */\n      dup1\n        /* \"contracts/smart_contract.sol\":7260:7269  Hash_Data */\n      0xb\n        /* \"contracts/smart_contract.sol\":7260:7280  Hash_Data = HashData */\n      swap1\n      dup1\n      mload\n      swap1\n      0x20\n      add\n      swap1\n      tag_207\n      swap3\n      swap2\n      swap1\n      jump\t// in(tag_192)\n    tag_207:\n      pop\n        /* \"contracts/smart_contract.sol\":7315:7319  true */\n      0x1\n        /* \"contracts/smart_contract.sol\":7299:7312  Goal_HashData */\n      0x12\n      0x1\n        /* \"contracts/smart_contract.sol\":7299:7319  Goal_HashData = true */\n      0x100\n      exp\n      dup2\n      sload\n      dup2\n      0xff\n      mul\n      not\n      and\n      swap1\n      dup4\n      iszero\n      iszero\n      mul\n      or\n      swap1\n      sstore\n      pop\n        /* \"contracts/smart_contract.sol\":7343:7368  UploadHashData(Hash_Data) */\n      0x1f1a12f54fa5f982d713cbb1c65e8c442189195e482a50128ebd9a034e7d31b3\n        /* \"contracts/smart_contract.sol\":7358:7367  Hash_Data */\n      0xb\n        /* \"contracts/smart_contract.sol\":7343:7368  UploadHashData(Hash_Data) */\n      mload(0x40)\n      dup1\n      dup1\n      0x20\n      add\n      dup3\n      dup2\n      sub\n      dup3\n      mstore\n      dup4\n      dup2\n      dup2\n      sload\n      0x1\n      dup2\n      0x1\n      and\n      iszero\n      0x100\n      mul\n      sub\n      and\n      0x2\n      swap1\n      div\n      dup2\n      mstore\n      0x20\n      add\n      swap2\n      pop\n      dup1\n      sload\n      0x1\n      dup2\n      0x1\n      and\n      iszero\n      0x100\n      mul\n      sub\n      and\n      0x2\n      swap1\n      div\n      dup1\n      iszero\n      tag_208\n      jumpi\n      dup1\n      0x1f\n      lt\n      tag_209\n      jumpi\n      0x100\n      dup1\n      dup4\n      sload\n      div\n      mul\n      dup4\n      mstore\n      swap2\n      0x20\n      add\n      swap2\n      jump(tag_208)\n    tag_209:\n      dup3\n      add\n      swap2\n      swap1\n      0x0\n      mstore\n      keccak256(0x0, 0x20)\n      swap1\n    tag_210:\n      dup2\n      sload\n      dup2\n      mstore\n      swap1\n      0x1\n      add\n      swap1\n      0x20\n      add\n      dup1\n      dup4\n      gt\n      tag_210\n      jumpi\n      dup3\n      swap1\n      sub\n      0x1f\n      and\n      dup3\n      add\n      swap2\n    tag_208:\n      pop\n      pop\n      swap3\n      pop\n      pop\n      pop\n      mload(0x40)\n      dup1\n      swap2\n      sub\n      swap1\n      log1\n        /* \"contracts/smart_contract.sol\":7211:7538  if (msg.sender == AddressPay) {\r... */\n      jump(tag_211)\n    tag_206:\n        /* \"contracts/smart_contract.sol\":7438:7443  false */\n      0x0\n        /* \"contracts/smart_contract.sol\":7422:7435  Goal_HashData */\n      0x12\n      0x1\n        /* \"contracts/smart_contract.sol\":7422:7443  Goal_HashData = false */\n      0x100\n      exp\n      dup2\n      sload\n      dup2\n      0xff\n      mul\n      not\n      and\n      swap1\n      dup4\n      iszero\n      iszero\n      mul\n      or\n      swap1\n      sstore\n      pop\n        /* \"contracts/smart_contract.sol\":7462:7522  revert(\"Only the seller can upload hash value of the data.\") */\n      mload(0x40)\n      0x8c379a000000000000000000000000000000000000000000000000000000000\n      dup2\n      mstore\n      0x4\n      add\n      dup1\n      dup1\n      0x20\n      add\n      dup3\n      dup2\n      sub\n      dup3\n      mstore\n      0x32\n      dup2\n      mstore\n      0x20\n      add\n      dup1\n      0x4f6e6c79207468652073656c6c65722063616e2075706c6f6164206861736820\n      dup2\n      mstore\n      0x20\n      add\n      0x76616c7565206f662074686520646174612e0000000000000000000000000000\n      dup2\n      mstore\n      pop\n      0x40\n      add\n      swap2\n      pop\n      pop\n      mload(0x40)\n      dup1\n      swap2\n      sub\n      swap1\n      revert\n        /* \"contracts/smart_contract.sol\":7211:7538  if (msg.sender == AddressPay) {\r... */\n    tag_211:\n        /* \"contracts/smart_contract.sol\":7171:7665  if (Goal_Amount == true) {\r... */\n      jump(tag_212)\n    tag_205:\n        /* \"contracts/smart_contract.sol\":7595:7600  false */\n      0x0\n        /* \"contracts/smart_contract.sol\":7579:7592  Goal_HashData */\n      0x12\n      0x1\n        /* \"contracts/smart_contract.sol\":7579:7600  Goal_HashData = false */\n      0x100\n      exp\n      dup2\n      sload\n      dup2\n      0xff\n      mul\n      not\n      and\n      swap1\n      dup4\n      iszero\n      iszero\n      mul\n      or\n      swap1\n      sstore\n      pop\n        /* \"contracts/smart_contract.sol\":7615:7653  revert(\"Please set the amount first.\") */\n      mload(0x40)\n      0x8c379a000000000000000000000000000000000000000000000000000000000\n      dup2\n      mstore\n      0x4\n      add\n      dup1\n      dup1\n      0x20\n      add\n      dup3\n      dup2\n      sub\n      dup3\n      mstore\n      0x1c\n      dup2\n      mstore\n      0x20\n      add\n      dup1\n      0x506c65617365207365742074686520616d6f756e742066697273742e00000000\n      dup2\n      mstore\n      pop\n      0x20\n      add\n      swap2\n      pop\n      pop\n      mload(0x40)\n      dup1\n      swap2\n      sub\n      swap1\n      revert\n        /* \"contracts/smart_contract.sol\":7171:7665  if (Goal_Amount == true) {\r... */\n    tag_212:\n        /* \"contracts/smart_contract.sol\":7109:7672  function upload_hash_data (string HashData) public {\r... */\n      pop\n      jump\t// out\n        /* \"contracts/smart_contract.sol\":12910:13469  function report_verify (bool Verify) public {\r... */\n    tag_57:\n        /* \"contracts/smart_contract.sol\":12984:12988  true */\n      0x1\n        /* \"contracts/smart_contract.sol\":12969:12988  Goal_GotRep == true */\n      iszero\n      iszero\n        /* \"contracts/smart_contract.sol\":12969:12980  Goal_GotRep */\n      0x12\n      0x7\n      swap1\n      sload\n      swap1\n      0x100\n      exp\n      swap1\n      div\n      0xff\n      and\n        /* \"contracts/smart_contract.sol\":12969:12988  Goal_GotRep == true */\n      iszero\n      iszero\n      eq\n        /* \"contracts/smart_contract.sol\":12965:13462  if (Goal_GotRep == true) {\r... */\n      iszero\n      tag_214\n      jumpi\n        /* \"contracts/smart_contract.sol\":13020:13030  AddressPay */\n      0xd\n      0x0\n      swap1\n      sload\n      swap1\n      0x100\n      exp\n      swap1\n      div\n      0xffffffffffffffffffffffffffffffffffffffff\n      and\n        /* \"contracts/smart_contract.sol\":13006:13030  msg.sender != AddressPay */\n      0xffffffffffffffffffffffffffffffffffffffff\n      and\n        /* \"contracts/smart_contract.sol\":13006:13016  msg.sender */\n      caller\n        /* \"contracts/smart_contract.sol\":13006:13030  msg.sender != AddressPay */\n      0xffffffffffffffffffffffffffffffffffffffff\n      and\n      eq\n      iszero\n        /* \"contracts/smart_contract.sol\":13006:13060  msg.sender != AddressPay && msg.sender != AddressBuyer */\n      dup1\n      iszero\n      tag_215\n      jumpi\n      pop\n        /* \"contracts/smart_contract.sol\":13048:13060  AddressBuyer */\n      0xe\n      0x0\n      swap1\n      sload\n      swap1\n      0x100\n      exp\n      swap1\n      div\n      0xffffffffffffffffffffffffffffffffffffffff\n      and\n        /* \"contracts/smart_contract.sol\":13034:13060  msg.sender != AddressBuyer */\n      0xffffffffffffffffffffffffffffffffffffffff\n      and\n        /* \"contracts/smart_contract.sol\":13034:13044  msg.sender */\n      caller\n        /* \"contracts/smart_contract.sol\":13034:13060  msg.sender != AddressBuyer */\n      0xffffffffffffffffffffffffffffffffffffffff\n      and\n      eq\n      iszero\n        /* \"contracts/smart_contract.sol\":13006:13060  msg.sender != AddressPay && msg.sender != AddressBuyer */\n    tag_215:\n        /* \"contracts/smart_contract.sol\":13002:13332  if (msg.sender != AddressPay && msg.sender != AddressBuyer) {\r... */\n      iszero\n      tag_216\n      jumpi\n        /* \"contracts/smart_contract.sol\":13094:13104  msg.sender */\n      caller\n        /* \"contracts/smart_contract.sol\":13078:13091  AddressVerify */\n      0xf\n      0x0\n        /* \"contracts/smart_contract.sol\":13078:13104  AddressVerify = msg.sender */\n      0x100\n      exp\n      dup2\n      sload\n      dup2\n      0xffffffffffffffffffffffffffffffffffffffff\n      mul\n      not\n      and\n      swap1\n      dup4\n      0xffffffffffffffffffffffffffffffffffffffff\n      and\n      mul\n      or\n      swap1\n      sstore\n      pop\n        /* \"contracts/smart_contract.sol\":13134:13140  Verify */\n      dup1\n        /* \"contracts/smart_contract.sol\":13120:13131  Goal_Verify */\n      0x12\n      0x8\n        /* \"contracts/smart_contract.sol\":13120:13140  Goal_Verify = Verify */\n      0x100\n      exp\n      dup2\n      sload\n      dup2\n      0xff\n      mul\n      not\n      and\n      swap1\n      dup4\n      iszero\n      iszero\n      mul\n      or\n      swap1\n      sstore\n      pop\n        /* \"contracts/smart_contract.sol\":13161:13186  VerifyResult(Goal_Verify) */\n      0x2b989604c7135ae8d99537911508a3658c5158bceb6193dd718775ad7a7db9bb\n        /* \"contracts/smart_contract.sol\":13174:13185  Goal_Verify */\n      0x12\n      0x8\n      swap1\n      sload\n      swap1\n      0x100\n      exp\n      swap1\n      div\n      0xff\n      and\n        /* \"contracts/smart_contract.sol\":13161:13186  VerifyResult(Goal_Verify) */\n      mload(0x40)\n      dup1\n      dup3\n      iszero\n      iszero\n      iszero\n      iszero\n      dup2\n      mstore\n      0x20\n      add\n      swap2\n      pop\n      pop\n      mload(0x40)\n      dup1\n      swap2\n      sub\n      swap1\n      log1\n        /* \"contracts/smart_contract.sol\":13002:13332  if (msg.sender != AddressPay && msg.sender != AddressBuyer) {\r... */\n      jump(tag_217)\n    tag_216:\n        /* \"contracts/smart_contract.sol\":13245:13250  false */\n      0x0\n        /* \"contracts/smart_contract.sol\":13231:13242  Goal_Verify */\n      0x12\n      0x8\n        /* \"contracts/smart_contract.sol\":13231:13250  Goal_Verify = false */\n      0x100\n      exp\n      dup2\n      sload\n      dup2\n      0xff\n      mul\n      not\n      and\n      swap1\n      dup4\n      iszero\n      iszero\n      mul\n      or\n      swap1\n      sstore\n      pop\n        /* \"contracts/smart_contract.sol\":13266:13319  revert(\"Only the third part can vertify the report.\") */\n      mload(0x40)\n      0x8c379a000000000000000000000000000000000000000000000000000000000\n      dup2\n      mstore\n      0x4\n      add\n      dup1\n      dup1\n      0x20\n      add\n      dup3\n      dup2\n      sub\n      dup3\n      mstore\n      0x2b\n      dup2\n      mstore\n      0x20\n      add\n      dup1\n      0x4f6e6c792074686520746869726420706172742063616e207665727469667920\n      dup2\n      mstore\n      0x20\n      add\n      0x746865207265706f72742e000000000000000000000000000000000000000000\n      dup2\n      mstore\n      pop\n      0x40\n      add\n      swap2\n      pop\n      pop\n      mload(0x40)\n      dup1\n      swap2\n      sub\n      swap1\n      revert\n        /* \"contracts/smart_contract.sol\":13002:13332  if (msg.sender != AddressPay && msg.sender != AddressBuyer) {\r... */\n    tag_217:\n        /* \"contracts/smart_contract.sol\":12965:13462  if (Goal_GotRep == true) {\r... */\n      jump(tag_218)\n    tag_214:\n        /* \"contracts/smart_contract.sol\":13382:13387  false */\n      0x0\n        /* \"contracts/smart_contract.sol\":13368:13379  Goal_Verify */\n      0x12\n      0x8\n        /* \"contracts/smart_contract.sol\":13368:13387  Goal_Verify = false */\n      0x100\n      exp\n      dup2\n      sload\n      dup2\n      0xff\n      mul\n      not\n      and\n      swap1\n      dup4\n      iszero\n      iszero\n      mul\n      or\n      swap1\n      sstore\n      pop\n        /* \"contracts/smart_contract.sol\":13402:13450  revert(\"Smart contract did not get the report.\") */\n      mload(0x40)\n      0x8c379a000000000000000000000000000000000000000000000000000000000\n      dup2\n      mstore\n      0x4\n      add\n      dup1\n      dup1\n      0x20\n      add\n      dup3\n      dup2\n      sub\n      dup3\n      mstore\n      0x26\n      dup2\n      mstore\n      0x20\n      add\n      dup1\n      0x536d61727420636f6e747261637420646964206e6f7420676574207468652072\n      dup2\n      mstore\n      0x20\n      add\n      0x65706f72742e0000000000000000000000000000000000000000000000000000\n      dup2\n      mstore\n      pop\n      0x40\n      add\n      swap2\n      pop\n      pop\n      mload(0x40)\n      dup1\n      swap2\n      sub\n      swap1\n      revert\n        /* \"contracts/smart_contract.sol\":12965:13462  if (Goal_GotRep == true) {\r... */\n    tag_218:\n        /* \"contracts/smart_contract.sol\":12910:13469  function report_verify (bool Verify) public {\r... */\n      pop\n      jump\t// out\n        /* \"contracts/smart_contract.sol\":8367:9234  function send_deposit () public payable returns(bool) {\r... */\n    tag_59:\n        /* \"contracts/smart_contract.sol\":8415:8419  bool */\n      0x0\n        /* \"contracts/smart_contract.sol\":8452:8456  true */\n      0x1\n        /* \"contracts/smart_contract.sol\":8436:8456  Goal_HashKey == true */\n      iszero\n      iszero\n        /* \"contracts/smart_contract.sol\":8436:8448  Goal_HashKey */\n      0x12\n      0x2\n      swap1\n      sload\n      swap1\n      0x100\n      exp\n      swap1\n      div\n      0xff\n      and\n        /* \"contracts/smart_contract.sol\":8436:8456  Goal_HashKey == true */\n      iszero\n      iszero\n      eq\n        /* \"contracts/smart_contract.sol\":8432:9227  if (Goal_HashKey == true) {\r... */\n      iszero\n      tag_220\n      jumpi\n        /* \"contracts/smart_contract.sol\":8491:8501  AddressPay */\n      0xd\n      0x0\n      swap1\n      sload\n      swap1\n      0x100\n      exp\n      swap1\n      div\n      0xffffffffffffffffffffffffffffffffffffffff\n      and\n        /* \"contracts/smart_contract.sol\":8477:8501  msg.sender == AddressPay */\n      0xffffffffffffffffffffffffffffffffffffffff\n      and\n        /* \"contracts/smart_contract.sol\":8477:8487  msg.sender */\n      caller\n        /* \"contracts/smart_contract.sol\":8477:8501  msg.sender == AddressPay */\n      0xffffffffffffffffffffffffffffffffffffffff\n      and\n      eq\n        /* \"contracts/smart_contract.sol\":8473:9083  if (msg.sender == AddressPay) {\r... */\n      iszero\n      tag_221\n      jumpi\n        /* \"contracts/smart_contract.sol\":8539:8552  Value_Deposit */\n      sload(0x1)\n        /* \"contracts/smart_contract.sol\":8526:8535  msg.value */\n      callvalue\n        /* \"contracts/smart_contract.sol\":8526:8552  msg.value == Value_Deposit */\n      eq\n        /* \"contracts/smart_contract.sol\":8522:8927  if (msg.value == Value_Deposit) {\r... */\n      iszero\n      tag_222\n      jumpi\n        /* \"contracts/smart_contract.sol\":8592:8596  true */\n      0x1\n        /* \"contracts/smart_contract.sol\":8577:8589  Goal_Deposit */\n      0x12\n      0x3\n        /* \"contracts/smart_contract.sol\":8577:8596  Goal_Deposit = true */\n      0x100\n      exp\n      dup2\n      sload\n      dup2\n      0xff\n      mul\n      not\n      and\n      swap1\n      dup4\n      iszero\n      iszero\n      mul\n      or\n      swap1\n      sstore\n      pop\n        /* \"contracts/smart_contract.sol\":8632:8635  now */\n      timestamp\n        /* \"contracts/smart_contract.sol\":8619:8629  Time_First */\n      0x2\n        /* \"contracts/smart_contract.sol\":8619:8635  Time_First = now */\n      dup2\n      swap1\n      sstore\n      pop\n        /* \"contracts/smart_contract.sol\":8663:8694  GotDeposit(Value_Deposit, this) */\n      0xcddb238a7100a42757b9d0a123efb6646208d2a8d46763f46df4056f6665478c\n        /* \"contracts/smart_contract.sol\":8674:8687  Value_Deposit */\n      sload(0x1)\n        /* \"contracts/smart_contract.sol\":8689:8693  this */\n      address\n        /* \"contracts/smart_contract.sol\":8663:8694  GotDeposit(Value_Deposit, this) */\n      mload(0x40)\n      dup1\n      dup4\n      dup2\n      mstore\n      0x20\n      add\n      dup3\n      0xffffffffffffffffffffffffffffffffffffffff\n      and\n      0xffffffffffffffffffffffffffffffffffffffff\n      and\n      dup2\n      mstore\n      0x20\n      add\n      swap3\n      pop\n      pop\n      pop\n      mload(0x40)\n      dup1\n      swap2\n      sub\n      swap1\n      log1\n        /* \"contracts/smart_contract.sol\":8732:8736  this */\n      address\n        /* \"contracts/smart_contract.sol\":8724:8742  address(this).send */\n      0xffffffffffffffffffffffffffffffffffffffff\n      and\n        /* \"contracts/smart_contract.sol\":8724:8753  address(this).send(msg.value) */\n      0x8fc\n        /* \"contracts/smart_contract.sol\":8743:8752  msg.value */\n      callvalue\n        /* \"contracts/smart_contract.sol\":8724:8753  address(this).send(msg.value) */\n      swap1\n      dup2\n      iszero\n      mul\n      swap1\n      mload(0x40)\n      0x0\n      mload(0x40)\n      dup1\n      dup4\n      sub\n      dup2\n      dup6\n      dup9\n      dup9\n      call\n      swap4\n      pop\n      pop\n      pop\n      pop\n        /* \"contracts/smart_contract.sol\":8717:8753  return address(this).send(msg.value) */\n      swap1\n      pop\n      jump(tag_219)\n        /* \"contracts/smart_contract.sol\":8522:8927  if (msg.value == Value_Deposit) {\r... */\n    tag_222:\n        /* \"contracts/smart_contract.sol\":8834:8839  false */\n      0x0\n        /* \"contracts/smart_contract.sol\":8819:8831  Goal_Deposit */\n      0x12\n      0x3\n        /* \"contracts/smart_contract.sol\":8819:8839  Goal_Deposit = false */\n      0x100\n      exp\n      dup2\n      sload\n      dup2\n      0xff\n      mul\n      not\n      and\n      swap1\n      dup4\n      iszero\n      iszero\n      mul\n      or\n      swap1\n      sstore\n      pop\n        /* \"contracts/smart_contract.sol\":8862:8907  revert(\"The value of the desposit is wrong.\") */\n      mload(0x40)\n      0x8c379a000000000000000000000000000000000000000000000000000000000\n      dup2\n      mstore\n      0x4\n      add\n      dup1\n      dup1\n      0x20\n      add\n      dup3\n      dup2\n      sub\n      dup3\n      mstore\n      0x23\n      dup2\n      mstore\n      0x20\n      add\n      dup1\n      0x5468652076616c7565206f662074686520646573706f7369742069732077726f\n      dup2\n      mstore\n      0x20\n      add\n      0x6e672e0000000000000000000000000000000000000000000000000000000000\n      dup2\n      mstore\n      pop\n      0x40\n      add\n      swap2\n      pop\n      pop\n      mload(0x40)\n      dup1\n      swap2\n      sub\n      swap1\n      revert\n        /* \"contracts/smart_contract.sol\":8473:9083  if (msg.sender == AddressPay) {\r... */\n    tag_221:\n        /* \"contracts/smart_contract.sol\":8995:9000  false */\n      0x0\n        /* \"contracts/smart_contract.sol\":8980:8992  Goal_Deposit */\n      0x12\n      0x3\n        /* \"contracts/smart_contract.sol\":8980:9000  Goal_Deposit = false */\n      0x100\n      exp\n      dup2\n      sload\n      dup2\n      0xff\n      mul\n      not\n      and\n      swap1\n      dup4\n      iszero\n      iszero\n      mul\n      or\n      swap1\n      sstore\n      pop\n        /* \"contracts/smart_contract.sol\":9019:9067  revert(\"Only the seller can send the desposit.\") */\n      mload(0x40)\n      0x8c379a000000000000000000000000000000000000000000000000000000000\n      dup2\n      mstore\n      0x4\n      add\n      dup1\n      dup1\n      0x20\n      add\n      dup3\n      dup2\n      sub\n      dup3\n      mstore\n      0x26\n      dup2\n      mstore\n      0x20\n      add\n      dup1\n      0x4f6e6c79207468652073656c6c65722063616e2073656e642074686520646573\n      dup2\n      mstore\n      0x20\n      add\n      0x706f7369742e0000000000000000000000000000000000000000000000000000\n      dup2\n      mstore\n      pop\n      0x40\n      add\n      swap2\n      pop\n      pop\n      mload(0x40)\n      dup1\n      swap2\n      sub\n      swap1\n      revert\n        /* \"contracts/smart_contract.sol\":8432:9227  if (Goal_HashKey == true) {\r... */\n    tag_220:\n        /* \"contracts/smart_contract.sol\":9139:9144  false */\n      0x0\n        /* \"contracts/smart_contract.sol\":9124:9136  Goal_Deposit */\n      0x12\n      0x3\n        /* \"contracts/smart_contract.sol\":9124:9144  Goal_Deposit = false */\n      0x100\n      exp\n      dup2\n      sload\n      dup2\n      0xff\n      mul\n      not\n      and\n      swap1\n      dup4\n      iszero\n      iszero\n      mul\n      or\n      swap1\n      sstore\n      pop\n        /* \"contracts/smart_contract.sol\":9159:9215  revert(\"Please upload the hash value of the key first.\") */\n      mload(0x40)\n      0x8c379a000000000000000000000000000000000000000000000000000000000\n      dup2\n      mstore\n      0x4\n      add\n      dup1\n      dup1\n      0x20\n      add\n      dup3\n      dup2\n      sub\n      dup3\n      mstore\n      0x2e\n      dup2\n      mstore\n      0x20\n      add\n      dup1\n      0x506c656173652075706c6f61642074686520686173682076616c7565206f6620\n      dup2\n      mstore\n      0x20\n      add\n      0x746865206b65792066697273742e000000000000000000000000000000000000\n      dup2\n      mstore\n      pop\n      0x40\n      add\n      swap2\n      pop\n      pop\n      mload(0x40)\n      dup1\n      swap2\n      sub\n      swap1\n      revert\n        /* \"contracts/smart_contract.sol\":8367:9234  function send_deposit () public payable returns(bool) {\r... */\n    tag_219:\n      swap1\n      jump\t// out\n        /* \"contracts/smart_contract.sol\":6276:6434  function show_reason () pure public returns(string) {\r... */\n    tag_62:\n        /* \"contracts/smart_contract.sol\":6320:6326  string */\n      0x60\n        /* \"contracts/smart_contract.sol\":6339:6426  return \"Type-1: Wrong key || Type-2: Messy watermark || Type-3: Two or more watermarks\" */\n      0x80\n      mload(0x40)\n      swap1\n      dup2\n      add\n      0x40\n      mstore\n      dup1\n      0x4e\n      dup2\n      mstore\n      0x20\n      add\n      0x547970652d313a2057726f6e67206b6579207c7c20547970652d323a204d6573\n      dup2\n      mstore\n      0x20\n      add\n      0x73792077617465726d61726b207c7c20547970652d333a2054776f206f72206d\n      dup2\n      mstore\n      0x20\n      add\n      0x6f72652077617465726d61726b73000000000000000000000000000000000000\n      dup2\n      mstore\n      pop\n      swap1\n      pop\n        /* \"contracts/smart_contract.sol\":6276:6434  function show_reason () pure public returns(string) {\r... */\n      swap1\n      jump\t// out\n        /* \"contracts/smart_contract.sol\":3954:4043  function get_hash_data () view public returns(string) {\r... */\n    tag_69:\n        /* \"contracts/smart_contract.sol\":4000:4006  string */\n      0x60\n        /* \"contracts/smart_contract.sol\":4026:4035  Hash_Data */\n      0xb\n        /* \"contracts/smart_contract.sol\":4019:4035  return Hash_Data */\n      dup1\n      sload\n      0x1\n      dup2\n      0x1\n      and\n      iszero\n      0x100\n      mul\n      sub\n      and\n      0x2\n      swap1\n      div\n      dup1\n      0x1f\n      add\n      0x20\n      dup1\n      swap2\n      div\n      mul\n      0x20\n      add\n      mload(0x40)\n      swap1\n      dup2\n      add\n      0x40\n      mstore\n      dup1\n      swap3\n      swap2\n      swap1\n      dup2\n      dup2\n      mstore\n      0x20\n      add\n      dup3\n      dup1\n      sload\n      0x1\n      dup2\n      0x1\n      and\n      iszero\n      0x100\n      mul\n      sub\n      and\n      0x2\n      swap1\n      div\n      dup1\n      iszero\n      tag_228\n      jumpi\n      dup1\n      0x1f\n      lt\n      tag_229\n      jumpi\n      0x100\n      dup1\n      dup4\n      sload\n      div\n      mul\n      dup4\n      mstore\n      swap2\n      0x20\n      add\n      swap2\n      jump(tag_228)\n    tag_229:\n      dup3\n      add\n      swap2\n      swap1\n      0x0\n      mstore\n      keccak256(0x0, 0x20)\n      swap1\n    tag_230:\n      dup2\n      sload\n      dup2\n      mstore\n      swap1\n      0x1\n      add\n      swap1\n      0x20\n      add\n      dup1\n      dup4\n      gt\n      tag_230\n      jumpi\n      dup3\n      swap1\n      sub\n      0x1f\n      and\n      dup3\n      add\n      swap2\n    tag_228:\n      pop\n      pop\n      pop\n      pop\n      pop\n      swap1\n      pop\n        /* \"contracts/smart_contract.sol\":3954:4043  function get_hash_data () view public returns(string) {\r... */\n      swap1\n      jump\t// out\n        /* \"contracts/smart_contract.sol\":1277:1305  address public AddressVerify */\n    tag_76:\n      0xf\n      0x0\n      swap1\n      sload\n      swap1\n      0x100\n      exp\n      swap1\n      div\n      0xffffffffffffffffffffffffffffffffffffffff\n      and\n      dup2\n      jump\t// out\n        /* \"contracts/smart_contract.sol\":10811:11875  function upload_encryptedkey (string EnKey) public {\r... */\n    tag_79:\n        /* \"contracts/smart_contract.sol\":10891:10895  true */\n      0x1\n        /* \"contracts/smart_contract.sol\":10877:10895  Goal_Money == true */\n      iszero\n      iszero\n        /* \"contracts/smart_contract.sol\":10877:10887  Goal_Money */\n      0x12\n      0x4\n      swap1\n      sload\n      swap1\n      0x100\n      exp\n      swap1\n      div\n      0xff\n      and\n        /* \"contracts/smart_contract.sol\":10877:10895  Goal_Money == true */\n      iszero\n      iszero\n      eq\n        /* \"contracts/smart_contract.sol\":10873:11868  if (Goal_Money == true) {\r... */\n      iszero\n      tag_232\n      jumpi\n        /* \"contracts/smart_contract.sol\":10932:10936  true */\n      0x1\n        /* \"contracts/smart_contract.sol\":10916:10936  Goal_PubKeyB == true */\n      iszero\n      iszero\n        /* \"contracts/smart_contract.sol\":10916:10928  Goal_PubKeyB */\n      0x12\n      0x5\n      swap1\n      sload\n      swap1\n      0x100\n      exp\n      swap1\n      div\n      0xff\n      and\n        /* \"contracts/smart_contract.sol\":10916:10936  Goal_PubKeyB == true */\n      iszero\n      iszero\n      eq\n        /* \"contracts/smart_contract.sol\":10912:11737  if (Goal_PubKeyB == true) {\r... */\n      iszero\n      tag_233\n      jumpi\n        /* \"contracts/smart_contract.sol\":10972:10982  AddressPay */\n      0xd\n      0x0\n      swap1\n      sload\n      swap1\n      0x100\n      exp\n      swap1\n      div\n      0xffffffffffffffffffffffffffffffffffffffff\n      and\n        /* \"contracts/smart_contract.sol\":10958:10982  msg.sender == AddressPay */\n      0xffffffffffffffffffffffffffffffffffffffff\n      and\n        /* \"contracts/smart_contract.sol\":10958:10968  msg.sender */\n      caller\n        /* \"contracts/smart_contract.sol\":10958:10982  msg.sender == AddressPay */\n      0xffffffffffffffffffffffffffffffffffffffff\n      and\n      eq\n        /* \"contracts/smart_contract.sol\":10954:11578  if (msg.sender == AddressPay) {\r... */\n      iszero\n      tag_234\n      jumpi\n        /* \"contracts/smart_contract.sol\":11026:11036  Time_Trans */\n      sload(0x6)\n        /* \"contracts/smart_contract.sol\":11012:11023  Time_Second */\n      sload(0x3)\n        /* \"contracts/smart_contract.sol\":11012:11036  Time_Second + Time_Trans */\n      add\n        /* \"contracts/smart_contract.sol\":11005:11008  now */\n      timestamp\n        /* \"contracts/smart_contract.sol\":11005:11036  now <= Time_Second + Time_Trans */\n      gt\n      iszero\n        /* \"contracts/smart_contract.sol\":11001:11426  if (now <= Time_Second + Time_Trans) {\t\t\r... */\n      iszero\n      tag_235\n      jumpi\n        /* \"contracts/smart_contract.sol\":11083:11088  EnKey */\n      dup1\n        /* \"contracts/smart_contract.sol\":11061:11080  EncryptedKey_Seller */\n      0x8\n        /* \"contracts/smart_contract.sol\":11061:11088  EncryptedKey_Seller = EnKey */\n      swap1\n      dup1\n      mload\n      swap1\n      0x20\n      add\n      swap1\n      tag_236\n      swap3\n      swap2\n      swap1\n      jump\t// in(tag_192)\n    tag_236:\n      pop\n        /* \"contracts/smart_contract.sol\":11120:11124  true */\n      0x1\n        /* \"contracts/smart_contract.sol\":11109:11117  Goal_EnK */\n      0x12\n      0x6\n        /* \"contracts/smart_contract.sol\":11109:11124  Goal_EnK = true */\n      0x100\n      exp\n      dup2\n      sload\n      dup2\n      0xff\n      mul\n      not\n      and\n      swap1\n      dup4\n      iszero\n      iszero\n      mul\n      or\n      swap1\n      sstore\n      pop\n        /* \"contracts/smart_contract.sol\":11159:11163  true */\n      0x1\n        /* \"contracts/smart_contract.sol\":11145:11156  Goal_Second */\n      0x12\n      0xb\n        /* \"contracts/smart_contract.sol\":11145:11163  Goal_Second = true */\n      0x100\n      exp\n      dup2\n      sload\n      dup2\n      0xff\n      mul\n      not\n      and\n      swap1\n      dup4\n      iszero\n      iszero\n      mul\n      or\n      swap1\n      sstore\n      pop\n        /* \"contracts/smart_contract.sol\":11197:11200  now */\n      timestamp\n        /* \"contracts/smart_contract.sol\":11184:11194  Time_Third */\n      0x4\n        /* \"contracts/smart_contract.sol\":11184:11200  Time_Third = now */\n      dup2\n      swap1\n      sstore\n      pop\n        /* \"contracts/smart_contract.sol\":11226:11264  UploadEncrypedKey(EncryptedKey_Seller) */\n      0x85e58470e9a7fa0adc1459c125dcd12e68ba1064055debf1c695723a6cbfc514\n        /* \"contracts/smart_contract.sol\":11244:11263  EncryptedKey_Seller */\n      0x8\n        /* \"contracts/smart_contract.sol\":11226:11264  UploadEncrypedKey(EncryptedKey_Seller) */\n      mload(0x40)\n      dup1\n      dup1\n      0x20\n      add\n      dup3\n      dup2\n      sub\n      dup3\n      mstore\n      dup4\n      dup2\n      dup2\n      sload\n      0x1\n      dup2\n      0x1\n      and\n      iszero\n      0x100\n      mul\n      sub\n      and\n      0x2\n      swap1\n      div\n      dup2\n      mstore\n      0x20\n      add\n      swap2\n      pop\n      dup1\n      sload\n      0x1\n      dup2\n      0x1\n      and\n      iszero\n      0x100\n      mul\n      sub\n      and\n      0x2\n      swap1\n      div\n      dup1\n      iszero\n      tag_237\n      jumpi\n      dup1\n      0x1f\n      lt\n      tag_238\n      jumpi\n      0x100\n      dup1\n      dup4\n      sload\n      div\n      mul\n      dup4\n      mstore\n      swap2\n      0x20\n      add\n      swap2\n      jump(tag_237)\n    tag_238:\n      dup3\n      add\n      swap2\n      swap1\n      0x0\n      mstore\n      keccak256(0x0, 0x20)\n      swap1\n    tag_239:\n      dup2\n      sload\n      dup2\n      mstore\n      swap1\n      0x1\n      add\n      swap1\n      0x20\n      add\n      dup1\n      dup4\n      gt\n      tag_239\n      jumpi\n      dup3\n      swap1\n      sub\n      0x1f\n      and\n      dup3\n      add\n      swap2\n    tag_237:\n      pop\n      pop\n      swap3\n      pop\n      pop\n      pop\n      mload(0x40)\n      dup1\n      swap2\n      sub\n      swap1\n      log1\n        /* \"contracts/smart_contract.sol\":11001:11426  if (now <= Time_Second + Time_Trans) {\t\t\r... */\n      jump(tag_240)\n    tag_235:\n        /* \"contracts/smart_contract.sol\":11339:11344  false */\n      0x0\n        /* \"contracts/smart_contract.sol\":11325:11336  Goal_Second */\n      0x12\n      0xb\n        /* \"contracts/smart_contract.sol\":11325:11344  Goal_Second = false */\n      0x100\n      exp\n      dup2\n      sload\n      dup2\n      0xff\n      mul\n      not\n      and\n      swap1\n      dup4\n      iszero\n      iszero\n      mul\n      or\n      swap1\n      sstore\n      pop\n        /* \"contracts/smart_contract.sol\":11365:11405  revert(\"Time is run out (second step).\") */\n      mload(0x40)\n      0x8c379a000000000000000000000000000000000000000000000000000000000\n      dup2\n      mstore\n      0x4\n      add\n      dup1\n      dup1\n      0x20\n      add\n      dup3\n      dup2\n      sub\n      dup3\n      mstore\n      0x1e\n      dup2\n      mstore\n      0x20\n      add\n      dup1\n      0x54696d652069732072756e206f757420287365636f6e642073746570292e0000\n      dup2\n      mstore\n      pop\n      0x20\n      add\n      swap2\n      pop\n      pop\n      mload(0x40)\n      dup1\n      swap2\n      sub\n      swap1\n      revert\n        /* \"contracts/smart_contract.sol\":11001:11426  if (now <= Time_Second + Time_Trans) {\t\t\r... */\n    tag_240:\n        /* \"contracts/smart_contract.sol\":10954:11578  if (msg.sender == AddressPay) {\r... */\n      jump(tag_241)\n    tag_234:\n        /* \"contracts/smart_contract.sol\":11488:11493  false */\n      0x0\n        /* \"contracts/smart_contract.sol\":11477:11485  Goal_EnK */\n      0x12\n      0x6\n        /* \"contracts/smart_contract.sol\":11477:11493  Goal_EnK = false */\n      0x100\n      exp\n      dup2\n      sload\n      dup2\n      0xff\n      mul\n      not\n      and\n      swap1\n      dup4\n      iszero\n      iszero\n      mul\n      or\n      swap1\n      sstore\n      pop\n        /* \"contracts/smart_contract.sol\":11513:11558  revert(\"Only seller can send encrypted key.\") */\n      mload(0x40)\n      0x8c379a000000000000000000000000000000000000000000000000000000000\n      dup2\n      mstore\n      0x4\n      add\n      dup1\n      dup1\n      0x20\n      add\n      dup3\n      dup2\n      sub\n      dup3\n      mstore\n      0x23\n      dup2\n      mstore\n      0x20\n      add\n      dup1\n      0x4f6e6c792073656c6c65722063616e2073656e6420656e63727970746564206b\n      dup2\n      mstore\n      0x20\n      add\n      0x65792e0000000000000000000000000000000000000000000000000000000000\n      dup2\n      mstore\n      pop\n      0x40\n      add\n      swap2\n      pop\n      pop\n      mload(0x40)\n      dup1\n      swap2\n      sub\n      swap1\n      revert\n        /* \"contracts/smart_contract.sol\":10954:11578  if (msg.sender == AddressPay) {\r... */\n    tag_241:\n        /* \"contracts/smart_contract.sol\":10912:11737  if (Goal_PubKeyB == true) {\r... */\n      jump(tag_242)\n    tag_233:\n        /* \"contracts/smart_contract.sol\":11642:11647  false */\n      0x0\n        /* \"contracts/smart_contract.sol\":11631:11639  Goal_EnK */\n      0x12\n      0x6\n        /* \"contracts/smart_contract.sol\":11631:11647  Goal_EnK = false */\n      0x100\n      exp\n      dup2\n      sload\n      dup2\n      0xff\n      mul\n      not\n      and\n      swap1\n      dup4\n      iszero\n      iszero\n      mul\n      or\n      swap1\n      sstore\n      pop\n        /* \"contracts/smart_contract.sol\":11666:11718  revert(\"Please ask buyer to send public key first.\") */\n      mload(0x40)\n      0x8c379a000000000000000000000000000000000000000000000000000000000\n      dup2\n      mstore\n      0x4\n      add\n      dup1\n      dup1\n      0x20\n      add\n      dup3\n      dup2\n      sub\n      dup3\n      mstore\n      0x2a\n      dup2\n      mstore\n      0x20\n      add\n      dup1\n      0x506c656173652061736b20627579657220746f2073656e64207075626c696320\n      dup2\n      mstore\n      0x20\n      add\n      0x6b65792066697273742e00000000000000000000000000000000000000000000\n      dup2\n      mstore\n      pop\n      0x40\n      add\n      swap2\n      pop\n      pop\n      mload(0x40)\n      dup1\n      swap2\n      sub\n      swap1\n      revert\n        /* \"contracts/smart_contract.sol\":10912:11737  if (Goal_PubKeyB == true) {\r... */\n    tag_242:\n        /* \"contracts/smart_contract.sol\":10873:11868  if (Goal_Money == true) {\r... */\n      jump(tag_243)\n    tag_232:\n        /* \"contracts/smart_contract.sol\":11789:11794  false */\n      0x0\n        /* \"contracts/smart_contract.sol\":11778:11786  Goal_EnK */\n      0x12\n      0x6\n        /* \"contracts/smart_contract.sol\":11778:11794  Goal_EnK = false */\n      0x100\n      exp\n      dup2\n      sload\n      dup2\n      0xff\n      mul\n      not\n      and\n      swap1\n      dup4\n      iszero\n      iszero\n      mul\n      or\n      swap1\n      sstore\n      pop\n        /* \"contracts/smart_contract.sol\":11809:11856  revert(\"Please ask buyer to send money first.\") */\n      mload(0x40)\n      0x8c379a000000000000000000000000000000000000000000000000000000000\n      dup2\n      mstore\n      0x4\n      add\n      dup1\n      dup1\n      0x20\n      add\n      dup3\n      dup2\n      sub\n      dup3\n      mstore\n      0x25\n      dup2\n      mstore\n      0x20\n      add\n      dup1\n      0x506c656173652061736b20627579657220746f2073656e64206d6f6e65792066\n      dup2\n      mstore\n      0x20\n      add\n      0x697273742e000000000000000000000000000000000000000000000000000000\n      dup2\n      mstore\n      pop\n      0x40\n      add\n      swap2\n      pop\n      pop\n      mload(0x40)\n      dup1\n      swap2\n      sub\n      swap1\n      revert\n        /* \"contracts/smart_contract.sol\":10873:11868  if (Goal_Money == true) {\r... */\n    tag_243:\n        /* \"contracts/smart_contract.sol\":10811:11875  function upload_encryptedkey (string EnKey) public {\r... */\n      pop\n      jump\t// out\n        /* \"contracts/smart_contract.sol\":6109:6229  function show_evidence_reason () view public returns(string, string) {\r... */\n    tag_82:\n        /* \"contracts/smart_contract.sol\":6162:6168  string */\n      0x60\n        /* \"contracts/smart_contract.sol\":6170:6176  string */\n      dup1\n        /* \"contracts/smart_contract.sol\":6197:6208  EvidenceKey */\n      0x9\n        /* \"contracts/smart_contract.sol\":6210:6220  ReasonType */\n      0xa\n        /* \"contracts/smart_contract.sol\":6189:6221  return (EvidenceKey, ReasonType) */\n      dup2\n      dup1\n      sload\n      0x1\n      dup2\n      0x1\n      and\n      iszero\n      0x100\n      mul\n      sub\n      and\n      0x2\n      swap1\n      div\n      dup1\n      0x1f\n      add\n      0x20\n      dup1\n      swap2\n      div\n      mul\n      0x20\n      add\n      mload(0x40)\n      swap1\n      dup2\n      add\n      0x40\n      mstore\n      dup1\n      swap3\n      swap2\n      swap1\n      dup2\n      dup2\n      mstore\n      0x20\n      add\n      dup3\n      dup1\n      sload\n      0x1\n      dup2\n      0x1\n      and\n      iszero\n      0x100\n      mul\n      sub\n      and\n      0x2\n      swap1\n      div\n      dup1\n      iszero\n      tag_245\n      jumpi\n      dup1\n      0x1f\n      lt\n      tag_246\n      jumpi\n      0x100\n      dup1\n      dup4\n      sload\n      div\n      mul\n      dup4\n      mstore\n      swap2\n      0x20\n      add\n      swap2\n      jump(tag_245)\n    tag_246:\n      dup3\n      add\n      swap2\n      swap1\n      0x0\n      mstore\n      keccak256(0x0, 0x20)\n      swap1\n    tag_247:\n      dup2\n      sload\n      dup2\n      mstore\n      swap1\n      0x1\n      add\n      swap1\n      0x20\n      add\n      dup1\n      dup4\n      gt\n      tag_247\n      jumpi\n      dup3\n      swap1\n      sub\n      0x1f\n      and\n      dup3\n      add\n      swap2\n    tag_245:\n      pop\n      pop\n      pop\n      pop\n      pop\n      swap2\n      pop\n      dup1\n      dup1\n      sload\n      0x1\n      dup2\n      0x1\n      and\n      iszero\n      0x100\n      mul\n      sub\n      and\n      0x2\n      swap1\n      div\n      dup1\n      0x1f\n      add\n      0x20\n      dup1\n      swap2\n      div\n      mul\n      0x20\n      add\n      mload(0x40)\n      swap1\n      dup2\n      add\n      0x40\n      mstore\n      dup1\n      swap3\n      swap2\n      swap1\n      dup2\n      dup2\n      mstore\n      0x20\n      add\n      dup3\n      dup1\n      sload\n      0x1\n      dup2\n      0x1\n      and\n      iszero\n      0x100\n      mul\n      sub\n      and\n      0x2\n      swap1\n      div\n      dup1\n      iszero\n      tag_248\n      jumpi\n      dup1\n      0x1f\n      lt\n      tag_249\n      jumpi\n      0x100\n      dup1\n      dup4\n      sload\n      div\n      mul\n      dup4\n      mstore\n      swap2\n      0x20\n      add\n      swap2\n      jump(tag_248)\n    tag_249:\n      dup3\n      add\n      swap2\n      swap1\n      0x0\n      mstore\n      keccak256(0x0, 0x20)\n      swap1\n    tag_250:\n      dup2\n      sload\n      dup2\n      mstore\n      swap1\n      0x1\n      add\n      swap1\n      0x20\n      add\n      dup1\n      dup4\n      gt\n      tag_250\n      jumpi\n      dup3\n      swap1\n      sub\n      0x1f\n      and\n      dup3\n      add\n      swap2\n    tag_248:\n      pop\n      pop\n      pop\n      pop\n      pop\n      swap1\n      pop\n      swap2\n      pop\n      swap2\n      pop\n        /* \"contracts/smart_contract.sol\":6109:6229  function show_evidence_reason () view public returns(string, string) {\r... */\n      swap1\n      swap2\n      jump\t// out\n        /* \"contracts/smart_contract.sol\":6744:7055  function set_amount (uint256 Amount) public {\r... */\n    tag_93:\n        /* \"contracts/smart_contract.sol\":6811:6821  AddressPay */\n      0xd\n      0x0\n      swap1\n      sload\n      swap1\n      0x100\n      exp\n      swap1\n      div\n      0xffffffffffffffffffffffffffffffffffffffff\n      and\n        /* \"contracts/smart_contract.sol\":6797:6821  msg.sender == AddressPay */\n      0xffffffffffffffffffffffffffffffffffffffff\n      and\n        /* \"contracts/smart_contract.sol\":6797:6807  msg.sender */\n      caller\n        /* \"contracts/smart_contract.sol\":6797:6821  msg.sender == AddressPay */\n      0xffffffffffffffffffffffffffffffffffffffff\n      and\n      eq\n        /* \"contracts/smart_contract.sol\":6793:7051  if (msg.sender == AddressPay) {\r... */\n      iszero\n      tag_252\n      jumpi\n        /* \"contracts/smart_contract.sol\":6847:6853  Amount */\n      dup1\n        /* \"contracts/smart_contract.sol\":6832:6844  Value_Amount */\n      0x0\n        /* \"contracts/smart_contract.sol\":6832:6853  Value_Amount = Amount */\n      dup2\n      swap1\n      sstore\n      pop\n        /* \"contracts/smart_contract.sol\":6882:6894  Value_Amount */\n      sload(0x0)\n        /* \"contracts/smart_contract.sol\":6878:6879  2 */\n      0x2\n        /* \"contracts/smart_contract.sol\":6878:6894  2 * Value_Amount */\n      mul\n        /* \"contracts/smart_contract.sol\":6862:6875  Value_Deposit */\n      0x1\n        /* \"contracts/smart_contract.sol\":6862:6894  Value_Deposit = 2 * Value_Amount */\n      dup2\n      swap1\n      sstore\n      pop\n        /* \"contracts/smart_contract.sol\":6917:6921  true */\n      0x1\n        /* \"contracts/smart_contract.sol\":6903:6914  Goal_Amount */\n      0x12\n      0x0\n        /* \"contracts/smart_contract.sol\":6903:6921  Goal_Amount = true */\n      0x100\n      exp\n      dup2\n      sload\n      dup2\n      0xff\n      mul\n      not\n      and\n      swap1\n      dup4\n      iszero\n      iszero\n      mul\n      or\n      swap1\n      sstore\n      pop\n        /* \"contracts/smart_contract.sol\":6935:6968  SetAmountAndDeposit(Value_Amount) */\n      0x6b95d8cc5f12015398e91290bd8fa8556295a0b36166e851e9d08d733f0afa87\n        /* \"contracts/smart_contract.sol\":6955:6967  Value_Amount */\n      sload(0x0)\n        /* \"contracts/smart_contract.sol\":6935:6968  SetAmountAndDeposit(Value_Amount) */\n      mload(0x40)\n      dup1\n      dup3\n      dup2\n      mstore\n      0x20\n      add\n      swap2\n      pop\n      pop\n      mload(0x40)\n      dup1\n      swap2\n      sub\n      swap1\n      log1\n        /* \"contracts/smart_contract.sol\":6793:7051  if (msg.sender == AddressPay) {\r... */\n      jump(tag_253)\n    tag_252:\n        /* \"contracts/smart_contract.sol\":7006:7011  false */\n      0x0\n        /* \"contracts/smart_contract.sol\":6992:7003  Goal_Amount */\n      0x12\n      0x0\n        /* \"contracts/smart_contract.sol\":6992:7011  Goal_Amount = false */\n      0x100\n      exp\n      dup2\n      sload\n      dup2\n      0xff\n      mul\n      not\n      and\n      swap1\n      dup4\n      iszero\n      iszero\n      mul\n      or\n      swap1\n      sstore\n      pop\n        /* \"contracts/smart_contract.sol\":7023:7045  revert(\"Wrong input.\") */\n      mload(0x40)\n      0x8c379a000000000000000000000000000000000000000000000000000000000\n      dup2\n      mstore\n      0x4\n      add\n      dup1\n      dup1\n      0x20\n      add\n      dup3\n      dup2\n      sub\n      dup3\n      mstore\n      0xc\n      dup2\n      mstore\n      0x20\n      add\n      dup1\n      0x57726f6e6720696e7075742e0000000000000000000000000000000000000000\n      dup2\n      mstore\n      pop\n      0x20\n      add\n      swap2\n      pop\n      pop\n      mload(0x40)\n      dup1\n      swap2\n      sub\n      swap1\n      revert\n        /* \"contracts/smart_contract.sol\":6793:7051  if (msg.sender == AddressPay) {\r... */\n    tag_253:\n        /* \"contracts/smart_contract.sol\":6744:7055  function set_amount (uint256 Amount) public {\r... */\n      pop\n      jump\t// out\n        /* \"contracts/smart_contract.sol\":3238:3320  function get_amount () public view returns (uint256) {\r... */\n    tag_96:\n        /* \"contracts/smart_contract.sol\":3282:3289  uint256 */\n      0x0\n        /* \"contracts/smart_contract.sol\":3303:3315  Value_Amount */\n      dup1\n      sload\n        /* \"contracts/smart_contract.sol\":3296:3315  return Value_Amount */\n      swap1\n      pop\n        /* \"contracts/smart_contract.sol\":3238:3320  function get_amount () public view returns (uint256) {\r... */\n      swap1\n      jump\t// out\n        /* \"contracts/smart_contract.sol\":1223:1250  address public AddressBuyer */\n    tag_99:\n      0xe\n      0x0\n      swap1\n      sload\n      swap1\n      0x100\n      exp\n      swap1\n      div\n      0xffffffffffffffffffffffffffffffffffffffff\n      and\n      dup2\n      jump\t// out\n        /* \"contracts/smart_contract.sol\":11961:12853  function report_send (string Evidence, string Reason) public {\r... */\n    tag_102:\n        /* \"contracts/smart_contract.sol\":12049:12053  true */\n      0x1\n        /* \"contracts/smart_contract.sol\":12037:12053  Goal_EnK == true */\n      iszero\n      iszero\n        /* \"contracts/smart_contract.sol\":12037:12045  Goal_EnK */\n      0x12\n      0x6\n      swap1\n      sload\n      swap1\n      0x100\n      exp\n      swap1\n      div\n      0xff\n      and\n        /* \"contracts/smart_contract.sol\":12037:12053  Goal_EnK == true */\n      iszero\n      iszero\n      eq\n        /* \"contracts/smart_contract.sol\":12033:12846  if (Goal_EnK == true) {\r... */\n      iszero\n      tag_256\n      jumpi\n        /* \"contracts/smart_contract.sol\":12088:12100  AddressBuyer */\n      0xe\n      0x0\n      swap1\n      sload\n      swap1\n      0x100\n      exp\n      swap1\n      div\n      0xffffffffffffffffffffffffffffffffffffffff\n      and\n        /* \"contracts/smart_contract.sol\":12074:12100  msg.sender == AddressBuyer */\n      0xffffffffffffffffffffffffffffffffffffffff\n      and\n        /* \"contracts/smart_contract.sol\":12074:12084  msg.sender */\n      caller\n        /* \"contracts/smart_contract.sol\":12074:12100  msg.sender == AddressBuyer */\n      0xffffffffffffffffffffffffffffffffffffffff\n      and\n      eq\n        /* \"contracts/smart_contract.sol\":12070:12703  if (msg.sender == AddressBuyer) {\r... */\n      iszero\n      tag_257\n      jumpi\n        /* \"contracts/smart_contract.sol\":12145:12153  Time_Rep */\n      sload(0x5)\n        /* \"contracts/smart_contract.sol\":12132:12142  Time_Third */\n      sload(0x4)\n        /* \"contracts/smart_contract.sol\":12132:12153  Time_Third + Time_Rep */\n      add\n        /* \"contracts/smart_contract.sol\":12125:12128  now */\n      timestamp\n        /* \"contracts/smart_contract.sol\":12125:12153  now <= Time_Third + Time_Rep */\n      gt\n      iszero\n        /* \"contracts/smart_contract.sol\":12121:12551  if (now <= Time_Third + Time_Rep) {\r... */\n      iszero\n      tag_258\n      jumpi\n        /* \"contracts/smart_contract.sol\":12192:12200  Evidence */\n      dup2\n        /* \"contracts/smart_contract.sol\":12178:12189  EvidenceKey */\n      0x9\n        /* \"contracts/smart_contract.sol\":12178:12200  EvidenceKey = Evidence */\n      swap1\n      dup1\n      mload\n      swap1\n      0x20\n      add\n      swap1\n      tag_259\n      swap3\n      swap2\n      swap1\n      jump\t// in(tag_192)\n    tag_259:\n      pop\n        /* \"contracts/smart_contract.sol\":12236:12242  Reason */\n      dup1\n        /* \"contracts/smart_contract.sol\":12223:12233  ReasonType */\n      0xa\n        /* \"contracts/smart_contract.sol\":12223:12242  ReasonType = Reason */\n      swap1\n      dup1\n      mload\n      swap1\n      0x20\n      add\n      swap1\n      tag_260\n      swap3\n      swap2\n      swap1\n      jump\t// in(tag_192)\n    tag_260:\n      pop\n        /* \"contracts/smart_contract.sol\":12279:12283  true */\n      0x1\n        /* \"contracts/smart_contract.sol\":12265:12276  Goal_GotRep */\n      0x12\n      0x7\n        /* \"contracts/smart_contract.sol\":12265:12283  Goal_GotRep = true */\n      0x100\n      exp\n      dup2\n      sload\n      dup2\n      0xff\n      mul\n      not\n      and\n      swap1\n      dup4\n      iszero\n      iszero\n      mul\n      or\n      swap1\n      sstore\n      pop\n        /* \"contracts/smart_contract.sol\":12319:12323  true */\n      0x1\n        /* \"contracts/smart_contract.sol\":12306:12316  Goal_Third */\n      0x12\n      0xc\n        /* \"contracts/smart_contract.sol\":12306:12323  Goal_Third = true */\n      0x100\n      exp\n      dup2\n      sload\n      dup2\n      0xff\n      mul\n      not\n      and\n      swap1\n      dup4\n      iszero\n      iszero\n      mul\n      or\n      swap1\n      sstore\n      pop\n        /* \"contracts/smart_contract.sol\":12351:12385  GotReport(EvidenceKey, ReasonType) */\n      0xfb67e4a54c34643315cc0a917ef55d278c4eb965337bccefdd1572118d7c4740\n        /* \"contracts/smart_contract.sol\":12361:12372  EvidenceKey */\n      0x9\n        /* \"contracts/smart_contract.sol\":12374:12384  ReasonType */\n      0xa\n        /* \"contracts/smart_contract.sol\":12351:12385  GotReport(EvidenceKey, ReasonType) */\n      mload(0x40)\n      dup1\n      dup1\n      0x20\n      add\n      dup1\n      0x20\n      add\n      dup4\n      dup2\n      sub\n      dup4\n      mstore\n      dup6\n      dup2\n      dup2\n      sload\n      0x1\n      dup2\n      0x1\n      and\n      iszero\n      0x100\n      mul\n      sub\n      and\n      0x2\n      swap1\n      div\n      dup2\n      mstore\n      0x20\n      add\n      swap2\n      pop\n      dup1\n      sload\n      0x1\n      dup2\n      0x1\n      and\n      iszero\n      0x100\n      mul\n      sub\n      and\n      0x2\n      swap1\n      div\n      dup1\n      iszero\n      tag_261\n      jumpi\n      dup1\n      0x1f\n      lt\n      tag_262\n      jumpi\n      0x100\n      dup1\n      dup4\n      sload\n      div\n      mul\n      dup4\n      mstore\n      swap2\n      0x20\n      add\n      swap2\n      jump(tag_261)\n    tag_262:\n      dup3\n      add\n      swap2\n      swap1\n      0x0\n      mstore\n      keccak256(0x0, 0x20)\n      swap1\n    tag_263:\n      dup2\n      sload\n      dup2\n      mstore\n      swap1\n      0x1\n      add\n      swap1\n      0x20\n      add\n      dup1\n      dup4\n      gt\n      tag_263\n      jumpi\n      dup3\n      swap1\n      sub\n      0x1f\n      and\n      dup3\n      add\n      swap2\n    tag_261:\n      pop\n      pop\n      dup4\n      dup2\n      sub\n      dup3\n      mstore\n      dup5\n      dup2\n      dup2\n      sload\n      0x1\n      dup2\n      0x1\n      and\n      iszero\n      0x100\n      mul\n      sub\n      and\n      0x2\n      swap1\n      div\n      dup2\n      mstore\n      0x20\n      add\n      swap2\n      pop\n      dup1\n      sload\n      0x1\n      dup2\n      0x1\n      and\n      iszero\n      0x100\n      mul\n      sub\n      and\n      0x2\n      swap1\n      div\n      dup1\n      iszero\n      tag_264\n      jumpi\n      dup1\n      0x1f\n      lt\n      tag_265\n      jumpi\n      0x100\n      dup1\n      dup4\n      sload\n      div\n      mul\n      dup4\n      mstore\n      swap2\n      0x20\n      add\n      swap2\n      jump(tag_264)\n    tag_265:\n      dup3\n      add\n      swap2\n      swap1\n      0x0\n      mstore\n      keccak256(0x0, 0x20)\n      swap1\n    tag_266:\n      dup2\n      sload\n      dup2\n      mstore\n      swap1\n      0x1\n      add\n      swap1\n      0x20\n      add\n      dup1\n      dup4\n      gt\n      tag_266\n      jumpi\n      dup3\n      swap1\n      sub\n      0x1f\n      and\n      dup3\n      add\n      swap2\n    tag_264:\n      pop\n      pop\n      swap5\n      pop\n      pop\n      pop\n      pop\n      pop\n      mload(0x40)\n      dup1\n      swap2\n      sub\n      swap1\n      log1\n        /* \"contracts/smart_contract.sol\":12121:12551  if (now <= Time_Third + Time_Rep) {\r... */\n      jump(tag_267)\n    tag_258:\n        /* \"contracts/smart_contract.sol\":12464:12469  false */\n      0x0\n        /* \"contracts/smart_contract.sol\":12451:12461  Goal_Third */\n      0x12\n      0xc\n        /* \"contracts/smart_contract.sol\":12451:12469  Goal_Third = false */\n      0x100\n      exp\n      dup2\n      sload\n      dup2\n      0xff\n      mul\n      not\n      and\n      swap1\n      dup4\n      iszero\n      iszero\n      mul\n      or\n      swap1\n      sstore\n      pop\n        /* \"contracts/smart_contract.sol\":12492:12531  revert(\"Time is run out (third step).\") */\n      mload(0x40)\n      0x8c379a000000000000000000000000000000000000000000000000000000000\n      dup2\n      mstore\n      0x4\n      add\n      dup1\n      dup1\n      0x20\n      add\n      dup3\n      dup2\n      sub\n      dup3\n      mstore\n      0x1d\n      dup2\n      mstore\n      0x20\n      add\n      dup1\n      0x54696d652069732072756e206f7574202874686972642073746570292e000000\n      dup2\n      mstore\n      pop\n      0x20\n      add\n      swap2\n      pop\n      pop\n      mload(0x40)\n      dup1\n      swap2\n      sub\n      swap1\n      revert\n        /* \"contracts/smart_contract.sol\":12121:12551  if (now <= Time_Third + Time_Rep) {\r... */\n    tag_267:\n        /* \"contracts/smart_contract.sol\":12070:12703  if (msg.sender == AddressBuyer) {\r... */\n      jump(tag_268)\n    tag_257:\n        /* \"contracts/smart_contract.sol\":12618:12623  false */\n      0x0\n        /* \"contracts/smart_contract.sol\":12604:12615  Goal_GotRep */\n      0x12\n      0x7\n        /* \"contracts/smart_contract.sol\":12604:12623  Goal_GotRep = false */\n      0x100\n      exp\n      dup2\n      sload\n      dup2\n      0xff\n      mul\n      not\n      and\n      swap1\n      dup4\n      iszero\n      iszero\n      mul\n      or\n      swap1\n      sstore\n      pop\n        /* \"contracts/smart_contract.sol\":12642:12687  revert(\"Only the buyer can send the report.\") */\n      mload(0x40)\n      0x8c379a000000000000000000000000000000000000000000000000000000000\n      dup2\n      mstore\n      0x4\n      add\n      dup1\n      dup1\n      0x20\n      add\n      dup3\n      dup2\n      sub\n      dup3\n      mstore\n      0x23\n      dup2\n      mstore\n      0x20\n      add\n      dup1\n      0x4f6e6c79207468652062757965722063616e2073656e6420746865207265706f\n      dup2\n      mstore\n      0x20\n      add\n      0x72742e0000000000000000000000000000000000000000000000000000000000\n      dup2\n      mstore\n      pop\n      0x40\n      add\n      swap2\n      pop\n      pop\n      mload(0x40)\n      dup1\n      swap2\n      sub\n      swap1\n      revert\n        /* \"contracts/smart_contract.sol\":12070:12703  if (msg.sender == AddressBuyer) {\r... */\n    tag_268:\n        /* \"contracts/smart_contract.sol\":12033:12846  if (Goal_EnK == true) {\r... */\n      jump(tag_269)\n    tag_256:\n        /* \"contracts/smart_contract.sol\":12758:12763  false */\n      0x0\n        /* \"contracts/smart_contract.sol\":12744:12755  Goal_GotRep */\n      0x12\n      0x7\n        /* \"contracts/smart_contract.sol\":12744:12763  Goal_GotRep = false */\n      0x100\n      exp\n      dup2\n      sload\n      dup2\n      0xff\n      mul\n      not\n      and\n      swap1\n      dup4\n      iszero\n      iszero\n      mul\n      or\n      swap1\n      sstore\n      pop\n        /* \"contracts/smart_contract.sol\":12778:12834  revert(\"Plaese ask seller to send encrypted key first.\") */\n      mload(0x40)\n      0x8c379a000000000000000000000000000000000000000000000000000000000\n      dup2\n      mstore\n      0x4\n      add\n      dup1\n      dup1\n      0x20\n      add\n      dup3\n      dup2\n      sub\n      dup3\n      mstore\n      0x2e\n      dup2\n      mstore\n      0x20\n      add\n      dup1\n      0x506c616573652061736b2073656c6c657220746f2073656e6420656e63727970\n      dup2\n      mstore\n      0x20\n      add\n      0x746564206b65792066697273742e000000000000000000000000000000000000\n      dup2\n      mstore\n      pop\n      0x40\n      add\n      swap2\n      pop\n      pop\n      mload(0x40)\n      dup1\n      swap2\n      sub\n      swap1\n      revert\n        /* \"contracts/smart_contract.sol\":12033:12846  if (Goal_EnK == true) {\r... */\n    tag_269:\n        /* \"contracts/smart_contract.sol\":11961:12853  function report_send (string Evidence, string Reason) public {\r... */\n      pop\n      pop\n      jump\t// out\n        /* \"contracts/smart_contract.sol\":1147:1172  address public AddressPay */\n    tag_105:\n      0xd\n      0x0\n      swap1\n      sload\n      swap1\n      0x100\n      exp\n      swap1\n      div\n      0xffffffffffffffffffffffffffffffffffffffff\n      and\n      dup2\n      jump\t// out\n        /* \"contracts/smart_contract.sol\":3511:3604  function get_pubkeyB() constant public returns(string) {\r... */\n    tag_108:\n        /* \"contracts/smart_contract.sol\":3558:3564  string */\n      0x60\n        /* \"contracts/smart_contract.sol\":3584:3596  PubKey_Buyer */\n      0x7\n        /* \"contracts/smart_contract.sol\":3577:3596  return PubKey_Buyer */\n      dup1\n      sload\n      0x1\n      dup2\n      0x1\n      and\n      iszero\n      0x100\n      mul\n      sub\n      and\n      0x2\n      swap1\n      div\n      dup1\n      0x1f\n      add\n      0x20\n      dup1\n      swap2\n      div\n      mul\n      0x20\n      add\n      mload(0x40)\n      swap1\n      dup2\n      add\n      0x40\n      mstore\n      dup1\n      swap3\n      swap2\n      swap1\n      dup2\n      dup2\n      mstore\n      0x20\n      add\n      dup3\n      dup1\n      sload\n      0x1\n      dup2\n      0x1\n      and\n      iszero\n      0x100\n      mul\n      sub\n      and\n      0x2\n      swap1\n      div\n      dup1\n      iszero\n      tag_271\n      jumpi\n      dup1\n      0x1f\n      lt\n      tag_272\n      jumpi\n      0x100\n      dup1\n      dup4\n      sload\n      div\n      mul\n      dup4\n      mstore\n      swap2\n      0x20\n      add\n      swap2\n      jump(tag_271)\n    tag_272:\n      dup3\n      add\n      swap2\n      swap1\n      0x0\n      mstore\n      keccak256(0x0, 0x20)\n      swap1\n    tag_273:\n      dup2\n      sload\n      dup2\n      mstore\n      swap1\n      0x1\n      add\n      swap1\n      0x20\n      add\n      dup1\n      dup4\n      gt\n      tag_273\n      jumpi\n      dup3\n      swap1\n      sub\n      0x1f\n      and\n      dup3\n      add\n      swap2\n    tag_271:\n      pop\n      pop\n      pop\n      pop\n      pop\n      swap1\n      pop\n        /* \"contracts/smart_contract.sol\":3511:3604  function get_pubkeyB() constant public returns(string) {\r... */\n      swap1\n      jump\t// out\n        /* \"contracts/smart_contract.sol\":5668:5756  function view_first () public view returns (uint256){\r... */\n    tag_115:\n        /* \"contracts/smart_contract.sol\":5712:5719  uint256 */\n      0x0\n        /* \"contracts/smart_contract.sol\":5738:5748  Time_First */\n      sload(0x2)\n        /* \"contracts/smart_contract.sol\":5731:5748  return Time_First */\n      swap1\n      pop\n        /* \"contracts/smart_contract.sol\":5668:5756  function view_first () public view returns (uint256){\r... */\n      swap1\n      jump\t// out\n        /* \"contracts/smart_contract.sol\":7732:8302  function upload_hash_key (string HashKey) public {\r... */\n    tag_118:\n        /* \"contracts/smart_contract.sol\":7813:7817  true */\n      0x1\n        /* \"contracts/smart_contract.sol\":7796:7817  Goal_HashData == true */\n      iszero\n      iszero\n        /* \"contracts/smart_contract.sol\":7796:7809  Goal_HashData */\n      0x12\n      0x1\n      swap1\n      sload\n      swap1\n      0x100\n      exp\n      swap1\n      div\n      0xff\n      and\n        /* \"contracts/smart_contract.sol\":7796:7817  Goal_HashData == true */\n      iszero\n      iszero\n      eq\n        /* \"contracts/smart_contract.sol\":7792:8295  if (Goal_HashData == true) {\r... */\n      iszero\n      tag_276\n      jumpi\n        /* \"contracts/smart_contract.sol\":7852:7862  AddressPay */\n      0xd\n      0x0\n      swap1\n      sload\n      swap1\n      0x100\n      exp\n      swap1\n      div\n      0xffffffffffffffffffffffffffffffffffffffff\n      and\n        /* \"contracts/smart_contract.sol\":7838:7862  msg.sender == AddressPay */\n      0xffffffffffffffffffffffffffffffffffffffff\n      and\n        /* \"contracts/smart_contract.sol\":7838:7848  msg.sender */\n      caller\n        /* \"contracts/smart_contract.sol\":7838:7862  msg.sender == AddressPay */\n      0xffffffffffffffffffffffffffffffffffffffff\n      and\n      eq\n        /* \"contracts/smart_contract.sol\":7834:8154  if (msg.sender == AddressPay) {\r... */\n      iszero\n      tag_277\n      jumpi\n        /* \"contracts/smart_contract.sol\":7894:7901  HashKey */\n      dup1\n        /* \"contracts/smart_contract.sol\":7883:7891  Hash_Key */\n      0xc\n        /* \"contracts/smart_contract.sol\":7883:7901  Hash_Key = HashKey */\n      swap1\n      dup1\n      mload\n      swap1\n      0x20\n      add\n      swap1\n      tag_278\n      swap3\n      swap2\n      swap1\n      jump\t// in(tag_192)\n    tag_278:\n      pop\n        /* \"contracts/smart_contract.sol\":7935:7939  true */\n      0x1\n        /* \"contracts/smart_contract.sol\":7920:7932  Goal_HashKey */\n      0x12\n      0x2\n        /* \"contracts/smart_contract.sol\":7920:7939  Goal_HashKey = true */\n      0x100\n      exp\n      dup2\n      sload\n      dup2\n      0xff\n      mul\n      not\n      and\n      swap1\n      dup4\n      iszero\n      iszero\n      mul\n      or\n      swap1\n      sstore\n      pop\n        /* \"contracts/smart_contract.sol\":7963:7986  UploadHashKey(Hash_Key) */\n      0xd33ef9766528d690b07e88c0480987032706344a5deaf642ef66a09e7d186a32\n        /* \"contracts/smart_contract.sol\":7977:7985  Hash_Key */\n      0xc\n        /* \"contracts/smart_contract.sol\":7963:7986  UploadHashKey(Hash_Key) */\n      mload(0x40)\n      dup1\n      dup1\n      0x20\n      add\n      dup3\n      dup2\n      sub\n      dup3\n      mstore\n      dup4\n      dup2\n      dup2\n      sload\n      0x1\n      dup2\n      0x1\n      and\n      iszero\n      0x100\n      mul\n      sub\n      and\n      0x2\n      swap1\n      div\n      dup2\n      mstore\n      0x20\n      add\n      swap2\n      pop\n      dup1\n      sload\n      0x1\n      dup2\n      0x1\n      and\n      iszero\n      0x100\n      mul\n      sub\n      and\n      0x2\n      swap1\n      div\n      dup1\n      iszero\n      tag_279\n      jumpi\n      dup1\n      0x1f\n      lt\n      tag_280\n      jumpi\n      0x100\n      dup1\n      dup4\n      sload\n      div\n      mul\n      dup4\n      mstore\n      swap2\n      0x20\n      add\n      swap2\n      jump(tag_279)\n    tag_280:\n      dup3\n      add\n      swap2\n      swap1\n      0x0\n      mstore\n      keccak256(0x0, 0x20)\n      swap1\n    tag_281:\n      dup2\n      sload\n      dup2\n      mstore\n      swap1\n      0x1\n      add\n      swap1\n      0x20\n      add\n      dup1\n      dup4\n      gt\n      tag_281\n      jumpi\n      dup3\n      swap1\n      sub\n      0x1f\n      and\n      dup3\n      add\n      swap2\n    tag_279:\n      pop\n      pop\n      swap3\n      pop\n      pop\n      pop\n      mload(0x40)\n      dup1\n      swap2\n      sub\n      swap1\n      log1\n        /* \"contracts/smart_contract.sol\":7834:8154  if (msg.sender == AddressPay) {\r... */\n      jump(tag_282)\n    tag_277:\n        /* \"contracts/smart_contract.sol\":8055:8060  false */\n      0x0\n        /* \"contracts/smart_contract.sol\":8040:8052  Goal_HashKey */\n      0x12\n      0x2\n        /* \"contracts/smart_contract.sol\":8040:8060  Goal_HashKey = false */\n      0x100\n      exp\n      dup2\n      sload\n      dup2\n      0xff\n      mul\n      not\n      and\n      swap1\n      dup4\n      iszero\n      iszero\n      mul\n      or\n      swap1\n      sstore\n      pop\n        /* \"contracts/smart_contract.sol\":8079:8138  revert(\"Only the seller can upload hash value of the key.\") */\n      mload(0x40)\n      0x8c379a000000000000000000000000000000000000000000000000000000000\n      dup2\n      mstore\n      0x4\n      add\n      dup1\n      dup1\n      0x20\n      add\n      dup3\n      dup2\n      sub\n      dup3\n      mstore\n      0x31\n      dup2\n      mstore\n      0x20\n      add\n      dup1\n      0x4f6e6c79207468652073656c6c65722063616e2075706c6f6164206861736820\n      dup2\n      mstore\n      0x20\n      add\n      0x76616c7565206f6620746865206b65792e000000000000000000000000000000\n      dup2\n      mstore\n      pop\n      0x40\n      add\n      swap2\n      pop\n      pop\n      mload(0x40)\n      dup1\n      swap2\n      sub\n      swap1\n      revert\n        /* \"contracts/smart_contract.sol\":7834:8154  if (msg.sender == AddressPay) {\r... */\n    tag_282:\n        /* \"contracts/smart_contract.sol\":7792:8295  if (Goal_HashData == true) {\r... */\n      jump(tag_283)\n    tag_276:\n        /* \"contracts/smart_contract.sol\":8210:8215  false */\n      0x0\n        /* \"contracts/smart_contract.sol\":8195:8207  Goal_HashKey */\n      0x12\n      0x2\n        /* \"contracts/smart_contract.sol\":8195:8215  Goal_HashKey = false */\n      0x100\n      exp\n      dup2\n      sload\n      dup2\n      0xff\n      mul\n      not\n      and\n      swap1\n      dup4\n      iszero\n      iszero\n      mul\n      or\n      swap1\n      sstore\n      pop\n        /* \"contracts/smart_contract.sol\":8230:8283  revert(\"Please upload hash value of the data first.\") */\n      mload(0x40)\n      0x8c379a000000000000000000000000000000000000000000000000000000000\n      dup2\n      mstore\n      0x4\n      add\n      dup1\n      dup1\n      0x20\n      add\n      dup3\n      dup2\n      sub\n      dup3\n      mstore\n      0x2b\n      dup2\n      mstore\n      0x20\n      add\n      dup1\n      0x506c656173652075706c6f616420686173682076616c7565206f662074686520\n      dup2\n      mstore\n      0x20\n      add\n      0x646174612066697273742e000000000000000000000000000000000000000000\n      dup2\n      mstore\n      pop\n      0x40\n      add\n      swap2\n      pop\n      pop\n      mload(0x40)\n      dup1\n      swap2\n      sub\n      swap1\n      revert\n        /* \"contracts/smart_contract.sol\":7792:8295  if (Goal_HashData == true) {\r... */\n    tag_283:\n        /* \"contracts/smart_contract.sol\":7732:8302  function upload_hash_key (string HashKey) public {\r... */\n      pop\n      jump\t// out\n        /* \"contracts/smart_contract.sol\":5973:6061  function view_third () public view returns (uint256){\r... */\n    tag_121:\n        /* \"contracts/smart_contract.sol\":6017:6024  uint256 */\n      0x0\n        /* \"contracts/smart_contract.sol\":6043:6053  Time_Third */\n      sload(0x4)\n        /* \"contracts/smart_contract.sol\":6036:6053  return Time_Third */\n      swap1\n      pop\n        /* \"contracts/smart_contract.sol\":5973:6061  function view_third () public view returns (uint256){\r... */\n      swap1\n      jump\t// out\n        /* \"contracts/smart_contract.sol\":1360:1410  string public DataAddress = \"www.cugdatatrade.com\" */\n    tag_124:\n      0x10\n      dup1\n      sload\n      0x1\n      dup2\n      0x1\n      and\n      iszero\n      0x100\n      mul\n      sub\n      and\n      0x2\n      swap1\n      div\n      dup1\n      0x1f\n      add\n      0x20\n      dup1\n      swap2\n      div\n      mul\n      0x20\n      add\n      mload(0x40)\n      swap1\n      dup2\n      add\n      0x40\n      mstore\n      dup1\n      swap3\n      swap2\n      swap1\n      dup2\n      dup2\n      mstore\n      0x20\n      add\n      dup3\n      dup1\n      sload\n      0x1\n      dup2\n      0x1\n      and\n      iszero\n      0x100\n      mul\n      sub\n      and\n      0x2\n      swap1\n      div\n      dup1\n      iszero\n      tag_285\n      jumpi\n      dup1\n      0x1f\n      lt\n      tag_286\n      jumpi\n      0x100\n      dup1\n      dup4\n      sload\n      div\n      mul\n      dup4\n      mstore\n      swap2\n      0x20\n      add\n      swap2\n      jump(tag_285)\n    tag_286:\n      dup3\n      add\n      swap2\n      swap1\n      0x0\n      mstore\n      keccak256(0x0, 0x20)\n      swap1\n    tag_287:\n      dup2\n      sload\n      dup2\n      mstore\n      swap1\n      0x1\n      add\n      swap1\n      0x20\n      add\n      dup1\n      dup4\n      gt\n      tag_287\n      jumpi\n      dup3\n      swap1\n      sub\n      0x1f\n      and\n      dup3\n      add\n      swap2\n    tag_285:\n      pop\n      pop\n      pop\n      pop\n      pop\n      dup2\n      jump\t// out\n        /* \"contracts/smart_contract.sol\":9299:10169  function send_money () public payable returns(bool) {\r... */\n    tag_130:\n        /* \"contracts/smart_contract.sol\":9345:9349  bool */\n      0x0\n        /* \"contracts/smart_contract.sol\":9377:9387  msg.sender */\n      caller\n        /* \"contracts/smart_contract.sol\":9362:9374  AddressBuyer */\n      0xe\n      0x0\n        /* \"contracts/smart_contract.sol\":9362:9387  AddressBuyer = msg.sender */\n      0x100\n      exp\n      dup2\n      sload\n      dup2\n      0xffffffffffffffffffffffffffffffffffffffff\n      mul\n      not\n      and\n      swap1\n      dup4\n      0xffffffffffffffffffffffffffffffffffffffff\n      and\n      mul\n      or\n      swap1\n      sstore\n      pop\n        /* \"contracts/smart_contract.sol\":9418:9422  true */\n      0x1\n        /* \"contracts/smart_contract.sol\":9402:9422  Goal_Deposit == true */\n      iszero\n      iszero\n        /* \"contracts/smart_contract.sol\":9402:9414  Goal_Deposit */\n      0x12\n      0x3\n      swap1\n      sload\n      swap1\n      0x100\n      exp\n      swap1\n      div\n      0xff\n      and\n        /* \"contracts/smart_contract.sol\":9402:9422  Goal_Deposit == true */\n      iszero\n      iszero\n      eq\n        /* \"contracts/smart_contract.sol\":9398:10162  if (Goal_Deposit == true) {\r... */\n      iszero\n      tag_289\n      jumpi\n        /* \"contracts/smart_contract.sol\":9459:9469  AddressPay */\n      0xd\n      0x0\n      swap1\n      sload\n      swap1\n      0x100\n      exp\n      swap1\n      div\n      0xffffffffffffffffffffffffffffffffffffffff\n      and\n        /* \"contracts/smart_contract.sol\":9443:9469  AddressBuyer != AddressPay */\n      0xffffffffffffffffffffffffffffffffffffffff\n      and\n        /* \"contracts/smart_contract.sol\":9443:9455  AddressBuyer */\n      0xe\n      0x0\n      swap1\n      sload\n      swap1\n      0x100\n      exp\n      swap1\n      div\n      0xffffffffffffffffffffffffffffffffffffffff\n      and\n        /* \"contracts/smart_contract.sol\":9443:9469  AddressBuyer != AddressPay */\n      0xffffffffffffffffffffffffffffffffffffffff\n      and\n      eq\n      iszero\n        /* \"contracts/smart_contract.sol\":9439:10033  if (AddressBuyer != AddressPay) {\r... */\n      iszero\n      tag_290\n      jumpi\n        /* \"contracts/smart_contract.sol\":9514:9524  Time_Trans */\n      sload(0x6)\n        /* \"contracts/smart_contract.sol\":9501:9511  Time_First */\n      sload(0x2)\n        /* \"contracts/smart_contract.sol\":9501:9524  Time_First + Time_Trans */\n      add\n        /* \"contracts/smart_contract.sol\":9494:9497  now */\n      timestamp\n        /* \"contracts/smart_contract.sol\":9494:9524  now <= Time_First + Time_Trans */\n      gt\n      iszero\n        /* \"contracts/smart_contract.sol\":9490:9887  if (now <= Time_First + Time_Trans) {\r... */\n      iszero\n      tag_291\n      jumpi\n        /* \"contracts/smart_contract.sol\":9562:9566  true */\n      0x1\n        /* \"contracts/smart_contract.sol\":9549:9559  Goal_Money */\n      0x12\n      0x4\n        /* \"contracts/smart_contract.sol\":9549:9566  Goal_Money = true */\n      0x100\n      exp\n      dup2\n      sload\n      dup2\n      0xff\n      mul\n      not\n      and\n      swap1\n      dup4\n      iszero\n      iszero\n      mul\n      or\n      swap1\n      sstore\n      pop\n        /* \"contracts/smart_contract.sol\":9602:9606  true */\n      0x1\n        /* \"contracts/smart_contract.sol\":9589:9599  Goal_First */\n      0x12\n      0xa\n        /* \"contracts/smart_contract.sol\":9589:9606  Goal_First = true */\n      0x100\n      exp\n      dup2\n      sload\n      dup2\n      0xff\n      mul\n      not\n      and\n      swap1\n      dup4\n      iszero\n      iszero\n      mul\n      or\n      swap1\n      sstore\n      pop\n        /* \"contracts/smart_contract.sol\":9634:9662  GotMoney(Value_Amount, this) */\n      0x34d58d6ebd9e354f0d3fca9b939e2a3d82c2f398b75ecdb738a0a27f5c3049b0\n        /* \"contracts/smart_contract.sol\":9643:9655  Value_Amount */\n      sload(0x0)\n        /* \"contracts/smart_contract.sol\":9657:9661  this */\n      address\n        /* \"contracts/smart_contract.sol\":9634:9662  GotMoney(Value_Amount, this) */\n      mload(0x40)\n      dup1\n      dup4\n      dup2\n      mstore\n      0x20\n      add\n      dup3\n      0xffffffffffffffffffffffffffffffffffffffff\n      and\n      0xffffffffffffffffffffffffffffffffffffffff\n      and\n      dup2\n      mstore\n      0x20\n      add\n      swap3\n      pop\n      pop\n      pop\n      mload(0x40)\n      dup1\n      swap2\n      sub\n      swap1\n      log1\n        /* \"contracts/smart_contract.sol\":9700:9704  this */\n      address\n        /* \"contracts/smart_contract.sol\":9692:9710  address(this).send */\n      0xffffffffffffffffffffffffffffffffffffffff\n      and\n        /* \"contracts/smart_contract.sol\":9692:9721  address(this).send(msg.value) */\n      0x8fc\n        /* \"contracts/smart_contract.sol\":9711:9720  msg.value */\n      callvalue\n        /* \"contracts/smart_contract.sol\":9692:9721  address(this).send(msg.value) */\n      swap1\n      dup2\n      iszero\n      mul\n      swap1\n      mload(0x40)\n      0x0\n      mload(0x40)\n      dup1\n      dup4\n      sub\n      dup2\n      dup6\n      dup9\n      dup9\n      call\n      swap4\n      pop\n      pop\n      pop\n      pop\n        /* \"contracts/smart_contract.sol\":9685:9721  return address(this).send(msg.value) */\n      swap1\n      pop\n      jump(tag_288)\n        /* \"contracts/smart_contract.sol\":9490:9887  if (now <= Time_First + Time_Trans) {\r... */\n    tag_291:\n        /* \"contracts/smart_contract.sol\":9800:9805  false */\n      0x0\n        /* \"contracts/smart_contract.sol\":9787:9797  Goal_First */\n      0x12\n      0xa\n        /* \"contracts/smart_contract.sol\":9787:9805  Goal_First = false */\n      0x100\n      exp\n      dup2\n      sload\n      dup2\n      0xff\n      mul\n      not\n      and\n      swap1\n      dup4\n      iszero\n      iszero\n      mul\n      or\n      swap1\n      sstore\n      pop\n        /* \"contracts/smart_contract.sol\":9828:9867  revert(\"Time is run out (first step).\") */\n      mload(0x40)\n      0x8c379a000000000000000000000000000000000000000000000000000000000\n      dup2\n      mstore\n      0x4\n      add\n      dup1\n      dup1\n      0x20\n      add\n      dup3\n      dup2\n      sub\n      dup3\n      mstore\n      0x1d\n      dup2\n      mstore\n      0x20\n      add\n      dup1\n      0x54696d652069732072756e206f7574202866697273742073746570292e000000\n      dup2\n      mstore\n      pop\n      0x20\n      add\n      swap2\n      pop\n      pop\n      mload(0x40)\n      dup1\n      swap2\n      sub\n      swap1\n      revert\n        /* \"contracts/smart_contract.sol\":9439:10033  if (AddressBuyer != AddressPay) {\r... */\n    tag_290:\n        /* \"contracts/smart_contract.sol\":9953:9958  false */\n      0x0\n        /* \"contracts/smart_contract.sol\":9940:9950  Goal_Money */\n      0x12\n      0x4\n        /* \"contracts/smart_contract.sol\":9940:9958  Goal_Money = false */\n      0x100\n      exp\n      dup2\n      sload\n      dup2\n      0xff\n      mul\n      not\n      and\n      swap1\n      dup4\n      iszero\n      iszero\n      mul\n      or\n      swap1\n      sstore\n      pop\n        /* \"contracts/smart_contract.sol\":9977:10017  revert(\"Seller can not send the money.\") */\n      mload(0x40)\n      0x8c379a000000000000000000000000000000000000000000000000000000000\n      dup2\n      mstore\n      0x4\n      add\n      dup1\n      dup1\n      0x20\n      add\n      dup3\n      dup2\n      sub\n      dup3\n      mstore\n      0x1e\n      dup2\n      mstore\n      0x20\n      add\n      dup1\n      0x53656c6c65722063616e206e6f742073656e6420746865206d6f6e65792e0000\n      dup2\n      mstore\n      pop\n      0x20\n      add\n      swap2\n      pop\n      pop\n      mload(0x40)\n      dup1\n      swap2\n      sub\n      swap1\n      revert\n        /* \"contracts/smart_contract.sol\":9398:10162  if (Goal_Deposit == true) {\r... */\n    tag_289:\n        /* \"contracts/smart_contract.sol\":10087:10092  false */\n      0x0\n        /* \"contracts/smart_contract.sol\":10074:10084  Goal_Money */\n      0x12\n      0x4\n        /* \"contracts/smart_contract.sol\":10074:10092  Goal_Money = false */\n      0x100\n      exp\n      dup2\n      sload\n      dup2\n      0xff\n      mul\n      not\n      and\n      swap1\n      dup4\n      iszero\n      iszero\n      mul\n      or\n      swap1\n      sstore\n      pop\n        /* \"contracts/smart_contract.sol\":10107:10150  revert(\"Seller should send deposit first.\") */\n      mload(0x40)\n      0x8c379a000000000000000000000000000000000000000000000000000000000\n      dup2\n      mstore\n      0x4\n      add\n      dup1\n      dup1\n      0x20\n      add\n      dup3\n      dup2\n      sub\n      dup3\n      mstore\n      0x21\n      dup2\n      mstore\n      0x20\n      add\n      dup1\n      0x53656c6c65722073686f756c642073656e64206465706f736974206669727374\n      dup2\n      mstore\n      0x20\n      add\n      0x2e00000000000000000000000000000000000000000000000000000000000000\n      dup2\n      mstore\n      pop\n      0x40\n      add\n      swap2\n      pop\n      pop\n      mload(0x40)\n      dup1\n      swap2\n      sub\n      swap1\n      revert\n        /* \"contracts/smart_contract.sol\":9299:10169  function send_money () public payable returns(bool) {\r... */\n    tag_288:\n      swap1\n      jump\t// out\n        /* \"contracts/smart_contract.sol\":3652:3747  function get_enkey () view public returns(string) {\r... */\n    tag_133:\n        /* \"contracts/smart_contract.sol\":3694:3700  string */\n      0x60\n        /* \"contracts/smart_contract.sol\":3720:3739  EncryptedKey_Seller */\n      0x8\n        /* \"contracts/smart_contract.sol\":3713:3739  return EncryptedKey_Seller */\n      dup1\n      sload\n      0x1\n      dup2\n      0x1\n      and\n      iszero\n      0x100\n      mul\n      sub\n      and\n      0x2\n      swap1\n      div\n      dup1\n      0x1f\n      add\n      0x20\n      dup1\n      swap2\n      div\n      mul\n      0x20\n      add\n      mload(0x40)\n      swap1\n      dup2\n      add\n      0x40\n      mstore\n      dup1\n      swap3\n      swap2\n      swap1\n      dup2\n      dup2\n      mstore\n      0x20\n      add\n      dup3\n      dup1\n      sload\n      0x1\n      dup2\n      0x1\n      and\n      iszero\n      0x100\n      mul\n      sub\n      and\n      0x2\n      swap1\n      div\n      dup1\n      iszero\n      tag_296\n      jumpi\n      dup1\n      0x1f\n      lt\n      tag_297\n      jumpi\n      0x100\n      dup1\n      dup4\n      sload\n      div\n      mul\n      dup4\n      mstore\n      swap2\n      0x20\n      add\n      swap2\n      jump(tag_296)\n    tag_297:\n      dup3\n      add\n      swap2\n      swap1\n      0x0\n      mstore\n      keccak256(0x0, 0x20)\n      swap1\n    tag_298:\n      dup2\n      sload\n      dup2\n      mstore\n      swap1\n      0x1\n      add\n      swap1\n      0x20\n      add\n      dup1\n      dup4\n      gt\n      tag_298\n      jumpi\n      dup3\n      swap1\n      sub\n      0x1f\n      and\n      dup3\n      add\n      swap2\n    tag_296:\n      pop\n      pop\n      pop\n      pop\n      pop\n      swap1\n      pop\n        /* \"contracts/smart_contract.sol\":3652:3747  function get_enkey () view public returns(string) {\r... */\n      swap1\n      jump\t// out\n        /* \"contracts/smart_contract.sol\":3366:3450  function get_deposit () public view returns (uint256) {\r... */\n    tag_140:\n        /* \"contracts/smart_contract.sol\":3411:3418  uint256 */\n      0x0\n        /* \"contracts/smart_contract.sol\":3432:3445  Value_Deposit */\n      sload(0x1)\n        /* \"contracts/smart_contract.sol\":3425:3445  return Value_Deposit */\n      swap1\n      pop\n        /* \"contracts/smart_contract.sol\":3366:3450  function get_deposit () public view returns (uint256) {\r... */\n      swap1\n      jump\t// out\n        /* \"contracts/smart_contract.sol\":3806:3893  function get_hash_key () view public returns(string) {\r... */\n    tag_143:\n        /* \"contracts/smart_contract.sol\":3851:3857  string */\n      0x60\n        /* \"contracts/smart_contract.sol\":3877:3885  Hash_Key */\n      0xc\n        /* \"contracts/smart_contract.sol\":3870:3885  return Hash_Key */\n      dup1\n      sload\n      0x1\n      dup2\n      0x1\n      and\n      iszero\n      0x100\n      mul\n      sub\n      and\n      0x2\n      swap1\n      div\n      dup1\n      0x1f\n      add\n      0x20\n      dup1\n      swap2\n      div\n      mul\n      0x20\n      add\n      mload(0x40)\n      swap1\n      dup2\n      add\n      0x40\n      mstore\n      dup1\n      swap3\n      swap2\n      swap1\n      dup2\n      dup2\n      mstore\n      0x20\n      add\n      dup3\n      dup1\n      sload\n      0x1\n      dup2\n      0x1\n      and\n      iszero\n      0x100\n      mul\n      sub\n      and\n      0x2\n      swap1\n      div\n      dup1\n      iszero\n      tag_301\n      jumpi\n      dup1\n      0x1f\n      lt\n      tag_302\n      jumpi\n      0x100\n      dup1\n      dup4\n      sload\n      div\n      mul\n      dup4\n      mstore\n      swap2\n      0x20\n      add\n      swap2\n      jump(tag_301)\n    tag_302:\n      dup3\n      add\n      swap2\n      swap1\n      0x0\n      mstore\n      keccak256(0x0, 0x20)\n      swap1\n    tag_303:\n      dup2\n      sload\n      dup2\n      mstore\n      swap1\n      0x1\n      add\n      swap1\n      0x20\n      add\n      dup1\n      dup4\n      gt\n      tag_303\n      jumpi\n      dup3\n      swap1\n      sub\n      0x1f\n      and\n      dup3\n      add\n      swap2\n    tag_301:\n      pop\n      pop\n      pop\n      pop\n      pop\n      swap1\n      pop\n        /* \"contracts/smart_contract.sol\":3806:3893  function get_hash_key () view public returns(string) {\r... */\n      swap1\n      jump\t// out\n        /* \"contracts/smart_contract.sol\":115:15952  contract Scheme {\r... */\n    tag_192:\n      dup3\n      dup1\n      sload\n      0x1\n      dup2\n      0x1\n      and\n      iszero\n      0x100\n      mul\n      sub\n      and\n      0x2\n      swap1\n      div\n      swap1\n      0x0\n      mstore\n      keccak256(0x0, 0x20)\n      swap1\n      0x1f\n      add\n      0x20\n      swap1\n      div\n      dup2\n      add\n      swap3\n      dup3\n      0x1f\n      lt\n      tag_305\n      jumpi\n      dup1\n      mload\n      not(0xff)\n      and\n      dup4\n      dup1\n      add\n      or\n      dup6\n      sstore\n      jump(tag_304)\n    tag_305:\n      dup3\n      dup1\n      add\n      0x1\n      add\n      dup6\n      sstore\n      dup3\n      iszero\n      tag_304\n      jumpi\n      swap2\n      dup3\n      add\n    tag_306:\n      dup3\n      dup2\n      gt\n      iszero\n      tag_307\n      jumpi\n      dup3\n      mload\n      dup3\n      sstore\n      swap2\n      0x20\n      add\n      swap2\n      swap1\n      0x1\n      add\n      swap1\n      jump(tag_306)\n    tag_307:\n    tag_304:\n      pop\n      swap1\n      pop\n      tag_308\n      swap2\n      swap1\n      jump\t// in(tag_309)\n    tag_308:\n      pop\n      swap1\n      jump\t// out\n    tag_309:\n      tag_310\n      swap2\n      swap1\n    tag_311:\n      dup1\n      dup3\n      gt\n      iszero\n      tag_312\n      jumpi\n      0x0\n      dup2\n      0x0\n      swap1\n      sstore\n      pop\n      0x1\n      add\n      jump(tag_311)\n    tag_312:\n      pop\n      swap1\n      jump\n    tag_310:\n      swap1\n      jump\t// out\n\n    auxdata: 0xa165627a7a7230582018f10e1091596a4006399acb308b0dc299dd779003eb4f30674627f6f14b43d80029\n}\n",
				"bytecode": {
					"linkReferences": {},
					"object": "608060405261012c60055561012c6006556040805190810160405280601481526020017f7777772e6375676461746174726164652e636f6d000000000000000000000000815250601090805190602001906200005d92919062000279565b50606060405190810160405280603a81526020017f68747470733a2f2f656d6e3137382e6769746875622e696f2f6f6e6c696e652d81526020017f746f6f6c732f7368613235365f636865636b73756d2e68746d6c00000000000081525060119080519060200190620000d292919062000279565b506000601260006101000a81548160ff0219169083151502179055506000601260016101000a81548160ff0219169083151502179055506000601260026101000a81548160ff0219169083151502179055506000601260036101000a81548160ff0219169083151502179055506000601260046101000a81548160ff0219169083151502179055506000601260056101000a81548160ff0219169083151502179055506000601260066101000a81548160ff0219169083151502179055506000601260076101000a81548160ff0219169083151502179055506000601260086101000a81548160ff0219169083151502179055506000601260096101000a81548160ff02191690831515021790555060006012600a6101000a81548160ff02191690831515021790555060006012600b6101000a81548160ff02191690831515021790555060006012600c6101000a81548160ff02191690831515021790555033600d60006101000a81548173ffffffffffffffffffffffffffffffffffffffff021916908373ffffffffffffffffffffffffffffffffffffffff16021790555062000328565b828054600181600116156101000203166002900490600052602060002090601f016020900481019282601f10620002bc57805160ff1916838001178555620002ed565b82800160010185558215620002ed579182015b82811115620002ec578251825591602001919060010190620002cf565b5b509050620002fc919062000300565b5090565b6200032591905b808211156200032157600081600090555060010162000307565b5090565b90565b61399180620003386000396000f30060806040526004361061016a576000357c0100000000000000000000000000000000000000000000000000000000900463ffffffff1680630a7efc5f1461016f5780631ae85959146101865780631e279a37146101ef5780632cd88774146102465780636cbacea3146102d6578063706f6c5e146103015780637958f7d51461032c578063882851bf146103955780638c7c79b5146103c45780638d2d7288146103e657806396eec3cd14610476578063a0635b6614610506578063a1d917911461055d578063a85ceb3c146105c6578063ab8425d8146106c2578063b9e6f1d9146106ef578063cc0babc81461071a578063cd9e32bc14610771578063da9e891914610820578063dc2457f914610877578063dec030e414610907578063e0bfebe714610932578063ea5d2f0f1461099b578063f0a7c5f9146109c6578063f1e0bdf414610a56578063f36fc11114610a78578063f59d886414610b08578063f73df8fd14610b33575b600080fd5b34801561017b57600080fd5b50610184610bc3565b005b34801561019257600080fd5b506101ed600480360381019080803590602001908201803590602001908080601f01602080910402602001604051908101604052809392919081815260200183838082843782019150505050505091929192905050506116c2565b005b3480156101fb57600080fd5b50610230600480360381019080803573ffffffffffffffffffffffffffffffffffffffff169060200190929190505050611969565b6040518082815260200191505060405180910390f35b34801561025257600080fd5b5061025b61198a565b6040518080602001828103825283818151815260200191508051906020019080838360005b8381101561029b578082015181840152602081019050610280565b50505050905090810190601f1680156102c85780820380516001836020036101000a031916815260200191505b509250505060405180910390f35b3480156102e257600080fd5b506102eb611a28565b6040518082815260200191505060405180910390f35b34801561030d57600080fd5b50610316611a30565b6040518082815260200191505060405180910390f35b34801561033857600080fd5b50610393600480360381019080803590602001908201803590602001908080601f0160208091040260200160405190810160405280939291908181526020018383808284378201915050505050509192919290505050611a3a565b005b3480156103a157600080fd5b506103c2600480360381019080803515159060200190929190505050611cdd565b005b6103cc611fba565b604051808215151515815260200191505060405180910390f35b3480156103f257600080fd5b506103fb612313565b6040518080602001828103825283818151815260200191508051906020019080838360005b8381101561043b578082015181840152602081019050610420565b50505050905090810190601f1680156104685780820380516001836020036101000a031916815260200191505b509250505060405180910390f35b34801561048257600080fd5b5061048b61239d565b6040518080602001828103825283818151815260200191508051906020019080838360005b838110156104cb5780820151818401526020810190506104b0565b50505050905090810190601f1680156104f85780820380516001836020036101000a031916815260200191505b509250505060405180910390f35b34801561051257600080fd5b5061051b61243f565b604051808273ffffffffffffffffffffffffffffffffffffffff1673ffffffffffffffffffffffffffffffffffffffff16815260200191505060405180910390f35b34801561056957600080fd5b506105c4600480360381019080803590602001908201803590602001908080601f0160208091040260200160405190810160405280939291908181526020018383808284378201915050505050509192919290505050612465565b005b3480156105d257600080fd5b506105db6128bd565b604051808060200180602001838103835285818151815260200191508051906020019080838360005b8381101561061f578082015181840152602081019050610604565b50505050905090810190601f16801561064c5780820380516001836020036101000a031916815260200191505b50838103825284818151815260200191508051906020019080838360005b8381101561068557808201518184015260208101905061066a565b50505050905090810190601f1680156106b25780820380516001836020036101000a031916815260200191505b5094505050505060405180910390f35b3480156106ce57600080fd5b506106ed60048036038101908080359060200190929190505050612a04565b005b3480156106fb57600080fd5b50610704612b52565b6040518082815260200191505060405180910390f35b34801561072657600080fd5b5061072f612b5b565b604051808273ffffffffffffffffffffffffffffffffffffffff1673ffffffffffffffffffffffffffffffffffffffff16815260200191505060405180910390f35b34801561077d57600080fd5b5061081e600480360381019080803590602001908201803590602001908080601f0160208091040260200160405190810160405280939291908181526020018383808284378201915050505050509192919290803590602001908201803590602001908080601f0160208091040260200160405190810160405280939291908181526020018383808284378201915050505050509192919290505050612b81565b005b34801561082c57600080fd5b50610835612fa5565b604051808273ffffffffffffffffffffffffffffffffffffffff1673ffffffffffffffffffffffffffffffffffffffff16815260200191505060405180910390f35b34801561088357600080fd5b5061088c612fcb565b6040518080602001828103825283818151815260200191508051906020019080838360005b838110156108cc5780820151818401526020810190506108b1565b50505050905090810190601f1680156108f95780820380516001836020036101000a031916815260200191505b509250505060405180910390f35b34801561091357600080fd5b5061091c61306d565b6040518082815260200191505060405180910390f35b34801561093e57600080fd5b50610999600480360381019080803590602001908201803590602001908080601f0160208091040260200160405190810160405280939291908181526020018383808284378201915050505050509192919290505050613077565b005b3480156109a757600080fd5b506109b0613340565b6040518082815260200191505060405180910390f35b3480156109d257600080fd5b506109db61334a565b6040518080602001828103825283818151815260200191508051906020019080838360005b83811015610a1b578082015181840152602081019050610a00565b50505050905090810190601f168015610a485780820380516001836020036101000a031916815260200191505b509250505060405180910390f35b610a5e6133e8565b604051808215151515815260200191505060405180910390f35b348015610a8457600080fd5b50610a8d613772565b6040518080602001828103825283818151815260200191508051906020019080838360005b83811015610acd578082015181840152602081019050610ab2565b50505050905090810190601f168015610afa5780820380516001836020036101000a031916815260200191505b509250505060405180910390f35b348015610b1457600080fd5b50610b1d613814565b6040518082815260200191505060405180910390f35b348015610b3f57600080fd5b50610b4861381e565b6040518080602001828103825283818151815260200191508051906020019080838360005b83811015610b88578082015181840152602081019050610b6d565b50505050905090810190601f168015610bb55780820380516001836020036101000a031916815260200191505b509250505060405180910390f35b600e60009054906101000a900473ffffffffffffffffffffffffffffffffffffffff1673ffffffffffffffffffffffffffffffffffffffff163373ffffffffffffffffffffffffffffffffffffffff16148015610c33575060011515601260009054906101000a900460ff161515145b8015610c52575060011515601260019054906101000a900460ff161515145b8015610c71575060011515601260029054906101000a900460ff161515145b8015610c90575060011515601260049054906101000a900460ff161515145b8015610caf575060011515601260059054906101000a900460ff161515145b8015610cce575060011515601260069054906101000a900460ff161515145b8015610ced575060001515601260089054906101000a900460ff161515145b15610e32576001601260096101000a81548160ff0219169083151502179055507f8145fa64e423c0c035a5a7c9148b97d0650abf5530debe121d7cb929ce57645d601260099054906101000a900460ff16604051808215151515815260200191505060405180910390a1600d60009054906101000a900473ffffffffffffffffffffffffffffffffffffffff1673ffffffffffffffffffffffffffffffffffffffff166108fc6000549081150290604051600060405180830381858888f19350505050158015610dc1573d6000803e3d6000fd5b50600d60009054906101000a900473ffffffffffffffffffffffffffffffffffffffff1673ffffffffffffffffffffffffffffffffffffffff166108fc6001549081150290604051600060405180830381858888f19350505050158015610e2c573d6000803e3d6000fd5b506116c0565b600d60009054906101000a900473ffffffffffffffffffffffffffffffffffffffff1673ffffffffffffffffffffffffffffffffffffffff163373ffffffffffffffffffffffffffffffffffffffff16148015610ea2575060011515601260039054906101000a900460ff161515145b8015610ec15750600015156012600a9054906101000a900460ff161515145b15610f9b576000601260096101000a81548160ff0219169083151502179055507f8145fa64e423c0c035a5a7c9148b97d0650abf5530debe121d7cb929ce57645d601260099054906101000a900460ff16604051808215151515815260200191505060405180910390a1600d60009054906101000a900473ffffffffffffffffffffffffffffffffffffffff1673ffffffffffffffffffffffffffffffffffffffff166108fc6001549081150290604051600060405180830381858888f19350505050158015610f95573d6000803e3d6000fd5b506116bf565b60018015610fbc5750600015156012600b9054906101000a900460ff161515145b601260046101000a81548160ff021916908315150217905515611119576000601260096101000a81548160ff0219169083151502179055507f8145fa64e423c0c035a5a7c9148b97d0650abf5530debe121d7cb929ce57645d601260099054906101000a900460ff16604051808215151515815260200191505060405180910390a1600d60009054906101000a900473ffffffffffffffffffffffffffffffffffffffff1673ffffffffffffffffffffffffffffffffffffffff166108fc6001549081150290604051600060405180830381858888f193505050501580156110a8573d6000803e3d6000fd5b50600e60009054906101000a900473ffffffffffffffffffffffffffffffffffffffff1673ffffffffffffffffffffffffffffffffffffffff166108fc6000549081150290604051600060405180830381858888f19350505050158015611113573d6000803e3d6000fd5b506116be565b60011515601260069054906101000a900460ff16151514801561114f575060001515601260079054906101000a900460ff161515145b801561116057506005546004540142115b156112a5576001601260096101000a81548160ff0219169083151502179055507f8145fa64e423c0c035a5a7c9148b97d0650abf5530debe121d7cb929ce57645d601260099054906101000a900460ff16604051808215151515815260200191505060405180910390a1600d60009054906101000a900473ffffffffffffffffffffffffffffffffffffffff1673ffffffffffffffffffffffffffffffffffffffff166108fc6000549081150290604051600060405180830381858888f19350505050158015611234573d6000803e3d6000fd5b50600d60009054906101000a900473ffffffffffffffffffffffffffffffffffffffff1673ffffffffffffffffffffffffffffffffffffffff166108fc6001549081150290604051600060405180830381858888f1935050505015801561129f573d6000803e3d6000fd5b506116bd565b600f60009054906101000a900473ffffffffffffffffffffffffffffffffffffffff1673ffffffffffffffffffffffffffffffffffffffff163373ffffffffffffffffffffffffffffffffffffffff16148015611315575060011515601260079054906101000a900460ff161515145b8015611334575060011515601260089054906101000a900460ff161515145b15611479576000601260096101000a81548160ff0219169083151502179055507f8145fa64e423c0c035a5a7c9148b97d0650abf5530debe121d7cb929ce57645d601260099054906101000a900460ff16604051808215151515815260200191505060405180910390a1600e60009054906101000a900473ffffffffffffffffffffffffffffffffffffffff1673ffffffffffffffffffffffffffffffffffffffff166108fc6001549081150290604051600060405180830381858888f19350505050158015611408573d6000803e3d6000fd5b50600e60009054906101000a900473ffffffffffffffffffffffffffffffffffffffff1673ffffffffffffffffffffffffffffffffffffffff166108fc6000549081150290604051600060405180830381858888f19350505050158015611473573d6000803e3d6000fd5b506116bc565b600f60009054906101000a900473ffffffffffffffffffffffffffffffffffffffff1673ffffffffffffffffffffffffffffffffffffffff163373ffffffffffffffffffffffffffffffffffffffff161480156114e9575060011515601260079054906101000a900460ff161515145b8015611508575060001515601260089054906101000a900460ff161515145b1561164d576000601260096101000a81548160ff0219169083151502179055507f8145fa64e423c0c035a5a7c9148b97d0650abf5530debe121d7cb929ce57645d601260099054906101000a900460ff16604051808215151515815260200191505060405180910390a1600d60009054906101000a900473ffffffffffffffffffffffffffffffffffffffff1673ffffffffffffffffffffffffffffffffffffffff166108fc6001549081150290604051600060405180830381858888f193505050501580156115dc573d6000803e3d6000fd5b50600d60009054906101000a900473ffffffffffffffffffffffffffffffffffffffff1673ffffffffffffffffffffffffffffffffffffffff166108fc6000549081150290604051600060405180830381858888f19350505050158015611647573d6000803e3d6000fd5b506116bb565b6040517f08c379a00000000000000000000000000000000000000000000000000000000081526004018080602001828103825260078152602001807f576169742e2e2e0000000000000000000000000000000000000000000000000081525060200191505060405180910390fd5b5b5b5b5b5b565b60011515601260049054906101000a900460ff16151514156118dd57600d60009054906101000a900473ffffffffffffffffffffffffffffffffffffffff1673ffffffffffffffffffffffffffffffffffffffff16600e60009054906101000a900473ffffffffffffffffffffffffffffffffffffffff1673ffffffffffffffffffffffffffffffffffffffff1614151561184f57806007908051906020019061176d9291906138c0565b506001601260056101000a81548160ff021916908315150217905550426003819055507f079146a2fa5bae3db6e49a4ecf2a936ebb7f07d7bd9a6ef39ea18a8980956cfd6007604051808060200182810382528381815460018160011615610100020316600290048152602001915080546001816001161561010002031660029004801561183c5780601f106118115761010080835404028352916020019161183c565b820191906000526020600020905b81548152906001019060200180831161181f57829003601f168201915b50509250505060405180910390a16118d8565b6000601260056101000a81548160ff0219169083151502179055506040517f08c379a000000000000000000000000000000000000000000000000000000000815260040180806020018281038252601e8152602001807f53656c6c65722063616e206e6f742073656e6420746865206d6f6e65792e000081525060200191505060405180910390fd5b611966565b6000601260056101000a81548160ff0219169083151502179055506040517f08c379a000000000000000000000000000000000000000000000000000000000815260040180806020018281038252601e8152602001807f42757965722073686f756c642073656e64206d6f6e65792066697273742e000081525060200191505060405180910390fd5b50565b60008173ffffffffffffffffffffffffffffffffffffffff16319050919050565b60118054600181600116156101000203166002900480601f016020809104026020016040519081016040528092919081815260200182805460018160011615610100020316600290048015611a205780601f106119f557610100808354040283529160200191611a20565b820191906000526020600020905b815481529060010190602001808311611a0357829003601f168201915b505050505081565b600042905090565b6000600354905090565b60011515601260009054906101000a900460ff1615151415611c5157600d60009054906101000a900473ffffffffffffffffffffffffffffffffffffffff1673ffffffffffffffffffffffffffffffffffffffff163373ffffffffffffffffffffffffffffffffffffffff161415611b9d5780600b9080519060200190611ac29291906138c0565b506001601260016101000a81548160ff0219169083151502179055507f1f1a12f54fa5f982d713cbb1c65e8c442189195e482a50128ebd9a034e7d31b3600b6040518080602001828103825283818154600181600116156101000203166002900481526020019150805460018160011615610100020316600290048015611b8a5780601f10611b5f57610100808354040283529160200191611b8a565b820191906000526020600020905b815481529060010190602001808311611b6d57829003601f168201915b50509250505060405180910390a1611c4c565b6000601260016101000a81548160ff0219169083151502179055506040517f08c379a00000000000000000000000000000000000000000000000000000000081526004018080602001828103825260328152602001807f4f6e6c79207468652073656c6c65722063616e2075706c6f616420686173682081526020017f76616c7565206f662074686520646174612e000000000000000000000000000081525060400191505060405180910390fd5b611cda565b6000601260016101000a81548160ff0219169083151502179055506040517f08c379a000000000000000000000000000000000000000000000000000000000815260040180806020018281038252601c8152602001807f506c65617365207365742074686520616d6f756e742066697273742e0000000081525060200191505060405180910390fd5b50565b60011515601260079054906101000a900460ff1615151415611f0857600d60009054906101000a900473ffffffffffffffffffffffffffffffffffffffff1673ffffffffffffffffffffffffffffffffffffffff163373ffffffffffffffffffffffffffffffffffffffff1614158015611da55750600e60009054906101000a900473ffffffffffffffffffffffffffffffffffffffff1673ffffffffffffffffffffffffffffffffffffffff163373ffffffffffffffffffffffffffffffffffffffff1614155b15611e545733600f60006101000a81548173ffffffffffffffffffffffffffffffffffffffff021916908373ffffffffffffffffffffffffffffffffffffffff16021790555080601260086101000a81548160ff0219169083151502179055507f2b989604c7135ae8d99537911508a3658c5158bceb6193dd718775ad7a7db9bb601260089054906101000a900460ff16604051808215151515815260200191505060405180910390a1611f03565b6000601260086101000a81548160ff0219169083151502179055506040517f08c379a000000000000000000000000000000000000000000000000000000000815260040180806020018281038252602b8152602001807f4f6e6c792074686520746869726420706172742063616e20766572746966792081526020017f746865207265706f72742e00000000000000000000000000000000000000000081525060400191505060405180910390fd5b611fb7565b6000601260086101000a81548160ff0219169083151502179055506040517f08c379a00000000000000000000000000000000000000000000000000000000081526004018080602001828103825260268152602001807f536d61727420636f6e747261637420646964206e6f742067657420746865207281526020017f65706f72742e000000000000000000000000000000000000000000000000000081525060400191505060405180910390fd5b50565b600060011515601260029054906101000a900460ff161515141561226157600d60009054906101000a900473ffffffffffffffffffffffffffffffffffffffff1673ffffffffffffffffffffffffffffffffffffffff163373ffffffffffffffffffffffffffffffffffffffff1614156121b257600154341415612103576001601260036101000a81548160ff021916908315150217905550426002819055507fcddb238a7100a42757b9d0a123efb6646208d2a8d46763f46df4056f6665478c60015430604051808381526020018273ffffffffffffffffffffffffffffffffffffffff1673ffffffffffffffffffffffffffffffffffffffff1681526020019250505060405180910390a13073ffffffffffffffffffffffffffffffffffffffff166108fc349081150290604051600060405180830381858888f193505050509050612310565b6000601260036101000a81548160ff0219169083151502179055506040517f08c379a00000000000000000000000000000000000000000000000000000000081526004018080602001828103825260238152602001807f5468652076616c7565206f662074686520646573706f7369742069732077726f81526020017f6e672e000000000000000000000000000000000000000000000000000000000081525060400191505060405180910390fd5b6000601260036101000a81548160ff0219169083151502179055506040517f08c379a00000000000000000000000000000000000000000000000000000000081526004018080602001828103825260268152602001807f4f6e6c79207468652073656c6c65722063616e2073656e64207468652064657381526020017f706f7369742e000000000000000000000000000000000000000000000000000081525060400191505060405180910390fd5b6000601260036101000a81548160ff0219169083151502179055506040517f08c379a000000000000000000000000000000000000000000000000000000000815260040180806020018281038252602e8152602001807f506c656173652075706c6f61642074686520686173682076616c7565206f662081526020017f746865206b65792066697273742e00000000000000000000000000000000000081525060400191505060405180910390fd5b90565b6060608060405190810160405280604e81526020017f547970652d313a2057726f6e67206b6579207c7c20547970652d323a204d657381526020017f73792077617465726d61726b207c7c20547970652d333a2054776f206f72206d81526020017f6f72652077617465726d61726b73000000000000000000000000000000000000815250905090565b6060600b8054600181600116156101000203166002900480601f0160208091040260200160405190810160405280929190818152602001828054600181600116156101000203166002900480156124355780601f1061240a57610100808354040283529160200191612435565b820191906000526020600020905b81548152906001019060200180831161241857829003601f168201915b5050505050905090565b600f60009054906101000a900473ffffffffffffffffffffffffffffffffffffffff1681565b60011515601260049054906101000a900460ff161515141561280b5760011515601260059054906101000a900460ff161515141561275757600d60009054906101000a900473ffffffffffffffffffffffffffffffffffffffff1673ffffffffffffffffffffffffffffffffffffffff163373ffffffffffffffffffffffffffffffffffffffff1614156126a35760065460035401421115156126155780600890805190602001906125189291906138c0565b506001601260066101000a81548160ff02191690831515021790555060016012600b6101000a81548160ff021916908315150217905550426004819055507f85e58470e9a7fa0adc1459c125dcd12e68ba1064055debf1c695723a6cbfc514600860405180806020018281038252838181546001816001161561010002031660029004815260200191508054600181600116156101000203166002900480156126025780601f106125d757610100808354040283529160200191612602565b820191906000526020600020905b8154815290600101906020018083116125e557829003601f168201915b50509250505060405180910390a161269e565b60006012600b6101000a81548160ff0219169083151502179055506040517f08c379a000000000000000000000000000000000000000000000000000000000815260040180806020018281038252601e8152602001807f54696d652069732072756e206f757420287365636f6e642073746570292e000081525060200191505060405180910390fd5b612752565b6000601260066101000a81548160ff0219169083151502179055506040517f08c379a00000000000000000000000000000000000000000000000000000000081526004018080602001828103825260238152602001807f4f6e6c792073656c6c65722063616e2073656e6420656e63727970746564206b81526020017f65792e000000000000000000000000000000000000000000000000000000000081525060400191505060405180910390fd5b612806565b6000601260066101000a81548160ff0219169083151502179055506040517f08c379a000000000000000000000000000000000000000000000000000000000815260040180806020018281038252602a8152602001807f506c656173652061736b20627579657220746f2073656e64207075626c69632081526020017f6b65792066697273742e0000000000000000000000000000000000000000000081525060400191505060405180910390fd5b6128ba565b6000601260066101000a81548160ff0219169083151502179055506040517f08c379a00000000000000000000000000000000000000000000000000000000081526004018080602001828103825260258152602001807f506c656173652061736b20627579657220746f2073656e64206d6f6e6579206681526020017f697273742e00000000000000000000000000000000000000000000000000000081525060400191505060405180910390fd5b50565b6060806009600a818054600181600116156101000203166002900480601f0160208091040260200160405190810160405280929190818152602001828054600181600116156101000203166002900480156129595780601f1061292e57610100808354040283529160200191612959565b820191906000526020600020905b81548152906001019060200180831161293c57829003601f168201915b50505050509150808054600181600116156101000203166002900480601f0160208091040260200160405190810160405280929190818152602001828054600181600116156101000203166002900480156129f55780601f106129ca576101008083540402835291602001916129f5565b820191906000526020600020905b8154815290600101906020018083116129d857829003601f168201915b50505050509050915091509091565b600d60009054906101000a900473ffffffffffffffffffffffffffffffffffffffff1673ffffffffffffffffffffffffffffffffffffffff163373ffffffffffffffffffffffffffffffffffffffff161415612ac657806000819055506000546002026001819055506001601260006101000a81548160ff0219169083151502179055507f6b95d8cc5f12015398e91290bd8fa8556295a0b36166e851e9d08d733f0afa876000546040518082815260200191505060405180910390a1612b4f565b6000601260006101000a81548160ff0219169083151502179055506040517f08c379a000000000000000000000000000000000000000000000000000000000815260040180806020018281038252600c8152602001807f57726f6e6720696e7075742e000000000000000000000000000000000000000081525060200191505060405180910390fd5b50565b60008054905090565b600e60009054906101000a900473ffffffffffffffffffffffffffffffffffffffff1681565b60011515601260069054906101000a900460ff1615151415612ef257600e60009054906101000a900473ffffffffffffffffffffffffffffffffffffffff1673ffffffffffffffffffffffffffffffffffffffff163373ffffffffffffffffffffffffffffffffffffffff161415612e3e576005546004540142111515612db0578160099080519060200190612c189291906138c0565b5080600a9080519060200190612c2f9291906138c0565b506001601260076101000a81548160ff02191690831515021790555060016012600c6101000a81548160ff0219169083151502179055507ffb67e4a54c34643315cc0a917ef55d278c4eb965337bccefdd1572118d7c47406009600a604051808060200180602001838103835285818154600181600116156101000203166002900481526020019150805460018160011615610100020316600290048015612d185780601f10612ced57610100808354040283529160200191612d18565b820191906000526020600020905b815481529060010190602001808311612cfb57829003601f168201915b5050838103825284818154600181600116156101000203166002900481526020019150805460018160011615610100020316600290048015612d9b5780601f10612d7057610100808354040283529160200191612d9b565b820191906000526020600020905b815481529060010190602001808311612d7e57829003601f168201915b505094505050505060405180910390a1612e39565b60006012600c6101000a81548160ff0219169083151502179055506040517f08c379a000000000000000000000000000000000000000000000000000000000815260040180806020018281038252601d8152602001807f54696d652069732072756e206f7574202874686972642073746570292e00000081525060200191505060405180910390fd5b612eed565b6000601260076101000a81548160ff0219169083151502179055506040517f08c379a00000000000000000000000000000000000000000000000000000000081526004018080602001828103825260238152602001807f4f6e6c79207468652062757965722063616e2073656e6420746865207265706f81526020017f72742e000000000000000000000000000000000000000000000000000000000081525060400191505060405180910390fd5b612fa1565b6000601260076101000a81548160ff0219169083151502179055506040517f08c379a000000000000000000000000000000000000000000000000000000000815260040180806020018281038252602e8152602001807f506c616573652061736b2073656c6c657220746f2073656e6420656e6372797081526020017f746564206b65792066697273742e00000000000000000000000000000000000081525060400191505060405180910390fd5b5050565b600d60009054906101000a900473ffffffffffffffffffffffffffffffffffffffff1681565b606060078054600181600116156101000203166002900480601f0160208091040260200160405190810160405280929190818152602001828054600181600116156101000203166002900480156130635780601f1061303857610100808354040283529160200191613063565b820191906000526020600020905b81548152906001019060200180831161304657829003601f168201915b5050505050905090565b6000600254905090565b60011515601260019054906101000a900460ff161515141561328e57600d60009054906101000a900473ffffffffffffffffffffffffffffffffffffffff1673ffffffffffffffffffffffffffffffffffffffff163373ffffffffffffffffffffffffffffffffffffffff1614156131da5780600c90805190602001906130ff9291906138c0565b506001601260026101000a81548160ff0219169083151502179055507fd33ef9766528d690b07e88c0480987032706344a5deaf642ef66a09e7d186a32600c60405180806020018281038252838181546001816001161561010002031660029004815260200191508054600181600116156101000203166002900480156131c75780601f1061319c576101008083540402835291602001916131c7565b820191906000526020600020905b8154815290600101906020018083116131aa57829003601f168201915b50509250505060405180910390a1613289565b6000601260026101000a81548160ff0219169083151502179055506040517f08c379a00000000000000000000000000000000000000000000000000000000081526004018080602001828103825260318152602001807f4f6e6c79207468652073656c6c65722063616e2075706c6f616420686173682081526020017f76616c7565206f6620746865206b65792e00000000000000000000000000000081525060400191505060405180910390fd5b61333d565b6000601260026101000a81548160ff0219169083151502179055506040517f08c379a000000000000000000000000000000000000000000000000000000000815260040180806020018281038252602b8152602001807f506c656173652075706c6f616420686173682076616c7565206f66207468652081526020017f646174612066697273742e00000000000000000000000000000000000000000081525060400191505060405180910390fd5b50565b6000600454905090565b60108054600181600116156101000203166002900480601f0160208091040260200160405190810160405280929190818152602001828054600181600116156101000203166002900480156133e05780601f106133b5576101008083540402835291602001916133e0565b820191906000526020600020905b8154815290600101906020018083116133c357829003601f168201915b505050505081565b600033600e60006101000a81548173ffffffffffffffffffffffffffffffffffffffff021916908373ffffffffffffffffffffffffffffffffffffffff16021790555060011515601260039054906101000a900460ff16151514156136c057600d60009054906101000a900473ffffffffffffffffffffffffffffffffffffffff1673ffffffffffffffffffffffffffffffffffffffff16600e60009054906101000a900473ffffffffffffffffffffffffffffffffffffffff1673ffffffffffffffffffffffffffffffffffffffff161415156136375760065460025401421115156135ae576001601260046101000a81548160ff02191690831515021790555060016012600a6101000a81548160ff0219169083151502179055507f34d58d6ebd9e354f0d3fca9b939e2a3d82c2f398b75ecdb738a0a27f5c3049b060005430604051808381526020018273ffffffffffffffffffffffffffffffffffffffff1673ffffffffffffffffffffffffffffffffffffffff1681526020019250505060405180910390a13073ffffffffffffffffffffffffffffffffffffffff166108fc349081150290604051600060405180830381858888f19350505050905061376f565b60006012600a6101000a81548160ff0219169083151502179055506040517f08c379a000000000000000000000000000000000000000000000000000000000815260040180806020018281038252601d8152602001807f54696d652069732072756e206f7574202866697273742073746570292e00000081525060200191505060405180910390fd5b6000601260046101000a81548160ff0219169083151502179055506040517f08c379a000000000000000000000000000000000000000000000000000000000815260040180806020018281038252601e8152602001807f53656c6c65722063616e206e6f742073656e6420746865206d6f6e65792e000081525060200191505060405180910390fd5b6000601260046101000a81548160ff0219169083151502179055506040517f08c379a00000000000000000000000000000000000000000000000000000000081526004018080602001828103825260218152602001807f53656c6c65722073686f756c642073656e64206465706f73697420666972737481526020017f2e0000000000000000000000000000000000000000000000000000000000000081525060400191505060405180910390fd5b90565b606060088054600181600116156101000203166002900480601f01602080910402602001604051908101604052809291908181526020018280546001816001161561010002031660029004801561380a5780601f106137df5761010080835404028352916020019161380a565b820191906000526020600020905b8154815290600101906020018083116137ed57829003601f168201915b5050505050905090565b6000600154905090565b6060600c8054600181600116156101000203166002900480601f0160208091040260200160405190810160405280929190818152602001828054600181600116156101000203166002900480156138b65780601f1061388b576101008083540402835291602001916138b6565b820191906000526020600020905b81548152906001019060200180831161389957829003601f168201915b5050505050905090565b828054600181600116156101000203166002900490600052602060002090601f016020900481019282601f1061390157805160ff191683800117855561392f565b8280016001018555821561392f579182015b8281111561392e578251825591602001919060010190613913565b5b50905061393c9190613940565b5090565b61396291905b8082111561395e576000816000905550600101613946565b5090565b905600a165627a7a7230582018f10e1091596a4006399acb308b0dc299dd779003eb4f30674627f6f14b43d80029",
					"opcodes": "PUSH1 0x80 PUSH1 0x40 MSTORE PUSH2 0x12C PUSH1 0x5 SSTORE PUSH2 0x12C PUSH1 0x6 SSTORE PUSH1 0x40 DUP1 MLOAD SWAP1 DUP2 ADD PUSH1 0x40 MSTORE DUP1 PUSH1 0x14 DUP2 MSTORE PUSH1 0x20 ADD PUSH32 0x7777772E6375676461746174726164652E636F6D000000000000000000000000 DUP2 MSTORE POP PUSH1 0x10 SWAP1 DUP1 MLOAD SWAP1 PUSH1 0x20 ADD SWAP1 PUSH3 0x5D SWAP3 SWAP2 SWAP1 PUSH3 0x279 JUMP JUMPDEST POP PUSH1 0x60 PUSH1 0x40 MLOAD SWAP1 DUP2 ADD PUSH1 0x40 MSTORE DUP1 PUSH1 0x3A DUP2 MSTORE PUSH1 0x20 ADD PUSH32 0x68747470733A2F2F656D6E3137382E6769746875622E696F2F6F6E6C696E652D DUP2 MSTORE PUSH1 0x20 ADD PUSH32 0x746F6F6C732F7368613235365F636865636B73756D2E68746D6C000000000000 DUP2 MSTORE POP PUSH1 0x11 SWAP1 DUP1 MLOAD SWAP1 PUSH1 0x20 ADD SWAP1 PUSH3 0xD2 SWAP3 SWAP2 SWAP1 PUSH3 0x279 JUMP JUMPDEST POP PUSH1 0x0 PUSH1 0x12 PUSH1 0x0 PUSH2 0x100 EXP DUP2 SLOAD DUP2 PUSH1 0xFF MUL NOT AND SWAP1 DUP4 ISZERO ISZERO MUL OR SWAP1 SSTORE POP PUSH1 0x0 PUSH1 0x12 PUSH1 0x1 PUSH2 0x100 EXP DUP2 SLOAD DUP2 PUSH1 0xFF MUL NOT AND SWAP1 DUP4 ISZERO ISZERO MUL OR SWAP1 SSTORE POP PUSH1 0x0 PUSH1 0x12 PUSH1 0x2 PUSH2 0x100 EXP DUP2 SLOAD DUP2 PUSH1 0xFF MUL NOT AND SWAP1 DUP4 ISZERO ISZERO MUL OR SWAP1 SSTORE POP PUSH1 0x0 PUSH1 0x12 PUSH1 0x3 PUSH2 0x100 EXP DUP2 SLOAD DUP2 PUSH1 0xFF MUL NOT AND SWAP1 DUP4 ISZERO ISZERO MUL OR SWAP1 SSTORE POP PUSH1 0x0 PUSH1 0x12 PUSH1 0x4 PUSH2 0x100 EXP DUP2 SLOAD DUP2 PUSH1 0xFF MUL NOT AND SWAP1 DUP4 ISZERO ISZERO MUL OR SWAP1 SSTORE POP PUSH1 0x0 PUSH1 0x12 PUSH1 0x5 PUSH2 0x100 EXP DUP2 SLOAD DUP2 PUSH1 0xFF MUL NOT AND SWAP1 DUP4 ISZERO ISZERO MUL OR SWAP1 SSTORE POP PUSH1 0x0 PUSH1 0x12 PUSH1 0x6 PUSH2 0x100 EXP DUP2 SLOAD DUP2 PUSH1 0xFF MUL NOT AND SWAP1 DUP4 ISZERO ISZERO MUL OR SWAP1 SSTORE POP PUSH1 0x0 PUSH1 0x12 PUSH1 0x7 PUSH2 0x100 EXP DUP2 SLOAD DUP2 PUSH1 0xFF MUL NOT AND SWAP1 DUP4 ISZERO ISZERO MUL OR SWAP1 SSTORE POP PUSH1 0x0 PUSH1 0x12 PUSH1 0x8 PUSH2 0x100 EXP DUP2 SLOAD DUP2 PUSH1 0xFF MUL NOT AND SWAP1 DUP4 ISZERO ISZERO MUL OR SWAP1 SSTORE POP PUSH1 0x0 PUSH1 0x12 PUSH1 0x9 PUSH2 0x100 EXP DUP2 SLOAD DUP2 PUSH1 0xFF MUL NOT AND SWAP1 DUP4 ISZERO ISZERO MUL OR SWAP1 SSTORE POP PUSH1 0x0 PUSH1 0x12 PUSH1 0xA PUSH2 0x100 EXP DUP2 SLOAD DUP2 PUSH1 0xFF MUL NOT AND SWAP1 DUP4 ISZERO ISZERO MUL OR SWAP1 SSTORE POP PUSH1 0x0 PUSH1 0x12 PUSH1 0xB PUSH2 0x100 EXP DUP2 SLOAD DUP2 PUSH1 0xFF MUL NOT AND SWAP1 DUP4 ISZERO ISZERO MUL OR SWAP1 SSTORE POP PUSH1 0x0 PUSH1 0x12 PUSH1 0xC PUSH2 0x100 EXP DUP2 SLOAD DUP2 PUSH1 0xFF MUL NOT AND SWAP1 DUP4 ISZERO ISZERO MUL OR SWAP1 SSTORE POP CALLER PUSH1 0xD PUSH1 0x0 PUSH2 0x100 EXP DUP2 SLOAD DUP2 PUSH20 0xFFFFFFFFFFFFFFFFFFFFFFFFFFFFFFFFFFFFFFFF MUL NOT AND SWAP1 DUP4 PUSH20 0xFFFFFFFFFFFFFFFFFFFFFFFFFFFFFFFFFFFFFFFF AND MUL OR SWAP1 SSTORE POP PUSH3 0x328 JUMP JUMPDEST DUP3 DUP1 SLOAD PUSH1 0x1 DUP2 PUSH1 0x1 AND ISZERO PUSH2 0x100 MUL SUB AND PUSH1 0x2 SWAP1 DIV SWAP1 PUSH1 0x0 MSTORE PUSH1 0x20 PUSH1 0x0 KECCAK256 SWAP1 PUSH1 0x1F ADD PUSH1 0x20 SWAP1 DIV DUP2 ADD SWAP3 DUP3 PUSH1 0x1F LT PUSH3 0x2BC JUMPI DUP1 MLOAD PUSH1 0xFF NOT AND DUP4 DUP1 ADD OR DUP6 SSTORE PUSH3 0x2ED JUMP JUMPDEST DUP3 DUP1 ADD PUSH1 0x1 ADD DUP6 SSTORE DUP3 ISZERO PUSH3 0x2ED JUMPI SWAP2 DUP3 ADD JUMPDEST DUP3 DUP2 GT ISZERO PUSH3 0x2EC JUMPI DUP3 MLOAD DUP3 SSTORE SWAP2 PUSH1 0x20 ADD SWAP2 SWAP1 PUSH1 0x1 ADD SWAP1 PUSH3 0x2CF JUMP JUMPDEST JUMPDEST POP SWAP1 POP PUSH3 0x2FC SWAP2 SWAP1 PUSH3 0x300 JUMP JUMPDEST POP SWAP1 JUMP JUMPDEST PUSH3 0x325 SWAP2 SWAP1 JUMPDEST DUP1 DUP3 GT ISZERO PUSH3 0x321 JUMPI PUSH1 0x0 DUP2 PUSH1 0x0 SWAP1 SSTORE POP PUSH1 0x1 ADD PUSH3 0x307 JUMP JUMPDEST POP SWAP1 JUMP JUMPDEST SWAP1 JUMP JUMPDEST PUSH2 0x3991 DUP1 PUSH3 0x338 PUSH1 0x0 CODECOPY PUSH1 0x0 RETURN STOP PUSH1 0x80 PUSH1 0x40 MSTORE PUSH1 0x4 CALLDATASIZE LT PUSH2 0x16A JUMPI PUSH1 0x0 CALLDATALOAD PUSH29 0x100000000000000000000000000000000000000000000000000000000 SWAP1 DIV PUSH4 0xFFFFFFFF AND DUP1 PUSH4 0xA7EFC5F EQ PUSH2 0x16F JUMPI DUP1 PUSH4 0x1AE85959 EQ PUSH2 0x186 JUMPI DUP1 PUSH4 0x1E279A37 EQ PUSH2 0x1EF JUMPI DUP1 PUSH4 0x2CD88774 EQ PUSH2 0x246 JUMPI DUP1 PUSH4 0x6CBACEA3 EQ PUSH2 0x2D6 JUMPI DUP1 PUSH4 0x706F6C5E EQ PUSH2 0x301 JUMPI DUP1 PUSH4 0x7958F7D5 EQ PUSH2 0x32C JUMPI DUP1 PUSH4 0x882851BF EQ PUSH2 0x395 JUMPI DUP1 PUSH4 0x8C7C79B5 EQ PUSH2 0x3C4 JUMPI DUP1 PUSH4 0x8D2D7288 EQ PUSH2 0x3E6 JUMPI DUP1 PUSH4 0x96EEC3CD EQ PUSH2 0x476 JUMPI DUP1 PUSH4 0xA0635B66 EQ PUSH2 0x506 JUMPI DUP1 PUSH4 0xA1D91791 EQ PUSH2 0x55D JUMPI DUP1 PUSH4 0xA85CEB3C EQ PUSH2 0x5C6 JUMPI DUP1 PUSH4 0xAB8425D8 EQ PUSH2 0x6C2 JUMPI DUP1 PUSH4 0xB9E6F1D9 EQ PUSH2 0x6EF JUMPI DUP1 PUSH4 0xCC0BABC8 EQ PUSH2 0x71A JUMPI DUP1 PUSH4 0xCD9E32BC EQ PUSH2 0x771 JUMPI DUP1 PUSH4 0xDA9E8919 EQ PUSH2 0x820 JUMPI DUP1 PUSH4 0xDC2457F9 EQ PUSH2 0x877 JUMPI DUP1 PUSH4 0xDEC030E4 EQ PUSH2 0x907 JUMPI DUP1 PUSH4 0xE0BFEBE7 EQ PUSH2 0x932 JUMPI DUP1 PUSH4 0xEA5D2F0F EQ PUSH2 0x99B JUMPI DUP1 PUSH4 0xF0A7C5F9 EQ PUSH2 0x9C6 JUMPI DUP1 PUSH4 0xF1E0BDF4 EQ PUSH2 0xA56 JUMPI DUP1 PUSH4 0xF36FC111 EQ PUSH2 0xA78 JUMPI DUP1 PUSH4 0xF59D8864 EQ PUSH2 0xB08 JUMPI DUP1 PUSH4 0xF73DF8FD EQ PUSH2 0xB33 JUMPI JUMPDEST PUSH1 0x0 DUP1 REVERT JUMPDEST CALLVALUE DUP1 ISZERO PUSH2 0x17B JUMPI PUSH1 0x0 DUP1 REVERT JUMPDEST POP PUSH2 0x184 PUSH2 0xBC3 JUMP JUMPDEST STOP JUMPDEST CALLVALUE DUP1 ISZERO PUSH2 0x192 JUMPI PUSH1 0x0 DUP1 REVERT JUMPDEST POP PUSH2 0x1ED PUSH1 0x4 DUP1 CALLDATASIZE SUB DUP2 ADD SWAP1 DUP1 DUP1 CALLDATALOAD SWAP1 PUSH1 0x20 ADD SWAP1 DUP3 ADD DUP1 CALLDATALOAD SWAP1 PUSH1 0x20 ADD SWAP1 DUP1 DUP1 PUSH1 0x1F ADD PUSH1 0x20 DUP1 SWAP2 DIV MUL PUSH1 0x20 ADD PUSH1 0x40 MLOAD SWAP1 DUP2 ADD PUSH1 0x40 MSTORE DUP1 SWAP4 SWAP3 SWAP2 SWAP1 DUP2 DUP2 MSTORE PUSH1 0x20 ADD DUP4 DUP4 DUP1 DUP3 DUP5 CALLDATACOPY DUP3 ADD SWAP2 POP POP POP POP POP POP SWAP2 SWAP3 SWAP2 SWAP3 SWAP1 POP POP POP PUSH2 0x16C2 JUMP JUMPDEST STOP JUMPDEST CALLVALUE DUP1 ISZERO PUSH2 0x1FB JUMPI PUSH1 0x0 DUP1 REVERT JUMPDEST POP PUSH2 0x230 PUSH1 0x4 DUP1 CALLDATASIZE SUB DUP2 ADD SWAP1 DUP1 DUP1 CALLDATALOAD PUSH20 0xFFFFFFFFFFFFFFFFFFFFFFFFFFFFFFFFFFFFFFFF AND SWAP1 PUSH1 0x20 ADD SWAP1 SWAP3 SWAP2 SWAP1 POP POP POP PUSH2 0x1969 JUMP JUMPDEST PUSH1 0x40 MLOAD DUP1 DUP3 DUP2 MSTORE PUSH1 0x20 ADD SWAP2 POP POP PUSH1 0x40 MLOAD DUP1 SWAP2 SUB SWAP1 RETURN JUMPDEST CALLVALUE DUP1 ISZERO PUSH2 0x252 JUMPI PUSH1 0x0 DUP1 REVERT JUMPDEST POP PUSH2 0x25B PUSH2 0x198A JUMP JUMPDEST PUSH1 0x40 MLOAD DUP1 DUP1 PUSH1 0x20 ADD DUP3 DUP2 SUB DUP3 MSTORE DUP4 DUP2 DUP2 MLOAD DUP2 MSTORE PUSH1 0x20 ADD SWAP2 POP DUP1 MLOAD SWAP1 PUSH1 0x20 ADD SWAP1 DUP1 DUP4 DUP4 PUSH1 0x0 JUMPDEST DUP4 DUP2 LT ISZERO PUSH2 0x29B JUMPI DUP1 DUP3 ADD MLOAD DUP2 DUP5 ADD MSTORE PUSH1 0x20 DUP2 ADD SWAP1 POP PUSH2 0x280 JUMP JUMPDEST POP POP POP POP SWAP1 POP SWAP1 DUP2 ADD SWAP1 PUSH1 0x1F AND DUP1 ISZERO PUSH2 0x2C8 JUMPI DUP1 DUP3 SUB DUP1 MLOAD PUSH1 0x1 DUP4 PUSH1 0x20 SUB PUSH2 0x100 EXP SUB NOT AND DUP2 MSTORE PUSH1 0x20 ADD SWAP2 POP JUMPDEST POP SWAP3 POP POP POP PUSH1 0x40 MLOAD DUP1 SWAP2 SUB SWAP1 RETURN JUMPDEST CALLVALUE DUP1 ISZERO PUSH2 0x2E2 JUMPI PUSH1 0x0 DUP1 REVERT JUMPDEST POP PUSH2 0x2EB PUSH2 0x1A28 JUMP JUMPDEST PUSH1 0x40 MLOAD DUP1 DUP3 DUP2 MSTORE PUSH1 0x20 ADD SWAP2 POP POP PUSH1 0x40 MLOAD DUP1 SWAP2 SUB SWAP1 RETURN JUMPDEST CALLVALUE DUP1 ISZERO PUSH2 0x30D JUMPI PUSH1 0x0 DUP1 REVERT JUMPDEST POP PUSH2 0x316 PUSH2 0x1A30 JUMP JUMPDEST PUSH1 0x40 MLOAD DUP1 DUP3 DUP2 MSTORE PUSH1 0x20 ADD SWAP2 POP POP PUSH1 0x40 MLOAD DUP1 SWAP2 SUB SWAP1 RETURN JUMPDEST CALLVALUE DUP1 ISZERO PUSH2 0x338 JUMPI PUSH1 0x0 DUP1 REVERT JUMPDEST POP PUSH2 0x393 PUSH1 0x4 DUP1 CALLDATASIZE SUB DUP2 ADD SWAP1 DUP1 DUP1 CALLDATALOAD SWAP1 PUSH1 0x20 ADD SWAP1 DUP3 ADD DUP1 CALLDATALOAD SWAP1 PUSH1 0x20 ADD SWAP1 DUP1 DUP1 PUSH1 0x1F ADD PUSH1 0x20 DUP1 SWAP2 DIV MUL PUSH1 0x20 ADD PUSH1 0x40 MLOAD SWAP1 DUP2 ADD PUSH1 0x40 MSTORE DUP1 SWAP4 SWAP3 SWAP2 SWAP1 DUP2 DUP2 MSTORE PUSH1 0x20 ADD DUP4 DUP4 DUP1 DUP3 DUP5 CALLDATACOPY DUP3 ADD SWAP2 POP POP POP POP POP POP SWAP2 SWAP3 SWAP2 SWAP3 SWAP1 POP POP POP PUSH2 0x1A3A JUMP JUMPDEST STOP JUMPDEST CALLVALUE DUP1 ISZERO PUSH2 0x3A1 JUMPI PUSH1 0x0 DUP1 REVERT JUMPDEST POP PUSH2 0x3C2 PUSH1 0x4 DUP1 CALLDATASIZE SUB DUP2 ADD SWAP1 DUP1 DUP1 CALLDATALOAD ISZERO ISZERO SWAP1 PUSH1 0x20 ADD SWAP1 SWAP3 SWAP2 SWAP1 POP POP POP PUSH2 0x1CDD JUMP JUMPDEST STOP JUMPDEST PUSH2 0x3CC PUSH2 0x1FBA JUMP JUMPDEST PUSH1 0x40 MLOAD DUP1 DUP3 ISZERO ISZERO ISZERO ISZERO DUP2 MSTORE PUSH1 0x20 ADD SWAP2 POP POP PUSH1 0x40 MLOAD DUP1 SWAP2 SUB SWAP1 RETURN JUMPDEST CALLVALUE DUP1 ISZERO PUSH2 0x3F2 JUMPI PUSH1 0x0 DUP1 REVERT JUMPDEST POP PUSH2 0x3FB PUSH2 0x2313 JUMP JUMPDEST PUSH1 0x40 MLOAD DUP1 DUP1 PUSH1 0x20 ADD DUP3 DUP2 SUB DUP3 MSTORE DUP4 DUP2 DUP2 MLOAD DUP2 MSTORE PUSH1 0x20 ADD SWAP2 POP DUP1 MLOAD SWAP1 PUSH1 0x20 ADD SWAP1 DUP1 DUP4 DUP4 PUSH1 0x0 JUMPDEST DUP4 DUP2 LT ISZERO PUSH2 0x43B JUMPI DUP1 DUP3 ADD MLOAD DUP2 DUP5 ADD MSTORE PUSH1 0x20 DUP2 ADD SWAP1 POP PUSH2 0x420 JUMP JUMPDEST POP POP POP POP SWAP1 POP SWAP1 DUP2 ADD SWAP1 PUSH1 0x1F AND DUP1 ISZERO PUSH2 0x468 JUMPI DUP1 DUP3 SUB DUP1 MLOAD PUSH1 0x1 DUP4 PUSH1 0x20 SUB PUSH2 0x100 EXP SUB NOT AND DUP2 MSTORE PUSH1 0x20 ADD SWAP2 POP JUMPDEST POP SWAP3 POP POP POP PUSH1 0x40 MLOAD DUP1 SWAP2 SUB SWAP1 RETURN JUMPDEST CALLVALUE DUP1 ISZERO PUSH2 0x482 JUMPI PUSH1 0x0 DUP1 REVERT JUMPDEST POP PUSH2 0x48B PUSH2 0x239D JUMP JUMPDEST PUSH1 0x40 MLOAD DUP1 DUP1 PUSH1 0x20 ADD DUP3 DUP2 SUB DUP3 MSTORE DUP4 DUP2 DUP2 MLOAD DUP2 MSTORE PUSH1 0x20 ADD SWAP2 POP DUP1 MLOAD SWAP1 PUSH1 0x20 ADD SWAP1 DUP1 DUP4 DUP4 PUSH1 0x0 JUMPDEST DUP4 DUP2 LT ISZERO PUSH2 0x4CB JUMPI DUP1 DUP3 ADD MLOAD DUP2 DUP5 ADD MSTORE PUSH1 0x20 DUP2 ADD SWAP1 POP PUSH2 0x4B0 JUMP JUMPDEST POP POP POP POP SWAP1 POP SWAP1 DUP2 ADD SWAP1 PUSH1 0x1F AND DUP1 ISZERO PUSH2 0x4F8 JUMPI DUP1 DUP3 SUB DUP1 MLOAD PUSH1 0x1 DUP4 PUSH1 0x20 SUB PUSH2 0x100 EXP SUB NOT AND DUP2 MSTORE PUSH1 0x20 ADD SWAP2 POP JUMPDEST POP SWAP3 POP POP POP PUSH1 0x40 MLOAD DUP1 SWAP2 SUB SWAP1 RETURN JUMPDEST CALLVALUE DUP1 ISZERO PUSH2 0x512 JUMPI PUSH1 0x0 DUP1 REVERT JUMPDEST POP PUSH2 0x51B PUSH2 0x243F JUMP JUMPDEST PUSH1 0x40 MLOAD DUP1 DUP3 PUSH20 0xFFFFFFFFFFFFFFFFFFFFFFFFFFFFFFFFFFFFFFFF AND PUSH20 0xFFFFFFFFFFFFFFFFFFFFFFFFFFFFFFFFFFFFFFFF AND DUP2 MSTORE PUSH1 0x20 ADD SWAP2 POP POP PUSH1 0x40 MLOAD DUP1 SWAP2 SUB SWAP1 RETURN JUMPDEST CALLVALUE DUP1 ISZERO PUSH2 0x569 JUMPI PUSH1 0x0 DUP1 REVERT JUMPDEST POP PUSH2 0x5C4 PUSH1 0x4 DUP1 CALLDATASIZE SUB DUP2 ADD SWAP1 DUP1 DUP1 CALLDATALOAD SWAP1 PUSH1 0x20 ADD SWAP1 DUP3 ADD DUP1 CALLDATALOAD SWAP1 PUSH1 0x20 ADD SWAP1 DUP1 DUP1 PUSH1 0x1F ADD PUSH1 0x20 DUP1 SWAP2 DIV MUL PUSH1 0x20 ADD PUSH1 0x40 MLOAD SWAP1 DUP2 ADD PUSH1 0x40 MSTORE DUP1 SWAP4 SWAP3 SWAP2 SWAP1 DUP2 DUP2 MSTORE PUSH1 0x20 ADD DUP4 DUP4 DUP1 DUP3 DUP5 CALLDATACOPY DUP3 ADD SWAP2 POP POP POP POP POP POP SWAP2 SWAP3 SWAP2 SWAP3 SWAP1 POP POP POP PUSH2 0x2465 JUMP JUMPDEST STOP JUMPDEST CALLVALUE DUP1 ISZERO PUSH2 0x5D2 JUMPI PUSH1 0x0 DUP1 REVERT JUMPDEST POP PUSH2 0x5DB PUSH2 0x28BD JUMP JUMPDEST PUSH1 0x40 MLOAD DUP1 DUP1 PUSH1 0x20 ADD DUP1 PUSH1 0x20 ADD DUP4 DUP2 SUB DUP4 MSTORE DUP6 DUP2 DUP2 MLOAD DUP2 MSTORE PUSH1 0x20 ADD SWAP2 POP DUP1 MLOAD SWAP1 PUSH1 0x20 ADD SWAP1 DUP1 DUP4 DUP4 PUSH1 0x0 JUMPDEST DUP4 DUP2 LT ISZERO PUSH2 0x61F JUMPI DUP1 DUP3 ADD MLOAD DUP2 DUP5 ADD MSTORE PUSH1 0x20 DUP2 ADD SWAP1 POP PUSH2 0x604 JUMP JUMPDEST POP POP POP POP SWAP1 POP SWAP1 DUP2 ADD SWAP1 PUSH1 0x1F AND DUP1 ISZERO PUSH2 0x64C JUMPI DUP1 DUP3 SUB DUP1 MLOAD PUSH1 0x1 DUP4 PUSH1 0x20 SUB PUSH2 0x100 EXP SUB NOT AND DUP2 MSTORE PUSH1 0x20 ADD SWAP2 POP JUMPDEST POP DUP4 DUP2 SUB DUP3 MSTORE DUP5 DUP2 DUP2 MLOAD DUP2 MSTORE PUSH1 0x20 ADD SWAP2 POP DUP1 MLOAD SWAP1 PUSH1 0x20 ADD SWAP1 DUP1 DUP4 DUP4 PUSH1 0x0 JUMPDEST DUP4 DUP2 LT ISZERO PUSH2 0x685 JUMPI DUP1 DUP3 ADD MLOAD DUP2 DUP5 ADD MSTORE PUSH1 0x20 DUP2 ADD SWAP1 POP PUSH2 0x66A JUMP JUMPDEST POP POP POP POP SWAP1 POP SWAP1 DUP2 ADD SWAP1 PUSH1 0x1F AND DUP1 ISZERO PUSH2 0x6B2 JUMPI DUP1 DUP3 SUB DUP1 MLOAD PUSH1 0x1 DUP4 PUSH1 0x20 SUB PUSH2 0x100 EXP SUB NOT AND DUP2 MSTORE PUSH1 0x20 ADD SWAP2 POP JUMPDEST POP SWAP5 POP POP POP POP POP PUSH1 0x40 MLOAD DUP1 SWAP2 SUB SWAP1 RETURN JUMPDEST CALLVALUE DUP1 ISZERO PUSH2 0x6CE JUMPI PUSH1 0x0 DUP1 REVERT JUMPDEST POP PUSH2 0x6ED PUSH1 0x4 DUP1 CALLDATASIZE SUB DUP2 ADD SWAP1 DUP1 DUP1 CALLDATALOAD SWAP1 PUSH1 0x20 ADD SWAP1 SWAP3 SWAP2 SWAP1 POP POP POP PUSH2 0x2A04 JUMP JUMPDEST STOP JUMPDEST CALLVALUE DUP1 ISZERO PUSH2 0x6FB JUMPI PUSH1 0x0 DUP1 REVERT JUMPDEST POP PUSH2 0x704 PUSH2 0x2B52 JUMP JUMPDEST PUSH1 0x40 MLOAD DUP1 DUP3 DUP2 MSTORE PUSH1 0x20 ADD SWAP2 POP POP PUSH1 0x40 MLOAD DUP1 SWAP2 SUB SWAP1 RETURN JUMPDEST CALLVALUE DUP1 ISZERO PUSH2 0x726 JUMPI PUSH1 0x0 DUP1 REVERT JUMPDEST POP PUSH2 0x72F PUSH2 0x2B5B JUMP JUMPDEST PUSH1 0x40 MLOAD DUP1 DUP3 PUSH20 0xFFFFFFFFFFFFFFFFFFFFFFFFFFFFFFFFFFFFFFFF AND PUSH20 0xFFFFFFFFFFFFFFFFFFFFFFFFFFFFFFFFFFFFFFFF AND DUP2 MSTORE PUSH1 0x20 ADD SWAP2 POP POP PUSH1 0x40 MLOAD DUP1 SWAP2 SUB SWAP1 RETURN JUMPDEST CALLVALUE DUP1 ISZERO PUSH2 0x77D JUMPI PUSH1 0x0 DUP1 REVERT JUMPDEST POP PUSH2 0x81E PUSH1 0x4 DUP1 CALLDATASIZE SUB DUP2 ADD SWAP1 DUP1 DUP1 CALLDATALOAD SWAP1 PUSH1 0x20 ADD SWAP1 DUP3 ADD DUP1 CALLDATALOAD SWAP1 PUSH1 0x20 ADD SWAP1 DUP1 DUP1 PUSH1 0x1F ADD PUSH1 0x20 DUP1 SWAP2 DIV MUL PUSH1 0x20 ADD PUSH1 0x40 MLOAD SWAP1 DUP2 ADD PUSH1 0x40 MSTORE DUP1 SWAP4 SWAP3 SWAP2 SWAP1 DUP2 DUP2 MSTORE PUSH1 0x20 ADD DUP4 DUP4 DUP1 DUP3 DUP5 CALLDATACOPY DUP3 ADD SWAP2 POP POP POP POP POP POP SWAP2 SWAP3 SWAP2 SWAP3 SWAP1 DUP1 CALLDATALOAD SWAP1 PUSH1 0x20 ADD SWAP1 DUP3 ADD DUP1 CALLDATALOAD SWAP1 PUSH1 0x20 ADD SWAP1 DUP1 DUP1 PUSH1 0x1F ADD PUSH1 0x20 DUP1 SWAP2 DIV MUL PUSH1 0x20 ADD PUSH1 0x40 MLOAD SWAP1 DUP2 ADD PUSH1 0x40 MSTORE DUP1 SWAP4 SWAP3 SWAP2 SWAP1 DUP2 DUP2 MSTORE PUSH1 0x20 ADD DUP4 DUP4 DUP1 DUP3 DUP5 CALLDATACOPY DUP3 ADD SWAP2 POP POP POP POP POP POP SWAP2 SWAP3 SWAP2 SWAP3 SWAP1 POP POP POP PUSH2 0x2B81 JUMP JUMPDEST STOP JUMPDEST CALLVALUE DUP1 ISZERO PUSH2 0x82C JUMPI PUSH1 0x0 DUP1 REVERT JUMPDEST POP PUSH2 0x835 PUSH2 0x2FA5 JUMP JUMPDEST PUSH1 0x40 MLOAD DUP1 DUP3 PUSH20 0xFFFFFFFFFFFFFFFFFFFFFFFFFFFFFFFFFFFFFFFF AND PUSH20 0xFFFFFFFFFFFFFFFFFFFFFFFFFFFFFFFFFFFFFFFF AND DUP2 MSTORE PUSH1 0x20 ADD SWAP2 POP POP PUSH1 0x40 MLOAD DUP1 SWAP2 SUB SWAP1 RETURN JUMPDEST CALLVALUE DUP1 ISZERO PUSH2 0x883 JUMPI PUSH1 0x0 DUP1 REVERT JUMPDEST POP PUSH2 0x88C PUSH2 0x2FCB JUMP JUMPDEST PUSH1 0x40 MLOAD DUP1 DUP1 PUSH1 0x20 ADD DUP3 DUP2 SUB DUP3 MSTORE DUP4 DUP2 DUP2 MLOAD DUP2 MSTORE PUSH1 0x20 ADD SWAP2 POP DUP1 MLOAD SWAP1 PUSH1 0x20 ADD SWAP1 DUP1 DUP4 DUP4 PUSH1 0x0 JUMPDEST DUP4 DUP2 LT ISZERO PUSH2 0x8CC JUMPI DUP1 DUP3 ADD MLOAD DUP2 DUP5 ADD MSTORE PUSH1 0x20 DUP2 ADD SWAP1 POP PUSH2 0x8B1 JUMP JUMPDEST POP POP POP POP SWAP1 POP SWAP1 DUP2 ADD SWAP1 PUSH1 0x1F AND DUP1 ISZERO PUSH2 0x8F9 JUMPI DUP1 DUP3 SUB DUP1 MLOAD PUSH1 0x1 DUP4 PUSH1 0x20 SUB PUSH2 0x100 EXP SUB NOT AND DUP2 MSTORE PUSH1 0x20 ADD SWAP2 POP JUMPDEST POP SWAP3 POP POP POP PUSH1 0x40 MLOAD DUP1 SWAP2 SUB SWAP1 RETURN JUMPDEST CALLVALUE DUP1 ISZERO PUSH2 0x913 JUMPI PUSH1 0x0 DUP1 REVERT JUMPDEST POP PUSH2 0x91C PUSH2 0x306D JUMP JUMPDEST PUSH1 0x40 MLOAD DUP1 DUP3 DUP2 MSTORE PUSH1 0x20 ADD SWAP2 POP POP PUSH1 0x40 MLOAD DUP1 SWAP2 SUB SWAP1 RETURN JUMPDEST CALLVALUE DUP1 ISZERO PUSH2 0x93E JUMPI PUSH1 0x0 DUP1 REVERT JUMPDEST POP PUSH2 0x999 PUSH1 0x4 DUP1 CALLDATASIZE SUB DUP2 ADD SWAP1 DUP1 DUP1 CALLDATALOAD SWAP1 PUSH1 0x20 ADD SWAP1 DUP3 ADD DUP1 CALLDATALOAD SWAP1 PUSH1 0x20 ADD SWAP1 DUP1 DUP1 PUSH1 0x1F ADD PUSH1 0x20 DUP1 SWAP2 DIV MUL PUSH1 0x20 ADD PUSH1 0x40 MLOAD SWAP1 DUP2 ADD PUSH1 0x40 MSTORE DUP1 SWAP4 SWAP3 SWAP2 SWAP1 DUP2 DUP2 MSTORE PUSH1 0x20 ADD DUP4 DUP4 DUP1 DUP3 DUP5 CALLDATACOPY DUP3 ADD SWAP2 POP POP POP POP POP POP SWAP2 SWAP3 SWAP2 SWAP3 SWAP1 POP POP POP PUSH2 0x3077 JUMP JUMPDEST STOP JUMPDEST CALLVALUE DUP1 ISZERO PUSH2 0x9A7 JUMPI PUSH1 0x0 DUP1 REVERT JUMPDEST POP PUSH2 0x9B0 PUSH2 0x3340 JUMP JUMPDEST PUSH1 0x40 MLOAD DUP1 DUP3 DUP2 MSTORE PUSH1 0x20 ADD SWAP2 POP POP PUSH1 0x40 MLOAD DUP1 SWAP2 SUB SWAP1 RETURN JUMPDEST CALLVALUE DUP1 ISZERO PUSH2 0x9D2 JUMPI PUSH1 0x0 DUP1 REVERT JUMPDEST POP PUSH2 0x9DB PUSH2 0x334A JUMP JUMPDEST PUSH1 0x40 MLOAD DUP1 DUP1 PUSH1 0x20 ADD DUP3 DUP2 SUB DUP3 MSTORE DUP4 DUP2 DUP2 MLOAD DUP2 MSTORE PUSH1 0x20 ADD SWAP2 POP DUP1 MLOAD SWAP1 PUSH1 0x20 ADD SWAP1 DUP1 DUP4 DUP4 PUSH1 0x0 JUMPDEST DUP4 DUP2 LT ISZERO PUSH2 0xA1B JUMPI DUP1 DUP3 ADD MLOAD DUP2 DUP5 ADD MSTORE PUSH1 0x20 DUP2 ADD SWAP1 POP PUSH2 0xA00 JUMP JUMPDEST POP POP POP POP SWAP1 POP SWAP1 DUP2 ADD SWAP1 PUSH1 0x1F AND DUP1 ISZERO PUSH2 0xA48 JUMPI DUP1 DUP3 SUB DUP1 MLOAD PUSH1 0x1 DUP4 PUSH1 0x20 SUB PUSH2 0x100 EXP SUB NOT AND DUP2 MSTORE PUSH1 0x20 ADD SWAP2 POP JUMPDEST POP SWAP3 POP POP POP PUSH1 0x40 MLOAD DUP1 SWAP2 SUB SWAP1 RETURN JUMPDEST PUSH2 0xA5E PUSH2 0x33E8 JUMP JUMPDEST PUSH1 0x40 MLOAD DUP1 DUP3 ISZERO ISZERO ISZERO ISZERO DUP2 MSTORE PUSH1 0x20 ADD SWAP2 POP POP PUSH1 0x40 MLOAD DUP1 SWAP2 SUB SWAP1 RETURN JUMPDEST CALLVALUE DUP1 ISZERO PUSH2 0xA84 JUMPI PUSH1 0x0 DUP1 REVERT JUMPDEST POP PUSH2 0xA8D PUSH2 0x3772 JUMP JUMPDEST PUSH1 0x40 MLOAD DUP1 DUP1 PUSH1 0x20 ADD DUP3 DUP2 SUB DUP3 MSTORE DUP4 DUP2 DUP2 MLOAD DUP2 MSTORE PUSH1 0x20 ADD SWAP2 POP DUP1 MLOAD SWAP1 PUSH1 0x20 ADD SWAP1 DUP1 DUP4 DUP4 PUSH1 0x0 JUMPDEST DUP4 DUP2 LT ISZERO PUSH2 0xACD JUMPI DUP1 DUP3 ADD MLOAD DUP2 DUP5 ADD MSTORE PUSH1 0x20 DUP2 ADD SWAP1 POP PUSH2 0xAB2 JUMP JUMPDEST POP POP POP POP SWAP1 POP SWAP1 DUP2 ADD SWAP1 PUSH1 0x1F AND DUP1 ISZERO PUSH2 0xAFA JUMPI DUP1 DUP3 SUB DUP1 MLOAD PUSH1 0x1 DUP4 PUSH1 0x20 SUB PUSH2 0x100 EXP SUB NOT AND DUP2 MSTORE PUSH1 0x20 ADD SWAP2 POP JUMPDEST POP SWAP3 POP POP POP PUSH1 0x40 MLOAD DUP1 SWAP2 SUB SWAP1 RETURN JUMPDEST CALLVALUE DUP1 ISZERO PUSH2 0xB14 JUMPI PUSH1 0x0 DUP1 REVERT JUMPDEST POP PUSH2 0xB1D PUSH2 0x3814 JUMP JUMPDEST PUSH1 0x40 MLOAD DUP1 DUP3 DUP2 MSTORE PUSH1 0x20 ADD SWAP2 POP POP PUSH1 0x40 MLOAD DUP1 SWAP2 SUB SWAP1 RETURN JUMPDEST CALLVALUE DUP1 ISZERO PUSH2 0xB3F JUMPI PUSH1 0x0 DUP1 REVERT JUMPDEST POP PUSH2 0xB48 PUSH2 0x381E JUMP JUMPDEST PUSH1 0x40 MLOAD DUP1 DUP1 PUSH1 0x20 ADD DUP3 DUP2 SUB DUP3 MSTORE DUP4 DUP2 DUP2 MLOAD DUP2 MSTORE PUSH1 0x20 ADD SWAP2 POP DUP1 MLOAD SWAP1 PUSH1 0x20 ADD SWAP1 DUP1 DUP4 DUP4 PUSH1 0x0 JUMPDEST DUP4 DUP2 LT ISZERO PUSH2 0xB88 JUMPI DUP1 DUP3 ADD MLOAD DUP2 DUP5 ADD MSTORE PUSH1 0x20 DUP2 ADD SWAP1 POP PUSH2 0xB6D JUMP JUMPDEST POP POP POP POP SWAP1 POP SWAP1 DUP2 ADD SWAP1 PUSH1 0x1F AND DUP1 ISZERO PUSH2 0xBB5 JUMPI DUP1 DUP3 SUB DUP1 MLOAD PUSH1 0x1 DUP4 PUSH1 0x20 SUB PUSH2 0x100 EXP SUB NOT AND DUP2 MSTORE PUSH1 0x20 ADD SWAP2 POP JUMPDEST POP SWAP3 POP POP POP PUSH1 0x40 MLOAD DUP1 SWAP2 SUB SWAP1 RETURN JUMPDEST PUSH1 0xE PUSH1 0x0 SWAP1 SLOAD SWAP1 PUSH2 0x100 EXP SWAP1 DIV PUSH20 0xFFFFFFFFFFFFFFFFFFFFFFFFFFFFFFFFFFFFFFFF AND PUSH20 0xFFFFFFFFFFFFFFFFFFFFFFFFFFFFFFFFFFFFFFFF AND CALLER PUSH20 0xFFFFFFFFFFFFFFFFFFFFFFFFFFFFFFFFFFFFFFFF AND EQ DUP1 ISZERO PUSH2 0xC33 JUMPI POP PUSH1 0x1 ISZERO ISZERO PUSH1 0x12 PUSH1 0x0 SWAP1 SLOAD SWAP1 PUSH2 0x100 EXP SWAP1 DIV PUSH1 0xFF AND ISZERO ISZERO EQ JUMPDEST DUP1 ISZERO PUSH2 0xC52 JUMPI POP PUSH1 0x1 ISZERO ISZERO PUSH1 0x12 PUSH1 0x1 SWAP1 SLOAD SWAP1 PUSH2 0x100 EXP SWAP1 DIV PUSH1 0xFF AND ISZERO ISZERO EQ JUMPDEST DUP1 ISZERO PUSH2 0xC71 JUMPI POP PUSH1 0x1 ISZERO ISZERO PUSH1 0x12 PUSH1 0x2 SWAP1 SLOAD SWAP1 PUSH2 0x100 EXP SWAP1 DIV PUSH1 0xFF AND ISZERO ISZERO EQ JUMPDEST DUP1 ISZERO PUSH2 0xC90 JUMPI POP PUSH1 0x1 ISZERO ISZERO PUSH1 0x12 PUSH1 0x4 SWAP1 SLOAD SWAP1 PUSH2 0x100 EXP SWAP1 DIV PUSH1 0xFF AND ISZERO ISZERO EQ JUMPDEST DUP1 ISZERO PUSH2 0xCAF JUMPI POP PUSH1 0x1 ISZERO ISZERO PUSH1 0x12 PUSH1 0x5 SWAP1 SLOAD SWAP1 PUSH2 0x100 EXP SWAP1 DIV PUSH1 0xFF AND ISZERO ISZERO EQ JUMPDEST DUP1 ISZERO PUSH2 0xCCE JUMPI POP PUSH1 0x1 ISZERO ISZERO PUSH1 0x12 PUSH1 0x6 SWAP1 SLOAD SWAP1 PUSH2 0x100 EXP SWAP1 DIV PUSH1 0xFF AND ISZERO ISZERO EQ JUMPDEST DUP1 ISZERO PUSH2 0xCED JUMPI POP PUSH1 0x0 ISZERO ISZERO PUSH1 0x12 PUSH1 0x8 SWAP1 SLOAD SWAP1 PUSH2 0x100 EXP SWAP1 DIV PUSH1 0xFF AND ISZERO ISZERO EQ JUMPDEST ISZERO PUSH2 0xE32 JUMPI PUSH1 0x1 PUSH1 0x12 PUSH1 0x9 PUSH2 0x100 EXP DUP2 SLOAD DUP2 PUSH1 0xFF MUL NOT AND SWAP1 DUP4 ISZERO ISZERO MUL OR SWAP1 SSTORE POP PUSH32 0x8145FA64E423C0C035A5A7C9148B97D0650ABF5530DEBE121D7CB929CE57645D PUSH1 0x12 PUSH1 0x9 SWAP1 SLOAD SWAP1 PUSH2 0x100 EXP SWAP1 DIV PUSH1 0xFF AND PUSH1 0x40 MLOAD DUP1 DUP3 ISZERO ISZERO ISZERO ISZERO DUP2 MSTORE PUSH1 0x20 ADD SWAP2 POP POP PUSH1 0x40 MLOAD DUP1 SWAP2 SUB SWAP1 LOG1 PUSH1 0xD PUSH1 0x0 SWAP1 SLOAD SWAP1 PUSH2 0x100 EXP SWAP1 DIV PUSH20 0xFFFFFFFFFFFFFFFFFFFFFFFFFFFFFFFFFFFFFFFF AND PUSH20 0xFFFFFFFFFFFFFFFFFFFFFFFFFFFFFFFFFFFFFFFF AND PUSH2 0x8FC PUSH1 0x0 SLOAD SWAP1 DUP2 ISZERO MUL SWAP1 PUSH1 0x40 MLOAD PUSH1 0x0 PUSH1 0x40 MLOAD DUP1 DUP4 SUB DUP2 DUP6 DUP9 DUP9 CALL SWAP4 POP POP POP POP ISZERO DUP1 ISZERO PUSH2 0xDC1 JUMPI RETURNDATASIZE PUSH1 0x0 DUP1 RETURNDATACOPY RETURNDATASIZE PUSH1 0x0 REVERT JUMPDEST POP PUSH1 0xD PUSH1 0x0 SWAP1 SLOAD SWAP1 PUSH2 0x100 EXP SWAP1 DIV PUSH20 0xFFFFFFFFFFFFFFFFFFFFFFFFFFFFFFFFFFFFFFFF AND PUSH20 0xFFFFFFFFFFFFFFFFFFFFFFFFFFFFFFFFFFFFFFFF AND PUSH2 0x8FC PUSH1 0x1 SLOAD SWAP1 DUP2 ISZERO MUL SWAP1 PUSH1 0x40 MLOAD PUSH1 0x0 PUSH1 0x40 MLOAD DUP1 DUP4 SUB DUP2 DUP6 DUP9 DUP9 CALL SWAP4 POP POP POP POP ISZERO DUP1 ISZERO PUSH2 0xE2C JUMPI RETURNDATASIZE PUSH1 0x0 DUP1 RETURNDATACOPY RETURNDATASIZE PUSH1 0x0 REVERT JUMPDEST POP PUSH2 0x16C0 JUMP JUMPDEST PUSH1 0xD PUSH1 0x0 SWAP1 SLOAD SWAP1 PUSH2 0x100 EXP SWAP1 DIV PUSH20 0xFFFFFFFFFFFFFFFFFFFFFFFFFFFFFFFFFFFFFFFF AND PUSH20 0xFFFFFFFFFFFFFFFFFFFFFFFFFFFFFFFFFFFFFFFF AND CALLER PUSH20 0xFFFFFFFFFFFFFFFFFFFFFFFFFFFFFFFFFFFFFFFF AND EQ DUP1 ISZERO PUSH2 0xEA2 JUMPI POP PUSH1 0x1 ISZERO ISZERO PUSH1 0x12 PUSH1 0x3 SWAP1 SLOAD SWAP1 PUSH2 0x100 EXP SWAP1 DIV PUSH1 0xFF AND ISZERO ISZERO EQ JUMPDEST DUP1 ISZERO PUSH2 0xEC1 JUMPI POP PUSH1 0x0 ISZERO ISZERO PUSH1 0x12 PUSH1 0xA SWAP1 SLOAD SWAP1 PUSH2 0x100 EXP SWAP1 DIV PUSH1 0xFF AND ISZERO ISZERO EQ JUMPDEST ISZERO PUSH2 0xF9B JUMPI PUSH1 0x0 PUSH1 0x12 PUSH1 0x9 PUSH2 0x100 EXP DUP2 SLOAD DUP2 PUSH1 0xFF MUL NOT AND SWAP1 DUP4 ISZERO ISZERO MUL OR SWAP1 SSTORE POP PUSH32 0x8145FA64E423C0C035A5A7C9148B97D0650ABF5530DEBE121D7CB929CE57645D PUSH1 0x12 PUSH1 0x9 SWAP1 SLOAD SWAP1 PUSH2 0x100 EXP SWAP1 DIV PUSH1 0xFF AND PUSH1 0x40 MLOAD DUP1 DUP3 ISZERO ISZERO ISZERO ISZERO DUP2 MSTORE PUSH1 0x20 ADD SWAP2 POP POP PUSH1 0x40 MLOAD DUP1 SWAP2 SUB SWAP1 LOG1 PUSH1 0xD PUSH1 0x0 SWAP1 SLOAD SWAP1 PUSH2 0x100 EXP SWAP1 DIV PUSH20 0xFFFFFFFFFFFFFFFFFFFFFFFFFFFFFFFFFFFFFFFF AND PUSH20 0xFFFFFFFFFFFFFFFFFFFFFFFFFFFFFFFFFFFFFFFF AND PUSH2 0x8FC PUSH1 0x1 SLOAD SWAP1 DUP2 ISZERO MUL SWAP1 PUSH1 0x40 MLOAD PUSH1 0x0 PUSH1 0x40 MLOAD DUP1 DUP4 SUB DUP2 DUP6 DUP9 DUP9 CALL SWAP4 POP POP POP POP ISZERO DUP1 ISZERO PUSH2 0xF95 JUMPI RETURNDATASIZE PUSH1 0x0 DUP1 RETURNDATACOPY RETURNDATASIZE PUSH1 0x0 REVERT JUMPDEST POP PUSH2 0x16BF JUMP JUMPDEST PUSH1 0x1 DUP1 ISZERO PUSH2 0xFBC JUMPI POP PUSH1 0x0 ISZERO ISZERO PUSH1 0x12 PUSH1 0xB SWAP1 SLOAD SWAP1 PUSH2 0x100 EXP SWAP1 DIV PUSH1 0xFF AND ISZERO ISZERO EQ JUMPDEST PUSH1 0x12 PUSH1 0x4 PUSH2 0x100 EXP DUP2 SLOAD DUP2 PUSH1 0xFF MUL NOT AND SWAP1 DUP4 ISZERO ISZERO MUL OR SWAP1 SSTORE ISZERO PUSH2 0x1119 JUMPI PUSH1 0x0 PUSH1 0x12 PUSH1 0x9 PUSH2 0x100 EXP DUP2 SLOAD DUP2 PUSH1 0xFF MUL NOT AND SWAP1 DUP4 ISZERO ISZERO MUL OR SWAP1 SSTORE POP PUSH32 0x8145FA64E423C0C035A5A7C9148B97D0650ABF5530DEBE121D7CB929CE57645D PUSH1 0x12 PUSH1 0x9 SWAP1 SLOAD SWAP1 PUSH2 0x100 EXP SWAP1 DIV PUSH1 0xFF AND PUSH1 0x40 MLOAD DUP1 DUP3 ISZERO ISZERO ISZERO ISZERO DUP2 MSTORE PUSH1 0x20 ADD SWAP2 POP POP PUSH1 0x40 MLOAD DUP1 SWAP2 SUB SWAP1 LOG1 PUSH1 0xD PUSH1 0x0 SWAP1 SLOAD SWAP1 PUSH2 0x100 EXP SWAP1 DIV PUSH20 0xFFFFFFFFFFFFFFFFFFFFFFFFFFFFFFFFFFFFFFFF AND PUSH20 0xFFFFFFFFFFFFFFFFFFFFFFFFFFFFFFFFFFFFFFFF AND PUSH2 0x8FC PUSH1 0x1 SLOAD SWAP1 DUP2 ISZERO MUL SWAP1 PUSH1 0x40 MLOAD PUSH1 0x0 PUSH1 0x40 MLOAD DUP1 DUP4 SUB DUP2 DUP6 DUP9 DUP9 CALL SWAP4 POP POP POP POP ISZERO DUP1 ISZERO PUSH2 0x10A8 JUMPI RETURNDATASIZE PUSH1 0x0 DUP1 RETURNDATACOPY RETURNDATASIZE PUSH1 0x0 REVERT JUMPDEST POP PUSH1 0xE PUSH1 0x0 SWAP1 SLOAD SWAP1 PUSH2 0x100 EXP SWAP1 DIV PUSH20 0xFFFFFFFFFFFFFFFFFFFFFFFFFFFFFFFFFFFFFFFF AND PUSH20 0xFFFFFFFFFFFFFFFFFFFFFFFFFFFFFFFFFFFFFFFF AND PUSH2 0x8FC PUSH1 0x0 SLOAD SWAP1 DUP2 ISZERO MUL SWAP1 PUSH1 0x40 MLOAD PUSH1 0x0 PUSH1 0x40 MLOAD DUP1 DUP4 SUB DUP2 DUP6 DUP9 DUP9 CALL SWAP4 POP POP POP POP ISZERO DUP1 ISZERO PUSH2 0x1113 JUMPI RETURNDATASIZE PUSH1 0x0 DUP1 RETURNDATACOPY RETURNDATASIZE PUSH1 0x0 REVERT JUMPDEST POP PUSH2 0x16BE JUMP JUMPDEST PUSH1 0x1 ISZERO ISZERO PUSH1 0x12 PUSH1 0x6 SWAP1 SLOAD SWAP1 PUSH2 0x100 EXP SWAP1 DIV PUSH1 0xFF AND ISZERO ISZERO EQ DUP1 ISZERO PUSH2 0x114F JUMPI POP PUSH1 0x0 ISZERO ISZERO PUSH1 0x12 PUSH1 0x7 SWAP1 SLOAD SWAP1 PUSH2 0x100 EXP SWAP1 DIV PUSH1 0xFF AND ISZERO ISZERO EQ JUMPDEST DUP1 ISZERO PUSH2 0x1160 JUMPI POP PUSH1 0x5 SLOAD PUSH1 0x4 SLOAD ADD TIMESTAMP GT JUMPDEST ISZERO PUSH2 0x12A5 JUMPI PUSH1 0x1 PUSH1 0x12 PUSH1 0x9 PUSH2 0x100 EXP DUP2 SLOAD DUP2 PUSH1 0xFF MUL NOT AND SWAP1 DUP4 ISZERO ISZERO MUL OR SWAP1 SSTORE POP PUSH32 0x8145FA64E423C0C035A5A7C9148B97D0650ABF5530DEBE121D7CB929CE57645D PUSH1 0x12 PUSH1 0x9 SWAP1 SLOAD SWAP1 PUSH2 0x100 EXP SWAP1 DIV PUSH1 0xFF AND PUSH1 0x40 MLOAD DUP1 DUP3 ISZERO ISZERO ISZERO ISZERO DUP2 MSTORE PUSH1 0x20 ADD SWAP2 POP POP PUSH1 0x40 MLOAD DUP1 SWAP2 SUB SWAP1 LOG1 PUSH1 0xD PUSH1 0x0 SWAP1 SLOAD SWAP1 PUSH2 0x100 EXP SWAP1 DIV PUSH20 0xFFFFFFFFFFFFFFFFFFFFFFFFFFFFFFFFFFFFFFFF AND PUSH20 0xFFFFFFFFFFFFFFFFFFFFFFFFFFFFFFFFFFFFFFFF AND PUSH2 0x8FC PUSH1 0x0 SLOAD SWAP1 DUP2 ISZERO MUL SWAP1 PUSH1 0x40 MLOAD PUSH1 0x0 PUSH1 0x40 MLOAD DUP1 DUP4 SUB DUP2 DUP6 DUP9 DUP9 CALL SWAP4 POP POP POP POP ISZERO DUP1 ISZERO PUSH2 0x1234 JUMPI RETURNDATASIZE PUSH1 0x0 DUP1 RETURNDATACOPY RETURNDATASIZE PUSH1 0x0 REVERT JUMPDEST POP PUSH1 0xD PUSH1 0x0 SWAP1 SLOAD SWAP1 PUSH2 0x100 EXP SWAP1 DIV PUSH20 0xFFFFFFFFFFFFFFFFFFFFFFFFFFFFFFFFFFFFFFFF AND PUSH20 0xFFFFFFFFFFFFFFFFFFFFFFFFFFFFFFFFFFFFFFFF AND PUSH2 0x8FC PUSH1 0x1 SLOAD SWAP1 DUP2 ISZERO MUL SWAP1 PUSH1 0x40 MLOAD PUSH1 0x0 PUSH1 0x40 MLOAD DUP1 DUP4 SUB DUP2 DUP6 DUP9 DUP9 CALL SWAP4 POP POP POP POP ISZERO DUP1 ISZERO PUSH2 0x129F JUMPI RETURNDATASIZE PUSH1 0x0 DUP1 RETURNDATACOPY RETURNDATASIZE PUSH1 0x0 REVERT JUMPDEST POP PUSH2 0x16BD JUMP JUMPDEST PUSH1 0xF PUSH1 0x0 SWAP1 SLOAD SWAP1 PUSH2 0x100 EXP SWAP1 DIV PUSH20 0xFFFFFFFFFFFFFFFFFFFFFFFFFFFFFFFFFFFFFFFF AND PUSH20 0xFFFFFFFFFFFFFFFFFFFFFFFFFFFFFFFFFFFFFFFF AND CALLER PUSH20 0xFFFFFFFFFFFFFFFFFFFFFFFFFFFFFFFFFFFFFFFF AND EQ DUP1 ISZERO PUSH2 0x1315 JUMPI POP PUSH1 0x1 ISZERO ISZERO PUSH1 0x12 PUSH1 0x7 SWAP1 SLOAD SWAP1 PUSH2 0x100 EXP SWAP1 DIV PUSH1 0xFF AND ISZERO ISZERO EQ JUMPDEST DUP1 ISZERO PUSH2 0x1334 JUMPI POP PUSH1 0x1 ISZERO ISZERO PUSH1 0x12 PUSH1 0x8 SWAP1 SLOAD SWAP1 PUSH2 0x100 EXP SWAP1 DIV PUSH1 0xFF AND ISZERO ISZERO EQ JUMPDEST ISZERO PUSH2 0x1479 JUMPI PUSH1 0x0 PUSH1 0x12 PUSH1 0x9 PUSH2 0x100 EXP DUP2 SLOAD DUP2 PUSH1 0xFF MUL NOT AND SWAP1 DUP4 ISZERO ISZERO MUL OR SWAP1 SSTORE POP PUSH32 0x8145FA64E423C0C035A5A7C9148B97D0650ABF5530DEBE121D7CB929CE57645D PUSH1 0x12 PUSH1 0x9 SWAP1 SLOAD SWAP1 PUSH2 0x100 EXP SWAP1 DIV PUSH1 0xFF AND PUSH1 0x40 MLOAD DUP1 DUP3 ISZERO ISZERO ISZERO ISZERO DUP2 MSTORE PUSH1 0x20 ADD SWAP2 POP POP PUSH1 0x40 MLOAD DUP1 SWAP2 SUB SWAP1 LOG1 PUSH1 0xE PUSH1 0x0 SWAP1 SLOAD SWAP1 PUSH2 0x100 EXP SWAP1 DIV PUSH20 0xFFFFFFFFFFFFFFFFFFFFFFFFFFFFFFFFFFFFFFFF AND PUSH20 0xFFFFFFFFFFFFFFFFFFFFFFFFFFFFFFFFFFFFFFFF AND PUSH2 0x8FC PUSH1 0x1 SLOAD SWAP1 DUP2 ISZERO MUL SWAP1 PUSH1 0x40 MLOAD PUSH1 0x0 PUSH1 0x40 MLOAD DUP1 DUP4 SUB DUP2 DUP6 DUP9 DUP9 CALL SWAP4 POP POP POP POP ISZERO DUP1 ISZERO PUSH2 0x1408 JUMPI RETURNDATASIZE PUSH1 0x0 DUP1 RETURNDATACOPY RETURNDATASIZE PUSH1 0x0 REVERT JUMPDEST POP PUSH1 0xE PUSH1 0x0 SWAP1 SLOAD SWAP1 PUSH2 0x100 EXP SWAP1 DIV PUSH20 0xFFFFFFFFFFFFFFFFFFFFFFFFFFFFFFFFFFFFFFFF AND PUSH20 0xFFFFFFFFFFFFFFFFFFFFFFFFFFFFFFFFFFFFFFFF AND PUSH2 0x8FC PUSH1 0x0 SLOAD SWAP1 DUP2 ISZERO MUL SWAP1 PUSH1 0x40 MLOAD PUSH1 0x0 PUSH1 0x40 MLOAD DUP1 DUP4 SUB DUP2 DUP6 DUP9 DUP9 CALL SWAP4 POP POP POP POP ISZERO DUP1 ISZERO PUSH2 0x1473 JUMPI RETURNDATASIZE PUSH1 0x0 DUP1 RETURNDATACOPY RETURNDATASIZE PUSH1 0x0 REVERT JUMPDEST POP PUSH2 0x16BC JUMP JUMPDEST PUSH1 0xF PUSH1 0x0 SWAP1 SLOAD SWAP1 PUSH2 0x100 EXP SWAP1 DIV PUSH20 0xFFFFFFFFFFFFFFFFFFFFFFFFFFFFFFFFFFFFFFFF AND PUSH20 0xFFFFFFFFFFFFFFFFFFFFFFFFFFFFFFFFFFFFFFFF AND CALLER PUSH20 0xFFFFFFFFFFFFFFFFFFFFFFFFFFFFFFFFFFFFFFFF AND EQ DUP1 ISZERO PUSH2 0x14E9 JUMPI POP PUSH1 0x1 ISZERO ISZERO PUSH1 0x12 PUSH1 0x7 SWAP1 SLOAD SWAP1 PUSH2 0x100 EXP SWAP1 DIV PUSH1 0xFF AND ISZERO ISZERO EQ JUMPDEST DUP1 ISZERO PUSH2 0x1508 JUMPI POP PUSH1 0x0 ISZERO ISZERO PUSH1 0x12 PUSH1 0x8 SWAP1 SLOAD SWAP1 PUSH2 0x100 EXP SWAP1 DIV PUSH1 0xFF AND ISZERO ISZERO EQ JUMPDEST ISZERO PUSH2 0x164D JUMPI PUSH1 0x0 PUSH1 0x12 PUSH1 0x9 PUSH2 0x100 EXP DUP2 SLOAD DUP2 PUSH1 0xFF MUL NOT AND SWAP1 DUP4 ISZERO ISZERO MUL OR SWAP1 SSTORE POP PUSH32 0x8145FA64E423C0C035A5A7C9148B97D0650ABF5530DEBE121D7CB929CE57645D PUSH1 0x12 PUSH1 0x9 SWAP1 SLOAD SWAP1 PUSH2 0x100 EXP SWAP1 DIV PUSH1 0xFF AND PUSH1 0x40 MLOAD DUP1 DUP3 ISZERO ISZERO ISZERO ISZERO DUP2 MSTORE PUSH1 0x20 ADD SWAP2 POP POP PUSH1 0x40 MLOAD DUP1 SWAP2 SUB SWAP1 LOG1 PUSH1 0xD PUSH1 0x0 SWAP1 SLOAD SWAP1 PUSH2 0x100 EXP SWAP1 DIV PUSH20 0xFFFFFFFFFFFFFFFFFFFFFFFFFFFFFFFFFFFFFFFF AND PUSH20 0xFFFFFFFFFFFFFFFFFFFFFFFFFFFFFFFFFFFFFFFF AND PUSH2 0x8FC PUSH1 0x1 SLOAD SWAP1 DUP2 ISZERO MUL SWAP1 PUSH1 0x40 MLOAD PUSH1 0x0 PUSH1 0x40 MLOAD DUP1 DUP4 SUB DUP2 DUP6 DUP9 DUP9 CALL SWAP4 POP POP POP POP ISZERO DUP1 ISZERO PUSH2 0x15DC JUMPI RETURNDATASIZE PUSH1 0x0 DUP1 RETURNDATACOPY RETURNDATASIZE PUSH1 0x0 REVERT JUMPDEST POP PUSH1 0xD PUSH1 0x0 SWAP1 SLOAD SWAP1 PUSH2 0x100 EXP SWAP1 DIV PUSH20 0xFFFFFFFFFFFFFFFFFFFFFFFFFFFFFFFFFFFFFFFF AND PUSH20 0xFFFFFFFFFFFFFFFFFFFFFFFFFFFFFFFFFFFFFFFF AND PUSH2 0x8FC PUSH1 0x0 SLOAD SWAP1 DUP2 ISZERO MUL SWAP1 PUSH1 0x40 MLOAD PUSH1 0x0 PUSH1 0x40 MLOAD DUP1 DUP4 SUB DUP2 DUP6 DUP9 DUP9 CALL SWAP4 POP POP POP POP ISZERO DUP1 ISZERO PUSH2 0x1647 JUMPI RETURNDATASIZE PUSH1 0x0 DUP1 RETURNDATACOPY RETURNDATASIZE PUSH1 0x0 REVERT JUMPDEST POP PUSH2 0x16BB JUMP JUMPDEST PUSH1 0x40 MLOAD PUSH32 0x8C379A000000000000000000000000000000000000000000000000000000000 DUP2 MSTORE PUSH1 0x4 ADD DUP1 DUP1 PUSH1 0x20 ADD DUP3 DUP2 SUB DUP3 MSTORE PUSH1 0x7 DUP2 MSTORE PUSH1 0x20 ADD DUP1 PUSH32 0x576169742E2E2E00000000000000000000000000000000000000000000000000 DUP2 MSTORE POP PUSH1 0x20 ADD SWAP2 POP POP PUSH1 0x40 MLOAD DUP1 SWAP2 SUB SWAP1 REVERT JUMPDEST JUMPDEST JUMPDEST JUMPDEST JUMPDEST JUMPDEST JUMP JUMPDEST PUSH1 0x1 ISZERO ISZERO PUSH1 0x12 PUSH1 0x4 SWAP1 SLOAD SWAP1 PUSH2 0x100 EXP SWAP1 DIV PUSH1 0xFF AND ISZERO ISZERO EQ ISZERO PUSH2 0x18DD JUMPI PUSH1 0xD PUSH1 0x0 SWAP1 SLOAD SWAP1 PUSH2 0x100 EXP SWAP1 DIV PUSH20 0xFFFFFFFFFFFFFFFFFFFFFFFFFFFFFFFFFFFFFFFF AND PUSH20 0xFFFFFFFFFFFFFFFFFFFFFFFFFFFFFFFFFFFFFFFF AND PUSH1 0xE PUSH1 0x0 SWAP1 SLOAD SWAP1 PUSH2 0x100 EXP SWAP1 DIV PUSH20 0xFFFFFFFFFFFFFFFFFFFFFFFFFFFFFFFFFFFFFFFF AND PUSH20 0xFFFFFFFFFFFFFFFFFFFFFFFFFFFFFFFFFFFFFFFF AND EQ ISZERO ISZERO PUSH2 0x184F JUMPI DUP1 PUSH1 0x7 SWAP1 DUP1 MLOAD SWAP1 PUSH1 0x20 ADD SWAP1 PUSH2 0x176D SWAP3 SWAP2 SWAP1 PUSH2 0x38C0 JUMP JUMPDEST POP PUSH1 0x1 PUSH1 0x12 PUSH1 0x5 PUSH2 0x100 EXP DUP2 SLOAD DUP2 PUSH1 0xFF MUL NOT AND SWAP1 DUP4 ISZERO ISZERO MUL OR SWAP1 SSTORE POP TIMESTAMP PUSH1 0x3 DUP2 SWAP1 SSTORE POP PUSH32 0x79146A2FA5BAE3DB6E49A4ECF2A936EBB7F07D7BD9A6EF39EA18A8980956CFD PUSH1 0x7 PUSH1 0x40 MLOAD DUP1 DUP1 PUSH1 0x20 ADD DUP3 DUP2 SUB DUP3 MSTORE DUP4 DUP2 DUP2 SLOAD PUSH1 0x1 DUP2 PUSH1 0x1 AND ISZERO PUSH2 0x100 MUL SUB AND PUSH1 0x2 SWAP1 DIV DUP2 MSTORE PUSH1 0x20 ADD SWAP2 POP DUP1 SLOAD PUSH1 0x1 DUP2 PUSH1 0x1 AND ISZERO PUSH2 0x100 MUL SUB AND PUSH1 0x2 SWAP1 DIV DUP1 ISZERO PUSH2 0x183C JUMPI DUP1 PUSH1 0x1F LT PUSH2 0x1811 JUMPI PUSH2 0x100 DUP1 DUP4 SLOAD DIV MUL DUP4 MSTORE SWAP2 PUSH1 0x20 ADD SWAP2 PUSH2 0x183C JUMP JUMPDEST DUP3 ADD SWAP2 SWAP1 PUSH1 0x0 MSTORE PUSH1 0x20 PUSH1 0x0 KECCAK256 SWAP1 JUMPDEST DUP2 SLOAD DUP2 MSTORE SWAP1 PUSH1 0x1 ADD SWAP1 PUSH1 0x20 ADD DUP1 DUP4 GT PUSH2 0x181F JUMPI DUP3 SWAP1 SUB PUSH1 0x1F AND DUP3 ADD SWAP2 JUMPDEST POP POP SWAP3 POP POP POP PUSH1 0x40 MLOAD DUP1 SWAP2 SUB SWAP1 LOG1 PUSH2 0x18D8 JUMP JUMPDEST PUSH1 0x0 PUSH1 0x12 PUSH1 0x5 PUSH2 0x100 EXP DUP2 SLOAD DUP2 PUSH1 0xFF MUL NOT AND SWAP1 DUP4 ISZERO ISZERO MUL OR SWAP1 SSTORE POP PUSH1 0x40 MLOAD PUSH32 0x8C379A000000000000000000000000000000000000000000000000000000000 DUP2 MSTORE PUSH1 0x4 ADD DUP1 DUP1 PUSH1 0x20 ADD DUP3 DUP2 SUB DUP3 MSTORE PUSH1 0x1E DUP2 MSTORE PUSH1 0x20 ADD DUP1 PUSH32 0x53656C6C65722063616E206E6F742073656E6420746865206D6F6E65792E0000 DUP2 MSTORE POP PUSH1 0x20 ADD SWAP2 POP POP PUSH1 0x40 MLOAD DUP1 SWAP2 SUB SWAP1 REVERT JUMPDEST PUSH2 0x1966 JUMP JUMPDEST PUSH1 0x0 PUSH1 0x12 PUSH1 0x5 PUSH2 0x100 EXP DUP2 SLOAD DUP2 PUSH1 0xFF MUL NOT AND SWAP1 DUP4 ISZERO ISZERO MUL OR SWAP1 SSTORE POP PUSH1 0x40 MLOAD PUSH32 0x8C379A000000000000000000000000000000000000000000000000000000000 DUP2 MSTORE PUSH1 0x4 ADD DUP1 DUP1 PUSH1 0x20 ADD DUP3 DUP2 SUB DUP3 MSTORE PUSH1 0x1E DUP2 MSTORE PUSH1 0x20 ADD DUP1 PUSH32 0x42757965722073686F756C642073656E64206D6F6E65792066697273742E0000 DUP2 MSTORE POP PUSH1 0x20 ADD SWAP2 POP POP PUSH1 0x40 MLOAD DUP1 SWAP2 SUB SWAP1 REVERT JUMPDEST POP JUMP JUMPDEST PUSH1 0x0 DUP2 PUSH20 0xFFFFFFFFFFFFFFFFFFFFFFFFFFFFFFFFFFFFFFFF AND BALANCE SWAP1 POP SWAP2 SWAP1 POP JUMP JUMPDEST PUSH1 0x11 DUP1 SLOAD PUSH1 0x1 DUP2 PUSH1 0x1 AND ISZERO PUSH2 0x100 MUL SUB AND PUSH1 0x2 SWAP1 DIV DUP1 PUSH1 0x1F ADD PUSH1 0x20 DUP1 SWAP2 DIV MUL PUSH1 0x20 ADD PUSH1 0x40 MLOAD SWAP1 DUP2 ADD PUSH1 0x40 MSTORE DUP1 SWAP3 SWAP2 SWAP1 DUP2 DUP2 MSTORE PUSH1 0x20 ADD DUP3 DUP1 SLOAD PUSH1 0x1 DUP2 PUSH1 0x1 AND ISZERO PUSH2 0x100 MUL SUB AND PUSH1 0x2 SWAP1 DIV DUP1 ISZERO PUSH2 0x1A20 JUMPI DUP1 PUSH1 0x1F LT PUSH2 0x19F5 JUMPI PUSH2 0x100 DUP1 DUP4 SLOAD DIV MUL DUP4 MSTORE SWAP2 PUSH1 0x20 ADD SWAP2 PUSH2 0x1A20 JUMP JUMPDEST DUP3 ADD SWAP2 SWAP1 PUSH1 0x0 MSTORE PUSH1 0x20 PUSH1 0x0 KECCAK256 SWAP1 JUMPDEST DUP2 SLOAD DUP2 MSTORE SWAP1 PUSH1 0x1 ADD SWAP1 PUSH1 0x20 ADD DUP1 DUP4 GT PUSH2 0x1A03 JUMPI DUP3 SWAP1 SUB PUSH1 0x1F AND DUP3 ADD SWAP2 JUMPDEST POP POP POP POP POP DUP2 JUMP JUMPDEST PUSH1 0x0 TIMESTAMP SWAP1 POP SWAP1 JUMP JUMPDEST PUSH1 0x0 PUSH1 0x3 SLOAD SWAP1 POP SWAP1 JUMP JUMPDEST PUSH1 0x1 ISZERO ISZERO PUSH1 0x12 PUSH1 0x0 SWAP1 SLOAD SWAP1 PUSH2 0x100 EXP SWAP1 DIV PUSH1 0xFF AND ISZERO ISZERO EQ ISZERO PUSH2 0x1C51 JUMPI PUSH1 0xD PUSH1 0x0 SWAP1 SLOAD SWAP1 PUSH2 0x100 EXP SWAP1 DIV PUSH20 0xFFFFFFFFFFFFFFFFFFFFFFFFFFFFFFFFFFFFFFFF AND PUSH20 0xFFFFFFFFFFFFFFFFFFFFFFFFFFFFFFFFFFFFFFFF AND CALLER PUSH20 0xFFFFFFFFFFFFFFFFFFFFFFFFFFFFFFFFFFFFFFFF AND EQ ISZERO PUSH2 0x1B9D JUMPI DUP1 PUSH1 0xB SWAP1 DUP1 MLOAD SWAP1 PUSH1 0x20 ADD SWAP1 PUSH2 0x1AC2 SWAP3 SWAP2 SWAP1 PUSH2 0x38C0 JUMP JUMPDEST POP PUSH1 0x1 PUSH1 0x12 PUSH1 0x1 PUSH2 0x100 EXP DUP2 SLOAD DUP2 PUSH1 0xFF MUL NOT AND SWAP1 DUP4 ISZERO ISZERO MUL OR SWAP1 SSTORE POP PUSH32 0x1F1A12F54FA5F982D713CBB1C65E8C442189195E482A50128EBD9A034E7D31B3 PUSH1 0xB PUSH1 0x40 MLOAD DUP1 DUP1 PUSH1 0x20 ADD DUP3 DUP2 SUB DUP3 MSTORE DUP4 DUP2 DUP2 SLOAD PUSH1 0x1 DUP2 PUSH1 0x1 AND ISZERO PUSH2 0x100 MUL SUB AND PUSH1 0x2 SWAP1 DIV DUP2 MSTORE PUSH1 0x20 ADD SWAP2 POP DUP1 SLOAD PUSH1 0x1 DUP2 PUSH1 0x1 AND ISZERO PUSH2 0x100 MUL SUB AND PUSH1 0x2 SWAP1 DIV DUP1 ISZERO PUSH2 0x1B8A JUMPI DUP1 PUSH1 0x1F LT PUSH2 0x1B5F JUMPI PUSH2 0x100 DUP1 DUP4 SLOAD DIV MUL DUP4 MSTORE SWAP2 PUSH1 0x20 ADD SWAP2 PUSH2 0x1B8A JUMP JUMPDEST DUP3 ADD SWAP2 SWAP1 PUSH1 0x0 MSTORE PUSH1 0x20 PUSH1 0x0 KECCAK256 SWAP1 JUMPDEST DUP2 SLOAD DUP2 MSTORE SWAP1 PUSH1 0x1 ADD SWAP1 PUSH1 0x20 ADD DUP1 DUP4 GT PUSH2 0x1B6D JUMPI DUP3 SWAP1 SUB PUSH1 0x1F AND DUP3 ADD SWAP2 JUMPDEST POP POP SWAP3 POP POP POP PUSH1 0x40 MLOAD DUP1 SWAP2 SUB SWAP1 LOG1 PUSH2 0x1C4C JUMP JUMPDEST PUSH1 0x0 PUSH1 0x12 PUSH1 0x1 PUSH2 0x100 EXP DUP2 SLOAD DUP2 PUSH1 0xFF MUL NOT AND SWAP1 DUP4 ISZERO ISZERO MUL OR SWAP1 SSTORE POP PUSH1 0x40 MLOAD PUSH32 0x8C379A000000000000000000000000000000000000000000000000000000000 DUP2 MSTORE PUSH1 0x4 ADD DUP1 DUP1 PUSH1 0x20 ADD DUP3 DUP2 SUB DUP3 MSTORE PUSH1 0x32 DUP2 MSTORE PUSH1 0x20 ADD DUP1 PUSH32 0x4F6E6C79207468652073656C6C65722063616E2075706C6F6164206861736820 DUP2 MSTORE PUSH1 0x20 ADD PUSH32 0x76616C7565206F662074686520646174612E0000000000000000000000000000 DUP2 MSTORE POP PUSH1 0x40 ADD SWAP2 POP POP PUSH1 0x40 MLOAD DUP1 SWAP2 SUB SWAP1 REVERT JUMPDEST PUSH2 0x1CDA JUMP JUMPDEST PUSH1 0x0 PUSH1 0x12 PUSH1 0x1 PUSH2 0x100 EXP DUP2 SLOAD DUP2 PUSH1 0xFF MUL NOT AND SWAP1 DUP4 ISZERO ISZERO MUL OR SWAP1 SSTORE POP PUSH1 0x40 MLOAD PUSH32 0x8C379A000000000000000000000000000000000000000000000000000000000 DUP2 MSTORE PUSH1 0x4 ADD DUP1 DUP1 PUSH1 0x20 ADD DUP3 DUP2 SUB DUP3 MSTORE PUSH1 0x1C DUP2 MSTORE PUSH1 0x20 ADD DUP1 PUSH32 0x506C65617365207365742074686520616D6F756E742066697273742E00000000 DUP2 MSTORE POP PUSH1 0x20 ADD SWAP2 POP POP PUSH1 0x40 MLOAD DUP1 SWAP2 SUB SWAP1 REVERT JUMPDEST POP JUMP JUMPDEST PUSH1 0x1 ISZERO ISZERO PUSH1 0x12 PUSH1 0x7 SWAP1 SLOAD SWAP1 PUSH2 0x100 EXP SWAP1 DIV PUSH1 0xFF AND ISZERO ISZERO EQ ISZERO PUSH2 0x1F08 JUMPI PUSH1 0xD PUSH1 0x0 SWAP1 SLOAD SWAP1 PUSH2 0x100 EXP SWAP1 DIV PUSH20 0xFFFFFFFFFFFFFFFFFFFFFFFFFFFFFFFFFFFFFFFF AND PUSH20 0xFFFFFFFFFFFFFFFFFFFFFFFFFFFFFFFFFFFFFFFF AND CALLER PUSH20 0xFFFFFFFFFFFFFFFFFFFFFFFFFFFFFFFFFFFFFFFF AND EQ ISZERO DUP1 ISZERO PUSH2 0x1DA5 JUMPI POP PUSH1 0xE PUSH1 0x0 SWAP1 SLOAD SWAP1 PUSH2 0x100 EXP SWAP1 DIV PUSH20 0xFFFFFFFFFFFFFFFFFFFFFFFFFFFFFFFFFFFFFFFF AND PUSH20 0xFFFFFFFFFFFFFFFFFFFFFFFFFFFFFFFFFFFFFFFF AND CALLER PUSH20 0xFFFFFFFFFFFFFFFFFFFFFFFFFFFFFFFFFFFFFFFF AND EQ ISZERO JUMPDEST ISZERO PUSH2 0x1E54 JUMPI CALLER PUSH1 0xF PUSH1 0x0 PUSH2 0x100 EXP DUP2 SLOAD DUP2 PUSH20 0xFFFFFFFFFFFFFFFFFFFFFFFFFFFFFFFFFFFFFFFF MUL NOT AND SWAP1 DUP4 PUSH20 0xFFFFFFFFFFFFFFFFFFFFFFFFFFFFFFFFFFFFFFFF AND MUL OR SWAP1 SSTORE POP DUP1 PUSH1 0x12 PUSH1 0x8 PUSH2 0x100 EXP DUP2 SLOAD DUP2 PUSH1 0xFF MUL NOT AND SWAP1 DUP4 ISZERO ISZERO MUL OR SWAP1 SSTORE POP PUSH32 0x2B989604C7135AE8D99537911508A3658C5158BCEB6193DD718775AD7A7DB9BB PUSH1 0x12 PUSH1 0x8 SWAP1 SLOAD SWAP1 PUSH2 0x100 EXP SWAP1 DIV PUSH1 0xFF AND PUSH1 0x40 MLOAD DUP1 DUP3 ISZERO ISZERO ISZERO ISZERO DUP2 MSTORE PUSH1 0x20 ADD SWAP2 POP POP PUSH1 0x40 MLOAD DUP1 SWAP2 SUB SWAP1 LOG1 PUSH2 0x1F03 JUMP JUMPDEST PUSH1 0x0 PUSH1 0x12 PUSH1 0x8 PUSH2 0x100 EXP DUP2 SLOAD DUP2 PUSH1 0xFF MUL NOT AND SWAP1 DUP4 ISZERO ISZERO MUL OR SWAP1 SSTORE POP PUSH1 0x40 MLOAD PUSH32 0x8C379A000000000000000000000000000000000000000000000000000000000 DUP2 MSTORE PUSH1 0x4 ADD DUP1 DUP1 PUSH1 0x20 ADD DUP3 DUP2 SUB DUP3 MSTORE PUSH1 0x2B DUP2 MSTORE PUSH1 0x20 ADD DUP1 PUSH32 0x4F6E6C792074686520746869726420706172742063616E207665727469667920 DUP2 MSTORE PUSH1 0x20 ADD PUSH32 0x746865207265706F72742E000000000000000000000000000000000000000000 DUP2 MSTORE POP PUSH1 0x40 ADD SWAP2 POP POP PUSH1 0x40 MLOAD DUP1 SWAP2 SUB SWAP1 REVERT JUMPDEST PUSH2 0x1FB7 JUMP JUMPDEST PUSH1 0x0 PUSH1 0x12 PUSH1 0x8 PUSH2 0x100 EXP DUP2 SLOAD DUP2 PUSH1 0xFF MUL NOT AND SWAP1 DUP4 ISZERO ISZERO MUL OR SWAP1 SSTORE POP PUSH1 0x40 MLOAD PUSH32 0x8C379A000000000000000000000000000000000000000000000000000000000 DUP2 MSTORE PUSH1 0x4 ADD DUP1 DUP1 PUSH1 0x20 ADD DUP3 DUP2 SUB DUP3 MSTORE PUSH1 0x26 DUP2 MSTORE PUSH1 0x20 ADD DUP1 PUSH32 0x536D61727420636F6E747261637420646964206E6F7420676574207468652072 DUP2 MSTORE PUSH1 0x20 ADD PUSH32 0x65706F72742E0000000000000000000000000000000000000000000000000000 DUP2 MSTORE POP PUSH1 0x40 ADD SWAP2 POP POP PUSH1 0x40 MLOAD DUP1 SWAP2 SUB SWAP1 REVERT JUMPDEST POP JUMP JUMPDEST PUSH1 0x0 PUSH1 0x1 ISZERO ISZERO PUSH1 0x12 PUSH1 0x2 SWAP1 SLOAD SWAP1 PUSH2 0x100 EXP SWAP1 DIV PUSH1 0xFF AND ISZERO ISZERO EQ ISZERO PUSH2 0x2261 JUMPI PUSH1 0xD PUSH1 0x0 SWAP1 SLOAD SWAP1 PUSH2 0x100 EXP SWAP1 DIV PUSH20 0xFFFFFFFFFFFFFFFFFFFFFFFFFFFFFFFFFFFFFFFF AND PUSH20 0xFFFFFFFFFFFFFFFFFFFFFFFFFFFFFFFFFFFFFFFF AND CALLER PUSH20 0xFFFFFFFFFFFFFFFFFFFFFFFFFFFFFFFFFFFFFFFF AND EQ ISZERO PUSH2 0x21B2 JUMPI PUSH1 0x1 SLOAD CALLVALUE EQ ISZERO PUSH2 0x2103 JUMPI PUSH1 0x1 PUSH1 0x12 PUSH1 0x3 PUSH2 0x100 EXP DUP2 SLOAD DUP2 PUSH1 0xFF MUL NOT AND SWAP1 DUP4 ISZERO ISZERO MUL OR SWAP1 SSTORE POP TIMESTAMP PUSH1 0x2 DUP2 SWAP1 SSTORE POP PUSH32 0xCDDB238A7100A42757B9D0A123EFB6646208D2A8D46763F46DF4056F6665478C PUSH1 0x1 SLOAD ADDRESS PUSH1 0x40 MLOAD DUP1 DUP4 DUP2 MSTORE PUSH1 0x20 ADD DUP3 PUSH20 0xFFFFFFFFFFFFFFFFFFFFFFFFFFFFFFFFFFFFFFFF AND PUSH20 0xFFFFFFFFFFFFFFFFFFFFFFFFFFFFFFFFFFFFFFFF AND DUP2 MSTORE PUSH1 0x20 ADD SWAP3 POP POP POP PUSH1 0x40 MLOAD DUP1 SWAP2 SUB SWAP1 LOG1 ADDRESS PUSH20 0xFFFFFFFFFFFFFFFFFFFFFFFFFFFFFFFFFFFFFFFF AND PUSH2 0x8FC CALLVALUE SWAP1 DUP2 ISZERO MUL SWAP1 PUSH1 0x40 MLOAD PUSH1 0x0 PUSH1 0x40 MLOAD DUP1 DUP4 SUB DUP2 DUP6 DUP9 DUP9 CALL SWAP4 POP POP POP POP SWAP1 POP PUSH2 0x2310 JUMP JUMPDEST PUSH1 0x0 PUSH1 0x12 PUSH1 0x3 PUSH2 0x100 EXP DUP2 SLOAD DUP2 PUSH1 0xFF MUL NOT AND SWAP1 DUP4 ISZERO ISZERO MUL OR SWAP1 SSTORE POP PUSH1 0x40 MLOAD PUSH32 0x8C379A000000000000000000000000000000000000000000000000000000000 DUP2 MSTORE PUSH1 0x4 ADD DUP1 DUP1 PUSH1 0x20 ADD DUP3 DUP2 SUB DUP3 MSTORE PUSH1 0x23 DUP2 MSTORE PUSH1 0x20 ADD DUP1 PUSH32 0x5468652076616C7565206F662074686520646573706F7369742069732077726F DUP2 MSTORE PUSH1 0x20 ADD PUSH32 0x6E672E0000000000000000000000000000000000000000000000000000000000 DUP2 MSTORE POP PUSH1 0x40 ADD SWAP2 POP POP PUSH1 0x40 MLOAD DUP1 SWAP2 SUB SWAP1 REVERT JUMPDEST PUSH1 0x0 PUSH1 0x12 PUSH1 0x3 PUSH2 0x100 EXP DUP2 SLOAD DUP2 PUSH1 0xFF MUL NOT AND SWAP1 DUP4 ISZERO ISZERO MUL OR SWAP1 SSTORE POP PUSH1 0x40 MLOAD PUSH32 0x8C379A000000000000000000000000000000000000000000000000000000000 DUP2 MSTORE PUSH1 0x4 ADD DUP1 DUP1 PUSH1 0x20 ADD DUP3 DUP2 SUB DUP3 MSTORE PUSH1 0x26 DUP2 MSTORE PUSH1 0x20 ADD DUP1 PUSH32 0x4F6E6C79207468652073656C6C65722063616E2073656E642074686520646573 DUP2 MSTORE PUSH1 0x20 ADD PUSH32 0x706F7369742E0000000000000000000000000000000000000000000000000000 DUP2 MSTORE POP PUSH1 0x40 ADD SWAP2 POP POP PUSH1 0x40 MLOAD DUP1 SWAP2 SUB SWAP1 REVERT JUMPDEST PUSH1 0x0 PUSH1 0x12 PUSH1 0x3 PUSH2 0x100 EXP DUP2 SLOAD DUP2 PUSH1 0xFF MUL NOT AND SWAP1 DUP4 ISZERO ISZERO MUL OR SWAP1 SSTORE POP PUSH1 0x40 MLOAD PUSH32 0x8C379A000000000000000000000000000000000000000000000000000000000 DUP2 MSTORE PUSH1 0x4 ADD DUP1 DUP1 PUSH1 0x20 ADD DUP3 DUP2 SUB DUP3 MSTORE PUSH1 0x2E DUP2 MSTORE PUSH1 0x20 ADD DUP1 PUSH32 0x506C656173652075706C6F61642074686520686173682076616C7565206F6620 DUP2 MSTORE PUSH1 0x20 ADD PUSH32 0x746865206B65792066697273742E000000000000000000000000000000000000 DUP2 MSTORE POP PUSH1 0x40 ADD SWAP2 POP POP PUSH1 0x40 MLOAD DUP1 SWAP2 SUB SWAP1 REVERT JUMPDEST SWAP1 JUMP JUMPDEST PUSH1 0x60 PUSH1 0x80 PUSH1 0x40 MLOAD SWAP1 DUP2 ADD PUSH1 0x40 MSTORE DUP1 PUSH1 0x4E DUP2 MSTORE PUSH1 0x20 ADD PUSH32 0x547970652D313A2057726F6E67206B6579207C7C20547970652D323A204D6573 DUP2 MSTORE PUSH1 0x20 ADD PUSH32 0x73792077617465726D61726B207C7C20547970652D333A2054776F206F72206D DUP2 MSTORE PUSH1 0x20 ADD PUSH32 0x6F72652077617465726D61726B73000000000000000000000000000000000000 DUP2 MSTORE POP SWAP1 POP SWAP1 JUMP JUMPDEST PUSH1 0x60 PUSH1 0xB DUP1 SLOAD PUSH1 0x1 DUP2 PUSH1 0x1 AND ISZERO PUSH2 0x100 MUL SUB AND PUSH1 0x2 SWAP1 DIV DUP1 PUSH1 0x1F ADD PUSH1 0x20 DUP1 SWAP2 DIV MUL PUSH1 0x20 ADD PUSH1 0x40 MLOAD SWAP1 DUP2 ADD PUSH1 0x40 MSTORE DUP1 SWAP3 SWAP2 SWAP1 DUP2 DUP2 MSTORE PUSH1 0x20 ADD DUP3 DUP1 SLOAD PUSH1 0x1 DUP2 PUSH1 0x1 AND ISZERO PUSH2 0x100 MUL SUB AND PUSH1 0x2 SWAP1 DIV DUP1 ISZERO PUSH2 0x2435 JUMPI DUP1 PUSH1 0x1F LT PUSH2 0x240A JUMPI PUSH2 0x100 DUP1 DUP4 SLOAD DIV MUL DUP4 MSTORE SWAP2 PUSH1 0x20 ADD SWAP2 PUSH2 0x2435 JUMP JUMPDEST DUP3 ADD SWAP2 SWAP1 PUSH1 0x0 MSTORE PUSH1 0x20 PUSH1 0x0 KECCAK256 SWAP1 JUMPDEST DUP2 SLOAD DUP2 MSTORE SWAP1 PUSH1 0x1 ADD SWAP1 PUSH1 0x20 ADD DUP1 DUP4 GT PUSH2 0x2418 JUMPI DUP3 SWAP1 SUB PUSH1 0x1F AND DUP3 ADD SWAP2 JUMPDEST POP POP POP POP POP SWAP1 POP SWAP1 JUMP JUMPDEST PUSH1 0xF PUSH1 0x0 SWAP1 SLOAD SWAP1 PUSH2 0x100 EXP SWAP1 DIV PUSH20 0xFFFFFFFFFFFFFFFFFFFFFFFFFFFFFFFFFFFFFFFF AND DUP2 JUMP JUMPDEST PUSH1 0x1 ISZERO ISZERO PUSH1 0x12 PUSH1 0x4 SWAP1 SLOAD SWAP1 PUSH2 0x100 EXP SWAP1 DIV PUSH1 0xFF AND ISZERO ISZERO EQ ISZERO PUSH2 0x280B JUMPI PUSH1 0x1 ISZERO ISZERO PUSH1 0x12 PUSH1 0x5 SWAP1 SLOAD SWAP1 PUSH2 0x100 EXP SWAP1 DIV PUSH1 0xFF AND ISZERO ISZERO EQ ISZERO PUSH2 0x2757 JUMPI PUSH1 0xD PUSH1 0x0 SWAP1 SLOAD SWAP1 PUSH2 0x100 EXP SWAP1 DIV PUSH20 0xFFFFFFFFFFFFFFFFFFFFFFFFFFFFFFFFFFFFFFFF AND PUSH20 0xFFFFFFFFFFFFFFFFFFFFFFFFFFFFFFFFFFFFFFFF AND CALLER PUSH20 0xFFFFFFFFFFFFFFFFFFFFFFFFFFFFFFFFFFFFFFFF AND EQ ISZERO PUSH2 0x26A3 JUMPI PUSH1 0x6 SLOAD PUSH1 0x3 SLOAD ADD TIMESTAMP GT ISZERO ISZERO PUSH2 0x2615 JUMPI DUP1 PUSH1 0x8 SWAP1 DUP1 MLOAD SWAP1 PUSH1 0x20 ADD SWAP1 PUSH2 0x2518 SWAP3 SWAP2 SWAP1 PUSH2 0x38C0 JUMP JUMPDEST POP PUSH1 0x1 PUSH1 0x12 PUSH1 0x6 PUSH2 0x100 EXP DUP2 SLOAD DUP2 PUSH1 0xFF MUL NOT AND SWAP1 DUP4 ISZERO ISZERO MUL OR SWAP1 SSTORE POP PUSH1 0x1 PUSH1 0x12 PUSH1 0xB PUSH2 0x100 EXP DUP2 SLOAD DUP2 PUSH1 0xFF MUL NOT AND SWAP1 DUP4 ISZERO ISZERO MUL OR SWAP1 SSTORE POP TIMESTAMP PUSH1 0x4 DUP2 SWAP1 SSTORE POP PUSH32 0x85E58470E9A7FA0ADC1459C125DCD12E68BA1064055DEBF1C695723A6CBFC514 PUSH1 0x8 PUSH1 0x40 MLOAD DUP1 DUP1 PUSH1 0x20 ADD DUP3 DUP2 SUB DUP3 MSTORE DUP4 DUP2 DUP2 SLOAD PUSH1 0x1 DUP2 PUSH1 0x1 AND ISZERO PUSH2 0x100 MUL SUB AND PUSH1 0x2 SWAP1 DIV DUP2 MSTORE PUSH1 0x20 ADD SWAP2 POP DUP1 SLOAD PUSH1 0x1 DUP2 PUSH1 0x1 AND ISZERO PUSH2 0x100 MUL SUB AND PUSH1 0x2 SWAP1 DIV DUP1 ISZERO PUSH2 0x2602 JUMPI DUP1 PUSH1 0x1F LT PUSH2 0x25D7 JUMPI PUSH2 0x100 DUP1 DUP4 SLOAD DIV MUL DUP4 MSTORE SWAP2 PUSH1 0x20 ADD SWAP2 PUSH2 0x2602 JUMP JUMPDEST DUP3 ADD SWAP2 SWAP1 PUSH1 0x0 MSTORE PUSH1 0x20 PUSH1 0x0 KECCAK256 SWAP1 JUMPDEST DUP2 SLOAD DUP2 MSTORE SWAP1 PUSH1 0x1 ADD SWAP1 PUSH1 0x20 ADD DUP1 DUP4 GT PUSH2 0x25E5 JUMPI DUP3 SWAP1 SUB PUSH1 0x1F AND DUP3 ADD SWAP2 JUMPDEST POP POP SWAP3 POP POP POP PUSH1 0x40 MLOAD DUP1 SWAP2 SUB SWAP1 LOG1 PUSH2 0x269E JUMP JUMPDEST PUSH1 0x0 PUSH1 0x12 PUSH1 0xB PUSH2 0x100 EXP DUP2 SLOAD DUP2 PUSH1 0xFF MUL NOT AND SWAP1 DUP4 ISZERO ISZERO MUL OR SWAP1 SSTORE POP PUSH1 0x40 MLOAD PUSH32 0x8C379A000000000000000000000000000000000000000000000000000000000 DUP2 MSTORE PUSH1 0x4 ADD DUP1 DUP1 PUSH1 0x20 ADD DUP3 DUP2 SUB DUP3 MSTORE PUSH1 0x1E DUP2 MSTORE PUSH1 0x20 ADD DUP1 PUSH32 0x54696D652069732072756E206F757420287365636F6E642073746570292E0000 DUP2 MSTORE POP PUSH1 0x20 ADD SWAP2 POP POP PUSH1 0x40 MLOAD DUP1 SWAP2 SUB SWAP1 REVERT JUMPDEST PUSH2 0x2752 JUMP JUMPDEST PUSH1 0x0 PUSH1 0x12 PUSH1 0x6 PUSH2 0x100 EXP DUP2 SLOAD DUP2 PUSH1 0xFF MUL NOT AND SWAP1 DUP4 ISZERO ISZERO MUL OR SWAP1 SSTORE POP PUSH1 0x40 MLOAD PUSH32 0x8C379A000000000000000000000000000000000000000000000000000000000 DUP2 MSTORE PUSH1 0x4 ADD DUP1 DUP1 PUSH1 0x20 ADD DUP3 DUP2 SUB DUP3 MSTORE PUSH1 0x23 DUP2 MSTORE PUSH1 0x20 ADD DUP1 PUSH32 0x4F6E6C792073656C6C65722063616E2073656E6420656E63727970746564206B DUP2 MSTORE PUSH1 0x20 ADD PUSH32 0x65792E0000000000000000000000000000000000000000000000000000000000 DUP2 MSTORE POP PUSH1 0x40 ADD SWAP2 POP POP PUSH1 0x40 MLOAD DUP1 SWAP2 SUB SWAP1 REVERT JUMPDEST PUSH2 0x2806 JUMP JUMPDEST PUSH1 0x0 PUSH1 0x12 PUSH1 0x6 PUSH2 0x100 EXP DUP2 SLOAD DUP2 PUSH1 0xFF MUL NOT AND SWAP1 DUP4 ISZERO ISZERO MUL OR SWAP1 SSTORE POP PUSH1 0x40 MLOAD PUSH32 0x8C379A000000000000000000000000000000000000000000000000000000000 DUP2 MSTORE PUSH1 0x4 ADD DUP1 DUP1 PUSH1 0x20 ADD DUP3 DUP2 SUB DUP3 MSTORE PUSH1 0x2A DUP2 MSTORE PUSH1 0x20 ADD DUP1 PUSH32 0x506C656173652061736B20627579657220746F2073656E64207075626C696320 DUP2 MSTORE PUSH1 0x20 ADD PUSH32 0x6B65792066697273742E00000000000000000000000000000000000000000000 DUP2 MSTORE POP PUSH1 0x40 ADD SWAP2 POP POP PUSH1 0x40 MLOAD DUP1 SWAP2 SUB SWAP1 REVERT JUMPDEST PUSH2 0x28BA JUMP JUMPDEST PUSH1 0x0 PUSH1 0x12 PUSH1 0x6 PUSH2 0x100 EXP DUP2 SLOAD DUP2 PUSH1 0xFF MUL NOT AND SWAP1 DUP4 ISZERO ISZERO MUL OR SWAP1 SSTORE POP PUSH1 0x40 MLOAD PUSH32 0x8C379A000000000000000000000000000000000000000000000000000000000 DUP2 MSTORE PUSH1 0x4 ADD DUP1 DUP1 PUSH1 0x20 ADD DUP3 DUP2 SUB DUP3 MSTORE PUSH1 0x25 DUP2 MSTORE PUSH1 0x20 ADD DUP1 PUSH32 0x506C656173652061736B20627579657220746F2073656E64206D6F6E65792066 DUP2 MSTORE PUSH1 0x20 ADD PUSH32 0x697273742E000000000000000000000000000000000000000000000000000000 DUP2 MSTORE POP PUSH1 0x40 ADD SWAP2 POP POP PUSH1 0x40 MLOAD DUP1 SWAP2 SUB SWAP1 REVERT JUMPDEST POP JUMP JUMPDEST PUSH1 0x60 DUP1 PUSH1 0x9 PUSH1 0xA DUP2 DUP1 SLOAD PUSH1 0x1 DUP2 PUSH1 0x1 AND ISZERO PUSH2 0x100 MUL SUB AND PUSH1 0x2 SWAP1 DIV DUP1 PUSH1 0x1F ADD PUSH1 0x20 DUP1 SWAP2 DIV MUL PUSH1 0x20 ADD PUSH1 0x40 MLOAD SWAP1 DUP2 ADD PUSH1 0x40 MSTORE DUP1 SWAP3 SWAP2 SWAP1 DUP2 DUP2 MSTORE PUSH1 0x20 ADD DUP3 DUP1 SLOAD PUSH1 0x1 DUP2 PUSH1 0x1 AND ISZERO PUSH2 0x100 MUL SUB AND PUSH1 0x2 SWAP1 DIV DUP1 ISZERO PUSH2 0x2959 JUMPI DUP1 PUSH1 0x1F LT PUSH2 0x292E JUMPI PUSH2 0x100 DUP1 DUP4 SLOAD DIV MUL DUP4 MSTORE SWAP2 PUSH1 0x20 ADD SWAP2 PUSH2 0x2959 JUMP JUMPDEST DUP3 ADD SWAP2 SWAP1 PUSH1 0x0 MSTORE PUSH1 0x20 PUSH1 0x0 KECCAK256 SWAP1 JUMPDEST DUP2 SLOAD DUP2 MSTORE SWAP1 PUSH1 0x1 ADD SWAP1 PUSH1 0x20 ADD DUP1 DUP4 GT PUSH2 0x293C JUMPI DUP3 SWAP1 SUB PUSH1 0x1F AND DUP3 ADD SWAP2 JUMPDEST POP POP POP POP POP SWAP2 POP DUP1 DUP1 SLOAD PUSH1 0x1 DUP2 PUSH1 0x1 AND ISZERO PUSH2 0x100 MUL SUB AND PUSH1 0x2 SWAP1 DIV DUP1 PUSH1 0x1F ADD PUSH1 0x20 DUP1 SWAP2 DIV MUL PUSH1 0x20 ADD PUSH1 0x40 MLOAD SWAP1 DUP2 ADD PUSH1 0x40 MSTORE DUP1 SWAP3 SWAP2 SWAP1 DUP2 DUP2 MSTORE PUSH1 0x20 ADD DUP3 DUP1 SLOAD PUSH1 0x1 DUP2 PUSH1 0x1 AND ISZERO PUSH2 0x100 MUL SUB AND PUSH1 0x2 SWAP1 DIV DUP1 ISZERO PUSH2 0x29F5 JUMPI DUP1 PUSH1 0x1F LT PUSH2 0x29CA JUMPI PUSH2 0x100 DUP1 DUP4 SLOAD DIV MUL DUP4 MSTORE SWAP2 PUSH1 0x20 ADD SWAP2 PUSH2 0x29F5 JUMP JUMPDEST DUP3 ADD SWAP2 SWAP1 PUSH1 0x0 MSTORE PUSH1 0x20 PUSH1 0x0 KECCAK256 SWAP1 JUMPDEST DUP2 SLOAD DUP2 MSTORE SWAP1 PUSH1 0x1 ADD SWAP1 PUSH1 0x20 ADD DUP1 DUP4 GT PUSH2 0x29D8 JUMPI DUP3 SWAP1 SUB PUSH1 0x1F AND DUP3 ADD SWAP2 JUMPDEST POP POP POP POP POP SWAP1 POP SWAP2 POP SWAP2 POP SWAP1 SWAP2 JUMP JUMPDEST PUSH1 0xD PUSH1 0x0 SWAP1 SLOAD SWAP1 PUSH2 0x100 EXP SWAP1 DIV PUSH20 0xFFFFFFFFFFFFFFFFFFFFFFFFFFFFFFFFFFFFFFFF AND PUSH20 0xFFFFFFFFFFFFFFFFFFFFFFFFFFFFFFFFFFFFFFFF AND CALLER PUSH20 0xFFFFFFFFFFFFFFFFFFFFFFFFFFFFFFFFFFFFFFFF AND EQ ISZERO PUSH2 0x2AC6 JUMPI DUP1 PUSH1 0x0 DUP2 SWAP1 SSTORE POP PUSH1 0x0 SLOAD PUSH1 0x2 MUL PUSH1 0x1 DUP2 SWAP1 SSTORE POP PUSH1 0x1 PUSH1 0x12 PUSH1 0x0 PUSH2 0x100 EXP DUP2 SLOAD DUP2 PUSH1 0xFF MUL NOT AND SWAP1 DUP4 ISZERO ISZERO MUL OR SWAP1 SSTORE POP PUSH32 0x6B95D8CC5F12015398E91290BD8FA8556295A0B36166E851E9D08D733F0AFA87 PUSH1 0x0 SLOAD PUSH1 0x40 MLOAD DUP1 DUP3 DUP2 MSTORE PUSH1 0x20 ADD SWAP2 POP POP PUSH1 0x40 MLOAD DUP1 SWAP2 SUB SWAP1 LOG1 PUSH2 0x2B4F JUMP JUMPDEST PUSH1 0x0 PUSH1 0x12 PUSH1 0x0 PUSH2 0x100 EXP DUP2 SLOAD DUP2 PUSH1 0xFF MUL NOT AND SWAP1 DUP4 ISZERO ISZERO MUL OR SWAP1 SSTORE POP PUSH1 0x40 MLOAD PUSH32 0x8C379A000000000000000000000000000000000000000000000000000000000 DUP2 MSTORE PUSH1 0x4 ADD DUP1 DUP1 PUSH1 0x20 ADD DUP3 DUP2 SUB DUP3 MSTORE PUSH1 0xC DUP2 MSTORE PUSH1 0x20 ADD DUP1 PUSH32 0x57726F6E6720696E7075742E0000000000000000000000000000000000000000 DUP2 MSTORE POP PUSH1 0x20 ADD SWAP2 POP POP PUSH1 0x40 MLOAD DUP1 SWAP2 SUB SWAP1 REVERT JUMPDEST POP JUMP JUMPDEST PUSH1 0x0 DUP1 SLOAD SWAP1 POP SWAP1 JUMP JUMPDEST PUSH1 0xE PUSH1 0x0 SWAP1 SLOAD SWAP1 PUSH2 0x100 EXP SWAP1 DIV PUSH20 0xFFFFFFFFFFFFFFFFFFFFFFFFFFFFFFFFFFFFFFFF AND DUP2 JUMP JUMPDEST PUSH1 0x1 ISZERO ISZERO PUSH1 0x12 PUSH1 0x6 SWAP1 SLOAD SWAP1 PUSH2 0x100 EXP SWAP1 DIV PUSH1 0xFF AND ISZERO ISZERO EQ ISZERO PUSH2 0x2EF2 JUMPI PUSH1 0xE PUSH1 0x0 SWAP1 SLOAD SWAP1 PUSH2 0x100 EXP SWAP1 DIV PUSH20 0xFFFFFFFFFFFFFFFFFFFFFFFFFFFFFFFFFFFFFFFF AND PUSH20 0xFFFFFFFFFFFFFFFFFFFFFFFFFFFFFFFFFFFFFFFF AND CALLER PUSH20 0xFFFFFFFFFFFFFFFFFFFFFFFFFFFFFFFFFFFFFFFF AND EQ ISZERO PUSH2 0x2E3E JUMPI PUSH1 0x5 SLOAD PUSH1 0x4 SLOAD ADD TIMESTAMP GT ISZERO ISZERO PUSH2 0x2DB0 JUMPI DUP2 PUSH1 0x9 SWAP1 DUP1 MLOAD SWAP1 PUSH1 0x20 ADD SWAP1 PUSH2 0x2C18 SWAP3 SWAP2 SWAP1 PUSH2 0x38C0 JUMP JUMPDEST POP DUP1 PUSH1 0xA SWAP1 DUP1 MLOAD SWAP1 PUSH1 0x20 ADD SWAP1 PUSH2 0x2C2F SWAP3 SWAP2 SWAP1 PUSH2 0x38C0 JUMP JUMPDEST POP PUSH1 0x1 PUSH1 0x12 PUSH1 0x7 PUSH2 0x100 EXP DUP2 SLOAD DUP2 PUSH1 0xFF MUL NOT AND SWAP1 DUP4 ISZERO ISZERO MUL OR SWAP1 SSTORE POP PUSH1 0x1 PUSH1 0x12 PUSH1 0xC PUSH2 0x100 EXP DUP2 SLOAD DUP2 PUSH1 0xFF MUL NOT AND SWAP1 DUP4 ISZERO ISZERO MUL OR SWAP1 SSTORE POP PUSH32 0xFB67E4A54C34643315CC0A917EF55D278C4EB965337BCCEFDD1572118D7C4740 PUSH1 0x9 PUSH1 0xA PUSH1 0x40 MLOAD DUP1 DUP1 PUSH1 0x20 ADD DUP1 PUSH1 0x20 ADD DUP4 DUP2 SUB DUP4 MSTORE DUP6 DUP2 DUP2 SLOAD PUSH1 0x1 DUP2 PUSH1 0x1 AND ISZERO PUSH2 0x100 MUL SUB AND PUSH1 0x2 SWAP1 DIV DUP2 MSTORE PUSH1 0x20 ADD SWAP2 POP DUP1 SLOAD PUSH1 0x1 DUP2 PUSH1 0x1 AND ISZERO PUSH2 0x100 MUL SUB AND PUSH1 0x2 SWAP1 DIV DUP1 ISZERO PUSH2 0x2D18 JUMPI DUP1 PUSH1 0x1F LT PUSH2 0x2CED JUMPI PUSH2 0x100 DUP1 DUP4 SLOAD DIV MUL DUP4 MSTORE SWAP2 PUSH1 0x20 ADD SWAP2 PUSH2 0x2D18 JUMP JUMPDEST DUP3 ADD SWAP2 SWAP1 PUSH1 0x0 MSTORE PUSH1 0x20 PUSH1 0x0 KECCAK256 SWAP1 JUMPDEST DUP2 SLOAD DUP2 MSTORE SWAP1 PUSH1 0x1 ADD SWAP1 PUSH1 0x20 ADD DUP1 DUP4 GT PUSH2 0x2CFB JUMPI DUP3 SWAP1 SUB PUSH1 0x1F AND DUP3 ADD SWAP2 JUMPDEST POP POP DUP4 DUP2 SUB DUP3 MSTORE DUP5 DUP2 DUP2 SLOAD PUSH1 0x1 DUP2 PUSH1 0x1 AND ISZERO PUSH2 0x100 MUL SUB AND PUSH1 0x2 SWAP1 DIV DUP2 MSTORE PUSH1 0x20 ADD SWAP2 POP DUP1 SLOAD PUSH1 0x1 DUP2 PUSH1 0x1 AND ISZERO PUSH2 0x100 MUL SUB AND PUSH1 0x2 SWAP1 DIV DUP1 ISZERO PUSH2 0x2D9B JUMPI DUP1 PUSH1 0x1F LT PUSH2 0x2D70 JUMPI PUSH2 0x100 DUP1 DUP4 SLOAD DIV MUL DUP4 MSTORE SWAP2 PUSH1 0x20 ADD SWAP2 PUSH2 0x2D9B JUMP JUMPDEST DUP3 ADD SWAP2 SWAP1 PUSH1 0x0 MSTORE PUSH1 0x20 PUSH1 0x0 KECCAK256 SWAP1 JUMPDEST DUP2 SLOAD DUP2 MSTORE SWAP1 PUSH1 0x1 ADD SWAP1 PUSH1 0x20 ADD DUP1 DUP4 GT PUSH2 0x2D7E JUMPI DUP3 SWAP1 SUB PUSH1 0x1F AND DUP3 ADD SWAP2 JUMPDEST POP POP SWAP5 POP POP POP POP POP PUSH1 0x40 MLOAD DUP1 SWAP2 SUB SWAP1 LOG1 PUSH2 0x2E39 JUMP JUMPDEST PUSH1 0x0 PUSH1 0x12 PUSH1 0xC PUSH2 0x100 EXP DUP2 SLOAD DUP2 PUSH1 0xFF MUL NOT AND SWAP1 DUP4 ISZERO ISZERO MUL OR SWAP1 SSTORE POP PUSH1 0x40 MLOAD PUSH32 0x8C379A000000000000000000000000000000000000000000000000000000000 DUP2 MSTORE PUSH1 0x4 ADD DUP1 DUP1 PUSH1 0x20 ADD DUP3 DUP2 SUB DUP3 MSTORE PUSH1 0x1D DUP2 MSTORE PUSH1 0x20 ADD DUP1 PUSH32 0x54696D652069732072756E206F7574202874686972642073746570292E000000 DUP2 MSTORE POP PUSH1 0x20 ADD SWAP2 POP POP PUSH1 0x40 MLOAD DUP1 SWAP2 SUB SWAP1 REVERT JUMPDEST PUSH2 0x2EED JUMP JUMPDEST PUSH1 0x0 PUSH1 0x12 PUSH1 0x7 PUSH2 0x100 EXP DUP2 SLOAD DUP2 PUSH1 0xFF MUL NOT AND SWAP1 DUP4 ISZERO ISZERO MUL OR SWAP1 SSTORE POP PUSH1 0x40 MLOAD PUSH32 0x8C379A000000000000000000000000000000000000000000000000000000000 DUP2 MSTORE PUSH1 0x4 ADD DUP1 DUP1 PUSH1 0x20 ADD DUP3 DUP2 SUB DUP3 MSTORE PUSH1 0x23 DUP2 MSTORE PUSH1 0x20 ADD DUP1 PUSH32 0x4F6E6C79207468652062757965722063616E2073656E6420746865207265706F DUP2 MSTORE PUSH1 0x20 ADD PUSH32 0x72742E0000000000000000000000000000000000000000000000000000000000 DUP2 MSTORE POP PUSH1 0x40 ADD SWAP2 POP POP PUSH1 0x40 MLOAD DUP1 SWAP2 SUB SWAP1 REVERT JUMPDEST PUSH2 0x2FA1 JUMP JUMPDEST PUSH1 0x0 PUSH1 0x12 PUSH1 0x7 PUSH2 0x100 EXP DUP2 SLOAD DUP2 PUSH1 0xFF MUL NOT AND SWAP1 DUP4 ISZERO ISZERO MUL OR SWAP1 SSTORE POP PUSH1 0x40 MLOAD PUSH32 0x8C379A000000000000000000000000000000000000000000000000000000000 DUP2 MSTORE PUSH1 0x4 ADD DUP1 DUP1 PUSH1 0x20 ADD DUP3 DUP2 SUB DUP3 MSTORE PUSH1 0x2E DUP2 MSTORE PUSH1 0x20 ADD DUP1 PUSH32 0x506C616573652061736B2073656C6C657220746F2073656E6420656E63727970 DUP2 MSTORE PUSH1 0x20 ADD PUSH32 0x746564206B65792066697273742E000000000000000000000000000000000000 DUP2 MSTORE POP PUSH1 0x40 ADD SWAP2 POP POP PUSH1 0x40 MLOAD DUP1 SWAP2 SUB SWAP1 REVERT JUMPDEST POP POP JUMP JUMPDEST PUSH1 0xD PUSH1 0x0 SWAP1 SLOAD SWAP1 PUSH2 0x100 EXP SWAP1 DIV PUSH20 0xFFFFFFFFFFFFFFFFFFFFFFFFFFFFFFFFFFFFFFFF AND DUP2 JUMP JUMPDEST PUSH1 0x60 PUSH1 0x7 DUP1 SLOAD PUSH1 0x1 DUP2 PUSH1 0x1 AND ISZERO PUSH2 0x100 MUL SUB AND PUSH1 0x2 SWAP1 DIV DUP1 PUSH1 0x1F ADD PUSH1 0x20 DUP1 SWAP2 DIV MUL PUSH1 0x20 ADD PUSH1 0x40 MLOAD SWAP1 DUP2 ADD PUSH1 0x40 MSTORE DUP1 SWAP3 SWAP2 SWAP1 DUP2 DUP2 MSTORE PUSH1 0x20 ADD DUP3 DUP1 SLOAD PUSH1 0x1 DUP2 PUSH1 0x1 AND ISZERO PUSH2 0x100 MUL SUB AND PUSH1 0x2 SWAP1 DIV DUP1 ISZERO PUSH2 0x3063 JUMPI DUP1 PUSH1 0x1F LT PUSH2 0x3038 JUMPI PUSH2 0x100 DUP1 DUP4 SLOAD DIV MUL DUP4 MSTORE SWAP2 PUSH1 0x20 ADD SWAP2 PUSH2 0x3063 JUMP JUMPDEST DUP3 ADD SWAP2 SWAP1 PUSH1 0x0 MSTORE PUSH1 0x20 PUSH1 0x0 KECCAK256 SWAP1 JUMPDEST DUP2 SLOAD DUP2 MSTORE SWAP1 PUSH1 0x1 ADD SWAP1 PUSH1 0x20 ADD DUP1 DUP4 GT PUSH2 0x3046 JUMPI DUP3 SWAP1 SUB PUSH1 0x1F AND DUP3 ADD SWAP2 JUMPDEST POP POP POP POP POP SWAP1 POP SWAP1 JUMP JUMPDEST PUSH1 0x0 PUSH1 0x2 SLOAD SWAP1 POP SWAP1 JUMP JUMPDEST PUSH1 0x1 ISZERO ISZERO PUSH1 0x12 PUSH1 0x1 SWAP1 SLOAD SWAP1 PUSH2 0x100 EXP SWAP1 DIV PUSH1 0xFF AND ISZERO ISZERO EQ ISZERO PUSH2 0x328E JUMPI PUSH1 0xD PUSH1 0x0 SWAP1 SLOAD SWAP1 PUSH2 0x100 EXP SWAP1 DIV PUSH20 0xFFFFFFFFFFFFFFFFFFFFFFFFFFFFFFFFFFFFFFFF AND PUSH20 0xFFFFFFFFFFFFFFFFFFFFFFFFFFFFFFFFFFFFFFFF AND CALLER PUSH20 0xFFFFFFFFFFFFFFFFFFFFFFFFFFFFFFFFFFFFFFFF AND EQ ISZERO PUSH2 0x31DA JUMPI DUP1 PUSH1 0xC SWAP1 DUP1 MLOAD SWAP1 PUSH1 0x20 ADD SWAP1 PUSH2 0x30FF SWAP3 SWAP2 SWAP1 PUSH2 0x38C0 JUMP JUMPDEST POP PUSH1 0x1 PUSH1 0x12 PUSH1 0x2 PUSH2 0x100 EXP DUP2 SLOAD DUP2 PUSH1 0xFF MUL NOT AND SWAP1 DUP4 ISZERO ISZERO MUL OR SWAP1 SSTORE POP PUSH32 0xD33EF9766528D690B07E88C0480987032706344A5DEAF642EF66A09E7D186A32 PUSH1 0xC PUSH1 0x40 MLOAD DUP1 DUP1 PUSH1 0x20 ADD DUP3 DUP2 SUB DUP3 MSTORE DUP4 DUP2 DUP2 SLOAD PUSH1 0x1 DUP2 PUSH1 0x1 AND ISZERO PUSH2 0x100 MUL SUB AND PUSH1 0x2 SWAP1 DIV DUP2 MSTORE PUSH1 0x20 ADD SWAP2 POP DUP1 SLOAD PUSH1 0x1 DUP2 PUSH1 0x1 AND ISZERO PUSH2 0x100 MUL SUB AND PUSH1 0x2 SWAP1 DIV DUP1 ISZERO PUSH2 0x31C7 JUMPI DUP1 PUSH1 0x1F LT PUSH2 0x319C JUMPI PUSH2 0x100 DUP1 DUP4 SLOAD DIV MUL DUP4 MSTORE SWAP2 PUSH1 0x20 ADD SWAP2 PUSH2 0x31C7 JUMP JUMPDEST DUP3 ADD SWAP2 SWAP1 PUSH1 0x0 MSTORE PUSH1 0x20 PUSH1 0x0 KECCAK256 SWAP1 JUMPDEST DUP2 SLOAD DUP2 MSTORE SWAP1 PUSH1 0x1 ADD SWAP1 PUSH1 0x20 ADD DUP1 DUP4 GT PUSH2 0x31AA JUMPI DUP3 SWAP1 SUB PUSH1 0x1F AND DUP3 ADD SWAP2 JUMPDEST POP POP SWAP3 POP POP POP PUSH1 0x40 MLOAD DUP1 SWAP2 SUB SWAP1 LOG1 PUSH2 0x3289 JUMP JUMPDEST PUSH1 0x0 PUSH1 0x12 PUSH1 0x2 PUSH2 0x100 EXP DUP2 SLOAD DUP2 PUSH1 0xFF MUL NOT AND SWAP1 DUP4 ISZERO ISZERO MUL OR SWAP1 SSTORE POP PUSH1 0x40 MLOAD PUSH32 0x8C379A000000000000000000000000000000000000000000000000000000000 DUP2 MSTORE PUSH1 0x4 ADD DUP1 DUP1 PUSH1 0x20 ADD DUP3 DUP2 SUB DUP3 MSTORE PUSH1 0x31 DUP2 MSTORE PUSH1 0x20 ADD DUP1 PUSH32 0x4F6E6C79207468652073656C6C65722063616E2075706C6F6164206861736820 DUP2 MSTORE PUSH1 0x20 ADD PUSH32 0x76616C7565206F6620746865206B65792E000000000000000000000000000000 DUP2 MSTORE POP PUSH1 0x40 ADD SWAP2 POP POP PUSH1 0x40 MLOAD DUP1 SWAP2 SUB SWAP1 REVERT JUMPDEST PUSH2 0x333D JUMP JUMPDEST PUSH1 0x0 PUSH1 0x12 PUSH1 0x2 PUSH2 0x100 EXP DUP2 SLOAD DUP2 PUSH1 0xFF MUL NOT AND SWAP1 DUP4 ISZERO ISZERO MUL OR SWAP1 SSTORE POP PUSH1 0x40 MLOAD PUSH32 0x8C379A000000000000000000000000000000000000000000000000000000000 DUP2 MSTORE PUSH1 0x4 ADD DUP1 DUP1 PUSH1 0x20 ADD DUP3 DUP2 SUB DUP3 MSTORE PUSH1 0x2B DUP2 MSTORE PUSH1 0x20 ADD DUP1 PUSH32 0x506C656173652075706C6F616420686173682076616C7565206F662074686520 DUP2 MSTORE PUSH1 0x20 ADD PUSH32 0x646174612066697273742E000000000000000000000000000000000000000000 DUP2 MSTORE POP PUSH1 0x40 ADD SWAP2 POP POP PUSH1 0x40 MLOAD DUP1 SWAP2 SUB SWAP1 REVERT JUMPDEST POP JUMP JUMPDEST PUSH1 0x0 PUSH1 0x4 SLOAD SWAP1 POP SWAP1 JUMP JUMPDEST PUSH1 0x10 DUP1 SLOAD PUSH1 0x1 DUP2 PUSH1 0x1 AND ISZERO PUSH2 0x100 MUL SUB AND PUSH1 0x2 SWAP1 DIV DUP1 PUSH1 0x1F ADD PUSH1 0x20 DUP1 SWAP2 DIV MUL PUSH1 0x20 ADD PUSH1 0x40 MLOAD SWAP1 DUP2 ADD PUSH1 0x40 MSTORE DUP1 SWAP3 SWAP2 SWAP1 DUP2 DUP2 MSTORE PUSH1 0x20 ADD DUP3 DUP1 SLOAD PUSH1 0x1 DUP2 PUSH1 0x1 AND ISZERO PUSH2 0x100 MUL SUB AND PUSH1 0x2 SWAP1 DIV DUP1 ISZERO PUSH2 0x33E0 JUMPI DUP1 PUSH1 0x1F LT PUSH2 0x33B5 JUMPI PUSH2 0x100 DUP1 DUP4 SLOAD DIV MUL DUP4 MSTORE SWAP2 PUSH1 0x20 ADD SWAP2 PUSH2 0x33E0 JUMP JUMPDEST DUP3 ADD SWAP2 SWAP1 PUSH1 0x0 MSTORE PUSH1 0x20 PUSH1 0x0 KECCAK256 SWAP1 JUMPDEST DUP2 SLOAD DUP2 MSTORE SWAP1 PUSH1 0x1 ADD SWAP1 PUSH1 0x20 ADD DUP1 DUP4 GT PUSH2 0x33C3 JUMPI DUP3 SWAP1 SUB PUSH1 0x1F AND DUP3 ADD SWAP2 JUMPDEST POP POP POP POP POP DUP2 JUMP JUMPDEST PUSH1 0x0 CALLER PUSH1 0xE PUSH1 0x0 PUSH2 0x100 EXP DUP2 SLOAD DUP2 PUSH20 0xFFFFFFFFFFFFFFFFFFFFFFFFFFFFFFFFFFFFFFFF MUL NOT AND SWAP1 DUP4 PUSH20 0xFFFFFFFFFFFFFFFFFFFFFFFFFFFFFFFFFFFFFFFF AND MUL OR SWAP1 SSTORE POP PUSH1 0x1 ISZERO ISZERO PUSH1 0x12 PUSH1 0x3 SWAP1 SLOAD SWAP1 PUSH2 0x100 EXP SWAP1 DIV PUSH1 0xFF AND ISZERO ISZERO EQ ISZERO PUSH2 0x36C0 JUMPI PUSH1 0xD PUSH1 0x0 SWAP1 SLOAD SWAP1 PUSH2 0x100 EXP SWAP1 DIV PUSH20 0xFFFFFFFFFFFFFFFFFFFFFFFFFFFFFFFFFFFFFFFF AND PUSH20 0xFFFFFFFFFFFFFFFFFFFFFFFFFFFFFFFFFFFFFFFF AND PUSH1 0xE PUSH1 0x0 SWAP1 SLOAD SWAP1 PUSH2 0x100 EXP SWAP1 DIV PUSH20 0xFFFFFFFFFFFFFFFFFFFFFFFFFFFFFFFFFFFFFFFF AND PUSH20 0xFFFFFFFFFFFFFFFFFFFFFFFFFFFFFFFFFFFFFFFF AND EQ ISZERO ISZERO PUSH2 0x3637 JUMPI PUSH1 0x6 SLOAD PUSH1 0x2 SLOAD ADD TIMESTAMP GT ISZERO ISZERO PUSH2 0x35AE JUMPI PUSH1 0x1 PUSH1 0x12 PUSH1 0x4 PUSH2 0x100 EXP DUP2 SLOAD DUP2 PUSH1 0xFF MUL NOT AND SWAP1 DUP4 ISZERO ISZERO MUL OR SWAP1 SSTORE POP PUSH1 0x1 PUSH1 0x12 PUSH1 0xA PUSH2 0x100 EXP DUP2 SLOAD DUP2 PUSH1 0xFF MUL NOT AND SWAP1 DUP4 ISZERO ISZERO MUL OR SWAP1 SSTORE POP PUSH32 0x34D58D6EBD9E354F0D3FCA9B939E2A3D82C2F398B75ECDB738A0A27F5C3049B0 PUSH1 0x0 SLOAD ADDRESS PUSH1 0x40 MLOAD DUP1 DUP4 DUP2 MSTORE PUSH1 0x20 ADD DUP3 PUSH20 0xFFFFFFFFFFFFFFFFFFFFFFFFFFFFFFFFFFFFFFFF AND PUSH20 0xFFFFFFFFFFFFFFFFFFFFFFFFFFFFFFFFFFFFFFFF AND DUP2 MSTORE PUSH1 0x20 ADD SWAP3 POP POP POP PUSH1 0x40 MLOAD DUP1 SWAP2 SUB SWAP1 LOG1 ADDRESS PUSH20 0xFFFFFFFFFFFFFFFFFFFFFFFFFFFFFFFFFFFFFFFF AND PUSH2 0x8FC CALLVALUE SWAP1 DUP2 ISZERO MUL SWAP1 PUSH1 0x40 MLOAD PUSH1 0x0 PUSH1 0x40 MLOAD DUP1 DUP4 SUB DUP2 DUP6 DUP9 DUP9 CALL SWAP4 POP POP POP POP SWAP1 POP PUSH2 0x376F JUMP JUMPDEST PUSH1 0x0 PUSH1 0x12 PUSH1 0xA PUSH2 0x100 EXP DUP2 SLOAD DUP2 PUSH1 0xFF MUL NOT AND SWAP1 DUP4 ISZERO ISZERO MUL OR SWAP1 SSTORE POP PUSH1 0x40 MLOAD PUSH32 0x8C379A000000000000000000000000000000000000000000000000000000000 DUP2 MSTORE PUSH1 0x4 ADD DUP1 DUP1 PUSH1 0x20 ADD DUP3 DUP2 SUB DUP3 MSTORE PUSH1 0x1D DUP2 MSTORE PUSH1 0x20 ADD DUP1 PUSH32 0x54696D652069732072756E206F7574202866697273742073746570292E000000 DUP2 MSTORE POP PUSH1 0x20 ADD SWAP2 POP POP PUSH1 0x40 MLOAD DUP1 SWAP2 SUB SWAP1 REVERT JUMPDEST PUSH1 0x0 PUSH1 0x12 PUSH1 0x4 PUSH2 0x100 EXP DUP2 SLOAD DUP2 PUSH1 0xFF MUL NOT AND SWAP1 DUP4 ISZERO ISZERO MUL OR SWAP1 SSTORE POP PUSH1 0x40 MLOAD PUSH32 0x8C379A000000000000000000000000000000000000000000000000000000000 DUP2 MSTORE PUSH1 0x4 ADD DUP1 DUP1 PUSH1 0x20 ADD DUP3 DUP2 SUB DUP3 MSTORE PUSH1 0x1E DUP2 MSTORE PUSH1 0x20 ADD DUP1 PUSH32 0x53656C6C65722063616E206E6F742073656E6420746865206D6F6E65792E0000 DUP2 MSTORE POP PUSH1 0x20 ADD SWAP2 POP POP PUSH1 0x40 MLOAD DUP1 SWAP2 SUB SWAP1 REVERT JUMPDEST PUSH1 0x0 PUSH1 0x12 PUSH1 0x4 PUSH2 0x100 EXP DUP2 SLOAD DUP2 PUSH1 0xFF MUL NOT AND SWAP1 DUP4 ISZERO ISZERO MUL OR SWAP1 SSTORE POP PUSH1 0x40 MLOAD PUSH32 0x8C379A000000000000000000000000000000000000000000000000000000000 DUP2 MSTORE PUSH1 0x4 ADD DUP1 DUP1 PUSH1 0x20 ADD DUP3 DUP2 SUB DUP3 MSTORE PUSH1 0x21 DUP2 MSTORE PUSH1 0x20 ADD DUP1 PUSH32 0x53656C6C65722073686F756C642073656E64206465706F736974206669727374 DUP2 MSTORE PUSH1 0x20 ADD PUSH32 0x2E00000000000000000000000000000000000000000000000000000000000000 DUP2 MSTORE POP PUSH1 0x40 ADD SWAP2 POP POP PUSH1 0x40 MLOAD DUP1 SWAP2 SUB SWAP1 REVERT JUMPDEST SWAP1 JUMP JUMPDEST PUSH1 0x60 PUSH1 0x8 DUP1 SLOAD PUSH1 0x1 DUP2 PUSH1 0x1 AND ISZERO PUSH2 0x100 MUL SUB AND PUSH1 0x2 SWAP1 DIV DUP1 PUSH1 0x1F ADD PUSH1 0x20 DUP1 SWAP2 DIV MUL PUSH1 0x20 ADD PUSH1 0x40 MLOAD SWAP1 DUP2 ADD PUSH1 0x40 MSTORE DUP1 SWAP3 SWAP2 SWAP1 DUP2 DUP2 MSTORE PUSH1 0x20 ADD DUP3 DUP1 SLOAD PUSH1 0x1 DUP2 PUSH1 0x1 AND ISZERO PUSH2 0x100 MUL SUB AND PUSH1 0x2 SWAP1 DIV DUP1 ISZERO PUSH2 0x380A JUMPI DUP1 PUSH1 0x1F LT PUSH2 0x37DF JUMPI PUSH2 0x100 DUP1 DUP4 SLOAD DIV MUL DUP4 MSTORE SWAP2 PUSH1 0x20 ADD SWAP2 PUSH2 0x380A JUMP JUMPDEST DUP3 ADD SWAP2 SWAP1 PUSH1 0x0 MSTORE PUSH1 0x20 PUSH1 0x0 KECCAK256 SWAP1 JUMPDEST DUP2 SLOAD DUP2 MSTORE SWAP1 PUSH1 0x1 ADD SWAP1 PUSH1 0x20 ADD DUP1 DUP4 GT PUSH2 0x37ED JUMPI DUP3 SWAP1 SUB PUSH1 0x1F AND DUP3 ADD SWAP2 JUMPDEST POP POP POP POP POP SWAP1 POP SWAP1 JUMP JUMPDEST PUSH1 0x0 PUSH1 0x1 SLOAD SWAP1 POP SWAP1 JUMP JUMPDEST PUSH1 0x60 PUSH1 0xC DUP1 SLOAD PUSH1 0x1 DUP2 PUSH1 0x1 AND ISZERO PUSH2 0x100 MUL SUB AND PUSH1 0x2 SWAP1 DIV DUP1 PUSH1 0x1F ADD PUSH1 0x20 DUP1 SWAP2 DIV MUL PUSH1 0x20 ADD PUSH1 0x40 MLOAD SWAP1 DUP2 ADD PUSH1 0x40 MSTORE DUP1 SWAP3 SWAP2 SWAP1 DUP2 DUP2 MSTORE PUSH1 0x20 ADD DUP3 DUP1 SLOAD PUSH1 0x1 DUP2 PUSH1 0x1 AND ISZERO PUSH2 0x100 MUL SUB AND PUSH1 0x2 SWAP1 DIV DUP1 ISZERO PUSH2 0x38B6 JUMPI DUP1 PUSH1 0x1F LT PUSH2 0x388B JUMPI PUSH2 0x100 DUP1 DUP4 SLOAD DIV MUL DUP4 MSTORE SWAP2 PUSH1 0x20 ADD SWAP2 PUSH2 0x38B6 JUMP JUMPDEST DUP3 ADD SWAP2 SWAP1 PUSH1 0x0 MSTORE PUSH1 0x20 PUSH1 0x0 KECCAK256 SWAP1 JUMPDEST DUP2 SLOAD DUP2 MSTORE SWAP1 PUSH1 0x1 ADD SWAP1 PUSH1 0x20 ADD DUP1 DUP4 GT PUSH2 0x3899 JUMPI DUP3 SWAP1 SUB PUSH1 0x1F AND DUP3 ADD SWAP2 JUMPDEST POP POP POP POP POP SWAP1 POP SWAP1 JUMP JUMPDEST DUP3 DUP1 SLOAD PUSH1 0x1 DUP2 PUSH1 0x1 AND ISZERO PUSH2 0x100 MUL SUB AND PUSH1 0x2 SWAP1 DIV SWAP1 PUSH1 0x0 MSTORE PUSH1 0x20 PUSH1 0x0 KECCAK256 SWAP1 PUSH1 0x1F ADD PUSH1 0x20 SWAP1 DIV DUP2 ADD SWAP3 DUP3 PUSH1 0x1F LT PUSH2 0x3901 JUMPI DUP1 MLOAD PUSH1 0xFF NOT AND DUP4 DUP1 ADD OR DUP6 SSTORE PUSH2 0x392F JUMP JUMPDEST DUP3 DUP1 ADD PUSH1 0x1 ADD DUP6 SSTORE DUP3 ISZERO PUSH2 0x392F JUMPI SWAP2 DUP3 ADD JUMPDEST DUP3 DUP2 GT ISZERO PUSH2 0x392E JUMPI DUP3 MLOAD DUP3 SSTORE SWAP2 PUSH1 0x20 ADD SWAP2 SWAP1 PUSH1 0x1 ADD SWAP1 PUSH2 0x3913 JUMP JUMPDEST JUMPDEST POP SWAP1 POP PUSH2 0x393C SWAP2 SWAP1 PUSH2 0x3940 JUMP JUMPDEST POP SWAP1 JUMP JUMPDEST PUSH2 0x3962 SWAP2 SWAP1 JUMPDEST DUP1 DUP3 GT ISZERO PUSH2 0x395E JUMPI PUSH1 0x0 DUP2 PUSH1 0x0 SWAP1 SSTORE POP PUSH1 0x1 ADD PUSH2 0x3946 JUMP JUMPDEST POP SWAP1 JUMP JUMPDEST SWAP1 JUMP STOP LOG1 PUSH6 0x627A7A723058 KECCAK256 XOR CALL 0xe LT SWAP2 MSIZE PUSH11 0x4006399ACB308B0DC299DD PUSH24 0x9003EB4F30674627F6F14B43D80029000000000000000000 "
				},
				"gasEstimates": {
					"creation": {
						"codeDepositCost": "2947400",
						"executionCost": "infinite",
						"totalCost": "infinite"
					},
					"external": {
						"AddressBuyer()": "794",
						"AddressPay()": "838",
						"AddressVerify()": "684",
						"CalHash()": "infinite",
						"CurrTimeInSeconds()": "289",
						"DataAddress()": "infinite",
						"end_transaction()": "infinite",
						"get_amount()": "732",
						"get_balance(address)": "719",
						"get_deposit()": "974",
						"get_enkey()": "infinite",
						"get_hash_data()": "infinite",
						"get_hash_key()": "infinite",
						"get_pubkeyB()": "infinite",
						"report_send(string,string)": "infinite",
						"report_verify(bool)": "43202",
						"send_deposit()": "infinite",
						"send_money()": "infinite",
						"set_amount(uint256)": "62553",
						"show_evidence_reason()": "infinite",
						"show_reason()": "infinite",
						"upload_encryptedkey(string)": "infinite",
						"upload_hash_data(string)": "infinite",
						"upload_hash_key(string)": "infinite",
						"upload_pubkey_buyer(string)": "infinite",
						"view_first()": "842",
						"view_second()": "512",
						"view_third()": "886"
					}
				},
				"methodIdentifiers": {
					"AddressBuyer()": "cc0babc8",
					"AddressPay()": "da9e8919",
					"AddressVerify()": "a0635b66",
					"CalHash()": "2cd88774",
					"CurrTimeInSeconds()": "6cbacea3",
					"DataAddress()": "f0a7c5f9",
					"end_transaction()": "0a7efc5f",
					"get_amount()": "b9e6f1d9",
					"get_balance(address)": "1e279a37",
					"get_deposit()": "f59d8864",
					"get_enkey()": "f36fc111",
					"get_hash_data()": "96eec3cd",
					"get_hash_key()": "f73df8fd",
					"get_pubkeyB()": "dc2457f9",
					"report_send(string,string)": "cd9e32bc",
					"report_verify(bool)": "882851bf",
					"send_deposit()": "8c7c79b5",
					"send_money()": "f1e0bdf4",
					"set_amount(uint256)": "ab8425d8",
					"show_evidence_reason()": "a85ceb3c",
					"show_reason()": "8d2d7288",
					"upload_encryptedkey(string)": "a1d91791",
					"upload_hash_data(string)": "7958f7d5",
					"upload_hash_key(string)": "e0bfebe7",
					"upload_pubkey_buyer(string)": "1ae85959",
					"view_first()": "dec030e4",
					"view_second()": "706f6c5e",
					"view_third()": "ea5d2f0f"
				}
			},
			"userdoc": {
				"methods": {
					"end_transaction()": {
						"notice": "**********************RESULT***********************"
					},
					"get_amount()": {
						"notice": "**********************VIEW***********************"
					},
					"set_amount(uint256)": {
						"notice": "**********************PROCESS***********************"
					}
				}
			}
		}
	}
}